{
  "address": "0xa24b8c7Be6F847ABf4061222987f8Fe29A9dA6b4",
  "abi": [
    {
      "anonymous": false,
      "inputs": [
        {
          "indexed": false,
          "internalType": "uint8",
          "name": "version",
          "type": "uint8"
        }
      ],
      "name": "Initialized",
      "type": "event"
    },
    {
      "inputs": [],
      "name": "TWO_WEEKS",
      "outputs": [
        {
          "internalType": "uint256",
          "name": "",
          "type": "uint256"
        }
      ],
      "stateMutability": "view",
      "type": "function"
    },
    {
      "inputs": [],
      "name": "active_period",
      "outputs": [
        {
          "internalType": "uint256",
          "name": "",
          "type": "uint256"
        }
      ],
      "stateMutability": "view",
      "type": "function"
    },
    {
      "inputs": [],
      "name": "check",
      "outputs": [
        {
          "internalType": "bool",
          "name": "",
          "type": "bool"
        }
      ],
      "stateMutability": "view",
      "type": "function"
    },
    {
      "inputs": [],
      "name": "initialize",
      "outputs": [],
      "stateMutability": "nonpayable",
      "type": "function"
    },
    {
      "inputs": [],
      "name": "period",
      "outputs": [
        {
          "internalType": "uint256",
          "name": "",
          "type": "uint256"
        }
      ],
      "stateMutability": "view",
      "type": "function"
    },
    {
      "inputs": [],
      "name": "update_period",
      "outputs": [
        {
          "internalType": "uint256",
          "name": "",
          "type": "uint256"
        }
      ],
      "stateMutability": "nonpayable",
      "type": "function"
    }
  ],
  "transactionHash": "0x9443ebd2694b0af1f9ec54a9c1e5ec9ee688528bb41378e92f6bb63638393e38",
  "args": [],
  "numDeployments": 2,
  "bytecode": {
    "object": "0x608060405234801561001057600080fd5b506102ba806100206000396000f3fe608060405234801561001057600080fd5b50600436106100625760003560e01c80638129fc1c14610067578063919840ad14610071578063934d1fa41461008e578063d1399608146100a6578063ed29fc11146100af578063ef78d4fd146100b7575b600080fd5b61006f6100bf565b005b6100796101cc565b60405190151581526020015b60405180910390f35b6100986212750081565b604051908152602001610085565b61009860015481565b6100986101e8565b610098610226565b600054610100900460ff16158080156100df5750600054600160ff909116105b806100f95750303b1580156100f9575060005460ff166001145b6101605760405162461bcd60e51b815260206004820152602e60248201527f496e697469616c697a61626c653a20636f6e747261637420697320616c72656160448201526d191e481a5b9a5d1a585b1a5e995960921b606482015260840160405180910390fd5b6000805460ff191660011790558015610183576000805461ff0019166101001790555b80156101c9576000805461ff0019169055604051600181527f7f26b83ff96e1f2b6a682f133852f6798a09c465da95921460cefb38474024989060200160405180910390a15b50565b6001546000906101df621275008261025b565b42101591505090565b6001546000906101fb621275008261025b565b4210610221576212750061020f8142610274565b6102199190610296565b600181905590505b919050565b6000621275006102368142610274565b6102409190610296565b905090565b634e487b7160e01b600052601160045260246000fd5b8082018082111561026e5761026e610245565b92915050565b60008261029157634e487b7160e01b600052601260045260246000fd5b500490565b808202811582820484141761026e5761026e61024556fea164736f6c6343000813000a",
    "linkReferences": {}
  },
  "methodIdentifiers": {
    "TWO_WEEKS()": "934d1fa4",
    "active_period()": "d1399608",
    "check()": "919840ad",
    "initialize()": "8129fc1c",
    "period()": "ef78d4fd",
    "update_period()": "ed29fc11"
  }
}