{
  "address": "0x13E2492a8bb014580719953e8A187AAa9D6C7167",
  "abi": [
    {
      "inputs": [],
      "stateMutability": "nonpayable",
      "type": "constructor"
    },
    {
      "anonymous": false,
      "inputs": [
        {
          "indexed": false,
          "internalType": "uint8",
          "name": "version",
          "type": "uint8"
        }
      ],
      "name": "Initialized",
      "type": "event"
    },
    {
      "anonymous": false,
      "inputs": [
        {
          "indexed": true,
          "internalType": "address",
          "name": "previousOwner",
          "type": "address"
        },
        {
          "indexed": true,
          "internalType": "address",
          "name": "newOwner",
          "type": "address"
        }
      ],
      "name": "OwnershipTransferred",
      "type": "event"
    },
    {
      "inputs": [],
      "name": "activateEmergencyMode",
      "outputs": [],
      "stateMutability": "nonpayable",
      "type": "function"
    },
    {
      "inputs": [
        {
          "internalType": "address",
          "name": "_flywheel",
          "type": "address"
        },
        {
          "internalType": "address",
          "name": "_rewardToken",
          "type": "address"
        },
        {
          "internalType": "address",
          "name": "_ve",
          "type": "address"
        },
        {
          "internalType": "address",
          "name": "_token",
          "type": "address"
        },
        {
          "internalType": "address",
          "name": "_distribution",
          "type": "address"
        },
        {
          "internalType": "address",
          "name": "_internal_bribe",
          "type": "address"
        },
        {
          "internalType": "address",
          "name": "_external_bribe",
          "type": "address"
        }
      ],
      "name": "createMarketGauge",
      "outputs": [
        {
          "internalType": "address",
          "name": "",
          "type": "address"
        }
      ],
      "stateMutability": "nonpayable",
      "type": "function"
    },
    {
      "inputs": [
        {
          "internalType": "address",
          "name": "_rewardToken",
          "type": "address"
        },
        {
          "internalType": "address",
          "name": "_ve",
          "type": "address"
        },
        {
          "internalType": "address",
          "name": "_token",
          "type": "address"
        },
        {
          "internalType": "address",
          "name": "_distribution",
          "type": "address"
        },
        {
          "internalType": "address",
          "name": "_internal_bribe",
          "type": "address"
        },
        {
          "internalType": "address",
          "name": "_external_bribe",
          "type": "address"
        }
      ],
      "name": "createPairGauge",
      "outputs": [
        {
          "internalType": "address",
          "name": "",
          "type": "address"
        }
      ],
      "stateMutability": "nonpayable",
      "type": "function"
    },
    {
      "inputs": [],
      "name": "gaugeLogic",
      "outputs": [
        {
          "internalType": "contract Gauge",
          "name": "",
          "type": "address"
        }
      ],
      "stateMutability": "view",
      "type": "function"
    },
    {
      "inputs": [],
      "name": "gauges",
      "outputs": [
        {
          "internalType": "address[]",
          "name": "",
          "type": "address[]"
        }
      ],
      "stateMutability": "view",
      "type": "function"
    },
    {
      "inputs": [
        {
          "internalType": "contract VoterRolesAuthority",
          "name": "_permissionRegistry",
          "type": "address"
        }
      ],
      "name": "initialize",
      "outputs": [],
      "stateMutability": "nonpayable",
      "type": "function"
    },
    {
      "inputs": [],
      "name": "last_gauge",
      "outputs": [
        {
          "internalType": "address",
          "name": "",
          "type": "address"
        }
      ],
      "stateMutability": "view",
      "type": "function"
    },
    {
      "inputs": [],
      "name": "length",
      "outputs": [
        {
          "internalType": "uint256",
          "name": "",
          "type": "uint256"
        }
      ],
      "stateMutability": "view",
      "type": "function"
    },
    {
      "inputs": [],
      "name": "owner",
      "outputs": [
        {
          "internalType": "address",
          "name": "",
          "type": "address"
        }
      ],
      "stateMutability": "view",
      "type": "function"
    },
    {
      "inputs": [],
      "name": "permissionsRegistry",
      "outputs": [
        {
          "internalType": "contract VoterRolesAuthority",
          "name": "",
          "type": "address"
        }
      ],
      "stateMutability": "view",
      "type": "function"
    },
    {
      "inputs": [],
      "name": "reinitialize",
      "outputs": [],
      "stateMutability": "nonpayable",
      "type": "function"
    },
    {
      "inputs": [],
      "name": "renounceOwnership",
      "outputs": [],
      "stateMutability": "nonpayable",
      "type": "function"
    },
    {
      "inputs": [
        {
          "internalType": "address[]",
          "name": "int_bribe",
          "type": "address[]"
        }
      ],
      "name": "setInternalBribe",
      "outputs": [],
      "stateMutability": "nonpayable",
      "type": "function"
    },
    {
      "inputs": [
        {
          "internalType": "contract VoterRolesAuthority",
          "name": "_registry",
          "type": "address"
        }
      ],
      "name": "setRegistry",
      "outputs": [],
      "stateMutability": "nonpayable",
      "type": "function"
    },
    {
      "inputs": [
        {
          "internalType": "address",
          "name": "voter",
          "type": "address"
        }
      ],
      "name": "setVoter",
      "outputs": [],
      "stateMutability": "nonpayable",
      "type": "function"
    },
    {
      "inputs": [],
      "name": "stopEmergencyMode",
      "outputs": [],
      "stateMutability": "nonpayable",
      "type": "function"
    },
    {
      "inputs": [
        {
          "internalType": "address",
          "name": "newOwner",
          "type": "address"
        }
      ],
      "name": "transferOwnership",
      "outputs": [],
      "stateMutability": "nonpayable",
      "type": "function"
    }
  ],
  "transactionHash": "0x668b6c117ff9cd75b33258d1c98dea86685c1dfc8eb06ec70c46223582906b21",
  "args": [],
  "numDeployments": 2,
  "bytecode": {
    "object": "0x608060405234801561001057600080fd5b5061001961001e565b6100dd565b600054610100900460ff161561008a5760405162461bcd60e51b815260206004820152602760248201527f496e697469616c697a61626c653a20636f6e747261637420697320696e697469604482015266616c697a696e6760c81b606482015260840160405180910390fd5b60005460ff908116146100db576000805460ff191660ff9081179091556040519081527f7f26b83ff96e1f2b6a682f133852f6798a09c465da95921460cefb38474024989060200160405180910390a15b565b61376c806100ec6000396000f3fe60806040523480156200001157600080fd5b5060043610620001215760003560e01c80638da5cb5b11620000af578063c4d66de8116200007a578063c4d66de81462000221578063d00960101462000238578063e1a96fcc1462000242578063e1e9f4701462000259578063f2fde38b146200027057600080fd5b80638da5cb5b14620001da578063a91ee0dc14620001ec578063ae9c9e3f1462000203578063b1534ecd146200021757600080fd5b80636c2eb35011620000f05780636c2eb3501462000199578063715018a614620001a3578063730a8bdb14620001ad578063821bdcf114620001c157600080fd5b80631f7b6d3214620001265780633df8504b146200013c5780634bc2a65714620001695780636759a9511462000182575b600080fd5b6067546040519081526020015b60405180910390f35b60665462000150906001600160a01b031681565b6040516001600160a01b03909116815260200162000133565b620001806200017a366004620010c6565b62000287565b005b620001806200019336600462001103565b6200041f565b62000180620005f2565b62000180620006d8565b60655462000150906001600160a01b031681565b620001cb620006f0565b604051620001339190620011d6565b6033546001600160a01b031662000150565b62000180620001fd366004620010c6565b62000754565b60685462000150906001600160a01b031681565b62000180620007ce565b6200018062000232366004620010c6565b6200093a565b6200018062000a75565b620001506200025336600462001225565b62000bde565b620001506200026a366004620012ca565b62000d6e565b6200018062000281366004620010c6565b62000ef5565b336200029b6033546001600160a01b031690565b6001600160a01b0316148062000332575060665460405163b700961360e01b81526001600160a01b039091169063b700961390620002ee90339030906001600160e01b0319600035169060040162001359565b602060405180830381865afa1580156200030c573d6000803e3d6000fd5b505050506040513d601f19601f8201168201806040525081019062000332919062001386565b620003775760405162461bcd60e51b815260206004820152601060248201526f22a9291d1023a0aaa3a2afa0a226a4a760811b60448201526064015b60405180910390fd5b60005b6067548110156200041b57606781815481106200039b576200039b620013aa565b600091825260209091200154604051634bc2a65760e01b81526001600160a01b03848116600483015290911690634bc2a65790602401600060405180830381600087803b158015620003ec57600080fd5b505af115801562000401573d6000803e3d6000fd5b5050505080806200041290620013c0565b9150506200037a565b5050565b33620004336033546001600160a01b031690565b6001600160a01b03161480620004ca575060665460405163b700961360e01b81526001600160a01b039091169063b7009613906200048690339030906001600160e01b0319600035169060040162001359565b602060405180830381865afa158015620004a4573d6000803e3d6000fd5b505050506040513d601f19601f82011682018060405250810190620004ca919062001386565b6200050b5760405162461bcd60e51b815260206004820152601060248201526f22a9291d1023a0aaa3a2afa0a226a4a760811b60448201526064016200036e565b8051606754146200051b57600080fd5b60005b6067548110156200041b57606781815481106200053f576200053f620013aa565b60009182526020909120015482516001600160a01b03909116906391f25a9490849084908110620005745762000574620013aa565b60200260200101516040518263ffffffff1660e01b8152600401620005a891906001600160a01b0391909116815260200190565b600060405180830381600087803b158015620005c357600080fd5b505af1158015620005d8573d6000803e3d6000fd5b505050508080620005e990620013c0565b9150506200051e565b600054600190610100900460ff1615801562000615575060005460ff8083169116105b620006345760405162461bcd60e51b81526004016200036e90620013e8565b6000805461ffff191660ff831617610100179055604051620006569062001082565b604051809103906000f08015801562000673573d6000803e3d6000fd5b50606880546001600160a01b0319166001600160a01b03929092169190911790556000805461ff001916905560405160ff821681527f7f26b83ff96e1f2b6a682f133852f6798a09c465da95921460cefb38474024989060200160405180910390a150565b620006e262000f71565b620006ee600062000fcd565b565b606060678054806020026020016040519081016040528092919081815260200182805480156200074a57602002820191906000526020600020905b81546001600160a01b031681526001909101906020018083116200072b575b5050505050905090565b33620007686033546001600160a01b031690565b6001600160a01b031614620007ac5760405162461bcd60e51b81526020600482015260096024820152683737ba1037bbb732b960b91b60448201526064016200036e565b606680546001600160a01b0319166001600160a01b0392909216919091179055565b60665460405163b700961360e01b81526001600160a01b039091169063b7009613906200081090339030906001600160e01b0319600035169060040162001359565b602060405180830381865afa1580156200082e573d6000803e3d6000fd5b505050506040513d601f19601f8201168201806040525081019062000854919062001386565b6200089b5760405162461bcd60e51b81526020600482015260166024820152751154948e881153515491d15390d64810d3d55390d25360521b60448201526064016200036e565b60005b606754811015620009375760678181548110620008bf57620008bf620013aa565b60009182526020822001546040805163b1534ecd60e01b815290516001600160a01b039092169263b1534ecd9260048084019382900301818387803b1580156200090857600080fd5b505af11580156200091d573d6000803e3d6000fd5b5050505080806200092e90620013c0565b9150506200089e565b50565b600054610100900460ff16158080156200095b5750600054600160ff909116105b80620009775750303b15801562000977575060005460ff166001145b620009965760405162461bcd60e51b81526004016200036e90620013e8565b6000805460ff191660011790558015620009ba576000805461ff0019166101001790555b620009c46200101f565b606680546001600160a01b0319166001600160a01b038416179055604051620009ed9062001082565b604051809103906000f08015801562000a0a573d6000803e3d6000fd5b50606880546001600160a01b0319166001600160a01b039290921691909117905580156200041b576000805461ff0019169055604051600181527f7f26b83ff96e1f2b6a682f133852f6798a09c465da95921460cefb38474024989060200160405180910390a15050565b60665460405163b700961360e01b81526001600160a01b039091169063b70096139062000ab790339030906001600160e01b0319600035169060040162001359565b602060405180830381865afa15801562000ad5573d6000803e3d6000fd5b505050506040513d601f19601f8201168201806040525081019062000afb919062001386565b62000b425760405162461bcd60e51b81526020600482015260166024820152751154948e881153515491d15390d64810d3d55390d25360521b60448201526064016200036e565b60005b60675481101562000937576067818154811062000b665762000b66620013aa565b600091825260208220015460408051630d00960160e41b815290516001600160a01b039092169263d00960109260048084019382900301818387803b15801562000baf57600080fd5b505af115801562000bc4573d6000803e3d6000fd5b50505050808062000bd590620013c0565b91505062000b45565b60685460009081906001600160a01b031662000c217fb53127684a568b3173ae13b9f8a6016e243e63b6e8ee1178d6a717850b5d6103546001600160a01b031690565b60405162000c2f9062001090565b6001600160a01b03928316815291166020820152606060408201819052600090820152608001604051809103906000f08015801562000c72573d6000803e3d6000fd5b50604051631ac3b23b60e11b81526001600160a01b038b811660048301528a8116602483015289811660448301528881166064830152878116608483015286811660a483015285811660c48301529192509082169063358764769060e401600060405180830381600087803b15801562000ceb57600080fd5b505af115801562000d00573d6000803e3d6000fd5b5050606580546001600160a01b039485166001600160a01b031991821681178355606780546001810182556000919091527f9787eeb91fe3101235e4a76063c7023ecb40f923f97916639c598592fa30d6ae0180549092161790555490921692505050979650505050505050565b60685460009081906001600160a01b031662000db17fb53127684a568b3173ae13b9f8a6016e243e63b6e8ee1178d6a717850b5d6103546001600160a01b031690565b60405162000dbf9062001090565b6001600160a01b03928316815291166020820152606060408201819052600090820152608001604051809103906000f08015801562000e02573d6000803e3d6000fd5b5060405163cc2a9a5b60e01b81526001600160a01b038a81166004830152898116602483015288811660448301528781166064830152868116608483015285811660a48301529192509082169063cc2a9a5b9060c401600060405180830381600087803b15801562000e7357600080fd5b505af115801562000e88573d6000803e3d6000fd5b5050606580546001600160a01b039485166001600160a01b031991821681178355606780546001810182556000919091527f9787eeb91fe3101235e4a76063c7023ecb40f923f97916639c598592fa30d6ae01805490921617905554909216925050509695505050505050565b62000eff62000f71565b6001600160a01b03811662000f665760405162461bcd60e51b815260206004820152602660248201527f4f776e61626c653a206e6577206f776e657220697320746865207a65726f206160448201526564647265737360d01b60648201526084016200036e565b620009378162000fcd565b6033546001600160a01b03163314620006ee5760405162461bcd60e51b815260206004820181905260248201527f4f776e61626c653a2063616c6c6572206973206e6f7420746865206f776e657260448201526064016200036e565b603380546001600160a01b038381166001600160a01b0319831681179093556040519116919082907f8be0079c531659141344cd1fd0a4f28419497f9722a3daafe3b4186f6b6457e090600090a35050565b600054610100900460ff16620010495760405162461bcd60e51b81526004016200036e9062001436565b620006ee600054610100900460ff16620010775760405162461bcd60e51b81526004016200036e9062001436565b620006ee3362000fcd565b6114cd806200148283390190565b610e11806200294f83390190565b6001600160a01b03811681146200093757600080fd5b8035620010c1816200109e565b919050565b600060208284031215620010d957600080fd5b8135620010e6816200109e565b9392505050565b634e487b7160e01b600052604160045260246000fd5b600060208083850312156200111757600080fd5b823567ffffffffffffffff808211156200113057600080fd5b818501915085601f8301126200114557600080fd5b8135818111156200115a576200115a620010ed565b8060051b604051601f19603f83011681018181108582111715620011825762001182620010ed565b604052918252848201925083810185019188831115620011a157600080fd5b938501935b82851015620011ca57620011ba85620010b4565b84529385019392850192620011a6565b98975050505050505050565b6020808252825182820181905260009190848201906040850190845b81811015620012195783516001600160a01b031683529284019291840191600101620011f2565b50909695505050505050565b600080600080600080600060e0888a0312156200124157600080fd5b87356200124e816200109e565b9650602088013562001260816200109e565b9550604088013562001272816200109e565b9450606088013562001284816200109e565b9350608088013562001296816200109e565b925060a0880135620012a8816200109e565b915060c0880135620012ba816200109e565b8091505092959891949750929550565b60008060008060008060c08789031215620012e457600080fd5b8635620012f1816200109e565b9550602087013562001303816200109e565b9450604087013562001315816200109e565b9350606087013562001327816200109e565b9250608087013562001339816200109e565b915060a08701356200134b816200109e565b809150509295509295509295565b6001600160a01b0393841681529190921660208201526001600160e01b0319909116604082015260600190565b6000602082840312156200139957600080fd5b81518015158114620010e657600080fd5b634e487b7160e01b600052603260045260246000fd5b600060018201620013e157634e487b7160e01b600052601160045260246000fd5b5060010190565b6020808252602e908201527f496e697469616c697a61626c653a20636f6e747261637420697320616c72656160408201526d191e481a5b9a5d1a585b1a5e995960921b606082015260800190565b6020808252602b908201527f496e697469616c697a61626c653a20636f6e7472616374206973206e6f74206960408201526a6e697469616c697a696e6760a81b60608201526080019056fe608060405234801561001057600080fd5b5061001961001e565b6100dd565b600054610100900460ff161561008a5760405162461bcd60e51b815260206004820152602760248201527f496e697469616c697a61626c653a20636f6e747261637420697320696e697469604482015266616c697a696e6760c81b606482015260840160405180910390fd5b60005460ff908116146100db576000805460ff191660ff9081179091556040519081527f7f26b83ff96e1f2b6a682f133852f6798a09c465da95921460cefb38474024989060200160405180910390a15b565b6113e1806100ec6000396000f3fe608060405234801561001057600080fd5b50600436106101375760003560e01c806391f25a94116100b8578063d00960101161007c578063d00960101461026a578063d294f09314610272578063d4b839921461027a578063e6ced4011461028d578063f2fde38b146102a3578063f7c618c1146102b657600080fd5b806391f25a941461020c578063b1534ecd1461021f578063b66503cf14610227578063c00007b01461023a578063caa6fea41461024d57600080fd5b80634bc2a657116100ff5780634bc2a657146101ba578063715018a6146101cd578063770f8571146101d55780637acf5b92146101e85780638da5cb5b146101fb57600080fd5b806303fbf83a1461013c5780630e3fbe2b1461016c5780631f85071614610181578063358764761461019457806346c96aac146101a7575b600080fd5b609c5461014f906001600160a01b031681565b6040516001600160a01b0390911681526020015b60405180910390f35b61017f61017a3660046111b5565b6102ce565b005b60995461014f906001600160a01b031681565b61017f6101a23660046111d9565b6102f8565b609a5461014f906001600160a01b031681565b61017f6101c83660046111b5565b610436565b61017f6104ec565b609b5461014f906001600160a01b031681565b609d5461014f906001600160a01b031681565b6065546001600160a01b031661014f565b61017f61021a3660046111b5565b610500565b61017f61052a565b61017f61023536600461126f565b61059b565b61017f6102483660046111b5565b61075f565b60975461025a9060ff1681565b6040519015158152602001610163565b61017f6108a7565b61017f610913565b60985461014f906001600160a01b031681565b610295610917565b604051908152602001610163565b61017f6102b13660046111b5565b61094a565b60975461014f9061010090046001600160a01b031681565b6102d66109c0565b609d80546001600160a01b0319166001600160a01b0392909216919091179055565b600054610100900460ff16158080156103185750600054600160ff909116105b806103325750303b158015610332575060005460ff166001145b61039a5760405162461bcd60e51b815260206004820152602e60248201527f496e697469616c697a61626c653a20636f6e747261637420697320616c72656160448201526d191e481a5b9a5d1a585b1a5e995960921b60648201526084015b60405180910390fd5b6000805460ff1916600117905580156103bd576000805461ff0019166101001790555b6103cb878787878787610a1a565b609d80546001600160a01b0319166001600160a01b038a16179055801561042c576000805461ff0019169055604051600181527f7f26b83ff96e1f2b6a682f133852f6798a09c465da95921460cefb38474024989060200160405180910390a15b5050505050505050565b61043e6109c0565b6001600160a01b0381166104805760405162461bcd60e51b81526020600482015260096024820152683d32b9379030b2323960b91b6044820152606401610391565b609a546001600160a01b03908116908216036104ca5760405162461bcd60e51b815260206004820152600960248201526839b0b6b29030b2323960b91b6044820152606401610391565b609a80546001600160a01b0319166001600160a01b0392909216919091179055565b6104f46109c0565b6104fe6000610ad0565b565b6105086109c0565b609b80546001600160a01b0319166001600160a01b0392909216919091179055565b6105326109c0565b60975460ff1615156001146105595760405162461bcd60e51b81526004016103919061129b565b6097805460ff1916905560405142815230907fa30763a9bc0d8e121a6e721624965cae68010ece74128b4ae5b01b8dc22c00f8906020015b60405180910390a2565b6105a3610b22565b60975460ff16156105c65760405162461bcd60e51b81526004016103919061129b565b609a546001600160a01b031633146106205760405162461bcd60e51b815260206004820152601c60248201527f43616c6c6572206973206e6f7420566f74657220636f6e7472616374000000006044820152606401610391565b6097546001600160a01b0383811661010090920416146106725760405162461bcd60e51b815260206004820152600d60248201526c3737ba103932bb903a37b5b2b760991b6044820152606401610391565b609d5460408051633c11bb9760e21b815290516000926001600160a01b03169163f046ee5c916004808301926020929190829003018187875af11580156106bd573d6000803e3d6000fd5b505050506040513d601f19601f820116820180604052508101906106e191906112be565b90506001600160a01b03811661072e5760405162461bcd60e51b81526020600482015260126024820152711e995c9bc81859191c88199b1e5dda19595b60721b6044820152606401610391565b609a54609754610751916001600160a01b03610100909204821691168385610b7b565b5061075b60018055565b5050565b610767610b22565b609a546001600160a01b031633146107c15760405162461bcd60e51b815260206004820152601c60248201527f43616c6c6572206973206e6f7420566f74657220636f6e7472616374000000006044820152606401610391565b609d54609854604051632e6f912b60e21b81526001600160a01b039182166004820152838216602482015291169063b9be44ac906044016020604051808303816000875af1158015610817573d6000803e3d6000fd5b505050506040513d601f19601f8201168201806040525081019061083b91906112db565b50609d54604051633bd73ee360e21b81526001600160a01b0383811660048301529091169063ef5cfb8c90602401600060405180830381600087803b15801561088357600080fd5b505af1158015610897573d6000803e3d6000fd5b505050506108a460018055565b50565b6108af6109c0565b60975460ff16156108d25760405162461bcd60e51b81526004016103919061129b565b6097805460ff1916600117905560405130907f774b57c3410c76d04ea4d51b0c15a9bac99b0e70f28fd88b53d702b5427fd318906105919042815260200190565b6108a45b6000610921610b22565b610929610be1565b80602001905181019061093c91906112db565b905061094760018055565b90565b6109526109c0565b6001600160a01b0381166109b75760405162461bcd60e51b815260206004820152602660248201527f4f776e61626c653a206e6577206f776e657220697320746865207a65726f206160448201526564647265737360d01b6064820152608401610391565b6108a481610ad0565b6065546001600160a01b031633146104fe5760405162461bcd60e51b815260206004820181905260248201527f4f776e61626c653a2063616c6c6572206973206e6f7420746865206f776e65726044820152606401610391565b600054610100900460ff16610a415760405162461bcd60e51b8152600401610391906112f4565b610a49610e81565b610a51610eb0565b60978054609980546001600160a01b03199081166001600160a01b03998a161790915560988054821697891697909717909655609a8054871695881695909517909455609b8054861693871693909317909255609c8054909416908516179092556001600160a81b031916610100939092169290920260ff1916179055565b606580546001600160a01b038381166001600160a01b0319831681179093556040519116919082907f8be0079c531659141344cd1fd0a4f28419497f9722a3daafe3b4186f6b6457e090600090a35050565b600260015403610b745760405162461bcd60e51b815260206004820152601f60248201527f5265656e7472616e637947756172643a207265656e7472616e742063616c6c006044820152606401610391565b6002600155565b604080516001600160a01b0385811660248301528416604482015260648082018490528251808303909101815260849091019091526020810180516001600160e01b03166323b872dd60e01b179052610bd5908590610edf565b50505050565b60018055565b60606000609860009054906101000a90046001600160a01b03166001600160a01b03166361feacff6040518163ffffffff1660e01b8152600401602060405180830381865afa158015610c38573d6000803e3d6000fd5b505050506040513d601f19601f82011682018060405250810190610c5c91906112db565b90508015610e605760985460405163a7b820df60e01b8152600481018390526001600160a01b039091169063a7b820df906024016020604051808303816000875af1158015610caf573d6000803e3d6000fd5b505050506040513d601f19601f82011682018060405250810190610cd391906112db565b5060985460408051636f307dc360e01b815290516000926001600160a01b031691636f307dc39160048083019260209291908290030181865afa158015610d1e573d6000803e3d6000fd5b505050506040513d601f19601f82011682018060405250810190610d4291906112be565b90508115610e2957609b5460405163095ea7b360e01b81526001600160a01b039182166004820152602481018490529082169063095ea7b3906044016020604051808303816000875af1158015610d9d573d6000803e3d6000fd5b505050506040513d601f19601f82011682018060405250810190610dc1919061133f565b50609b5460405163b66503cf60e01b81526001600160a01b038381166004830152602482018590529091169063b66503cf90604401600060405180830381600087803b158015610e1057600080fd5b505af1158015610e24573d6000803e3d6000fd5b505050505b60405182815233907f1fdd0020358893559713def8b42cad661ffbc755d1a264594027921442bb56a09060200160405180910390a2505b60408051602081018390520160405160208183030381529060405291505090565b600054610100900460ff16610ea85760405162461bcd60e51b8152600401610391906112f4565b6104fe610fb9565b600054610100900460ff16610ed75760405162461bcd60e51b8152600401610391906112f4565b6104fe610fe9565b6000610f34826040518060400160405280602081526020017f5361666545524332303a206c6f772d6c6576656c2063616c6c206661696c6564815250856001600160a01b03166110109092919063ffffffff16565b9050805160001480610f55575080806020019051810190610f55919061133f565b610fb45760405162461bcd60e51b815260206004820152602a60248201527f5361666545524332303a204552433230206f7065726174696f6e20646964206e6044820152691bdd081cdd58d8d9595960b21b6064820152608401610391565b505050565b600054610100900460ff16610fe05760405162461bcd60e51b8152600401610391906112f4565b6104fe33610ad0565b600054610100900460ff16610bdb5760405162461bcd60e51b8152600401610391906112f4565b606061101f8484600085611027565b949350505050565b6060824710156110885760405162461bcd60e51b815260206004820152602660248201527f416464726573733a20696e73756666696369656e742062616c616e636520666f6044820152651c8818d85b1b60d21b6064820152608401610391565b600080866001600160a01b031685876040516110a49190611385565b60006040518083038185875af1925050503d80600081146110e1576040519150601f19603f3d011682016040523d82523d6000602084013e6110e6565b606091505b50915091506110f787838387611102565b979650505050505050565b6060831561117157825160000361116a576001600160a01b0385163b61116a5760405162461bcd60e51b815260206004820152601d60248201527f416464726573733a2063616c6c20746f206e6f6e2d636f6e74726163740000006044820152606401610391565b508161101f565b61101f83838151156111865781518083602001fd5b8060405162461bcd60e51b815260040161039191906113a1565b6001600160a01b03811681146108a457600080fd5b6000602082840312156111c757600080fd5b81356111d2816111a0565b9392505050565b600080600080600080600060e0888a0312156111f457600080fd5b87356111ff816111a0565b9650602088013561120f816111a0565b9550604088013561121f816111a0565b9450606088013561122f816111a0565b9350608088013561123f816111a0565b925060a088013561124f816111a0565b915060c088013561125f816111a0565b8091505092959891949750929550565b6000806040838503121561128257600080fd5b823561128d816111a0565b946020939093013593505050565b602080825260099082015268656d657267656e637960b81b604082015260600190565b6000602082840312156112d057600080fd5b81516111d2816111a0565b6000602082840312156112ed57600080fd5b5051919050565b6020808252602b908201527f496e697469616c697a61626c653a20636f6e7472616374206973206e6f74206960408201526a6e697469616c697a696e6760a81b606082015260800190565b60006020828403121561135157600080fd5b815180151581146111d257600080fd5b60005b8381101561137c578181015183820152602001611364565b50506000910152565b60008251611397818460208701611361565b9190910192915050565b60208152600082518060208401526113c0816040850160208701611361565b601f01601f1916919091016040019291505056fea164736f6c6343000813000a608060405260405162000e1138038062000e11833981016040819052620000269162000424565b828162000036828260006200004d565b50620000449050826200007f565b50505062000557565b6200005883620000f1565b600082511180620000665750805b156200007a5762000078838362000133565b505b505050565b7f7e644d79422f17c01e4894b5f4f588d331ebfa28653d42ae832dc59e38c9798f620000c160008051602062000dca833981519152546001600160a01b031690565b604080516001600160a01b03928316815291841660208301520160405180910390a1620000ee8162000162565b50565b620000fc8162000200565b6040516001600160a01b038216907fbc7cd75a20ee27fd9adebab32041f755214dbc6bffa90cc0225b39da2e5c2d3b90600090a250565b60606200015b838360405180606001604052806027815260200162000dea6027913962000297565b9392505050565b6001600160a01b038116620001cd5760405162461bcd60e51b815260206004820152602660248201527f455243313936373a206e65772061646d696e20697320746865207a65726f206160448201526564647265737360d01b60648201526084015b60405180910390fd5b8060008051602062000dca8339815191525b80546001600160a01b0319166001600160a01b039290921691909117905550565b6001600160a01b0381163b6200026f5760405162461bcd60e51b815260206004820152602d60248201527f455243313936373a206e657720696d706c656d656e746174696f6e206973206e60448201526c1bdd08184818dbdb9d1c9858dd609a1b6064820152608401620001c4565b807f360894a13ba1a3210667c828492db98dca3e2076cc3735a920a3ca505d382bbc620001df565b6060600080856001600160a01b031685604051620002b6919062000504565b600060405180830381855af49150503d8060008114620002f3576040519150601f19603f3d011682016040523d82523d6000602084013e620002f8565b606091505b5090925090506200030c8683838762000316565b9695505050505050565b606083156200038a57825160000362000382576001600160a01b0385163b620003825760405162461bcd60e51b815260206004820152601d60248201527f416464726573733a2063616c6c20746f206e6f6e2d636f6e74726163740000006044820152606401620001c4565b508162000396565b6200039683836200039e565b949350505050565b815115620003af5781518083602001fd5b8060405162461bcd60e51b8152600401620001c4919062000522565b80516001600160a01b0381168114620003e357600080fd5b919050565b634e487b7160e01b600052604160045260246000fd5b60005b838110156200041b57818101518382015260200162000401565b50506000910152565b6000806000606084860312156200043a57600080fd5b6200044584620003cb565b92506200045560208501620003cb565b60408501519092506001600160401b03808211156200047357600080fd5b818601915086601f8301126200048857600080fd5b8151818111156200049d576200049d620003e8565b604051601f8201601f19908116603f01168101908382118183101715620004c857620004c8620003e8565b81604052828152896020848701011115620004e257600080fd5b620004f5836020830160208801620003fe565b80955050505050509250925092565b6000825162000518818460208701620003fe565b9190910192915050565b602081526000825180602084015262000543816040850160208701620003fe565b601f01601f19169190910160400192915050565b61086380620005676000396000f3fe60806040523661001357610011610017565b005b6100115b61001f610169565b6001600160a01b0316330361015f5760606001600160e01b0319600035166364d3180d60e11b810161005a5761005361019c565b9150610157565b63587086bd60e11b6001600160e01b031982160161007a576100536101f3565b63070d7c6960e41b6001600160e01b031982160161009a57610053610239565b621eb96f60e61b6001600160e01b03198216016100b95761005361026a565b63a39f25e560e01b6001600160e01b03198216016100d9576100536102aa565b60405162461bcd60e51b815260206004820152604260248201527f5472616e73706172656e745570677261646561626c6550726f78793a2061646d60448201527f696e2063616e6e6f742066616c6c6261636b20746f2070726f78792074617267606482015261195d60f21b608482015260a4015b60405180910390fd5b815160208301f35b6101676102be565b565b60007fb53127684a568b3173ae13b9f8a6016e243e63b6e8ee1178d6a717850b5d61035b546001600160a01b0316919050565b60606101a66102ce565b60006101b53660048184610683565b8101906101c291906106c9565b90506101df816040518060200160405280600081525060006102d9565b505060408051602081019091526000815290565b60606000806102053660048184610683565b81019061021291906106fa565b91509150610222828260016102d9565b604051806020016040528060008152509250505090565b60606102436102ce565b60006102523660048184610683565b81019061025f91906106c9565b90506101df81610305565b60606102746102ce565b600061027e610169565b604080516001600160a01b03831660208201529192500160405160208183030381529060405291505090565b60606102b46102ce565b600061027e61035c565b6101676102c961035c565b61036b565b341561016757600080fd5b6102e28361038f565b6000825111806102ef5750805b15610300576102fe83836103cf565b505b505050565b7f7e644d79422f17c01e4894b5f4f588d331ebfa28653d42ae832dc59e38c9798f61032e610169565b604080516001600160a01b03928316815291841660208301520160405180910390a1610359816103fb565b50565b60006103666104a4565b905090565b3660008037600080366000845af43d6000803e80801561038a573d6000f35b3d6000fd5b610398816104cc565b6040516001600160a01b038216907fbc7cd75a20ee27fd9adebab32041f755214dbc6bffa90cc0225b39da2e5c2d3b90600090a250565b60606103f4838360405180606001604052806027815260200161083060279139610560565b9392505050565b6001600160a01b0381166104605760405162461bcd60e51b815260206004820152602660248201527f455243313936373a206e65772061646d696e20697320746865207a65726f206160448201526564647265737360d01b606482015260840161014e565b807fb53127684a568b3173ae13b9f8a6016e243e63b6e8ee1178d6a717850b5d61035b80546001600160a01b0319166001600160a01b039290921691909117905550565b60007f360894a13ba1a3210667c828492db98dca3e2076cc3735a920a3ca505d382bbc61018d565b6001600160a01b0381163b6105395760405162461bcd60e51b815260206004820152602d60248201527f455243313936373a206e657720696d706c656d656e746174696f6e206973206e60448201526c1bdd08184818dbdb9d1c9858dd609a1b606482015260840161014e565b807f360894a13ba1a3210667c828492db98dca3e2076cc3735a920a3ca505d382bbc610483565b6060600080856001600160a01b03168560405161057d91906107e0565b600060405180830381855af49150503d80600081146105b8576040519150601f19603f3d011682016040523d82523d6000602084013e6105bd565b606091505b50915091506105ce868383876105d8565b9695505050505050565b60608315610647578251600003610640576001600160a01b0385163b6106405760405162461bcd60e51b815260206004820152601d60248201527f416464726573733a2063616c6c20746f206e6f6e2d636f6e7472616374000000604482015260640161014e565b5081610651565b6106518383610659565b949350505050565b8151156106695781518083602001fd5b8060405162461bcd60e51b815260040161014e91906107fc565b6000808585111561069357600080fd5b838611156106a057600080fd5b5050820193919092039150565b80356001600160a01b03811681146106c457600080fd5b919050565b6000602082840312156106db57600080fd5b6103f4826106ad565b634e487b7160e01b600052604160045260246000fd5b6000806040838503121561070d57600080fd5b610716836106ad565b9150602083013567ffffffffffffffff8082111561073357600080fd5b818501915085601f83011261074757600080fd5b813581811115610759576107596106e4565b604051601f8201601f19908116603f01168101908382118183101715610781576107816106e4565b8160405282815288602084870101111561079a57600080fd5b8260208601602083013760006020848301015280955050505050509250929050565b60005b838110156107d75781810151838201526020016107bf565b50506000910152565b600082516107f28184602087016107bc565b9190910192915050565b602081526000825180602084015261081b8160408501602087016107bc565b601f01601f1916919091016040019291505056fe416464726573733a206c6f772d6c6576656c2064656c65676174652063616c6c206661696c6564a164736f6c6343000813000ab53127684a568b3173ae13b9f8a6016e243e63b6e8ee1178d6a717850b5d6103416464726573733a206c6f772d6c6576656c2064656c65676174652063616c6c206661696c6564a164736f6c6343000813000a",
    "linkReferences": {}
  },
  "methodIdentifiers": {
    "activateEmergencyMode()": "d0096010",
    "createMarketGauge(address,address,address,address,address,address,address)": "e1a96fcc",
    "createPairGauge(address,address,address,address,address,address)": "e1e9f470",
    "gaugeLogic()": "ae9c9e3f",
    "gauges()": "821bdcf1",
    "initialize(address)": "c4d66de8",
    "last_gauge()": "730a8bdb",
    "length()": "1f7b6d32",
    "owner()": "8da5cb5b",
    "permissionsRegistry()": "3df8504b",
    "reinitialize()": "6c2eb350",
    "renounceOwnership()": "715018a6",
    "setInternalBribe(address[])": "6759a951",
    "setRegistry(address)": "a91ee0dc",
    "setVoter(address)": "4bc2a657",
    "stopEmergencyMode()": "b1534ecd",
    "transferOwnership(address)": "f2fde38b"
  }
}