{
  "address": "0x0C4829f48263c4418a0854C93669e61D999C122f",
  "abi": [
    {
      "inputs": [],
      "stateMutability": "nonpayable",
      "type": "constructor"
    },
    {
      "anonymous": false,
      "inputs": [
        {
          "indexed": true,
          "internalType": "address",
          "name": "user",
          "type": "address"
        },
        {
          "indexed": true,
          "internalType": "contract Authority",
          "name": "newAuthority",
          "type": "address"
        }
      ],
      "name": "AuthorityUpdated",
      "type": "event"
    },
    {
      "anonymous": false,
      "inputs": [
        {
          "indexed": false,
          "internalType": "uint8",
          "name": "version",
          "type": "uint8"
        }
      ],
      "name": "Initialized",
      "type": "event"
    },
    {
      "anonymous": false,
      "inputs": [
        {
          "indexed": true,
          "internalType": "address",
          "name": "user",
          "type": "address"
        },
        {
          "indexed": true,
          "internalType": "address",
          "name": "newOwner",
          "type": "address"
        }
      ],
      "name": "OwnershipTransferred",
      "type": "event"
    },
    {
      "anonymous": false,
      "inputs": [
        {
          "indexed": true,
          "internalType": "address",
          "name": "target",
          "type": "address"
        },
        {
          "indexed": true,
          "internalType": "bytes4",
          "name": "functionSig",
          "type": "bytes4"
        },
        {
          "indexed": false,
          "internalType": "bool",
          "name": "enabled",
          "type": "bool"
        }
      ],
      "name": "PublicCapabilityUpdated",
      "type": "event"
    },
    {
      "anonymous": false,
      "inputs": [
        {
          "indexed": true,
          "internalType": "uint8",
          "name": "role",
          "type": "uint8"
        },
        {
          "indexed": true,
          "internalType": "address",
          "name": "target",
          "type": "address"
        },
        {
          "indexed": true,
          "internalType": "bytes4",
          "name": "functionSig",
          "type": "bytes4"
        },
        {
          "indexed": false,
          "internalType": "bool",
          "name": "enabled",
          "type": "bool"
        }
      ],
      "name": "RoleCapabilityUpdated",
      "type": "event"
    },
    {
      "anonymous": false,
      "inputs": [
        {
          "indexed": true,
          "internalType": "address",
          "name": "user",
          "type": "address"
        },
        {
          "indexed": true,
          "internalType": "uint8",
          "name": "role",
          "type": "uint8"
        },
        {
          "indexed": false,
          "internalType": "bool",
          "name": "enabled",
          "type": "bool"
        }
      ],
      "name": "UserRoleUpdated",
      "type": "event"
    },
    {
      "inputs": [],
      "name": "authority",
      "outputs": [
        {
          "internalType": "contract Authority",
          "name": "",
          "type": "address"
        }
      ],
      "stateMutability": "view",
      "type": "function"
    },
    {
      "inputs": [
        {
          "internalType": "address",
          "name": "user",
          "type": "address"
        },
        {
          "internalType": "address",
          "name": "target",
          "type": "address"
        },
        {
          "internalType": "bytes4",
          "name": "functionSig",
          "type": "bytes4"
        }
      ],
      "name": "canCall",
      "outputs": [
        {
          "internalType": "bool",
          "name": "",
          "type": "bool"
        }
      ],
      "stateMutability": "view",
      "type": "function"
    },
    {
      "inputs": [
        {
          "internalType": "uint8",
          "name": "role",
          "type": "uint8"
        },
        {
          "internalType": "address",
          "name": "target",
          "type": "address"
        },
        {
          "internalType": "bytes4",
          "name": "functionSig",
          "type": "bytes4"
        }
      ],
      "name": "doesRoleHaveCapability",
      "outputs": [
        {
          "internalType": "bool",
          "name": "",
          "type": "bool"
        }
      ],
      "stateMutability": "view",
      "type": "function"
    },
    {
      "inputs": [
        {
          "internalType": "address",
          "name": "user",
          "type": "address"
        },
        {
          "internalType": "uint8",
          "name": "role",
          "type": "uint8"
        }
      ],
      "name": "doesUserHaveRole",
      "outputs": [
        {
          "internalType": "bool",
          "name": "",
          "type": "bool"
        }
      ],
      "stateMutability": "view",
      "type": "function"
    },
    {
      "inputs": [
        {
          "internalType": "address",
          "name": "",
          "type": "address"
        },
        {
          "internalType": "bytes4",
          "name": "",
          "type": "bytes4"
        }
      ],
      "name": "getRolesWithCapability",
      "outputs": [
        {
          "internalType": "bytes32",
          "name": "",
          "type": "bytes32"
        }
      ],
      "stateMutability": "view",
      "type": "function"
    },
    {
      "inputs": [
        {
          "internalType": "address",
          "name": "",
          "type": "address"
        }
      ],
      "name": "getUserRoles",
      "outputs": [
        {
          "internalType": "bytes32",
          "name": "",
          "type": "bytes32"
        }
      ],
      "stateMutability": "view",
      "type": "function"
    },
    {
      "inputs": [
        {
          "internalType": "address",
          "name": "_owner",
          "type": "address"
        }
      ],
      "name": "initialize",
      "outputs": [],
      "stateMutability": "nonpayable",
      "type": "function"
    },
    {
      "inputs": [
        {
          "internalType": "address",
          "name": "",
          "type": "address"
        },
        {
          "internalType": "bytes4",
          "name": "",
          "type": "bytes4"
        }
      ],
      "name": "isCapabilityPublic",
      "outputs": [
        {
          "internalType": "bool",
          "name": "",
          "type": "bool"
        }
      ],
      "stateMutability": "view",
      "type": "function"
    },
    {
      "inputs": [],
      "name": "owner",
      "outputs": [
        {
          "internalType": "address",
          "name": "",
          "type": "address"
        }
      ],
      "stateMutability": "view",
      "type": "function"
    },
    {
      "inputs": [
        {
          "internalType": "contract Authority",
          "name": "newAuthority",
          "type": "address"
        }
      ],
      "name": "setAuthority",
      "outputs": [],
      "stateMutability": "nonpayable",
      "type": "function"
    },
    {
      "inputs": [
        {
          "internalType": "address",
          "name": "target",
          "type": "address"
        },
        {
          "internalType": "bytes4",
          "name": "functionSig",
          "type": "bytes4"
        },
        {
          "internalType": "bool",
          "name": "enabled",
          "type": "bool"
        }
      ],
      "name": "setPublicCapability",
      "outputs": [],
      "stateMutability": "nonpayable",
      "type": "function"
    },
    {
      "inputs": [
        {
          "internalType": "uint8",
          "name": "role",
          "type": "uint8"
        },
        {
          "internalType": "address",
          "name": "target",
          "type": "address"
        },
        {
          "internalType": "bytes4",
          "name": "functionSig",
          "type": "bytes4"
        },
        {
          "internalType": "bool",
          "name": "enabled",
          "type": "bool"
        }
      ],
      "name": "setRoleCapability",
      "outputs": [],
      "stateMutability": "nonpayable",
      "type": "function"
    },
    {
      "inputs": [
        {
          "internalType": "address",
          "name": "user",
          "type": "address"
        },
        {
          "internalType": "uint8",
          "name": "role",
          "type": "uint8"
        },
        {
          "internalType": "bool",
          "name": "enabled",
          "type": "bool"
        }
      ],
      "name": "setUserRole",
      "outputs": [],
      "stateMutability": "nonpayable",
      "type": "function"
    },
    {
      "inputs": [
        {
          "internalType": "address",
          "name": "newOwner",
          "type": "address"
        }
      ],
      "name": "transferOwnership",
      "outputs": [],
      "stateMutability": "nonpayable",
      "type": "function"
    }
  ],
  "transactionHash": "0x6c81a4d238b0840483c83ea1fb37e55453ad286b9b74bed29a902f5a023cca75",
  "args": [],
  "numDeployments": 1,
  "bytecode": {
    "object": "0x608060405234801561001057600080fd5b50600080546001600160a01b03199081168255600180549091169055604051819081908190819033907f8be0079c531659141344cd1fd0a4f28419497f9722a3daafe3b4186f6b6457e0908390a36040516001600160a01b0382169033907fa3396fd7f6e0a21b50e5089d2da70d5ac0a3bbbd1f617a93f134b7638998019890600090a3505050506100a66100ab60201b60201c565b61016a565b600554610100900460ff16156101175760405162461bcd60e51b815260206004820152602760248201527f496e697469616c697a61626c653a20636f6e747261637420697320696e697469604482015266616c697a696e6760c81b606482015260840160405180910390fd5b60055460ff90811614610168576005805460ff191660ff9081179091556040519081527f7f26b83ff96e1f2b6a682f133852f6798a09c465da95921460cefb38474024989060200160405180910390a15b565b610baa806101796000396000f3fe608060405234801561001057600080fd5b50600436106100ea5760003560e01c8063b4bad06a1161008c578063c4d66de811610066578063c4d66de814610264578063c6b0263e14610277578063ea7ca2761461028a578063f2fde38b146102c157600080fd5b8063b4bad06a146101f1578063b70096131461023e578063bf7e214f1461025157600080fd5b80637917b794116100c85780637917b794146101755780637a9e5e4b146101a05780637d40583d146101b35780638da5cb5b146101c657600080fd5b806306a36aee146100ef5780632f47571f1461012257806367aff48414610160575b600080fd5b61010f6100fd366004610938565b60026020526000908152604090205481565b6040519081526020015b60405180910390f35b610150610130366004610979565b600360209081526000928352604080842090915290825290205460ff1681565b6040519015158152602001610119565b61017361016e3660046109cd565b6102d4565b005b61010f610183366004610979565b600460209081526000928352604080842090915290825290205481565b6101736101ae366004610938565b6103b2565b6101736101c1366004610a16565b61049c565b6000546101d9906001600160a01b031681565b6040516001600160a01b039091168152602001610119565b6101506101ff366004610a6e565b6001600160a01b039190911660009081526004602090815260408083206001600160e01b031990941683529290522054600160ff929092161c16151590565b61015061024c366004610ab3565b6105a7565b6001546101d9906001600160a01b031681565b610173610272366004610938565b610626565b610173610285366004610ad3565b610759565b610150610298366004610b01565b6001600160a01b0391909116600090815260026020526040902054600160ff9092161c16151590565b6101736102cf366004610938565b6107fa565b6102ea336000356001600160e01b031916610877565b61030f5760405162461bcd60e51b815260040161030690610b2d565b60405180910390fd5b801561033e576001600160a01b03831660009081526002602052604090208054600160ff85161b179055610364565b6001600160a01b03831660009081526002602052604090208054600160ff85161b191690555b8160ff16836001600160a01b03167f4c9bdd0c8e073eb5eda2250b18d8e5121ff27b62064fbeeeed4869bb99bc5bf2836040516103a5911515815260200190565b60405180910390a3505050565b6000546001600160a01b0316331480610447575060015460405163b700961360e01b81526001600160a01b039091169063b70096139061040690339030906001600160e01b03196000351690600401610b53565b602060405180830381865afa158015610423573d6000803e3d6000fd5b505050506040513d601f19601f820116820180604052508101906104479190610b80565b61045057600080fd5b600180546001600160a01b0319166001600160a01b03831690811790915560405133907fa3396fd7f6e0a21b50e5089d2da70d5ac0a3bbbd1f617a93f134b7638998019890600090a350565b6104b2336000356001600160e01b031916610877565b6104ce5760405162461bcd60e51b815260040161030690610b2d565b8015610512576001600160a01b03831660009081526004602090815260408083206001600160e01b03198616845290915290208054600160ff87161b17905561054d565b6001600160a01b03831660009081526004602090815260408083206001600160e01b03198616845290915290208054600160ff87161b191690555b816001600160e01b031916836001600160a01b03168560ff167fa52ea92e6e955aa8ac66420b86350f7139959adfcc7e6a14eee1bd116d09860e84604051610599911515815260200190565b60405180910390a450505050565b6001600160a01b03821660009081526003602090815260408083206001600160e01b03198516845290915281205460ff168061061e57506001600160a01b0380841660009081526004602090815260408083206001600160e01b031987168452825280832054938816835260029091529020541615155b949350505050565b600554610100900460ff16158080156106465750600554600160ff909116105b806106605750303b158015610660575060055460ff166001145b6106c35760405162461bcd60e51b815260206004820152602e60248201527f496e697469616c697a61626c653a20636f6e747261637420697320616c72656160448201526d191e481a5b9a5d1a585b1a5e995960921b6064820152608401610306565b6005805460ff1916600117905580156106e6576005805461ff0019166101001790555b600080546001600160a01b0384166001600160a01b03199182161790915560018054909116301790558015610755576005805461ff0019169055604051600181527f7f26b83ff96e1f2b6a682f133852f6798a09c465da95921460cefb38474024989060200160405180910390a15b5050565b61076f336000356001600160e01b031916610877565b61078b5760405162461bcd60e51b815260040161030690610b2d565b6001600160a01b03831660008181526003602090815260408083206001600160e01b0319871680855290835292819020805460ff191686151590811790915590519081529192917f950a343f5d10445e82a71036d3f4fb3016180a25805141932543b83e2078a93e91016103a5565b610810336000356001600160e01b031916610877565b61082c5760405162461bcd60e51b815260040161030690610b2d565b600080546001600160a01b0319166001600160a01b0383169081178255604051909133917f8be0079c531659141344cd1fd0a4f28419497f9722a3daafe3b4186f6b6457e09190a350565b6001546000906001600160a01b03168015801590610901575060405163b700961360e01b81526001600160a01b0382169063b7009613906108c090879030908890600401610b53565b602060405180830381865afa1580156108dd573d6000803e3d6000fd5b505050506040513d601f19601f820116820180604052508101906109019190610b80565b8061061e57506000546001600160a01b03858116911614949350505050565b6001600160a01b038116811461093557600080fd5b50565b60006020828403121561094a57600080fd5b813561095581610920565b9392505050565b80356001600160e01b03198116811461097457600080fd5b919050565b6000806040838503121561098c57600080fd5b823561099781610920565b91506109a56020840161095c565b90509250929050565b803560ff8116811461097457600080fd5b801515811461093557600080fd5b6000806000606084860312156109e257600080fd5b83356109ed81610920565b92506109fb602085016109ae565b91506040840135610a0b816109bf565b809150509250925092565b60008060008060808587031215610a2c57600080fd5b610a35856109ae565b93506020850135610a4581610920565b9250610a536040860161095c565b91506060850135610a63816109bf565b939692955090935050565b600080600060608486031215610a8357600080fd5b610a8c846109ae565b92506020840135610a9c81610920565b9150610aaa6040850161095c565b90509250925092565b600080600060608486031215610ac857600080fd5b8335610a8c81610920565b600080600060608486031215610ae857600080fd5b8335610af381610920565b92506109fb6020850161095c565b60008060408385031215610b1457600080fd5b8235610b1f81610920565b91506109a5602084016109ae565b6020808252600c908201526b15539055551213d49256915160a21b604082015260600190565b6001600160a01b0393841681529190921660208201526001600160e01b0319909116604082015260600190565b600060208284031215610b9257600080fd5b8151610955816109bf56fea164736f6c634300080d000a",
    "linkReferences": {}
  },
  "methodIdentifiers": {
    "authority()": "bf7e214f",
    "canCall(address,address,bytes4)": "b7009613",
    "doesRoleHaveCapability(uint8,address,bytes4)": "b4bad06a",
    "doesUserHaveRole(address,uint8)": "ea7ca276",
    "getRolesWithCapability(address,bytes4)": "7917b794",
    "getUserRoles(address)": "06a36aee",
    "initialize(address)": "c4d66de8",
    "isCapabilityPublic(address,bytes4)": "2f47571f",
    "owner()": "8da5cb5b",
    "setAuthority(address)": "7a9e5e4b",
    "setPublicCapability(address,bytes4,bool)": "c6b0263e",
    "setRoleCapability(uint8,address,bytes4,bool)": "7d40583d",
    "setUserRole(address,uint8,bool)": "67aff484",
    "transferOwnership(address)": "f2fde38b"
  }
}