{
  "address": "0xdbf7411f7FdaD6EF674C9E16e15835B0B7d7456d",
  "abi": [
    {
      "inputs": [],
      "stateMutability": "nonpayable",
      "type": "constructor"
    },
    {
      "anonymous": false,
      "inputs": [
        {
          "indexed": false,
          "internalType": "uint256",
          "name": "tokenId",
          "type": "uint256"
        },
        {
          "indexed": false,
          "internalType": "uint256",
          "name": "weight",
          "type": "uint256"
        }
      ],
      "name": "Abstained",
      "type": "event"
    },
    {
      "anonymous": false,
      "inputs": [
        {
          "indexed": true,
          "internalType": "address",
          "name": "sender",
          "type": "address"
        },
        {
          "indexed": true,
          "internalType": "address",
          "name": "gauge",
          "type": "address"
        },
        {
          "indexed": false,
          "internalType": "uint256",
          "name": "amount",
          "type": "uint256"
        }
      ],
      "name": "DistributeReward",
      "type": "event"
    },
    {
      "anonymous": false,
      "inputs": [
        {
          "indexed": true,
          "internalType": "address",
          "name": "gauge",
          "type": "address"
        }
      ],
      "name": "GaugeKilled",
      "type": "event"
    },
    {
      "anonymous": false,
      "inputs": [
        {
          "indexed": true,
          "internalType": "address",
          "name": "gauge",
          "type": "address"
        }
      ],
      "name": "GaugeRevived",
      "type": "event"
    },
    {
      "anonymous": false,
      "inputs": [
        {
          "indexed": false,
          "internalType": "uint8",
          "name": "version",
          "type": "uint8"
        }
      ],
      "name": "Initialized",
      "type": "event"
    },
    {
      "anonymous": false,
      "inputs": [
        {
          "indexed": true,
          "internalType": "address",
          "name": "gauge",
          "type": "address"
        },
        {
          "indexed": false,
          "internalType": "address",
          "name": "creator",
          "type": "address"
        },
        {
          "indexed": false,
          "internalType": "address",
          "name": "internal_bribe",
          "type": "address"
        },
        {
          "indexed": true,
          "internalType": "address",
          "name": "external_bribe",
          "type": "address"
        },
        {
          "indexed": true,
          "internalType": "address",
          "name": "target",
          "type": "address"
        }
      ],
      "name": "MarketGaugeCreated",
      "type": "event"
    },
    {
      "anonymous": false,
      "inputs": [
        {
          "indexed": true,
          "internalType": "address",
          "name": "sender",
          "type": "address"
        },
        {
          "indexed": true,
          "internalType": "address",
          "name": "reward",
          "type": "address"
        },
        {
          "indexed": false,
          "internalType": "uint256",
          "name": "amount",
          "type": "uint256"
        }
      ],
      "name": "NotifyReward",
      "type": "event"
    },
    {
      "anonymous": false,
      "inputs": [
        {
          "indexed": true,
          "internalType": "address",
          "name": "previousOwner",
          "type": "address"
        },
        {
          "indexed": true,
          "internalType": "address",
          "name": "newOwner",
          "type": "address"
        }
      ],
      "name": "OwnershipTransferred",
      "type": "event"
    },
    {
      "anonymous": false,
      "inputs": [
        {
          "indexed": true,
          "internalType": "address",
          "name": "gauge",
          "type": "address"
        },
        {
          "indexed": false,
          "internalType": "address",
          "name": "creator",
          "type": "address"
        },
        {
          "indexed": false,
          "internalType": "address",
          "name": "internal_bribe",
          "type": "address"
        },
        {
          "indexed": true,
          "internalType": "address",
          "name": "external_bribe",
          "type": "address"
        },
        {
          "indexed": true,
          "internalType": "address",
          "name": "market",
          "type": "address"
        }
      ],
      "name": "PairGaugeCreated",
      "type": "event"
    },
    {
      "anonymous": false,
      "inputs": [
        {
          "indexed": true,
          "internalType": "address",
          "name": "voter",
          "type": "address"
        },
        {
          "indexed": false,
          "internalType": "uint256",
          "name": "tokenId",
          "type": "uint256"
        },
        {
          "indexed": false,
          "internalType": "uint256",
          "name": "weight",
          "type": "uint256"
        }
      ],
      "name": "Voted",
      "type": "event"
    },
    {
      "inputs": [],
      "name": "MAX_VOTE_DELAY",
      "outputs": [
        {
          "internalType": "uint256",
          "name": "",
          "type": "uint256"
        }
      ],
      "stateMutability": "view",
      "type": "function"
    },
    {
      "inputs": [],
      "name": "_epochTimestamp",
      "outputs": [
        {
          "internalType": "uint256",
          "name": "",
          "type": "uint256"
        }
      ],
      "stateMutability": "view",
      "type": "function"
    },
    {
      "inputs": [],
      "name": "_gaugeFactories",
      "outputs": [
        {
          "internalType": "address[]",
          "name": "",
          "type": "address[]"
        }
      ],
      "stateMutability": "view",
      "type": "function"
    },
    {
      "inputs": [],
      "name": "_ve",
      "outputs": [
        {
          "internalType": "address",
          "name": "",
          "type": "address"
        }
      ],
      "stateMutability": "view",
      "type": "function"
    },
    {
      "inputs": [
        {
          "internalType": "address",
          "name": "_gaugeFactory",
          "type": "address"
        }
      ],
      "name": "addFactory",
      "outputs": [],
      "stateMutability": "nonpayable",
      "type": "function"
    },
    {
      "inputs": [],
      "name": "bribeFactory",
      "outputs": [
        {
          "internalType": "address",
          "name": "",
          "type": "address"
        }
      ],
      "stateMutability": "view",
      "type": "function"
    },
    {
      "inputs": [
        {
          "internalType": "address[]",
          "name": "_bribes",
          "type": "address[]"
        },
        {
          "internalType": "address[][]",
          "name": "_tokens",
          "type": "address[][]"
        },
        {
          "internalType": "uint256",
          "name": "_tokenId",
          "type": "uint256"
        }
      ],
      "name": "claimBribes",
      "outputs": [],
      "stateMutability": "nonpayable",
      "type": "function"
    },
    {
      "inputs": [
        {
          "internalType": "address[]",
          "name": "_bribes",
          "type": "address[]"
        },
        {
          "internalType": "address[][]",
          "name": "_tokens",
          "type": "address[][]"
        }
      ],
      "name": "claimBribes",
      "outputs": [],
      "stateMutability": "nonpayable",
      "type": "function"
    },
    {
      "inputs": [
        {
          "internalType": "address[]",
          "name": "_fees",
          "type": "address[]"
        },
        {
          "internalType": "address[][]",
          "name": "_tokens",
          "type": "address[][]"
        },
        {
          "internalType": "uint256",
          "name": "_tokenId",
          "type": "uint256"
        }
      ],
      "name": "claimFees",
      "outputs": [],
      "stateMutability": "nonpayable",
      "type": "function"
    },
    {
      "inputs": [
        {
          "internalType": "address[]",
          "name": "_bribes",
          "type": "address[]"
        },
        {
          "internalType": "address[][]",
          "name": "_tokens",
          "type": "address[][]"
        }
      ],
      "name": "claimFees",
      "outputs": [],
      "stateMutability": "nonpayable",
      "type": "function"
    },
    {
      "inputs": [
        {
          "internalType": "address[]",
          "name": "_gauges",
          "type": "address[]"
        }
      ],
      "name": "claimRewards",
      "outputs": [],
      "stateMutability": "nonpayable",
      "type": "function"
    },
    {
      "inputs": [
        {
          "internalType": "address",
          "name": "",
          "type": "address"
        }
      ],
      "name": "claimable",
      "outputs": [
        {
          "internalType": "uint256",
          "name": "",
          "type": "uint256"
        }
      ],
      "stateMutability": "view",
      "type": "function"
    },
    {
      "inputs": [
        {
          "internalType": "address",
          "name": "_target",
          "type": "address"
        },
        {
          "internalType": "address",
          "name": "_flywheel",
          "type": "address"
        }
      ],
      "name": "createMarketGauge",
      "outputs": [
        {
          "internalType": "address",
          "name": "_gauge",
          "type": "address"
        },
        {
          "internalType": "address",
          "name": "_internal_bribe",
          "type": "address"
        },
        {
          "internalType": "address",
          "name": "_external_bribe",
          "type": "address"
        }
      ],
      "stateMutability": "nonpayable",
      "type": "function"
    },
    {
      "inputs": [
        {
          "internalType": "address[]",
          "name": "_targets",
          "type": "address[]"
        },
        {
          "internalType": "address[]",
          "name": "_flywheels",
          "type": "address[]"
        }
      ],
      "name": "createMarketGauges",
      "outputs": [
        {
          "internalType": "address[]",
          "name": "",
          "type": "address[]"
        },
        {
          "internalType": "address[]",
          "name": "",
          "type": "address[]"
        },
        {
          "internalType": "address[]",
          "name": "",
          "type": "address[]"
        }
      ],
      "stateMutability": "nonpayable",
      "type": "function"
    },
    {
      "inputs": [
        {
          "internalType": "address",
          "name": "_target",
          "type": "address"
        }
      ],
      "name": "createPairGauge",
      "outputs": [
        {
          "internalType": "address",
          "name": "_gauge",
          "type": "address"
        },
        {
          "internalType": "address",
          "name": "_internal_bribe",
          "type": "address"
        },
        {
          "internalType": "address",
          "name": "_external_bribe",
          "type": "address"
        }
      ],
      "stateMutability": "nonpayable",
      "type": "function"
    },
    {
      "inputs": [
        {
          "internalType": "address[]",
          "name": "_targets",
          "type": "address[]"
        }
      ],
      "name": "createPairGauges",
      "outputs": [
        {
          "internalType": "address[]",
          "name": "",
          "type": "address[]"
        },
        {
          "internalType": "address[]",
          "name": "",
          "type": "address[]"
        },
        {
          "internalType": "address[]",
          "name": "",
          "type": "address[]"
        }
      ],
      "stateMutability": "nonpayable",
      "type": "function"
    },
    {
      "inputs": [
        {
          "internalType": "address[]",
          "name": "_gauges",
          "type": "address[]"
        }
      ],
      "name": "distribute",
      "outputs": [],
      "stateMutability": "nonpayable",
      "type": "function"
    },
    {
      "inputs": [
        {
          "internalType": "uint256",
          "name": "start",
          "type": "uint256"
        },
        {
          "internalType": "uint256",
          "name": "finish",
          "type": "uint256"
        }
      ],
      "name": "distribute",
      "outputs": [],
      "stateMutability": "nonpayable",
      "type": "function"
    },
    {
      "inputs": [],
      "name": "distributeAll",
      "outputs": [],
      "stateMutability": "nonpayable",
      "type": "function"
    },
    {
      "inputs": [
        {
          "internalType": "address[]",
          "name": "_gauges",
          "type": "address[]"
        }
      ],
      "name": "distributeFees",
      "outputs": [],
      "stateMutability": "nonpayable",
      "type": "function"
    },
    {
      "inputs": [
        {
          "internalType": "address",
          "name": "",
          "type": "address"
        }
      ],
      "name": "external_bribes",
      "outputs": [
        {
          "internalType": "address",
          "name": "",
          "type": "address"
        }
      ],
      "stateMutability": "view",
      "type": "function"
    },
    {
      "inputs": [
        {
          "internalType": "uint256",
          "name": "",
          "type": "uint256"
        }
      ],
      "name": "gaugeFactories",
      "outputs": [
        {
          "internalType": "address",
          "name": "",
          "type": "address"
        }
      ],
      "stateMutability": "view",
      "type": "function"
    },
    {
      "inputs": [],
      "name": "gaugeFactoriesLength",
      "outputs": [
        {
          "internalType": "uint256",
          "name": "",
          "type": "uint256"
        }
      ],
      "stateMutability": "view",
      "type": "function"
    },
    {
      "inputs": [],
      "name": "gaugeFactory",
      "outputs": [
        {
          "internalType": "address",
          "name": "",
          "type": "address"
        }
      ],
      "stateMutability": "view",
      "type": "function"
    },
    {
      "inputs": [
        {
          "internalType": "address",
          "name": "",
          "type": "address"
        }
      ],
      "name": "gauges",
      "outputs": [
        {
          "internalType": "address",
          "name": "",
          "type": "address"
        }
      ],
      "stateMutability": "view",
      "type": "function"
    },
    {
      "inputs": [
        {
          "internalType": "address",
          "name": "",
          "type": "address"
        }
      ],
      "name": "gaugesDistributionTimestamp",
      "outputs": [
        {
          "internalType": "uint256",
          "name": "",
          "type": "uint256"
        }
      ],
      "stateMutability": "view",
      "type": "function"
    },
    {
      "inputs": [
        {
          "internalType": "address",
          "name": "_gauge",
          "type": "address"
        }
      ],
      "name": "increaseGaugeApprovals",
      "outputs": [],
      "stateMutability": "nonpayable",
      "type": "function"
    },
    {
      "inputs": [
        {
          "internalType": "address",
          "name": "__ve",
          "type": "address"
        },
        {
          "internalType": "address",
          "name": "_gauges",
          "type": "address"
        },
        {
          "internalType": "address",
          "name": "_bribes",
          "type": "address"
        },
        {
          "internalType": "address",
          "name": "_minter",
          "type": "address"
        },
        {
          "internalType": "contract VoterRolesAuthority",
          "name": "_permissionsRegistry",
          "type": "address"
        }
      ],
      "name": "initialize",
      "outputs": [],
      "stateMutability": "nonpayable",
      "type": "function"
    },
    {
      "inputs": [
        {
          "internalType": "address",
          "name": "",
          "type": "address"
        }
      ],
      "name": "internal_bribes",
      "outputs": [
        {
          "internalType": "address",
          "name": "",
          "type": "address"
        }
      ],
      "stateMutability": "view",
      "type": "function"
    },
    {
      "inputs": [
        {
          "internalType": "address",
          "name": "",
          "type": "address"
        }
      ],
      "name": "isAlive",
      "outputs": [
        {
          "internalType": "bool",
          "name": "",
          "type": "bool"
        }
      ],
      "stateMutability": "view",
      "type": "function"
    },
    {
      "inputs": [
        {
          "internalType": "address",
          "name": "",
          "type": "address"
        }
      ],
      "name": "isGauge",
      "outputs": [
        {
          "internalType": "bool",
          "name": "",
          "type": "bool"
        }
      ],
      "stateMutability": "view",
      "type": "function"
    },
    {
      "inputs": [
        {
          "internalType": "address",
          "name": "",
          "type": "address"
        }
      ],
      "name": "isGaugeFactory",
      "outputs": [
        {
          "internalType": "bool",
          "name": "",
          "type": "bool"
        }
      ],
      "stateMutability": "view",
      "type": "function"
    },
    {
      "inputs": [
        {
          "internalType": "address",
          "name": "_gauge",
          "type": "address"
        }
      ],
      "name": "killGauge",
      "outputs": [],
      "stateMutability": "nonpayable",
      "type": "function"
    },
    {
      "inputs": [
        {
          "internalType": "uint256",
          "name": "",
          "type": "uint256"
        }
      ],
      "name": "lastVoted",
      "outputs": [
        {
          "internalType": "uint256",
          "name": "",
          "type": "uint256"
        }
      ],
      "stateMutability": "view",
      "type": "function"
    },
    {
      "inputs": [],
      "name": "length",
      "outputs": [
        {
          "internalType": "uint256",
          "name": "",
          "type": "uint256"
        }
      ],
      "stateMutability": "view",
      "type": "function"
    },
    {
      "inputs": [],
      "name": "minter",
      "outputs": [
        {
          "internalType": "address",
          "name": "",
          "type": "address"
        }
      ],
      "stateMutability": "view",
      "type": "function"
    },
    {
      "inputs": [
        {
          "internalType": "uint256",
          "name": "amount",
          "type": "uint256"
        }
      ],
      "name": "notifyRewardAmount",
      "outputs": [],
      "stateMutability": "nonpayable",
      "type": "function"
    },
    {
      "inputs": [],
      "name": "owner",
      "outputs": [
        {
          "internalType": "address",
          "name": "",
          "type": "address"
        }
      ],
      "stateMutability": "view",
      "type": "function"
    },
    {
      "inputs": [],
      "name": "permissionRegistry",
      "outputs": [
        {
          "internalType": "contract VoterRolesAuthority",
          "name": "",
          "type": "address"
        }
      ],
      "stateMutability": "view",
      "type": "function"
    },
    {
      "inputs": [
        {
          "internalType": "uint256",
          "name": "_tokenId",
          "type": "uint256"
        }
      ],
      "name": "poke",
      "outputs": [],
      "stateMutability": "nonpayable",
      "type": "function"
    },
    {
      "inputs": [
        {
          "internalType": "uint256",
          "name": "_pos",
          "type": "uint256"
        }
      ],
      "name": "removeFactory",
      "outputs": [],
      "stateMutability": "nonpayable",
      "type": "function"
    },
    {
      "inputs": [],
      "name": "renounceOwnership",
      "outputs": [],
      "stateMutability": "nonpayable",
      "type": "function"
    },
    {
      "inputs": [
        {
          "internalType": "address",
          "name": "_gaugeFactory",
          "type": "address"
        },
        {
          "internalType": "uint256",
          "name": "_pos",
          "type": "uint256"
        }
      ],
      "name": "replaceFactory",
      "outputs": [],
      "stateMutability": "nonpayable",
      "type": "function"
    },
    {
      "inputs": [
        {
          "internalType": "uint256",
          "name": "_tokenId",
          "type": "uint256"
        }
      ],
      "name": "reset",
      "outputs": [],
      "stateMutability": "nonpayable",
      "type": "function"
    },
    {
      "inputs": [
        {
          "internalType": "address",
          "name": "_gauge",
          "type": "address"
        }
      ],
      "name": "reviveGauge",
      "outputs": [],
      "stateMutability": "nonpayable",
      "type": "function"
    },
    {
      "inputs": [
        {
          "internalType": "address",
          "name": "_bribeFactory",
          "type": "address"
        }
      ],
      "name": "setBribeFactory",
      "outputs": [],
      "stateMutability": "nonpayable",
      "type": "function"
    },
    {
      "inputs": [
        {
          "internalType": "address",
          "name": "_gauge",
          "type": "address"
        },
        {
          "internalType": "address",
          "name": "_external",
          "type": "address"
        }
      ],
      "name": "setExternalBribeFor",
      "outputs": [],
      "stateMutability": "nonpayable",
      "type": "function"
    },
    {
      "inputs": [
        {
          "internalType": "address",
          "name": "_gaugeFactory",
          "type": "address"
        }
      ],
      "name": "setGaugeFactory",
      "outputs": [],
      "stateMutability": "nonpayable",
      "type": "function"
    },
    {
      "inputs": [
        {
          "internalType": "address",
          "name": "_gauge",
          "type": "address"
        },
        {
          "internalType": "address",
          "name": "_internal",
          "type": "address"
        }
      ],
      "name": "setInternalBribeFor",
      "outputs": [],
      "stateMutability": "nonpayable",
      "type": "function"
    },
    {
      "inputs": [
        {
          "internalType": "address",
          "name": "_gauge",
          "type": "address"
        },
        {
          "internalType": "address",
          "name": "_internal",
          "type": "address"
        },
        {
          "internalType": "address",
          "name": "_external",
          "type": "address"
        }
      ],
      "name": "setNewBribes",
      "outputs": [],
      "stateMutability": "nonpayable",
      "type": "function"
    },
    {
      "inputs": [
        {
          "internalType": "contract VoterRolesAuthority",
          "name": "_permissionRegistry",
          "type": "address"
        }
      ],
      "name": "setPermissionsRegistry",
      "outputs": [],
      "stateMutability": "nonpayable",
      "type": "function"
    },
    {
      "inputs": [
        {
          "internalType": "uint256",
          "name": "_delay",
          "type": "uint256"
        }
      ],
      "name": "setVoteDelay",
      "outputs": [],
      "stateMutability": "nonpayable",
      "type": "function"
    },
    {
      "inputs": [
        {
          "internalType": "address",
          "name": "",
          "type": "address"
        }
      ],
      "name": "targetForGauge",
      "outputs": [
        {
          "internalType": "address",
          "name": "",
          "type": "address"
        }
      ],
      "stateMutability": "view",
      "type": "function"
    },
    {
      "inputs": [
        {
          "internalType": "uint256",
          "name": "",
          "type": "uint256"
        },
        {
          "internalType": "uint256",
          "name": "",
          "type": "uint256"
        }
      ],
      "name": "targetVote",
      "outputs": [
        {
          "internalType": "address",
          "name": "",
          "type": "address"
        }
      ],
      "stateMutability": "view",
      "type": "function"
    },
    {
      "inputs": [
        {
          "internalType": "uint256",
          "name": "tokenId",
          "type": "uint256"
        }
      ],
      "name": "targetVoteLength",
      "outputs": [
        {
          "internalType": "uint256",
          "name": "",
          "type": "uint256"
        }
      ],
      "stateMutability": "view",
      "type": "function"
    },
    {
      "inputs": [
        {
          "internalType": "uint256",
          "name": "",
          "type": "uint256"
        }
      ],
      "name": "targets",
      "outputs": [
        {
          "internalType": "address",
          "name": "",
          "type": "address"
        }
      ],
      "stateMutability": "view",
      "type": "function"
    },
    {
      "inputs": [],
      "name": "totalWeight",
      "outputs": [
        {
          "internalType": "uint256",
          "name": "",
          "type": "uint256"
        }
      ],
      "stateMutability": "view",
      "type": "function"
    },
    {
      "inputs": [
        {
          "internalType": "uint256",
          "name": "_time",
          "type": "uint256"
        }
      ],
      "name": "totalWeightAt",
      "outputs": [
        {
          "internalType": "uint256",
          "name": "",
          "type": "uint256"
        }
      ],
      "stateMutability": "view",
      "type": "function"
    },
    {
      "inputs": [
        {
          "internalType": "address",
          "name": "newOwner",
          "type": "address"
        }
      ],
      "name": "transferOwnership",
      "outputs": [],
      "stateMutability": "nonpayable",
      "type": "function"
    },
    {
      "inputs": [
        {
          "internalType": "uint256",
          "name": "",
          "type": "uint256"
        }
      ],
      "name": "usedWeights",
      "outputs": [
        {
          "internalType": "uint256",
          "name": "",
          "type": "uint256"
        }
      ],
      "stateMutability": "view",
      "type": "function"
    },
    {
      "inputs": [
        {
          "internalType": "uint256",
          "name": "_tokenId",
          "type": "uint256"
        },
        {
          "internalType": "address[]",
          "name": "_targetVote",
          "type": "address[]"
        },
        {
          "internalType": "uint256[]",
          "name": "_weights",
          "type": "uint256[]"
        }
      ],
      "name": "vote",
      "outputs": [],
      "stateMutability": "nonpayable",
      "type": "function"
    },
    {
      "inputs": [],
      "name": "voteDelay",
      "outputs": [
        {
          "internalType": "uint256",
          "name": "",
          "type": "uint256"
        }
      ],
      "stateMutability": "view",
      "type": "function"
    },
    {
      "inputs": [
        {
          "internalType": "uint256",
          "name": "",
          "type": "uint256"
        },
        {
          "internalType": "address",
          "name": "",
          "type": "address"
        }
      ],
      "name": "votes",
      "outputs": [
        {
          "internalType": "uint256",
          "name": "",
          "type": "uint256"
        }
      ],
      "stateMutability": "view",
      "type": "function"
    },
    {
      "inputs": [
        {
          "internalType": "address",
          "name": "_target",
          "type": "address"
        }
      ],
      "name": "weights",
      "outputs": [
        {
          "internalType": "uint256",
          "name": "",
          "type": "uint256"
        }
      ],
      "stateMutability": "view",
      "type": "function"
    },
    {
      "inputs": [
        {
          "internalType": "address",
          "name": "_target",
          "type": "address"
        },
        {
          "internalType": "uint256",
          "name": "_time",
          "type": "uint256"
        }
      ],
      "name": "weightsAt",
      "outputs": [
        {
          "internalType": "uint256",
          "name": "",
          "type": "uint256"
        }
      ],
      "stateMutability": "view",
      "type": "function"
    }
  ],
  "transactionHash": "0x74c2ce5437df3f6e8e06c8340de0df88191621c347d8cb8f1ffaf1eb56fce23f",
  "args": [],
  "numDeployments": 2,
  "bytecode": {
    "object": "0x60806040523480156200001157600080fd5b506200001c62000022565b620000e3565b600054610100900460ff16156200008f5760405162461bcd60e51b815260206004820152602760248201527f496e697469616c697a61626c653a20636f6e747261637420697320696e697469604482015266616c697a696e6760c81b606482015260840160405180910390fd5b60005460ff90811614620000e1576000805460ff191660ff9081179091556040519081527f7f26b83ff96e1f2b6a682f133852f6798a09c465da95921460cefb38474024989060200160405180910390a15b565b6151f580620000f36000396000f3fe608060405234801561001057600080fd5b50600436106103db5760003560e01c806379e938241161020a578063b52a315111610125578063d23254b4116100b8578063eb4a78e011610087578063eb4a78e014610961578063f2fde38b14610974578063f3594be014610987578063f8803bb6146109a7578063f9f031df146109af57600080fd5b8063d23254b4146108da578063daa168bd14610905578063e6da045714610918578063eae40f261461093857600080fd5b8063c1294495116100f4578063c129449514610878578063c2b79e98146108a1578063c527ee1f146108b4578063c991866d146108c757600080fd5b8063b52a315114610821578063b55a5c1c14610829578063b7c89f9c1461083c578063b9a09fd51461084f57600080fd5b80639f06247b1161019d578063a9b5aa7e1161016c578063a9b5aa7e146107af578063aa79979b146107c2578063ae21c4cb146107e5578063b0f502781461080e57600080fd5b80639f06247b146107615780639fb5dc0514610774578063a4388c9714610789578063a7cac8461461079c57600080fd5b80638da5cb5b116101d95780638da5cb5b146107225780638dd598fb1461073357806396c82e5714610746578063992a79331461074e57600080fd5b806379e93824146106c95780637ac09bf7146106e9578063842eb3a9146106fc5780638b6fc2471461070f57600080fd5b80633dfe8c06116102fa5780636138889b1161028d5780636c4f2e381161025c5780636c4f2e3814610691578063715018a61461069b5780637625391a146106a35780637715ee75146106b657600080fd5b80636138889b14610635578063636056f214610648578063657021fb1461065b578063666256aa1461067e57600080fd5b806354944b13116102c957806354944b13146105e9578063556e091d146105fc578063577387b51461060f5780635c6c28681461062257600080fd5b80633dfe8c061461057f578063402914f5146105a1578063436596c4146105c157806353be568d146105c957600080fd5b806323e1af421161037257806332145f901161034157806332145f901461050957806333832a6a1461051c5780633c6b16ab1461052f5780633df66dd11461054257600080fd5b806323e1af42146104c7578063292fc979146104da57806329ce1ec5146104e3578063310bd74b146104f657600080fd5b80631459457a116103ae5780631459457a146104645780631703e5f9146104795780631f7b6d32146104ac57806323130d11146104b457600080fd5b806305118b3b146103e057806307546172146104135780630a39ce021461043e5780630d52333c14610451575b600080fd5b6104006103ee3660046147c0565b600090815260a8602052604090205490565b6040519081526020015b60405180910390f35b60b054610426906001600160a01b031681565b6040516001600160a01b03909116815260200161040a565b61042661044c3660046147c0565b6109c2565b609954610426906001600160a01b031681565b6104776104723660046147ee565b6109ec565b005b61049c61048736600461485f565b60ae6020526000908152604090205460ff1681565b604051901515815260200161040a565b609d54610400565b6104776104c236600461485f565b610c34565b6104266104d53660046147c0565b610d07565b610400609f5481565b6104776104f136600461485f565b610d17565b6104776105043660046147c0565b610ec5565b6104776105173660046147c0565b610ffb565b61047761052a36600461485f565b611213565b61047761053d3660046147c0565b6112e6565b61055561055036600461485f565b611424565b604080516001600160a01b039485168152928416602084015292169181019190915260600161040a565b61059261058d366004614960565b611452565b60405161040a93929190614a07565b6104006105af36600461485f565b60a16020526000908152604090205481565b610477611684565b6104006105d73660046147c0565b600090815260aa602052604090205490565b6105556105f7366004614a4a565b61177f565b61047761060a36600461485f565b6117a7565b61047761061d3660046147c0565b611982565b610477610630366004614a83565b611b05565b610477610643366004614aaf565b611cec565b610400610656366004614a83565b611db9565b61049c61066936600461485f565b60af6020526000908152604090205460ff1681565b61047761068c366004614b6a565b611de3565b610400620d2f0081565b610477611f29565b6104776106b1366004614bd6565b611f3b565b6104776106c4366004614b6a565b611ffe565b6104006106d73660046147c0565b60ab6020526000908152604090205481565b6104776106f7366004614c43565b61213e565b61059261070a366004614aaf565b6122b8565b61047761071d3660046147c0565b61248d565b6033546001600160a01b0316610426565b609754610426906001600160a01b031681565b6104006125c7565b61047761075c36600461485f565b6125e7565b61047761076f36600461485f565b6126e0565b61077c612841565b60405161040a9190614cbc565b610426610797366004614bd6565b6128a3565b6104006107aa36600461485f565b6128db565b6104776107bd36600461485f565b612912565b61049c6107d036600461485f565b60ad6020526000908152604090205460ff1681565b6104266107f336600461485f565b60a6602052600090815260409020546001600160a01b031681565b61047761081c366004614ccf565b6129e5565b609a54610400565b609c54610426906001600160a01b031681565b61047761084a366004614a4a565b612b12565b61042661085d36600461485f565b60a2602052600090815260409020546001600160a01b031681565b61042661088636600461485f565b60a4602052600090815260409020546001600160a01b031681565b6104776108af366004614d1a565b612c29565b6104776108c2366004614aaf565b612cdf565b6104776108d5366004614d1a565b612df1565b6104006108e8366004614d73565b60a760209081526000928352604080842090915290825290205481565b610477610913366004614a4a565b612ea2565b61040061092636600461485f565b60a36020526000908152604090205481565b61042661094636600461485f565b60a5602052600090815260409020546001600160a01b031681565b609b54610426906001600160a01b031681565b61047761098236600461485f565b612fb9565b6104006109953660046147c0565b60ac6020526000908152604090205481565b61040061302f565b6104776109bd366004614aaf565b6130a2565b609d81815481106109d257600080fd5b6000918252602090912001546001600160a01b0316905081565b600054610100900460ff1615808015610a0c5750600054600160ff909116105b80610a265750303b158015610a26575060005460ff166001145b610a8e5760405162461bcd60e51b815260206004820152602e60248201527f496e697469616c697a61626c653a20636f6e747261637420697320616c72656160448201526d191e481a5b9a5d1a585b1a5e995960921b60648201526084015b60405180910390fd5b6000805460ff191660011790558015610ab1576000805461ff0019166101001790555b610ab9613138565b610ac1613167565b609780546001600160a01b0319166001600160a01b03881690811790915560408051637e062a3560e11b8152905163fc0c546a916004808201926020929091908290030181865afa158015610b1a573d6000803e3d6000fd5b505050506040513d601f19601f82011682018060405250810190610b3e9190614d98565b609880546001600160a01b03199081166001600160a01b0393841617909155609980548216888416908117909155609a805460018181019092557f44da158ba27f9252712a74ff6a55c5d531f69609f1f6e7f17c4443a8e2089be4018054841683179055600091825260af60205260408220805460ff19169091179055609b8054831688851617905560b080548316878516179055609c8054909216928516929092179055609f558015610c2c576000805461ff0019169055604051600181527f7f26b83ff96e1f2b6a682f133852f6798a09c465da95921460cefb38474024989060200160405180910390a15b505050505050565b6033546001600160a01b0316331480610cc95750609c5460405163b700961360e01b81526001600160a01b039091169063b700961390610c8890339030906001600160e01b03196000351690600401614db5565b602060405180830381865afa158015610ca5573d6000803e3d6000fd5b505050506040513d601f19601f82011682018060405250810190610cc99190614de2565b610ce55760405162461bcd60e51b8152600401610a8590614e04565b609980546001600160a01b0319166001600160a01b0392909216919091179055565b609a81815481106109d257600080fd5b6033546001600160a01b0316331480610dac5750609c5460405163b700961360e01b81526001600160a01b039091169063b700961390610d6b90339030906001600160e01b03196000351690600401614db5565b602060405180830381865afa158015610d88573d6000803e3d6000fd5b505050506040513d601f19601f82011682018060405250810190610dac9190614de2565b610dc85760405162461bcd60e51b8152600401610a8590614e04565b6001600160a01b038116610e075760405162461bcd60e51b815260206004820152600660248201526506164647220360d41b6044820152606401610a85565b6001600160a01b038116600090815260af602052604090205460ff1615610e5e5760405162461bcd60e51b815260206004820152600b60248201526a672e66616374207472756560a81b6044820152606401610a85565b609a805460018181019092557f44da158ba27f9252712a74ff6a55c5d531f69609f1f6e7f17c4443a8e2089be40180546001600160a01b039093166001600160a01b031990931683179055600091825260af6020526040909120805460ff19169091179055565b610ecd613196565b610ed6816131ef565b60975460405163430c208160e01b81526001600160a01b039091169063430c208190610f089033908590600401614e2e565b602060405180830381865afa158015610f25573d6000803e3d6000fd5b505050506040513d601f19601f82011682018060405250810190610f499190614de2565b610f655760405162461bcd60e51b8152600401610a8590614e47565b610f6e8161324b565b60975460405163c1f0fb9f60e01b8152600481018390526001600160a01b039091169063c1f0fb9f90602401600060405180830381600087803b158015610fb457600080fd5b505af1158015610fc8573d6000803e3d6000fd5b50505050610fd461302f565b610fdf906001614e8c565b600082815260ac6020526040902055610ff86001606555565b50565b611003613196565b61100c816131ef565b60975460405163430c208160e01b81526001600160a01b039091169063430c20819061103e9033908590600401614e2e565b602060405180830381865afa15801561105b573d6000803e3d6000fd5b505050506040513d601f19601f8201168201806040525081019061107f9190614de2565b61109b5760405162461bcd60e51b8152600401610a8590614e47565b600081815260a860209081526040808320805482518185028101850190935280835291929091908301828280156110fb57602002820191906000526020600020905b81546001600160a01b031681526001909101906020018083116110dd575b505050505090506000815190506000816001600160401b0381111561112257611122614883565b60405190808252806020026020018201604052801561114b578160200160208202803683370190505b50905060005b828110156111d85760a76000868152602001908152602001600020600085838151811061118057611180614e9f565b60200260200101516001600160a01b03166001600160a01b03168152602001908152602001600020548282815181106111bb576111bb614e9f565b6020908102919091010152806111d081614eb5565b915050611151565b506111e4848483613419565b6111ec61302f565b6111f7906001614e8c565b600085815260ac602052604090205550610ff891506134129050565b6033546001600160a01b03163314806112a85750609c5460405163b700961360e01b81526001600160a01b039091169063b70096139061126790339030906001600160e01b03196000351690600401614db5565b602060405180830381865afa158015611284573d6000803e3d6000fd5b505050506040513d601f19601f820116820180604052508101906112a89190614de2565b6112c45760405162461bcd60e51b8152600401610a8590614e04565b609c80546001600160a01b0319166001600160a01b0392909216919091179055565b60b060009054906101000a90046001600160a01b03166001600160a01b031663ed29fc116040518163ffffffff1660e01b81526004016020604051808303816000875af115801561133b573d6000803e3d6000fd5b505050506040513d601f19601f8201168201806040525081019061135f9190614ece565b50609854611378906001600160a01b03163330846137f8565b60006113936212750061138961302f565b6105d79190614ee7565b9050600081156113bd57816113b084670de0b6b3a7640000614efa565b6113ba9190614f11565b90505b80156113db5780609e60008282546113d59190614e8c565b90915550505b6098546040518481526001600160a01b039091169033907ff70d5c697de7ea828df48e5c4573cb2194c659f1901f70110c52b066dcf508269060200160405180910390a3505050565b6000806000611431613196565b61143a84613949565b9194509250905061144b6001606555565b9193909250565b606080606061145f613196565b835185511461149b5760405162461bcd60e51b81526020600482015260086024820152673632b7103234b33360c11b6044820152606401610a85565b600a855111156114d65760405162461bcd60e51b815260206004820152600660248201526506d61782031360d41b6044820152606401610a85565b600085516001600160401b038111156114f1576114f1614883565b60405190808252806020026020018201604052801561151a578160200160208202803683370190505b509050600086516001600160401b0381111561153857611538614883565b604051908082528060200260200182016040528015611561578160200160208202803683370190505b509050600087516001600160401b0381111561157f5761157f614883565b6040519080825280602002602001820160405280156115a8578160200160208202803683370190505b50905060005b885181101561166b576115f38982815181106115cc576115cc614e9f565b60200260200101518983815181106115e6576115e6614e9f565b6020026020010151613f5c565b86848151811061160557611605614e9f565b6020026020010186858151811061161e5761161e614e9f565b6020026020010186868151811061163757611637614e9f565b6001600160a01b0394851660209182029290920101529282169092529190911690528061166381614eb5565b9150506115ae565b509194509250905061167d6001606555565b9250925092565b61168c613196565b60b060009054906101000a90046001600160a01b03166001600160a01b031663ed29fc116040518163ffffffff1660e01b81526004016020604051808303816000875af11580156116e1573d6000803e3d6000fd5b505050506040513d601f19601f820116820180604052508101906117059190614ece565b50609d546000905b808210156117715761175f60a26000609d858154811061172f5761172f614e9f565b60009182526020808320909101546001600160a01b03908116845290830193909352604090910190205416614365565b8161176981614eb5565b92505061170d565b505061177d6001606555565b565b600080600061178c613196565b6117968585613f5c565b9194509250905061167d6001606555565b6033546001600160a01b031633148061183c5750609c5460405163b700961360e01b81526001600160a01b039091169063b7009613906117fb90339030906001600160e01b03196000351690600401614db5565b602060405180830381865afa158015611818573d6000803e3d6000fd5b505050506040513d601f19601f8201168201806040525081019061183c9190614de2565b6118585760405162461bcd60e51b8152600401610a8590614e04565b6001600160a01b038116600090815260ad602052604090205460ff166118905760405162461bcd60e51b8152600401610a8590614f33565b60985460405163095ea7b360e01b81526001600160a01b039091169063095ea7b3906118c3908490600090600401614e2e565b6020604051808303816000875af11580156118e2573d6000803e3d6000fd5b505050506040513d601f19601f820116820180604052508101906119069190614de2565b5060985460405163095ea7b360e01b81526001600160a01b039091169063095ea7b39061193b90849060001990600401614e2e565b6020604051808303816000875af115801561195a573d6000803e3d6000fd5b505050506040513d601f19601f8201168201806040525081019061197e9190614de2565b5050565b6033546001600160a01b0316331480611a175750609c5460405163b700961360e01b81526001600160a01b039091169063b7009613906119d690339030906001600160e01b03196000351690600401614db5565b602060405180830381865afa1580156119f3573d6000803e3d6000fd5b505050506040513d601f19601f82011682018060405250810190611a179190614de2565b611a335760405162461bcd60e51b8152600401610a8590614e04565b6000609a8281548110611a4857611a48614e9f565b60009182526020808320909101546001600160a01b031680835260af90915260409091205490915060ff16611aae5760405162461bcd60e51b815260206004820152600c60248201526b672e666163742066616c736560a01b6044820152606401610a85565b6000609a8381548110611ac357611ac3614e9f565b600091825260208083209190910180546001600160a01b0319166001600160a01b0394851617905592909116815260af90915260409020805460ff1916905550565b6033546001600160a01b0316331480611b9a5750609c5460405163b700961360e01b81526001600160a01b039091169063b700961390611b5990339030906001600160e01b03196000351690600401614db5565b602060405180830381865afa158015611b76573d6000803e3d6000fd5b505050506040513d601f19601f82011682018060405250810190611b9a9190614de2565b611bb65760405162461bcd60e51b8152600401610a8590614e04565b6001600160a01b038216611bf55760405162461bcd60e51b815260206004820152600660248201526506164647220360d41b6044820152606401610a85565b6001600160a01b038216600090815260af602052604090205460ff16611c4c5760405162461bcd60e51b815260206004820152600c60248201526b672e666163742066616c736560a01b6044820152606401610a85565b6000609a8281548110611c6157611c61614e9f565b60009182526020808320909101546001600160a01b031680835260af9091526040909120805460ff19169055609a8054919250849184908110611ca657611ca6614e9f565b600091825260208083209190910180546001600160a01b0319166001600160a01b0394851617905594909116815260af909352505060409020805460ff19166001179055565b611cf4613196565b60b060009054906101000a90046001600160a01b03166001600160a01b031663ed29fc116040518163ffffffff1660e01b81526004016020604051808303816000875af1158015611d49573d6000803e3d6000fd5b505050506040513d601f19601f82011682018060405250810190611d6d9190614ece565b5060005b8151811015611dae57611d9c828281518110611d8f57611d8f614e9f565b6020026020010151614365565b80611da681614eb5565b915050611d71565b50610ff86001606555565b600081815260a9602090815260408083206001600160a01b03861684529091529020545b92915050565b60975460405163430c208160e01b81526001600160a01b039091169063430c208190611e159033908590600401614e2e565b602060405180830381865afa158015611e32573d6000803e3d6000fd5b505050506040513d601f19601f82011682018060405250810190611e569190614de2565b611e725760405162461bcd60e51b8152600401610a8590614e47565b60005b8351811015611f2357838181518110611e9057611e90614e9f565b60200260200101516001600160a01b031663a7852afa83858481518110611eb957611eb9614e9f565b60200260200101516040518363ffffffff1660e01b8152600401611ede929190614f58565b600060405180830381600087803b158015611ef857600080fd5b505af1158015611f0c573d6000803e3d6000fd5b505050508080611f1b90614eb5565b915050611e75565b50505050565b611f316144ab565b61177d6000614505565b611f43613196565b60b060009054906101000a90046001600160a01b03166001600160a01b031663ed29fc116040518163ffffffff1660e01b81526004016020604051808303816000875af1158015611f98573d6000803e3d6000fd5b505050506040513d601f19601f82011682018060405250810190611fbc9190614ece565b50815b81811015611ff357611fe160a26000609d848154811061172f5761172f614e9f565b80611feb81614eb5565b915050611fbf565b5061197e6001606555565b60975460405163430c208160e01b81526001600160a01b039091169063430c2081906120309033908590600401614e2e565b602060405180830381865afa15801561204d573d6000803e3d6000fd5b505050506040513d601f19601f820116820180604052508101906120719190614de2565b61208d5760405162461bcd60e51b8152600401610a8590614e47565b60005b8351811015611f23578381815181106120ab576120ab614e9f565b60200260200101516001600160a01b031663a7852afa838584815181106120d4576120d4614e9f565b60200260200101516040518363ffffffff1660e01b81526004016120f9929190614f58565b600060405180830381600087803b15801561211357600080fd5b505af1158015612127573d6000803e3d6000fd5b50505050808061213690614eb5565b915050612090565b612146613196565b61214f856131ef565b60975460405163430c208160e01b81526001600160a01b039091169063430c2081906121819033908990600401614e2e565b602060405180830381865afa15801561219e573d6000803e3d6000fd5b505050506040513d601f19601f820116820180604052508101906121c29190614de2565b6121de5760405162461bcd60e51b8152600401610a8590614e47565b8281146122175760405162461bcd60e51b815260206004820152600760248201526630b939103632b760c91b6044820152606401610a85565b612285858585808060200260200160405190810160405280939291908181526020018383602002808284376000920191909152505060408051602080890282810182019093528882529093508892508791829185019084908082843760009201919091525061341992505050565b61228d61302f565b612298906001614e8c565b600086815260ac60205260409020556122b16001606555565b5050505050565b60608060606122c5613196565b600a845111156123005760405162461bcd60e51b815260206004820152600660248201526506d61782031360d41b6044820152606401610a85565b600084516001600160401b0381111561231b5761231b614883565b604051908082528060200260200182016040528015612344578160200160208202803683370190505b509050600085516001600160401b0381111561236257612362614883565b60405190808252806020026020018201604052801561238b578160200160208202803683370190505b509050600086516001600160401b038111156123a9576123a9614883565b6040519080825280602002602001820160405280156123d2578160200160208202803683370190505b50905060005b875181101561247b576124038882815181106123f6576123f6614e9f565b6020026020010151613949565b86848151811061241557612415614e9f565b6020026020010186858151811061242e5761242e614e9f565b6020026020010186868151811061244757612447614e9f565b6001600160a01b0394851660209182029290920101529282169092529190911690528061247381614eb5565b9150506123d8565b509194509250905061144b6001606555565b6033546001600160a01b03163314806125225750609c5460405163b700961360e01b81526001600160a01b039091169063b7009613906124e190339030906001600160e01b03196000351690600401614db5565b602060405180830381865afa1580156124fe573d6000803e3d6000fd5b505050506040513d601f19601f820116820180604052508101906125229190614de2565b61253e5760405162461bcd60e51b8152600401610a8590614e04565b609f54810361257d5760405162461bcd60e51b815260206004820152600b60248201526a2173616d652064656c617960a81b6044820152606401610a85565b620d2f008111156125c25760405162461bcd60e51b815260206004820152600f60248201526e216f766572206d61782064656c617960881b6044820152606401610a85565b609f55565b6000806125d261302f565b600090815260aa602052604090205492915050565b6125ef614557565b61262d5760405162461bcd60e51b815260206004820152600f60248201526e4552523a20474f5645524e414e434560881b6044820152606401610a85565b6001600160a01b038116600090815260ae602052604090205460ff1661268a5760405162461bcd60e51b815260206004820152601260248201527119d85d59d948185b1c9958591e481919585960721b6044820152606401610a85565b6001600160a01b038116600081815260ae60209081526040808320805460ff1916905560a1909152808220829055517f04a5d3f5d80d22d9345acc80618f4a4e7e663cf9e1aed23b57d975acec002ba79190a250565b6126e8614557565b6127265760405162461bcd60e51b815260206004820152600f60248201526e4552523a20474f5645524e414e434560881b6044820152606401610a85565b6001600160a01b038116600090815260ae602052604090205460ff16156127855760405162461bcd60e51b8152602060048201526013602482015272676175676520616c726561647920616c69766560681b6044820152606401610a85565b6001600160a01b038116600090815260ad602052604090205460ff166127e45760405162461bcd60e51b81526020600482015260146024820152736761756765206b696c6c656420746f74616c6c7960601b6044820152606401610a85565b6001600160a01b038116600081815260ae60209081526040808320805460ff19166001179055609e5460a090925280832091909155517fed18e9faa3dccfd8aa45f69c4de40546b2ca9cccc4538a2323531656516db1aa9190a250565b6060609a80548060200260200160405190810160405280929190818152602001828054801561289957602002820191906000526020600020905b81546001600160a01b0316815260019091019060200180831161287b575b5050505050905090565b60a860205281600052604060002081815481106128bf57600080fd5b6000918252602090912001546001600160a01b03169150829050565b6000806128e661302f565b600090815260a9602090815260408083206001600160a01b039096168352949052929092205492915050565b6033546001600160a01b03163314806129a75750609c5460405163b700961360e01b81526001600160a01b039091169063b70096139061296690339030906001600160e01b03196000351690600401614db5565b602060405180830381865afa158015612983573d6000803e3d6000fd5b505050506040513d601f19601f820116820180604052508101906129a79190614de2565b6129c35760405162461bcd60e51b8152600401610a8590614e04565b609b80546001600160a01b0319166001600160a01b0392909216919091179055565b6033546001600160a01b0316331480612a7a5750609c5460405163b700961360e01b81526001600160a01b039091169063b700961390612a3990339030906001600160e01b03196000351690600401614db5565b602060405180830381865afa158015612a56573d6000803e3d6000fd5b505050506040513d601f19601f82011682018060405250810190612a7a9190614de2565b612a965760405162461bcd60e51b8152600401610a8590614e04565b6001600160a01b038316600090815260ad602052604090205460ff16612ace5760405162461bcd60e51b8152600401610a8590614f33565b6001600160a01b03928316600090815260a56020908152604080832080549587166001600160a01b031996871617905560a690915290208054919093169116179055565b6033546001600160a01b0316331480612ba75750609c5460405163b700961360e01b81526001600160a01b039091169063b700961390612b6690339030906001600160e01b03196000351690600401614db5565b602060405180830381865afa158015612b83573d6000803e3d6000fd5b505050506040513d601f19601f82011682018060405250810190612ba79190614de2565b612bc35760405162461bcd60e51b8152600401610a8590614e04565b6001600160a01b038216600090815260ad602052604090205460ff16612bfb5760405162461bcd60e51b8152600401610a8590614f33565b6001600160a01b03918216600090815260a56020526040902080546001600160a01b03191691909216179055565b60005b8251811015612cda57828181518110612c4757612c47614e9f565b60200260200101516001600160a01b031663db0ea98433848481518110612c7057612c70614e9f565b60200260200101516040518363ffffffff1660e01b8152600401612c95929190614f71565b600060405180830381600087803b158015612caf57600080fd5b505af1158015612cc3573d6000803e3d6000fd5b505050508080612cd290614eb5565b915050612c2c565b505050565b60005b815181101561197e5760ad6000838381518110612d0157612d01614e9f565b6020908102919091018101516001600160a01b031682528101919091526040016000205460ff168015612d6d575060ae6000838381518110612d4557612d45614e9f565b6020908102919091018101516001600160a01b031682528101919091526040016000205460ff165b15612ddf57818181518110612d8457612d84614e9f565b60200260200101516001600160a01b031663d294f0936040518163ffffffff1660e01b8152600401600060405180830381600087803b158015612dc657600080fd5b505af1158015612dda573d6000803e3d6000fd5b505050505b80612de981614eb5565b915050612ce2565b60005b8251811015612cda57828181518110612e0f57612e0f614e9f565b60200260200101516001600160a01b031663db0ea98433848481518110612e3857612e38614e9f565b60200260200101516040518363ffffffff1660e01b8152600401612e5d929190614f71565b600060405180830381600087803b158015612e7757600080fd5b505af1158015612e8b573d6000803e3d6000fd5b505050508080612e9a90614eb5565b915050612df4565b6033546001600160a01b0316331480612f375750609c5460405163b700961360e01b81526001600160a01b039091169063b700961390612ef690339030906001600160e01b03196000351690600401614db5565b602060405180830381865afa158015612f13573d6000803e3d6000fd5b505050506040513d601f19601f82011682018060405250810190612f379190614de2565b612f535760405162461bcd60e51b8152600401610a8590614e04565b6001600160a01b038216600090815260ad602052604090205460ff16612f8b5760405162461bcd60e51b8152600401610a8590614f33565b6001600160a01b03918216600090815260a66020526040902080546001600160a01b03191691909216179055565b612fc16144ab565b6001600160a01b0381166130265760405162461bcd60e51b815260206004820152602660248201527f4f776e61626c653a206e6577206f776e657220697320746865207a65726f206160448201526564647265737360d01b6064820152608401610a85565b610ff881614505565b60b05460408051631a2732c160e31b815290516000926001600160a01b03169163d13996089160048083019260209291908290030181865afa158015613079573d6000803e3d6000fd5b505050506040513d601f19601f8201168201806040525081019061309d9190614ece565b905090565b60005b815181101561197e578181815181106130c0576130c0614e9f565b6020908102919091010151604051630c00007b60e41b81523360048201526001600160a01b039091169063c00007b090602401600060405180830381600087803b15801561310d57600080fd5b505af1158015613121573d6000803e3d6000fd5b50505050808061313090614eb5565b9150506130a5565b600054610100900460ff1661315f5760405162461bcd60e51b8152600401610a8590614f95565b61177d614606565b600054610100900460ff1661318e5760405162461bcd60e51b8152600401610a8590614f95565b61177d614636565b6002606554036131e85760405162461bcd60e51b815260206004820152601f60248201527f5265656e7472616e637947756172643a207265656e7472616e742063616c6c006044820152606401610a85565b6002606555565b609f54600082815260ac602052604090205461320b9190614e8c565b4211610ff85760405162461bcd60e51b815260206004820152600f60248201526e4552523a20564f54455f44454c415960881b6044820152606401610a85565b600081815260a860205260408120805490918061326661302f565b905060005b838110156133a857600085828154811061328757613287614e9f565b600091825260208083209091015489835260a7825260408084206001600160a01b03909216808552919092529120549091508015613393576132c761302f565b600089815260ac6020526040902054111561331457600084815260a9602090815260408083206001600160a01b03861684529091528120805483929061330e908490614ee7565b90915550505b600088815260a7602090815260408083206001600160a01b038616845290915281208054839290613346908490614ee7565b9091555061335690508186614e8c565b604080518a8152602081018490529196507fa9f3ca5f8a9e1580edb2741e0ba560084ec72e0067ba3423f9e9327a176882db910160405180910390a15b505080806133a090614eb5565b91505061326b565b506133b161302f565b600086815260ac602052604090205410156133cb57600091505b600081815260aa6020526040812080548492906133e9908490614ee7565b9091555050600085815260ab6020908152604080832083905560a890915281206122b19161478e565b6001606555565b6134228361324b565b81516097546040516339f890b560e21b8152600481018690526000916001600160a01b03169063e7e242d490602401602060405180830381865afa15801561346e573d6000803e3d6000fd5b505050506040513d601f19601f820116820180604052508101906134929190614ece565b90506000806000806134a261302f565b905060005b868110156134e8578781815181106134c1576134c1614e9f565b6020026020010151856134d49190614e8c565b9450806134e081614eb5565b9150506134a7565b5060005b8681101561375357600089828151811061350857613508614e9f565b6020908102919091018101516001600160a01b03808216600090815260a2845260408082205490921680825260ad909452205490925060ff16801561356557506001600160a01b038116600090815260ae602052604090205460ff165b1561373e57600087898c868151811061358057613580614e9f565b60200260200101516135929190614efa565b61359c9190614f11565b60008e815260a7602090815260408083206001600160a01b03881684529091529020549091501561360f5760405162461bcd60e51b815260206004820152601860248201527f616c726561647920766f74656420666f722074617267657400000000000000006044820152606401610a85565b8060000361364d5760405162461bcd60e51b815260206004820152600b60248201526a7a65726f20766f7465207760a81b6044820152606401610a85565b60008d815260a86020908152604080832080546001810182559084528284200180546001600160a01b0319166001600160a01b03881690811790915588845260a98352818420908452909152812080548392906136ab908490614e8c565b909155505060008d815260a7602090815260408083206001600160a01b0387168452909152812080548392906136e2908490614e8c565b909155506136f290508187614e8c565b95506136fe8188614e8c565b604080518f81526020810184905291985033917fea66f58e474bc09f580000e81f31b334d171db387d0c6098ba47bd897741679b910160405180910390a2505b5050808061374b90614eb5565b9150506134ec565b5081156137b95760975460405163fd4a77f160e01b8152600481018b90526001600160a01b039091169063fd4a77f190602401600060405180830381600087803b1580156137a057600080fd5b505af11580156137b4573d6000803e3d6000fd5b505050505b600081815260aa6020526040812080548592906137d7908490614e8c565b909155505050600097885260ab602052604090972096909655505050505050565b6000846001600160a01b03163b116138415760405162461bcd60e51b815260206004820152600c60248201526b1b9bdd0818dbdb9d1c9858dd60a21b6044820152606401610a85565b604080516001600160a01b0385811660248301528481166044830152606480830185905283518084039091018152608490920183526020820180516001600160e01b03166323b872dd60e01b17905291516000928392908816916138a59190615004565b6000604051808303816000865af19150503d80600081146138e2576040519150601f19603f3d011682016040523d82523d6000602084013e6138e7565b606091505b50915091508180156139115750805115806139115750808060200190518101906139119190614de2565b610c2c5760405162461bcd60e51b815260206004820152600960248201526818d85b1b0819985a5b60ba1b6044820152606401610a85565b60008060006139606033546001600160a01b031690565b6001600160a01b0316336001600160a01b031614806139fb5750609c5460405163b700961360e01b81526001600160a01b039091169063b7009613906139ba90339030906001600160e01b03196000351690600401614db5565b602060405180830381865afa1580156139d7573d6000803e3d6000fd5b505050506040513d601f19601f820116820180604052508101906139fb9190614de2565b613a175760405162461bcd60e51b8152600401610a8590614e04565b6001600160a01b03848116600090815260a260205260409020541615613a695760405162461bcd60e51b81526020600482015260076024820152662165786973747360c81b6044820152606401610a85565b6000609a600081548110613a7f57613a7f614e9f565b6000918252602090912001546001600160a01b0316905080613ad75760405162461bcd60e51b81526020600482015260116024820152703d32b9379030b232391033b0bab3b2903360791b6044820152606401610a85565b613adf614557565b613afb5760405162461bcd60e51b8152600401610a8590615020565b609b546001600160a01b031615613d32576000856001600160a01b03166395d89b416040518163ffffffff1660e01b8152600401600060405180830381865afa158015613b4c573d6000803e3d6000fd5b505050506040513d6000823e601f3d908101601f19168201604052613b749190810190615097565b604051602001613b84919061512a565b60408051601f19818403018152919052609b549091506001600160a01b0316635cbaa126613bba6033546001600160a01b031690565b88846040518463ffffffff1660e01b8152600401613bda93929190615165565b6020604051808303816000875af1158015613bf9573d6000803e3d6000fd5b505050506040513d601f19601f82011682018060405250810190613c1d9190614d98565b9350856001600160a01b03166395d89b416040518163ffffffff1660e01b8152600401600060405180830381865afa158015613c5d573d6000803e3d6000fd5b505050506040513d6000823e601f3d908101601f19168201604052613c859190810190615097565b604051602001613c9591906151b2565b60408051601f19818403018152919052609b549091506001600160a01b0316635cbaa126613ccb6033546001600160a01b031690565b88846040518463ffffffff1660e01b8152600401613ceb93929190615165565b6020604051808303816000875af1158015613d0a573d6000803e3d6000fd5b505050506040513d601f19601f82011682018060405250810190613d2e9190614d98565b9250505b609854609754604051630e1e9f4760e41b81526001600160a01b03928316600482015290821660248201528682166044820152306064820152848216608482015283821660a48201529082169063e1e9f4709060c4016020604051808303816000875af1158015613da7573d6000803e3d6000fd5b505050506040513d601f19601f82011682018060405250810190613dcb9190614d98565b60985460405163095ea7b360e01b81529195506001600160a01b03169063095ea7b390613e0090879060001990600401614e2e565b6020604051808303816000875af1158015613e1f573d6000803e3d6000fd5b505050506040513d601f19601f82011682018060405250810190613e439190614de2565b506001600160a01b03848116600081815260a56020908152604080832080548987166001600160a01b0319918216811790925560a6845282852080548a89169083168117909155968c1680865260a28552838620805483168817905586865260a48552838620805483168217905560ad8552838620805460ff19908116600190811790925560ae8752858820805490911682179055609d805491820190557fd26e832454299e9fabb89e0e5fffdc046d4e14431bc1bf607ffb2e8a1ddecf7b0180549092168117909155609e5460a085529483902094909455815133815292830152919392917fed3b9172e8e6e99601d7718a5674363fc0f40c74cbfc20fd843bcac1f221f76c910160405180910390a4509193909250565b6000806000613f736033546001600160a01b031690565b6001600160a01b0316336001600160a01b0316148061400e5750609c5460405163b700961360e01b81526001600160a01b039091169063b700961390613fcd90339030906001600160e01b03196000351690600401614db5565b602060405180830381865afa158015613fea573d6000803e3d6000fd5b505050506040513d601f19601f8201168201806040525081019061400e9190614de2565b61402a5760405162461bcd60e51b8152600401610a8590614e04565b6001600160a01b03858116600090815260a26020526040902054161561407c5760405162461bcd60e51b81526020600482015260076024820152662165786973747360c81b6044820152606401610a85565b6000609a60008154811061409257614092614e9f565b6000918252602090912001546001600160a01b03169050806140ea5760405162461bcd60e51b81526020600482015260116024820152703d32b9379030b232391033b0bab3b2903360791b6044820152606401610a85565b6140f2614557565b61410e5760405162461bcd60e51b8152600401610a8590615020565b60985460975460405163386a5bf360e21b81526001600160a01b038881166004830152928316602482015290821660448201528782166064820152306084820152600060a4820181905260c48201819052918291829185169063e1a96fcc9060e4016020604051808303816000875af115801561418f573d6000803e3d6000fd5b505050506040513d601f19601f820116820180604052508101906141b39190614d98565b60985460405163095ea7b360e01b81529192506001600160a01b03169063095ea7b3906141e890849060001990600401614e2e565b6020604051808303816000875af1158015614207573d6000803e3d6000fd5b505050506040513d601f19601f8201168201806040525081019061422b9190614de2565b506001600160a01b03808216600081815260a5602090815260408083208054868a166001600160a01b03199182161790915560a6835281842080548988169083168117909155958f1680855260a28452828520805483168717905585855260a48452828520805483168217905560ad8452828520805460ff19908116600190811790925560ae8652848720805490911682179055609d805491820190557fd26e832454299e9fabb89e0e5fffdc046d4e14431bc1bf607ffb2e8a1ddecf7b0180549092168117909155609e5485855260a0909352928190209190915551909291907f789525eca048c1f1ac4968a0f9c2ba07534aa2c34c31813db303f702a687f8089061435090339089906001600160a01b0392831681529116602082015260400190565b60405180910390a49891975095509350505050565b6001600160a01b038116600090815260a360205260408120549061438761302f565b905080821015612cda5761439a8361465d565b6001600160a01b038316600090815260a1602052604090205480158015906143da57506001600160a01b038416600090815260ae602052604090205460ff165b15611f23576001600160a01b03808516600081815260a16020908152604080832083905560a390915290819020859055609854905163b66503cf60e01b8152919263b66503cf9261443392909116908590600401614e2e565b600060405180830381600087803b15801561444d57600080fd5b505af1158015614461573d6000803e3d6000fd5b50506040518381526001600160a01b03871692503391507f4fa9693cae526341d334e2862ca2413b2e503f1266255f9e0869fb36e6d89b179060200160405180910390a350505050565b6033546001600160a01b0316331461177d5760405162461bcd60e51b815260206004820181905260248201527f4f776e61626c653a2063616c6c6572206973206e6f7420746865206f776e65726044820152606401610a85565b603380546001600160a01b038381166001600160a01b0319831681179093556040519116919082907f8be0079c531659141344cd1fd0a4f28419497f9722a3daafe3b4186f6b6457e090600090a35050565b600061456b6033546001600160a01b031690565b6001600160a01b0316336001600160a01b0316148061309d5750609c5460405163b700961360e01b81526001600160a01b039091169063b7009613906145c590339030906001600160e01b03196000351690600401614db5565b602060405180830381865afa1580156145e2573d6000803e3d6000fd5b505050506040513d601f19601f8201168201806040525081019061309d9190614de2565b600054610100900460ff1661462d5760405162461bcd60e51b8152600401610a8590614f95565b61177d33614505565b600054610100900460ff166134125760405162461bcd60e51b8152600401610a8590614f95565b6001600160a01b03808216600090815260a46020526040812054909116906212750061468761302f565b6146919190614ee7565b600081815260a9602090815260408083206001600160a01b0387168452909152902054909150801561476c576001600160a01b038416600090815260a0602052604081208054609e5491829055916146e98383614ee7565b90508015614764576000670de0b6b3a76400006147068387614efa565b6147109190614f11565b6001600160a01b038916600090815260ae602052604090205490915060ff1615614762576001600160a01b038816600090815260a160205260408120805483929061475c908490614e8c565b90915550505b505b505050611f23565b609e546001600160a01b038516600090815260a0602052604090205550505050565b5080546000825590600052602060002090810190610ff891905b808211156147bc57600081556001016147a8565b5090565b6000602082840312156147d257600080fd5b5035919050565b6001600160a01b0381168114610ff857600080fd5b600080600080600060a0868803121561480657600080fd5b8535614811816147d9565b94506020860135614821816147d9565b93506040860135614831816147d9565b92506060860135614841816147d9565b91506080860135614851816147d9565b809150509295509295909350565b60006020828403121561487157600080fd5b813561487c816147d9565b9392505050565b634e487b7160e01b600052604160045260246000fd5b604051601f8201601f191681016001600160401b03811182821017156148c1576148c1614883565b604052919050565b60006001600160401b038211156148e2576148e2614883565b5060051b60200190565b600082601f8301126148fd57600080fd5b8135602061491261490d836148c9565b614899565b82815260059290921b8401810191818101908684111561493157600080fd5b8286015b84811015614955578035614948816147d9565b8352918301918301614935565b509695505050505050565b6000806040838503121561497357600080fd5b82356001600160401b038082111561498a57600080fd5b614996868387016148ec565b935060208501359150808211156149ac57600080fd5b506149b9858286016148ec565b9150509250929050565b600081518084526020808501945080840160005b838110156149fc5781516001600160a01b0316875295820195908201906001016149d7565b509495945050505050565b606081526000614a1a60608301866149c3565b8281036020840152614a2c81866149c3565b90508281036040840152614a4081856149c3565b9695505050505050565b60008060408385031215614a5d57600080fd5b8235614a68816147d9565b91506020830135614a78816147d9565b809150509250929050565b60008060408385031215614a9657600080fd5b8235614aa1816147d9565b946020939093013593505050565b600060208284031215614ac157600080fd5b81356001600160401b03811115614ad757600080fd5b614ae3848285016148ec565b949350505050565b600082601f830112614afc57600080fd5b81356020614b0c61490d836148c9565b82815260059290921b84018101918181019086841115614b2b57600080fd5b8286015b848110156149555780356001600160401b03811115614b4e5760008081fd5b614b5c8986838b01016148ec565b845250918301918301614b2f565b600080600060608486031215614b7f57600080fd5b83356001600160401b0380821115614b9657600080fd5b614ba2878388016148ec565b94506020860135915080821115614bb857600080fd5b50614bc586828701614aeb565b925050604084013590509250925092565b60008060408385031215614be957600080fd5b50508035926020909101359150565b60008083601f840112614c0a57600080fd5b5081356001600160401b03811115614c2157600080fd5b6020830191508360208260051b8501011115614c3c57600080fd5b9250929050565b600080600080600060608688031215614c5b57600080fd5b8535945060208601356001600160401b0380821115614c7957600080fd5b614c8589838a01614bf8565b90965094506040880135915080821115614c9e57600080fd5b50614cab88828901614bf8565b969995985093965092949392505050565b60208152600061487c60208301846149c3565b600080600060608486031215614ce457600080fd5b8335614cef816147d9565b92506020840135614cff816147d9565b91506040840135614d0f816147d9565b809150509250925092565b60008060408385031215614d2d57600080fd5b82356001600160401b0380821115614d4457600080fd5b614d50868387016148ec565b93506020850135915080821115614d6657600080fd5b506149b985828601614aeb565b60008060408385031215614d8657600080fd5b823591506020830135614a78816147d9565b600060208284031215614daa57600080fd5b815161487c816147d9565b6001600160a01b0393841681529190921660208201526001600160e01b0319909116604082015260600190565b600060208284031215614df457600080fd5b8151801515811461487c57600080fd5b60208082526010908201526f22a9291d102b27aa22a92fa0a226a4a760811b604082015260600190565b6001600160a01b03929092168252602082015260400190565b6020808252601590820152741b9bdd081bdddb995c881bdc88185c1c1c9bdd9959605a1b604082015260600190565b634e487b7160e01b600052601160045260246000fd5b80820180821115611ddd57611ddd614e76565b634e487b7160e01b600052603260045260246000fd5b600060018201614ec757614ec7614e76565b5060010190565b600060208284031215614ee057600080fd5b5051919050565b81810381811115611ddd57611ddd614e76565b8082028115828204841417611ddd57611ddd614e76565b600082614f2e57634e487b7160e01b600052601260045260246000fd5b500490565b6020808252600b908201526a6e6f74206120676175676560a81b604082015260600190565b828152604060208201526000614ae360408301846149c3565b6001600160a01b0383168152604060208201819052600090614ae3908301846149c3565b6020808252602b908201527f496e697469616c697a61626c653a20636f6e7472616374206973206e6f74206960408201526a6e697469616c697a696e6760a81b606082015260800190565b60005b83811015614ffb578181015183820152602001614fe3565b50506000910152565b60008251615016818460208701614fe0565b9190910192915050565b60208082526051908201527f544f444f2076657269667920746861742074686520746172676574206973206160408201527f6e20496f6e6963206d61726b657420696e2063617365207468652063616c6c65606082015270391034b9903737ba1030b71030b236b4b760791b608082015260a00190565b6000602082840312156150a957600080fd5b81516001600160401b03808211156150c057600080fd5b818401915084601f8301126150d457600080fd5b8151818111156150e6576150e6614883565b6150f9601f8201601f1916602001614899565b915080825285602082850101111561511057600080fd5b615121816020840160208601614fe0565b50949350505050565b72024b7b734b19036b0b935b2ba103332b2b99d1606d1b815260008251615158816013850160208701614fe0565b9190910160130192915050565b600060018060a01b03808616835280851660208401525060606040830152825180606084015261519c816080850160208701614fe0565b601f01601f191691909101608001949350505050565b6d024b7b734b190213934b132b99d160951b8152600082516151db81600e850160208701614fe0565b91909101600e019291505056fea164736f6c6343000813000a",
    "linkReferences": {}
  },
  "methodIdentifiers": {
    "MAX_VOTE_DELAY()": "6c4f2e38",
    "_epochTimestamp()": "f8803bb6",
    "_gaugeFactories()": "9fb5dc05",
    "_ve()": "8dd598fb",
    "addFactory(address)": "29ce1ec5",
    "bribeFactory()": "eb4a78e0",
    "claimBribes(address[],address[][])": "c2b79e98",
    "claimBribes(address[],address[][],uint256)": "7715ee75",
    "claimFees(address[],address[][])": "c991866d",
    "claimFees(address[],address[][],uint256)": "666256aa",
    "claimRewards(address[])": "f9f031df",
    "claimable(address)": "402914f5",
    "createMarketGauge(address,address)": "54944b13",
    "createMarketGauges(address[],address[])": "3dfe8c06",
    "createPairGauge(address)": "3df66dd1",
    "createPairGauges(address[])": "842eb3a9",
    "distribute(address[])": "6138889b",
    "distribute(uint256,uint256)": "7625391a",
    "distributeAll()": "436596c4",
    "distributeFees(address[])": "c527ee1f",
    "external_bribes(address)": "ae21c4cb",
    "gaugeFactories(uint256)": "23e1af42",
    "gaugeFactoriesLength()": "b52a3151",
    "gaugeFactory()": "0d52333c",
    "gauges(address)": "b9a09fd5",
    "gaugesDistributionTimestamp(address)": "e6da0457",
    "increaseGaugeApprovals(address)": "556e091d",
    "initialize(address,address,address,address,address)": "1459457a",
    "internal_bribes(address)": "eae40f26",
    "isAlive(address)": "1703e5f9",
    "isGauge(address)": "aa79979b",
    "isGaugeFactory(address)": "657021fb",
    "killGauge(address)": "992a7933",
    "lastVoted(uint256)": "f3594be0",
    "length()": "1f7b6d32",
    "minter()": "07546172",
    "notifyRewardAmount(uint256)": "3c6b16ab",
    "owner()": "8da5cb5b",
    "permissionRegistry()": "b55a5c1c",
    "poke(uint256)": "32145f90",
    "removeFactory(uint256)": "577387b5",
    "renounceOwnership()": "715018a6",
    "replaceFactory(address,uint256)": "5c6c2868",
    "reset(uint256)": "310bd74b",
    "reviveGauge(address)": "9f06247b",
    "setBribeFactory(address)": "a9b5aa7e",
    "setExternalBribeFor(address,address)": "daa168bd",
    "setGaugeFactory(address)": "23130d11",
    "setInternalBribeFor(address,address)": "b7c89f9c",
    "setNewBribes(address,address,address)": "b0f50278",
    "setPermissionsRegistry(address)": "33832a6a",
    "setVoteDelay(uint256)": "8b6fc247",
    "targetForGauge(address)": "c1294495",
    "targetVote(uint256,uint256)": "a4388c97",
    "targetVoteLength(uint256)": "05118b3b",
    "targets(uint256)": "0a39ce02",
    "totalWeight()": "96c82e57",
    "totalWeightAt(uint256)": "53be568d",
    "transferOwnership(address)": "f2fde38b",
    "usedWeights(uint256)": "79e93824",
    "vote(uint256,address[],uint256[])": "7ac09bf7",
    "voteDelay()": "292fc979",
    "votes(uint256,address)": "d23254b4",
    "weights(address)": "a7cac846",
    "weightsAt(address,uint256)": "636056f2"
  }
}