{
  "address": "0xE1F55b33F567cbEBF7489cD36D0d7a03f4bD7948",
  "abi": [
    {
      "inputs": [],
      "stateMutability": "nonpayable",
      "type": "constructor"
    },
    {
      "anonymous": false,
      "inputs": [
        {
          "indexed": false,
          "internalType": "uint256",
          "name": "tokenId",
          "type": "uint256"
        },
        {
          "indexed": false,
          "internalType": "uint256",
          "name": "weight",
          "type": "uint256"
        }
      ],
      "name": "Abstained",
      "type": "event"
    },
    {
      "anonymous": false,
      "inputs": [
        {
          "indexed": true,
          "internalType": "address",
          "name": "sender",
          "type": "address"
        },
        {
          "indexed": true,
          "internalType": "address",
          "name": "gauge",
          "type": "address"
        },
        {
          "indexed": false,
          "internalType": "uint256",
          "name": "amount",
          "type": "uint256"
        }
      ],
      "name": "DistributeReward",
      "type": "event"
    },
    {
      "anonymous": false,
      "inputs": [
        {
          "indexed": true,
          "internalType": "address",
          "name": "gauge",
          "type": "address"
        }
      ],
      "name": "GaugeKilled",
      "type": "event"
    },
    {
      "anonymous": false,
      "inputs": [
        {
          "indexed": true,
          "internalType": "address",
          "name": "gauge",
          "type": "address"
        }
      ],
      "name": "GaugeRevived",
      "type": "event"
    },
    {
      "anonymous": false,
      "inputs": [
        {
          "indexed": false,
          "internalType": "uint8",
          "name": "version",
          "type": "uint8"
        }
      ],
      "name": "Initialized",
      "type": "event"
    },
    {
      "anonymous": false,
      "inputs": [
        {
          "indexed": true,
          "internalType": "address",
          "name": "gauge",
          "type": "address"
        },
        {
          "indexed": false,
          "internalType": "address",
          "name": "creator",
          "type": "address"
        },
        {
          "indexed": false,
          "internalType": "address",
          "name": "internal_bribe",
          "type": "address"
        },
        {
          "indexed": true,
          "internalType": "address",
          "name": "external_bribe",
          "type": "address"
        },
        {
          "indexed": true,
          "internalType": "address",
          "name": "target",
          "type": "address"
        }
      ],
      "name": "MarketGaugeCreated",
      "type": "event"
    },
    {
      "anonymous": false,
      "inputs": [
        {
          "indexed": true,
          "internalType": "address",
          "name": "sender",
          "type": "address"
        },
        {
          "indexed": true,
          "internalType": "address",
          "name": "reward",
          "type": "address"
        },
        {
          "indexed": false,
          "internalType": "uint256",
          "name": "amount",
          "type": "uint256"
        }
      ],
      "name": "NotifyReward",
      "type": "event"
    },
    {
      "anonymous": false,
      "inputs": [
        {
          "indexed": true,
          "internalType": "address",
          "name": "previousOwner",
          "type": "address"
        },
        {
          "indexed": true,
          "internalType": "address",
          "name": "newOwner",
          "type": "address"
        }
      ],
      "name": "OwnershipTransferred",
      "type": "event"
    },
    {
      "anonymous": false,
      "inputs": [
        {
          "indexed": true,
          "internalType": "address",
          "name": "gauge",
          "type": "address"
        },
        {
          "indexed": false,
          "internalType": "address",
          "name": "creator",
          "type": "address"
        },
        {
          "indexed": false,
          "internalType": "address",
          "name": "internal_bribe",
          "type": "address"
        },
        {
          "indexed": true,
          "internalType": "address",
          "name": "external_bribe",
          "type": "address"
        },
        {
          "indexed": true,
          "internalType": "address",
          "name": "market",
          "type": "address"
        }
      ],
      "name": "PairGaugeCreated",
      "type": "event"
    },
    {
      "anonymous": false,
      "inputs": [
        {
          "indexed": true,
          "internalType": "address",
          "name": "voter",
          "type": "address"
        },
        {
          "indexed": false,
          "internalType": "uint256",
          "name": "tokenId",
          "type": "uint256"
        },
        {
          "indexed": false,
          "internalType": "uint256",
          "name": "weight",
          "type": "uint256"
        }
      ],
      "name": "Voted",
      "type": "event"
    },
    {
      "inputs": [],
      "name": "MAX_VOTE_DELAY",
      "outputs": [
        {
          "internalType": "uint256",
          "name": "",
          "type": "uint256"
        }
      ],
      "stateMutability": "view",
      "type": "function"
    },
    {
      "inputs": [],
      "name": "_epochTimestamp",
      "outputs": [
        {
          "internalType": "uint256",
          "name": "",
          "type": "uint256"
        }
      ],
      "stateMutability": "view",
      "type": "function"
    },
    {
      "inputs": [],
      "name": "_gaugeFactories",
      "outputs": [
        {
          "internalType": "address[]",
          "name": "",
          "type": "address[]"
        }
      ],
      "stateMutability": "view",
      "type": "function"
    },
    {
      "inputs": [],
      "name": "_ve",
      "outputs": [
        {
          "internalType": "address",
          "name": "",
          "type": "address"
        }
      ],
      "stateMutability": "view",
      "type": "function"
    },
    {
      "inputs": [
        {
          "internalType": "address",
          "name": "_gaugeFactory",
          "type": "address"
        }
      ],
      "name": "addFactory",
      "outputs": [],
      "stateMutability": "nonpayable",
      "type": "function"
    },
    {
      "inputs": [],
      "name": "bribeFactory",
      "outputs": [
        {
          "internalType": "address",
          "name": "",
          "type": "address"
        }
      ],
      "stateMutability": "view",
      "type": "function"
    },
    {
      "inputs": [
        {
          "internalType": "address[]",
          "name": "_bribes",
          "type": "address[]"
        },
        {
          "internalType": "address[][]",
          "name": "_tokens",
          "type": "address[][]"
        },
        {
          "internalType": "uint256",
          "name": "_tokenId",
          "type": "uint256"
        }
      ],
      "name": "claimBribes",
      "outputs": [],
      "stateMutability": "nonpayable",
      "type": "function"
    },
    {
      "inputs": [
        {
          "internalType": "address[]",
          "name": "_bribes",
          "type": "address[]"
        },
        {
          "internalType": "address[][]",
          "name": "_tokens",
          "type": "address[][]"
        }
      ],
      "name": "claimBribes",
      "outputs": [],
      "stateMutability": "nonpayable",
      "type": "function"
    },
    {
      "inputs": [
        {
          "internalType": "address[]",
          "name": "_fees",
          "type": "address[]"
        },
        {
          "internalType": "address[][]",
          "name": "_tokens",
          "type": "address[][]"
        },
        {
          "internalType": "uint256",
          "name": "_tokenId",
          "type": "uint256"
        }
      ],
      "name": "claimFees",
      "outputs": [],
      "stateMutability": "nonpayable",
      "type": "function"
    },
    {
      "inputs": [
        {
          "internalType": "address[]",
          "name": "_bribes",
          "type": "address[]"
        },
        {
          "internalType": "address[][]",
          "name": "_tokens",
          "type": "address[][]"
        }
      ],
      "name": "claimFees",
      "outputs": [],
      "stateMutability": "nonpayable",
      "type": "function"
    },
    {
      "inputs": [
        {
          "internalType": "address[]",
          "name": "_gauges",
          "type": "address[]"
        }
      ],
      "name": "claimRewards",
      "outputs": [],
      "stateMutability": "nonpayable",
      "type": "function"
    },
    {
      "inputs": [
        {
          "internalType": "address",
          "name": "",
          "type": "address"
        }
      ],
      "name": "claimable",
      "outputs": [
        {
          "internalType": "uint256",
          "name": "",
          "type": "uint256"
        }
      ],
      "stateMutability": "view",
      "type": "function"
    },
    {
      "inputs": [
        {
          "internalType": "address",
          "name": "_target",
          "type": "address"
        },
        {
          "internalType": "address",
          "name": "_flywheel",
          "type": "address"
        }
      ],
      "name": "createMarketGauge",
      "outputs": [
        {
          "internalType": "address",
          "name": "_gauge",
          "type": "address"
        },
        {
          "internalType": "address",
          "name": "_internal_bribe",
          "type": "address"
        },
        {
          "internalType": "address",
          "name": "_external_bribe",
          "type": "address"
        }
      ],
      "stateMutability": "nonpayable",
      "type": "function"
    },
    {
      "inputs": [
        {
          "internalType": "address[]",
          "name": "_targets",
          "type": "address[]"
        },
        {
          "internalType": "address[]",
          "name": "_flywheels",
          "type": "address[]"
        }
      ],
      "name": "createMarketGauges",
      "outputs": [
        {
          "internalType": "address[]",
          "name": "",
          "type": "address[]"
        },
        {
          "internalType": "address[]",
          "name": "",
          "type": "address[]"
        },
        {
          "internalType": "address[]",
          "name": "",
          "type": "address[]"
        }
      ],
      "stateMutability": "nonpayable",
      "type": "function"
    },
    {
      "inputs": [
        {
          "internalType": "address",
          "name": "_target",
          "type": "address"
        }
      ],
      "name": "createPairGauge",
      "outputs": [
        {
          "internalType": "address",
          "name": "_gauge",
          "type": "address"
        },
        {
          "internalType": "address",
          "name": "_internal_bribe",
          "type": "address"
        },
        {
          "internalType": "address",
          "name": "_external_bribe",
          "type": "address"
        }
      ],
      "stateMutability": "nonpayable",
      "type": "function"
    },
    {
      "inputs": [
        {
          "internalType": "address[]",
          "name": "_targets",
          "type": "address[]"
        }
      ],
      "name": "createPairGauges",
      "outputs": [
        {
          "internalType": "address[]",
          "name": "",
          "type": "address[]"
        },
        {
          "internalType": "address[]",
          "name": "",
          "type": "address[]"
        },
        {
          "internalType": "address[]",
          "name": "",
          "type": "address[]"
        }
      ],
      "stateMutability": "nonpayable",
      "type": "function"
    },
    {
      "inputs": [
        {
          "internalType": "address[]",
          "name": "_gauges",
          "type": "address[]"
        }
      ],
      "name": "distribute",
      "outputs": [],
      "stateMutability": "nonpayable",
      "type": "function"
    },
    {
      "inputs": [
        {
          "internalType": "uint256",
          "name": "start",
          "type": "uint256"
        },
        {
          "internalType": "uint256",
          "name": "finish",
          "type": "uint256"
        }
      ],
      "name": "distribute",
      "outputs": [],
      "stateMutability": "nonpayable",
      "type": "function"
    },
    {
      "inputs": [],
      "name": "distributeAll",
      "outputs": [],
      "stateMutability": "nonpayable",
      "type": "function"
    },
    {
      "inputs": [
        {
          "internalType": "address[]",
          "name": "_gauges",
          "type": "address[]"
        }
      ],
      "name": "distributeFees",
      "outputs": [],
      "stateMutability": "nonpayable",
      "type": "function"
    },
    {
      "inputs": [
        {
          "internalType": "address",
          "name": "",
          "type": "address"
        }
      ],
      "name": "external_bribes",
      "outputs": [
        {
          "internalType": "address",
          "name": "",
          "type": "address"
        }
      ],
      "stateMutability": "view",
      "type": "function"
    },
    {
      "inputs": [
        {
          "internalType": "uint256",
          "name": "",
          "type": "uint256"
        }
      ],
      "name": "gaugeFactories",
      "outputs": [
        {
          "internalType": "address",
          "name": "",
          "type": "address"
        }
      ],
      "stateMutability": "view",
      "type": "function"
    },
    {
      "inputs": [],
      "name": "gaugeFactoriesLength",
      "outputs": [
        {
          "internalType": "uint256",
          "name": "",
          "type": "uint256"
        }
      ],
      "stateMutability": "view",
      "type": "function"
    },
    {
      "inputs": [],
      "name": "gaugeFactory",
      "outputs": [
        {
          "internalType": "address",
          "name": "",
          "type": "address"
        }
      ],
      "stateMutability": "view",
      "type": "function"
    },
    {
      "inputs": [
        {
          "internalType": "address",
          "name": "",
          "type": "address"
        }
      ],
      "name": "gauges",
      "outputs": [
        {
          "internalType": "address",
          "name": "",
          "type": "address"
        }
      ],
      "stateMutability": "view",
      "type": "function"
    },
    {
      "inputs": [
        {
          "internalType": "address",
          "name": "",
          "type": "address"
        }
      ],
      "name": "gaugesDistributionTimestamp",
      "outputs": [
        {
          "internalType": "uint256",
          "name": "",
          "type": "uint256"
        }
      ],
      "stateMutability": "view",
      "type": "function"
    },
    {
      "inputs": [
        {
          "internalType": "address",
          "name": "_gauge",
          "type": "address"
        }
      ],
      "name": "increaseGaugeApprovals",
      "outputs": [],
      "stateMutability": "nonpayable",
      "type": "function"
    },
    {
      "inputs": [
        {
          "internalType": "address",
          "name": "__ve",
          "type": "address"
        },
        {
          "internalType": "address",
          "name": "_gauges",
          "type": "address"
        },
        {
          "internalType": "address",
          "name": "_bribes",
          "type": "address"
        },
        {
          "internalType": "address",
          "name": "_minter",
          "type": "address"
        },
        {
          "internalType": "contract VoterRolesAuthority",
          "name": "_permissionsRegistry",
          "type": "address"
        }
      ],
      "name": "initialize",
      "outputs": [],
      "stateMutability": "nonpayable",
      "type": "function"
    },
    {
      "inputs": [
        {
          "internalType": "address",
          "name": "",
          "type": "address"
        }
      ],
      "name": "internal_bribes",
      "outputs": [
        {
          "internalType": "address",
          "name": "",
          "type": "address"
        }
      ],
      "stateMutability": "view",
      "type": "function"
    },
    {
      "inputs": [
        {
          "internalType": "address",
          "name": "",
          "type": "address"
        }
      ],
      "name": "isAlive",
      "outputs": [
        {
          "internalType": "bool",
          "name": "",
          "type": "bool"
        }
      ],
      "stateMutability": "view",
      "type": "function"
    },
    {
      "inputs": [
        {
          "internalType": "address",
          "name": "",
          "type": "address"
        }
      ],
      "name": "isGauge",
      "outputs": [
        {
          "internalType": "bool",
          "name": "",
          "type": "bool"
        }
      ],
      "stateMutability": "view",
      "type": "function"
    },
    {
      "inputs": [
        {
          "internalType": "address",
          "name": "",
          "type": "address"
        }
      ],
      "name": "isGaugeFactory",
      "outputs": [
        {
          "internalType": "bool",
          "name": "",
          "type": "bool"
        }
      ],
      "stateMutability": "view",
      "type": "function"
    },
    {
      "inputs": [
        {
          "internalType": "address",
          "name": "_gauge",
          "type": "address"
        }
      ],
      "name": "killGauge",
      "outputs": [],
      "stateMutability": "nonpayable",
      "type": "function"
    },
    {
      "inputs": [
        {
          "internalType": "uint256",
          "name": "",
          "type": "uint256"
        }
      ],
      "name": "lastVoted",
      "outputs": [
        {
          "internalType": "uint256",
          "name": "",
          "type": "uint256"
        }
      ],
      "stateMutability": "view",
      "type": "function"
    },
    {
      "inputs": [],
      "name": "length",
      "outputs": [
        {
          "internalType": "uint256",
          "name": "",
          "type": "uint256"
        }
      ],
      "stateMutability": "view",
      "type": "function"
    },
    {
      "inputs": [],
      "name": "minter",
      "outputs": [
        {
          "internalType": "address",
          "name": "",
          "type": "address"
        }
      ],
      "stateMutability": "view",
      "type": "function"
    },
    {
      "inputs": [
        {
          "internalType": "uint256",
          "name": "amount",
          "type": "uint256"
        }
      ],
      "name": "notifyRewardAmount",
      "outputs": [],
      "stateMutability": "nonpayable",
      "type": "function"
    },
    {
      "inputs": [],
      "name": "owner",
      "outputs": [
        {
          "internalType": "address",
          "name": "",
          "type": "address"
        }
      ],
      "stateMutability": "view",
      "type": "function"
    },
    {
      "inputs": [],
      "name": "permissionRegistry",
      "outputs": [
        {
          "internalType": "contract VoterRolesAuthority",
          "name": "",
          "type": "address"
        }
      ],
      "stateMutability": "view",
      "type": "function"
    },
    {
      "inputs": [
        {
          "internalType": "uint256",
          "name": "_tokenId",
          "type": "uint256"
        }
      ],
      "name": "poke",
      "outputs": [],
      "stateMutability": "nonpayable",
      "type": "function"
    },
    {
      "inputs": [
        {
          "internalType": "uint256",
          "name": "_pos",
          "type": "uint256"
        }
      ],
      "name": "removeFactory",
      "outputs": [],
      "stateMutability": "nonpayable",
      "type": "function"
    },
    {
      "inputs": [],
      "name": "renounceOwnership",
      "outputs": [],
      "stateMutability": "nonpayable",
      "type": "function"
    },
    {
      "inputs": [
        {
          "internalType": "address",
          "name": "_gaugeFactory",
          "type": "address"
        },
        {
          "internalType": "uint256",
          "name": "_pos",
          "type": "uint256"
        }
      ],
      "name": "replaceFactory",
      "outputs": [],
      "stateMutability": "nonpayable",
      "type": "function"
    },
    {
      "inputs": [
        {
          "internalType": "uint256",
          "name": "_tokenId",
          "type": "uint256"
        }
      ],
      "name": "reset",
      "outputs": [],
      "stateMutability": "nonpayable",
      "type": "function"
    },
    {
      "inputs": [
        {
          "internalType": "address",
          "name": "_gauge",
          "type": "address"
        }
      ],
      "name": "reviveGauge",
      "outputs": [],
      "stateMutability": "nonpayable",
      "type": "function"
    },
    {
      "inputs": [
        {
          "internalType": "address",
          "name": "_bribeFactory",
          "type": "address"
        }
      ],
      "name": "setBribeFactory",
      "outputs": [],
      "stateMutability": "nonpayable",
      "type": "function"
    },
    {
      "inputs": [
        {
          "internalType": "address",
          "name": "_gauge",
          "type": "address"
        },
        {
          "internalType": "address",
          "name": "_external",
          "type": "address"
        }
      ],
      "name": "setExternalBribeFor",
      "outputs": [],
      "stateMutability": "nonpayable",
      "type": "function"
    },
    {
      "inputs": [
        {
          "internalType": "address",
          "name": "_gaugeFactory",
          "type": "address"
        }
      ],
      "name": "setGaugeFactory",
      "outputs": [],
      "stateMutability": "nonpayable",
      "type": "function"
    },
    {
      "inputs": [
        {
          "internalType": "address",
          "name": "_gauge",
          "type": "address"
        },
        {
          "internalType": "address",
          "name": "_internal",
          "type": "address"
        }
      ],
      "name": "setInternalBribeFor",
      "outputs": [],
      "stateMutability": "nonpayable",
      "type": "function"
    },
    {
      "inputs": [
        {
          "internalType": "address",
          "name": "_gauge",
          "type": "address"
        },
        {
          "internalType": "address",
          "name": "_internal",
          "type": "address"
        },
        {
          "internalType": "address",
          "name": "_external",
          "type": "address"
        }
      ],
      "name": "setNewBribes",
      "outputs": [],
      "stateMutability": "nonpayable",
      "type": "function"
    },
    {
      "inputs": [
        {
          "internalType": "contract VoterRolesAuthority",
          "name": "_permissionRegistry",
          "type": "address"
        }
      ],
      "name": "setPermissionsRegistry",
      "outputs": [],
      "stateMutability": "nonpayable",
      "type": "function"
    },
    {
      "inputs": [
        {
          "internalType": "uint256",
          "name": "_delay",
          "type": "uint256"
        }
      ],
      "name": "setVoteDelay",
      "outputs": [],
      "stateMutability": "nonpayable",
      "type": "function"
    },
    {
      "inputs": [
        {
          "internalType": "address",
          "name": "",
          "type": "address"
        }
      ],
      "name": "targetForGauge",
      "outputs": [
        {
          "internalType": "address",
          "name": "",
          "type": "address"
        }
      ],
      "stateMutability": "view",
      "type": "function"
    },
    {
      "inputs": [
        {
          "internalType": "uint256",
          "name": "",
          "type": "uint256"
        },
        {
          "internalType": "uint256",
          "name": "",
          "type": "uint256"
        }
      ],
      "name": "targetVote",
      "outputs": [
        {
          "internalType": "address",
          "name": "",
          "type": "address"
        }
      ],
      "stateMutability": "view",
      "type": "function"
    },
    {
      "inputs": [
        {
          "internalType": "uint256",
          "name": "tokenId",
          "type": "uint256"
        }
      ],
      "name": "targetVoteLength",
      "outputs": [
        {
          "internalType": "uint256",
          "name": "",
          "type": "uint256"
        }
      ],
      "stateMutability": "view",
      "type": "function"
    },
    {
      "inputs": [
        {
          "internalType": "uint256",
          "name": "",
          "type": "uint256"
        }
      ],
      "name": "targets",
      "outputs": [
        {
          "internalType": "address",
          "name": "",
          "type": "address"
        }
      ],
      "stateMutability": "view",
      "type": "function"
    },
    {
      "inputs": [],
      "name": "totalWeight",
      "outputs": [
        {
          "internalType": "uint256",
          "name": "",
          "type": "uint256"
        }
      ],
      "stateMutability": "view",
      "type": "function"
    },
    {
      "inputs": [
        {
          "internalType": "uint256",
          "name": "_time",
          "type": "uint256"
        }
      ],
      "name": "totalWeightAt",
      "outputs": [
        {
          "internalType": "uint256",
          "name": "",
          "type": "uint256"
        }
      ],
      "stateMutability": "view",
      "type": "function"
    },
    {
      "inputs": [
        {
          "internalType": "address",
          "name": "newOwner",
          "type": "address"
        }
      ],
      "name": "transferOwnership",
      "outputs": [],
      "stateMutability": "nonpayable",
      "type": "function"
    },
    {
      "inputs": [
        {
          "internalType": "uint256",
          "name": "",
          "type": "uint256"
        }
      ],
      "name": "usedWeights",
      "outputs": [
        {
          "internalType": "uint256",
          "name": "",
          "type": "uint256"
        }
      ],
      "stateMutability": "view",
      "type": "function"
    },
    {
      "inputs": [
        {
          "internalType": "uint256",
          "name": "_tokenId",
          "type": "uint256"
        },
        {
          "internalType": "address[]",
          "name": "_targetVote",
          "type": "address[]"
        },
        {
          "internalType": "uint256[]",
          "name": "_weights",
          "type": "uint256[]"
        }
      ],
      "name": "vote",
      "outputs": [],
      "stateMutability": "nonpayable",
      "type": "function"
    },
    {
      "inputs": [],
      "name": "voteDelay",
      "outputs": [
        {
          "internalType": "uint256",
          "name": "",
          "type": "uint256"
        }
      ],
      "stateMutability": "view",
      "type": "function"
    },
    {
      "inputs": [
        {
          "internalType": "uint256",
          "name": "",
          "type": "uint256"
        },
        {
          "internalType": "address",
          "name": "",
          "type": "address"
        }
      ],
      "name": "votes",
      "outputs": [
        {
          "internalType": "uint256",
          "name": "",
          "type": "uint256"
        }
      ],
      "stateMutability": "view",
      "type": "function"
    },
    {
      "inputs": [
        {
          "internalType": "address",
          "name": "_target",
          "type": "address"
        }
      ],
      "name": "weights",
      "outputs": [
        {
          "internalType": "uint256",
          "name": "",
          "type": "uint256"
        }
      ],
      "stateMutability": "view",
      "type": "function"
    },
    {
      "inputs": [
        {
          "internalType": "address",
          "name": "_target",
          "type": "address"
        },
        {
          "internalType": "uint256",
          "name": "_time",
          "type": "uint256"
        }
      ],
      "name": "weightsAt",
      "outputs": [
        {
          "internalType": "uint256",
          "name": "",
          "type": "uint256"
        }
      ],
      "stateMutability": "view",
      "type": "function"
    }
  ],
  "transactionHash": "0xeab9b302fe9c4d77a8b6b3c060e4b044d73aeef605e5cc9ed4f29c205ba48ca6",
  "args": [],
  "numDeployments": 1,
  "bytecode": {
    "object": "0x60806040523480156200001157600080fd5b506200001c62000022565b620000e3565b600054610100900460ff16156200008f5760405162461bcd60e51b815260206004820152602760248201527f496e697469616c697a61626c653a20636f6e747261637420697320696e697469604482015266616c697a696e6760c81b606482015260840160405180910390fd5b60005460ff90811614620000e1576000805460ff191660ff9081179091556040519081527f7f26b83ff96e1f2b6a682f133852f6798a09c465da95921460cefb38474024989060200160405180910390a15b565b61520680620000f36000396000f3fe608060405234801561001057600080fd5b50600436106103db5760003560e01c806379e938241161020a578063b52a315111610125578063d23254b4116100b8578063eb4a78e011610087578063eb4a78e014610983578063f2fde38b14610996578063f3594be0146109a9578063f8803bb6146109c9578063f9f031df146109d157600080fd5b8063d23254b4146108fc578063daa168bd14610927578063e6da04571461093a578063eae40f261461095a57600080fd5b8063c1294495116100f4578063c12944951461089a578063c2b79e98146108c3578063c527ee1f146108d6578063c991866d146108e957600080fd5b8063b52a315114610843578063b55a5c1c1461084b578063b7c89f9c1461085e578063b9a09fd51461087157600080fd5b80639f06247b1161019d578063a9b5aa7e1161016c578063a9b5aa7e146107d1578063aa79979b146107e4578063ae21c4cb14610807578063b0f502781461083057600080fd5b80639f06247b146107835780639fb5dc0514610796578063a4388c97146107ab578063a7cac846146107be57600080fd5b80638da5cb5b116101d95780638da5cb5b146107445780638dd598fb1461075557806396c82e5714610768578063992a79331461077057600080fd5b806379e93824146106eb5780637ac09bf71461070b578063842eb3a91461071e5780638b6fc2471461073157600080fd5b80633dfe8c06116102fa5780636138889b1161028d5780636c4f2e381161025c5780636c4f2e38146106b3578063715018a6146106bd5780637625391a146106c55780637715ee75146106d857600080fd5b80636138889b14610635578063636056f214610648578063657021fb1461067d578063666256aa146106a057600080fd5b806354944b13116102c957806354944b13146105e9578063556e091d146105fc578063577387b51461060f5780635c6c28681461062257600080fd5b80633dfe8c061461057f578063402914f5146105a1578063436596c4146105c157806353be568d146105c957600080fd5b806323e1af421161037257806332145f901161034157806332145f901461050957806333832a6a1461051c5780633c6b16ab1461052f5780633df66dd11461054257600080fd5b806323e1af42146104c7578063292fc979146104da57806329ce1ec5146104e3578063310bd74b146104f657600080fd5b80631459457a116103ae5780631459457a146104645780631703e5f9146104795780631f7b6d32146104ac57806323130d11146104b457600080fd5b806305118b3b146103e057806307546172146104135780630a39ce021461043e5780630d52333c14610451575b600080fd5b6104006103ee3660046147b8565b600090815260a8602052604090205490565b6040519081526020015b60405180910390f35b60b054610426906001600160a01b031681565b6040516001600160a01b03909116815260200161040a565b61042661044c3660046147b8565b6109e4565b609954610426906001600160a01b031681565b6104776104723660046147e6565b610a0e565b005b61049c610487366004614857565b60ae6020526000908152604090205460ff1681565b604051901515815260200161040a565b609d54610400565b6104776104c2366004614857565b610c56565b6104266104d53660046147b8565b610d29565b610400609f5481565b6104776104f1366004614857565b610d39565b6104776105043660046147b8565b610ee7565b6104776105173660046147b8565b61101d565b61047761052a366004614857565b611235565b61047761053d3660046147b8565b611308565b610555610550366004614857565b611446565b604080516001600160a01b039485168152928416602084015292169181019190915260600161040a565b61059261058d366004614958565b611474565b60405161040a939291906149ff565b6104006105af366004614857565b60a16020526000908152604090205481565b6104776116a6565b6104006105d73660046147b8565b600090815260aa602052604090205490565b6105556105f7366004614a42565b6117a1565b61047761060a366004614857565b6117c9565b61047761061d3660046147b8565b6119a4565b610477610630366004614a7b565b611b27565b610477610643366004614aa7565b611d0e565b610400610656366004614a7b565b600090815260a9602090815260408083206001600160a01b03949094168352929052205490565b61049c61068b366004614857565b60af6020526000908152604090205460ff1681565b6104776106ae366004614b62565b611ddb565b610400620d2f0081565b610477611f21565b6104776106d3366004614bce565b611f33565b6104776106e6366004614b62565b611ff6565b6104006106f93660046147b8565b60ab6020526000908152604090205481565b610477610719366004614c3b565b612136565b61059261072c366004614aa7565b6122b0565b61047761073f3660046147b8565b612485565b6033546001600160a01b0316610426565b609754610426906001600160a01b031681565b6104006125bf565b61047761077e366004614857565b6125df565b610477610791366004614857565b6126d8565b61079e612839565b60405161040a9190614cb4565b6104266107b9366004614bce565b61289b565b6104006107cc366004614857565b6128d3565b6104776107df366004614857565b61290a565b61049c6107f2366004614857565b60ad6020526000908152604090205460ff1681565b610426610815366004614857565b60a6602052600090815260409020546001600160a01b031681565b61047761083e366004614cc7565b6129dd565b609a54610400565b609c54610426906001600160a01b031681565b61047761086c366004614a42565b612b0a565b61042661087f366004614857565b60a2602052600090815260409020546001600160a01b031681565b6104266108a8366004614857565b60a4602052600090815260409020546001600160a01b031681565b6104776108d1366004614d12565b612c21565b6104776108e4366004614aa7565b612cd7565b6104776108f7366004614d12565b612de9565b61040061090a366004614d6b565b60a760209081526000928352604080842090915290825290205481565b610477610935366004614a42565b612e9a565b610400610948366004614857565b60a36020526000908152604090205481565b610426610968366004614857565b60a5602052600090815260409020546001600160a01b031681565b609b54610426906001600160a01b031681565b6104776109a4366004614857565b612fb1565b6104006109b73660046147b8565b60ac6020526000908152604090205481565b610400613027565b6104776109df366004614aa7565b61309a565b609d81815481106109f457600080fd5b6000918252602090912001546001600160a01b0316905081565b600054610100900460ff1615808015610a2e5750600054600160ff909116105b80610a485750303b158015610a48575060005460ff166001145b610ab05760405162461bcd60e51b815260206004820152602e60248201527f496e697469616c697a61626c653a20636f6e747261637420697320616c72656160448201526d191e481a5b9a5d1a585b1a5e995960921b60648201526084015b60405180910390fd5b6000805460ff191660011790558015610ad3576000805461ff0019166101001790555b610adb613130565b610ae361315f565b609780546001600160a01b0319166001600160a01b03881690811790915560408051637e062a3560e11b8152905163fc0c546a916004808201926020929091908290030181865afa158015610b3c573d6000803e3d6000fd5b505050506040513d601f19601f82011682018060405250810190610b609190614d90565b609880546001600160a01b03199081166001600160a01b0393841617909155609980548216888416908117909155609a805460018181019092557f44da158ba27f9252712a74ff6a55c5d531f69609f1f6e7f17c4443a8e2089be4018054841683179055600091825260af60205260408220805460ff19169091179055609b8054831688851617905560b080548316878516179055609c8054909216928516929092179055609f558015610c4e576000805461ff0019169055604051600181527f7f26b83ff96e1f2b6a682f133852f6798a09c465da95921460cefb38474024989060200160405180910390a15b505050505050565b6033546001600160a01b0316331480610ceb5750609c5460405163b700961360e01b81526001600160a01b039091169063b700961390610caa90339030906001600160e01b03196000351690600401614dad565b602060405180830381865afa158015610cc7573d6000803e3d6000fd5b505050506040513d601f19601f82011682018060405250810190610ceb9190614dda565b610d075760405162461bcd60e51b8152600401610aa790614dfc565b609980546001600160a01b0319166001600160a01b0392909216919091179055565b609a81815481106109f457600080fd5b6033546001600160a01b0316331480610dce5750609c5460405163b700961360e01b81526001600160a01b039091169063b700961390610d8d90339030906001600160e01b03196000351690600401614dad565b602060405180830381865afa158015610daa573d6000803e3d6000fd5b505050506040513d601f19601f82011682018060405250810190610dce9190614dda565b610dea5760405162461bcd60e51b8152600401610aa790614dfc565b6001600160a01b038116610e295760405162461bcd60e51b815260206004820152600660248201526506164647220360d41b6044820152606401610aa7565b6001600160a01b038116600090815260af602052604090205460ff1615610e805760405162461bcd60e51b815260206004820152600b60248201526a672e66616374207472756560a81b6044820152606401610aa7565b609a805460018181019092557f44da158ba27f9252712a74ff6a55c5d531f69609f1f6e7f17c4443a8e2089be40180546001600160a01b039093166001600160a01b031990931683179055600091825260af6020526040909120805460ff19169091179055565b610eef61318e565b610ef8816131e7565b60975460405163430c208160e01b81526001600160a01b039091169063430c208190610f2a9033908590600401614e26565b602060405180830381865afa158015610f47573d6000803e3d6000fd5b505050506040513d601f19601f82011682018060405250810190610f6b9190614dda565b610f875760405162461bcd60e51b8152600401610aa790614e3f565b610f9081613243565b60975460405163c1f0fb9f60e01b8152600481018390526001600160a01b039091169063c1f0fb9f90602401600060405180830381600087803b158015610fd657600080fd5b505af1158015610fea573d6000803e3d6000fd5b50505050610ff6613027565b611001906001614e84565b600082815260ac602052604090205561101a6001606555565b50565b61102561318e565b61102e816131e7565b60975460405163430c208160e01b81526001600160a01b039091169063430c2081906110609033908590600401614e26565b602060405180830381865afa15801561107d573d6000803e3d6000fd5b505050506040513d601f19601f820116820180604052508101906110a19190614dda565b6110bd5760405162461bcd60e51b8152600401610aa790614e3f565b600081815260a8602090815260408083208054825181850281018501909352808352919290919083018282801561111d57602002820191906000526020600020905b81546001600160a01b031681526001909101906020018083116110ff575b505050505090506000815190506000816001600160401b038111156111445761114461487b565b60405190808252806020026020018201604052801561116d578160200160208202803683370190505b50905060005b828110156111fa5760a7600086815260200190815260200160002060008583815181106111a2576111a2614e9c565b60200260200101516001600160a01b03166001600160a01b03168152602001908152602001600020548282815181106111dd576111dd614e9c565b6020908102919091010152806111f281614eb2565b915050611173565b50611206848483613411565b61120e613027565b611219906001614e84565b600085815260ac60205260409020555061101a915061340a9050565b6033546001600160a01b03163314806112ca5750609c5460405163b700961360e01b81526001600160a01b039091169063b70096139061128990339030906001600160e01b03196000351690600401614dad565b602060405180830381865afa1580156112a6573d6000803e3d6000fd5b505050506040513d601f19601f820116820180604052508101906112ca9190614dda565b6112e65760405162461bcd60e51b8152600401610aa790614dfc565b609c80546001600160a01b0319166001600160a01b0392909216919091179055565b60b060009054906101000a90046001600160a01b03166001600160a01b031663ed29fc116040518163ffffffff1660e01b81526004016020604051808303816000875af115801561135d573d6000803e3d6000fd5b505050506040513d601f19601f820116820180604052508101906113819190614ecb565b5060985461139a906001600160a01b03163330846137f0565b60006113b5621275006113ab613027565b6105d79190614ee4565b9050600081156113df57816113d284670de0b6b3a7640000614efb565b6113dc9190614f1a565b90505b80156113fd5780609e60008282546113f79190614e84565b90915550505b6098546040518481526001600160a01b039091169033907ff70d5c697de7ea828df48e5c4573cb2194c659f1901f70110c52b066dcf508269060200160405180910390a3505050565b600080600061145361318e565b61145c84613941565b9194509250905061146d6001606555565b9193909250565b606080606061148161318e565b83518551146114bd5760405162461bcd60e51b81526020600482015260086024820152673632b7103234b33360c11b6044820152606401610aa7565b600a855111156114f85760405162461bcd60e51b815260206004820152600660248201526506d61782031360d41b6044820152606401610aa7565b600085516001600160401b038111156115135761151361487b565b60405190808252806020026020018201604052801561153c578160200160208202803683370190505b509050600086516001600160401b0381111561155a5761155a61487b565b604051908082528060200260200182016040528015611583578160200160208202803683370190505b509050600087516001600160401b038111156115a1576115a161487b565b6040519080825280602002602001820160405280156115ca578160200160208202803683370190505b50905060005b885181101561168d576116158982815181106115ee576115ee614e9c565b602002602001015189838151811061160857611608614e9c565b6020026020010151613f54565b86848151811061162757611627614e9c565b6020026020010186858151811061164057611640614e9c565b6020026020010186868151811061165957611659614e9c565b6001600160a01b0394851660209182029290920101529282169092529190911690528061168581614eb2565b9150506115d0565b509194509250905061169f6001606555565b9250925092565b6116ae61318e565b60b060009054906101000a90046001600160a01b03166001600160a01b031663ed29fc116040518163ffffffff1660e01b81526004016020604051808303816000875af1158015611703573d6000803e3d6000fd5b505050506040513d601f19601f820116820180604052508101906117279190614ecb565b50609d546000905b808210156117935761178160a26000609d858154811061175157611751614e9c565b60009182526020808320909101546001600160a01b0390811684529083019390935260409091019020541661435d565b8161178b81614eb2565b92505061172f565b505061179f6001606555565b565b60008060006117ae61318e565b6117b88585613f54565b9194509250905061169f6001606555565b6033546001600160a01b031633148061185e5750609c5460405163b700961360e01b81526001600160a01b039091169063b70096139061181d90339030906001600160e01b03196000351690600401614dad565b602060405180830381865afa15801561183a573d6000803e3d6000fd5b505050506040513d601f19601f8201168201806040525081019061185e9190614dda565b61187a5760405162461bcd60e51b8152600401610aa790614dfc565b6001600160a01b038116600090815260ad602052604090205460ff166118b25760405162461bcd60e51b8152600401610aa790614f3c565b60985460405163095ea7b360e01b81526001600160a01b039091169063095ea7b3906118e5908490600090600401614e26565b6020604051808303816000875af1158015611904573d6000803e3d6000fd5b505050506040513d601f19601f820116820180604052508101906119289190614dda565b5060985460405163095ea7b360e01b81526001600160a01b039091169063095ea7b39061195d90849060001990600401614e26565b6020604051808303816000875af115801561197c573d6000803e3d6000fd5b505050506040513d601f19601f820116820180604052508101906119a09190614dda565b5050565b6033546001600160a01b0316331480611a395750609c5460405163b700961360e01b81526001600160a01b039091169063b7009613906119f890339030906001600160e01b03196000351690600401614dad565b602060405180830381865afa158015611a15573d6000803e3d6000fd5b505050506040513d601f19601f82011682018060405250810190611a399190614dda565b611a555760405162461bcd60e51b8152600401610aa790614dfc565b6000609a8281548110611a6a57611a6a614e9c565b60009182526020808320909101546001600160a01b031680835260af90915260409091205490915060ff16611ad05760405162461bcd60e51b815260206004820152600c60248201526b672e666163742066616c736560a01b6044820152606401610aa7565b6000609a8381548110611ae557611ae5614e9c565b600091825260208083209190910180546001600160a01b0319166001600160a01b0394851617905592909116815260af90915260409020805460ff1916905550565b6033546001600160a01b0316331480611bbc5750609c5460405163b700961360e01b81526001600160a01b039091169063b700961390611b7b90339030906001600160e01b03196000351690600401614dad565b602060405180830381865afa158015611b98573d6000803e3d6000fd5b505050506040513d601f19601f82011682018060405250810190611bbc9190614dda565b611bd85760405162461bcd60e51b8152600401610aa790614dfc565b6001600160a01b038216611c175760405162461bcd60e51b815260206004820152600660248201526506164647220360d41b6044820152606401610aa7565b6001600160a01b038216600090815260af602052604090205460ff16611c6e5760405162461bcd60e51b815260206004820152600c60248201526b672e666163742066616c736560a01b6044820152606401610aa7565b6000609a8281548110611c8357611c83614e9c565b60009182526020808320909101546001600160a01b031680835260af9091526040909120805460ff19169055609a8054919250849184908110611cc857611cc8614e9c565b600091825260208083209190910180546001600160a01b0319166001600160a01b0394851617905594909116815260af909352505060409020805460ff19166001179055565b611d1661318e565b60b060009054906101000a90046001600160a01b03166001600160a01b031663ed29fc116040518163ffffffff1660e01b81526004016020604051808303816000875af1158015611d6b573d6000803e3d6000fd5b505050506040513d601f19601f82011682018060405250810190611d8f9190614ecb565b5060005b8151811015611dd057611dbe828281518110611db157611db1614e9c565b602002602001015161435d565b80611dc881614eb2565b915050611d93565b5061101a6001606555565b60975460405163430c208160e01b81526001600160a01b039091169063430c208190611e0d9033908590600401614e26565b602060405180830381865afa158015611e2a573d6000803e3d6000fd5b505050506040513d601f19601f82011682018060405250810190611e4e9190614dda565b611e6a5760405162461bcd60e51b8152600401610aa790614e3f565b60005b8351811015611f1b57838181518110611e8857611e88614e9c565b60200260200101516001600160a01b031663a7852afa83858481518110611eb157611eb1614e9c565b60200260200101516040518363ffffffff1660e01b8152600401611ed6929190614f61565b600060405180830381600087803b158015611ef057600080fd5b505af1158015611f04573d6000803e3d6000fd5b505050508080611f1390614eb2565b915050611e6d565b50505050565b611f296144a3565b61179f60006144fd565b611f3b61318e565b60b060009054906101000a90046001600160a01b03166001600160a01b031663ed29fc116040518163ffffffff1660e01b81526004016020604051808303816000875af1158015611f90573d6000803e3d6000fd5b505050506040513d601f19601f82011682018060405250810190611fb49190614ecb565b50815b81811015611feb57611fd960a26000609d848154811061175157611751614e9c565b80611fe381614eb2565b915050611fb7565b506119a06001606555565b60975460405163430c208160e01b81526001600160a01b039091169063430c2081906120289033908590600401614e26565b602060405180830381865afa158015612045573d6000803e3d6000fd5b505050506040513d601f19601f820116820180604052508101906120699190614dda565b6120855760405162461bcd60e51b8152600401610aa790614e3f565b60005b8351811015611f1b578381815181106120a3576120a3614e9c565b60200260200101516001600160a01b031663a7852afa838584815181106120cc576120cc614e9c565b60200260200101516040518363ffffffff1660e01b81526004016120f1929190614f61565b600060405180830381600087803b15801561210b57600080fd5b505af115801561211f573d6000803e3d6000fd5b50505050808061212e90614eb2565b915050612088565b61213e61318e565b612147856131e7565b60975460405163430c208160e01b81526001600160a01b039091169063430c2081906121799033908990600401614e26565b602060405180830381865afa158015612196573d6000803e3d6000fd5b505050506040513d601f19601f820116820180604052508101906121ba9190614dda565b6121d65760405162461bcd60e51b8152600401610aa790614e3f565b82811461220f5760405162461bcd60e51b815260206004820152600760248201526630b939103632b760c91b6044820152606401610aa7565b61227d858585808060200260200160405190810160405280939291908181526020018383602002808284376000920191909152505060408051602080890282810182019093528882529093508892508791829185019084908082843760009201919091525061341192505050565b612285613027565b612290906001614e84565b600086815260ac60205260409020556122a96001606555565b5050505050565b60608060606122bd61318e565b600a845111156122f85760405162461bcd60e51b815260206004820152600660248201526506d61782031360d41b6044820152606401610aa7565b600084516001600160401b038111156123135761231361487b565b60405190808252806020026020018201604052801561233c578160200160208202803683370190505b509050600085516001600160401b0381111561235a5761235a61487b565b604051908082528060200260200182016040528015612383578160200160208202803683370190505b509050600086516001600160401b038111156123a1576123a161487b565b6040519080825280602002602001820160405280156123ca578160200160208202803683370190505b50905060005b8751811015612473576123fb8882815181106123ee576123ee614e9c565b6020026020010151613941565b86848151811061240d5761240d614e9c565b6020026020010186858151811061242657612426614e9c565b6020026020010186868151811061243f5761243f614e9c565b6001600160a01b0394851660209182029290920101529282169092529190911690528061246b81614eb2565b9150506123d0565b509194509250905061146d6001606555565b6033546001600160a01b031633148061251a5750609c5460405163b700961360e01b81526001600160a01b039091169063b7009613906124d990339030906001600160e01b03196000351690600401614dad565b602060405180830381865afa1580156124f6573d6000803e3d6000fd5b505050506040513d601f19601f8201168201806040525081019061251a9190614dda565b6125365760405162461bcd60e51b8152600401610aa790614dfc565b609f5481036125755760405162461bcd60e51b815260206004820152600b60248201526a2173616d652064656c617960a81b6044820152606401610aa7565b620d2f008111156125ba5760405162461bcd60e51b815260206004820152600f60248201526e216f766572206d61782064656c617960881b6044820152606401610aa7565b609f55565b6000806125ca613027565b600090815260aa602052604090205492915050565b6125e761454f565b6126255760405162461bcd60e51b815260206004820152600f60248201526e4552523a20474f5645524e414e434560881b6044820152606401610aa7565b6001600160a01b038116600090815260ae602052604090205460ff166126825760405162461bcd60e51b815260206004820152601260248201527119d85d59d948185b1c9958591e481919585960721b6044820152606401610aa7565b6001600160a01b038116600081815260ae60209081526040808320805460ff1916905560a1909152808220829055517f04a5d3f5d80d22d9345acc80618f4a4e7e663cf9e1aed23b57d975acec002ba79190a250565b6126e061454f565b61271e5760405162461bcd60e51b815260206004820152600f60248201526e4552523a20474f5645524e414e434560881b6044820152606401610aa7565b6001600160a01b038116600090815260ae602052604090205460ff161561277d5760405162461bcd60e51b8152602060048201526013602482015272676175676520616c726561647920616c69766560681b6044820152606401610aa7565b6001600160a01b038116600090815260ad602052604090205460ff166127dc5760405162461bcd60e51b81526020600482015260146024820152736761756765206b696c6c656420746f74616c6c7960601b6044820152606401610aa7565b6001600160a01b038116600081815260ae60209081526040808320805460ff19166001179055609e5460a090925280832091909155517fed18e9faa3dccfd8aa45f69c4de40546b2ca9cccc4538a2323531656516db1aa9190a250565b6060609a80548060200260200160405190810160405280929190818152602001828054801561289157602002820191906000526020600020905b81546001600160a01b03168152600190910190602001808311612873575b5050505050905090565b60a860205281600052604060002081815481106128b757600080fd5b6000918252602090912001546001600160a01b03169150829050565b6000806128de613027565b600090815260a9602090815260408083206001600160a01b039096168352949052929092205492915050565b6033546001600160a01b031633148061299f5750609c5460405163b700961360e01b81526001600160a01b039091169063b70096139061295e90339030906001600160e01b03196000351690600401614dad565b602060405180830381865afa15801561297b573d6000803e3d6000fd5b505050506040513d601f19601f8201168201806040525081019061299f9190614dda565b6129bb5760405162461bcd60e51b8152600401610aa790614dfc565b609b80546001600160a01b0319166001600160a01b0392909216919091179055565b6033546001600160a01b0316331480612a725750609c5460405163b700961360e01b81526001600160a01b039091169063b700961390612a3190339030906001600160e01b03196000351690600401614dad565b602060405180830381865afa158015612a4e573d6000803e3d6000fd5b505050506040513d601f19601f82011682018060405250810190612a729190614dda565b612a8e5760405162461bcd60e51b8152600401610aa790614dfc565b6001600160a01b038316600090815260ad602052604090205460ff16612ac65760405162461bcd60e51b8152600401610aa790614f3c565b6001600160a01b03928316600090815260a56020908152604080832080549587166001600160a01b031996871617905560a690915290208054919093169116179055565b6033546001600160a01b0316331480612b9f5750609c5460405163b700961360e01b81526001600160a01b039091169063b700961390612b5e90339030906001600160e01b03196000351690600401614dad565b602060405180830381865afa158015612b7b573d6000803e3d6000fd5b505050506040513d601f19601f82011682018060405250810190612b9f9190614dda565b612bbb5760405162461bcd60e51b8152600401610aa790614dfc565b6001600160a01b038216600090815260ad602052604090205460ff16612bf35760405162461bcd60e51b8152600401610aa790614f3c565b6001600160a01b03918216600090815260a56020526040902080546001600160a01b03191691909216179055565b60005b8251811015612cd257828181518110612c3f57612c3f614e9c565b60200260200101516001600160a01b031663db0ea98433848481518110612c6857612c68614e9c565b60200260200101516040518363ffffffff1660e01b8152600401612c8d929190614f7a565b600060405180830381600087803b158015612ca757600080fd5b505af1158015612cbb573d6000803e3d6000fd5b505050508080612cca90614eb2565b915050612c24565b505050565b60005b81518110156119a05760ad6000838381518110612cf957612cf9614e9c565b6020908102919091018101516001600160a01b031682528101919091526040016000205460ff168015612d65575060ae6000838381518110612d3d57612d3d614e9c565b6020908102919091018101516001600160a01b031682528101919091526040016000205460ff165b15612dd757818181518110612d7c57612d7c614e9c565b60200260200101516001600160a01b031663d294f0936040518163ffffffff1660e01b8152600401600060405180830381600087803b158015612dbe57600080fd5b505af1158015612dd2573d6000803e3d6000fd5b505050505b80612de181614eb2565b915050612cda565b60005b8251811015612cd257828181518110612e0757612e07614e9c565b60200260200101516001600160a01b031663db0ea98433848481518110612e3057612e30614e9c565b60200260200101516040518363ffffffff1660e01b8152600401612e55929190614f7a565b600060405180830381600087803b158015612e6f57600080fd5b505af1158015612e83573d6000803e3d6000fd5b505050508080612e9290614eb2565b915050612dec565b6033546001600160a01b0316331480612f2f5750609c5460405163b700961360e01b81526001600160a01b039091169063b700961390612eee90339030906001600160e01b03196000351690600401614dad565b602060405180830381865afa158015612f0b573d6000803e3d6000fd5b505050506040513d601f19601f82011682018060405250810190612f2f9190614dda565b612f4b5760405162461bcd60e51b8152600401610aa790614dfc565b6001600160a01b038216600090815260ad602052604090205460ff16612f835760405162461bcd60e51b8152600401610aa790614f3c565b6001600160a01b03918216600090815260a66020526040902080546001600160a01b03191691909216179055565b612fb96144a3565b6001600160a01b03811661301e5760405162461bcd60e51b815260206004820152602660248201527f4f776e61626c653a206e6577206f776e657220697320746865207a65726f206160448201526564647265737360d01b6064820152608401610aa7565b61101a816144fd565b60b05460408051631a2732c160e31b815290516000926001600160a01b03169163d13996089160048083019260209291908290030181865afa158015613071573d6000803e3d6000fd5b505050506040513d601f19601f820116820180604052508101906130959190614ecb565b905090565b60005b81518110156119a0578181815181106130b8576130b8614e9c565b6020908102919091010151604051630c00007b60e41b81523360048201526001600160a01b039091169063c00007b090602401600060405180830381600087803b15801561310557600080fd5b505af1158015613119573d6000803e3d6000fd5b50505050808061312890614eb2565b91505061309d565b600054610100900460ff166131575760405162461bcd60e51b8152600401610aa790614f9e565b61179f6145fe565b600054610100900460ff166131865760405162461bcd60e51b8152600401610aa790614f9e565b61179f61462e565b6002606554036131e05760405162461bcd60e51b815260206004820152601f60248201527f5265656e7472616e637947756172643a207265656e7472616e742063616c6c006044820152606401610aa7565b6002606555565b609f54600082815260ac60205260409020546132039190614e84565b421161101a5760405162461bcd60e51b815260206004820152600f60248201526e4552523a20564f54455f44454c415960881b6044820152606401610aa7565b600081815260a860205260408120805490918061325e613027565b905060005b838110156133a057600085828154811061327f5761327f614e9c565b600091825260208083209091015489835260a7825260408084206001600160a01b0390921680855291909252912054909150801561338b576132bf613027565b600089815260ac6020526040902054111561330c57600084815260a9602090815260408083206001600160a01b038616845290915281208054839290613306908490614ee4565b90915550505b600088815260a7602090815260408083206001600160a01b03861684529091528120805483929061333e908490614ee4565b9091555061334e90508186614e84565b604080518a8152602081018490529196507fa9f3ca5f8a9e1580edb2741e0ba560084ec72e0067ba3423f9e9327a176882db910160405180910390a15b5050808061339890614eb2565b915050613263565b506133a9613027565b600086815260ac602052604090205410156133c357600091505b600081815260aa6020526040812080548492906133e1908490614ee4565b9091555050600085815260ab6020908152604080832083905560a890915281206122a991614786565b6001606555565b61341a83613243565b81516097546040516339f890b560e21b8152600481018690526000916001600160a01b03169063e7e242d490602401602060405180830381865afa158015613466573d6000803e3d6000fd5b505050506040513d601f19601f8201168201806040525081019061348a9190614ecb565b905060008060008061349a613027565b905060005b868110156134e0578781815181106134b9576134b9614e9c565b6020026020010151856134cc9190614e84565b9450806134d881614eb2565b91505061349f565b5060005b8681101561374b57600089828151811061350057613500614e9c565b6020908102919091018101516001600160a01b03808216600090815260a2845260408082205490921680825260ad909452205490925060ff16801561355d57506001600160a01b038116600090815260ae602052604090205460ff165b1561373657600087898c868151811061357857613578614e9c565b602002602001015161358a9190614efb565b6135949190614f1a565b60008e815260a7602090815260408083206001600160a01b0388168452909152902054909150156136075760405162461bcd60e51b815260206004820152601860248201527f616c726561647920766f74656420666f722074617267657400000000000000006044820152606401610aa7565b806000036136455760405162461bcd60e51b815260206004820152600b60248201526a7a65726f20766f7465207760a81b6044820152606401610aa7565b60008d815260a86020908152604080832080546001810182559084528284200180546001600160a01b0319166001600160a01b03881690811790915588845260a98352818420908452909152812080548392906136a3908490614e84565b909155505060008d815260a7602090815260408083206001600160a01b0387168452909152812080548392906136da908490614e84565b909155506136ea90508187614e84565b95506136f68188614e84565b604080518f81526020810184905291985033917fea66f58e474bc09f580000e81f31b334d171db387d0c6098ba47bd897741679b910160405180910390a2505b5050808061374390614eb2565b9150506134e4565b5081156137b15760975460405163fd4a77f160e01b8152600481018b90526001600160a01b039091169063fd4a77f190602401600060405180830381600087803b15801561379857600080fd5b505af11580156137ac573d6000803e3d6000fd5b505050505b600081815260aa6020526040812080548592906137cf908490614e84565b909155505050600097885260ab602052604090972096909655505050505050565b6000846001600160a01b03163b116138395760405162461bcd60e51b815260206004820152600c60248201526b1b9bdd0818dbdb9d1c9858dd60a21b6044820152606401610aa7565b604080516001600160a01b0385811660248301528481166044830152606480830185905283518084039091018152608490920183526020820180516001600160e01b03166323b872dd60e01b179052915160009283929088169161389d9190615015565b6000604051808303816000865af19150503d80600081146138da576040519150601f19603f3d011682016040523d82523d6000602084013e6138df565b606091505b50915091508180156139095750805115806139095750808060200190518101906139099190614dda565b610c4e5760405162461bcd60e51b815260206004820152600960248201526818d85b1b0819985a5b60ba1b6044820152606401610aa7565b60008060006139586033546001600160a01b031690565b6001600160a01b0316336001600160a01b031614806139f35750609c5460405163b700961360e01b81526001600160a01b039091169063b7009613906139b290339030906001600160e01b03196000351690600401614dad565b602060405180830381865afa1580156139cf573d6000803e3d6000fd5b505050506040513d601f19601f820116820180604052508101906139f39190614dda565b613a0f5760405162461bcd60e51b8152600401610aa790614dfc565b6001600160a01b03848116600090815260a260205260409020541615613a615760405162461bcd60e51b81526020600482015260076024820152662165786973747360c81b6044820152606401610aa7565b6000609a600081548110613a7757613a77614e9c565b6000918252602090912001546001600160a01b0316905080613acf5760405162461bcd60e51b81526020600482015260116024820152703d32b9379030b232391033b0bab3b2903360791b6044820152606401610aa7565b613ad761454f565b613af35760405162461bcd60e51b8152600401610aa790615031565b609b546001600160a01b031615613d2a576000856001600160a01b03166395d89b416040518163ffffffff1660e01b8152600401600060405180830381865afa158015613b44573d6000803e3d6000fd5b505050506040513d6000823e601f3d908101601f19168201604052613b6c91908101906150a8565b604051602001613b7c919061513b565b60408051601f19818403018152919052609b549091506001600160a01b0316635cbaa126613bb26033546001600160a01b031690565b88846040518463ffffffff1660e01b8152600401613bd293929190615176565b6020604051808303816000875af1158015613bf1573d6000803e3d6000fd5b505050506040513d601f19601f82011682018060405250810190613c159190614d90565b9350856001600160a01b03166395d89b416040518163ffffffff1660e01b8152600401600060405180830381865afa158015613c55573d6000803e3d6000fd5b505050506040513d6000823e601f3d908101601f19168201604052613c7d91908101906150a8565b604051602001613c8d91906151c3565b60408051601f19818403018152919052609b549091506001600160a01b0316635cbaa126613cc36033546001600160a01b031690565b88846040518463ffffffff1660e01b8152600401613ce393929190615176565b6020604051808303816000875af1158015613d02573d6000803e3d6000fd5b505050506040513d601f19601f82011682018060405250810190613d269190614d90565b9250505b609854609754604051630e1e9f4760e41b81526001600160a01b03928316600482015290821660248201528682166044820152306064820152848216608482015283821660a48201529082169063e1e9f4709060c4016020604051808303816000875af1158015613d9f573d6000803e3d6000fd5b505050506040513d601f19601f82011682018060405250810190613dc39190614d90565b60985460405163095ea7b360e01b81529195506001600160a01b03169063095ea7b390613df890879060001990600401614e26565b6020604051808303816000875af1158015613e17573d6000803e3d6000fd5b505050506040513d601f19601f82011682018060405250810190613e3b9190614dda565b506001600160a01b03848116600081815260a56020908152604080832080548987166001600160a01b0319918216811790925560a6845282852080548a89169083168117909155968c1680865260a28552838620805483168817905586865260a48552838620805483168217905560ad8552838620805460ff19908116600190811790925560ae8752858820805490911682179055609d805491820190557fd26e832454299e9fabb89e0e5fffdc046d4e14431bc1bf607ffb2e8a1ddecf7b0180549092168117909155609e5460a085529483902094909455815133815292830152919392917fed3b9172e8e6e99601d7718a5674363fc0f40c74cbfc20fd843bcac1f221f76c910160405180910390a4509193909250565b6000806000613f6b6033546001600160a01b031690565b6001600160a01b0316336001600160a01b031614806140065750609c5460405163b700961360e01b81526001600160a01b039091169063b700961390613fc590339030906001600160e01b03196000351690600401614dad565b602060405180830381865afa158015613fe2573d6000803e3d6000fd5b505050506040513d601f19601f820116820180604052508101906140069190614dda565b6140225760405162461bcd60e51b8152600401610aa790614dfc565b6001600160a01b03858116600090815260a2602052604090205416156140745760405162461bcd60e51b81526020600482015260076024820152662165786973747360c81b6044820152606401610aa7565b6000609a60008154811061408a5761408a614e9c565b6000918252602090912001546001600160a01b03169050806140e25760405162461bcd60e51b81526020600482015260116024820152703d32b9379030b232391033b0bab3b2903360791b6044820152606401610aa7565b6140ea61454f565b6141065760405162461bcd60e51b8152600401610aa790615031565b60985460975460405163386a5bf360e21b81526001600160a01b038881166004830152928316602482015290821660448201528782166064820152306084820152600060a4820181905260c48201819052918291829185169063e1a96fcc9060e4016020604051808303816000875af1158015614187573d6000803e3d6000fd5b505050506040513d601f19601f820116820180604052508101906141ab9190614d90565b60985460405163095ea7b360e01b81529192506001600160a01b03169063095ea7b3906141e090849060001990600401614e26565b6020604051808303816000875af11580156141ff573d6000803e3d6000fd5b505050506040513d601f19601f820116820180604052508101906142239190614dda565b506001600160a01b03808216600081815260a5602090815260408083208054868a166001600160a01b03199182161790915560a6835281842080548988169083168117909155958f1680855260a28452828520805483168717905585855260a48452828520805483168217905560ad8452828520805460ff19908116600190811790925560ae8652848720805490911682179055609d805491820190557fd26e832454299e9fabb89e0e5fffdc046d4e14431bc1bf607ffb2e8a1ddecf7b0180549092168117909155609e5485855260a0909352928190209190915551909291907f789525eca048c1f1ac4968a0f9c2ba07534aa2c34c31813db303f702a687f8089061434890339089906001600160a01b0392831681529116602082015260400190565b60405180910390a49891975095509350505050565b6001600160a01b038116600090815260a360205260408120549061437f613027565b905080821015612cd25761439283614655565b6001600160a01b038316600090815260a1602052604090205480158015906143d257506001600160a01b038416600090815260ae602052604090205460ff165b15611f1b576001600160a01b03808516600081815260a16020908152604080832083905560a390915290819020859055609854905163b66503cf60e01b8152919263b66503cf9261442b92909116908590600401614e26565b600060405180830381600087803b15801561444557600080fd5b505af1158015614459573d6000803e3d6000fd5b50506040518381526001600160a01b03871692503391507f4fa9693cae526341d334e2862ca2413b2e503f1266255f9e0869fb36e6d89b179060200160405180910390a350505050565b6033546001600160a01b0316331461179f5760405162461bcd60e51b815260206004820181905260248201527f4f776e61626c653a2063616c6c6572206973206e6f7420746865206f776e65726044820152606401610aa7565b603380546001600160a01b038381166001600160a01b0319831681179093556040519116919082907f8be0079c531659141344cd1fd0a4f28419497f9722a3daafe3b4186f6b6457e090600090a35050565b60006145636033546001600160a01b031690565b6001600160a01b0316336001600160a01b031614806130955750609c5460405163b700961360e01b81526001600160a01b039091169063b7009613906145bd90339030906001600160e01b03196000351690600401614dad565b602060405180830381865afa1580156145da573d6000803e3d6000fd5b505050506040513d601f19601f820116820180604052508101906130959190614dda565b600054610100900460ff166146255760405162461bcd60e51b8152600401610aa790614f9e565b61179f336144fd565b600054610100900460ff1661340a5760405162461bcd60e51b8152600401610aa790614f9e565b6001600160a01b03808216600090815260a46020526040812054909116906212750061467f613027565b6146899190614ee4565b600081815260a9602090815260408083206001600160a01b03871684529091529020549091508015614764576001600160a01b038416600090815260a0602052604081208054609e5491829055916146e18383614ee4565b9050801561475c576000670de0b6b3a76400006146fe8387614efb565b6147089190614f1a565b6001600160a01b038916600090815260ae602052604090205490915060ff161561475a576001600160a01b038816600090815260a1602052604081208054839290614754908490614e84565b90915550505b505b505050611f1b565b609e546001600160a01b038516600090815260a0602052604090205550505050565b508054600082559060005260206000209081019061101a91905b808211156147b457600081556001016147a0565b5090565b6000602082840312156147ca57600080fd5b5035919050565b6001600160a01b038116811461101a57600080fd5b600080600080600060a086880312156147fe57600080fd5b8535614809816147d1565b94506020860135614819816147d1565b93506040860135614829816147d1565b92506060860135614839816147d1565b91506080860135614849816147d1565b809150509295509295909350565b60006020828403121561486957600080fd5b8135614874816147d1565b9392505050565b634e487b7160e01b600052604160045260246000fd5b604051601f8201601f191681016001600160401b03811182821017156148b9576148b961487b565b604052919050565b60006001600160401b038211156148da576148da61487b565b5060051b60200190565b600082601f8301126148f557600080fd5b8135602061490a614905836148c1565b614891565b82815260059290921b8401810191818101908684111561492957600080fd5b8286015b8481101561494d578035614940816147d1565b835291830191830161492d565b509695505050505050565b6000806040838503121561496b57600080fd5b82356001600160401b038082111561498257600080fd5b61498e868387016148e4565b935060208501359150808211156149a457600080fd5b506149b1858286016148e4565b9150509250929050565b600081518084526020808501945080840160005b838110156149f45781516001600160a01b0316875295820195908201906001016149cf565b509495945050505050565b606081526000614a1260608301866149bb565b8281036020840152614a2481866149bb565b90508281036040840152614a3881856149bb565b9695505050505050565b60008060408385031215614a5557600080fd5b8235614a60816147d1565b91506020830135614a70816147d1565b809150509250929050565b60008060408385031215614a8e57600080fd5b8235614a99816147d1565b946020939093013593505050565b600060208284031215614ab957600080fd5b81356001600160401b03811115614acf57600080fd5b614adb848285016148e4565b949350505050565b600082601f830112614af457600080fd5b81356020614b04614905836148c1565b82815260059290921b84018101918181019086841115614b2357600080fd5b8286015b8481101561494d5780356001600160401b03811115614b465760008081fd5b614b548986838b01016148e4565b845250918301918301614b27565b600080600060608486031215614b7757600080fd5b83356001600160401b0380821115614b8e57600080fd5b614b9a878388016148e4565b94506020860135915080821115614bb057600080fd5b50614bbd86828701614ae3565b925050604084013590509250925092565b60008060408385031215614be157600080fd5b50508035926020909101359150565b60008083601f840112614c0257600080fd5b5081356001600160401b03811115614c1957600080fd5b6020830191508360208260051b8501011115614c3457600080fd5b9250929050565b600080600080600060608688031215614c5357600080fd5b8535945060208601356001600160401b0380821115614c7157600080fd5b614c7d89838a01614bf0565b90965094506040880135915080821115614c9657600080fd5b50614ca388828901614bf0565b969995985093965092949392505050565b60208152600061487460208301846149bb565b600080600060608486031215614cdc57600080fd5b8335614ce7816147d1565b92506020840135614cf7816147d1565b91506040840135614d07816147d1565b809150509250925092565b60008060408385031215614d2557600080fd5b82356001600160401b0380821115614d3c57600080fd5b614d48868387016148e4565b93506020850135915080821115614d5e57600080fd5b506149b185828601614ae3565b60008060408385031215614d7e57600080fd5b823591506020830135614a70816147d1565b600060208284031215614da257600080fd5b8151614874816147d1565b6001600160a01b0393841681529190921660208201526001600160e01b0319909116604082015260600190565b600060208284031215614dec57600080fd5b8151801515811461487457600080fd5b60208082526010908201526f22a9291d102b27aa22a92fa0a226a4a760811b604082015260600190565b6001600160a01b03929092168252602082015260400190565b6020808252601590820152741b9bdd081bdddb995c881bdc88185c1c1c9bdd9959605a1b604082015260600190565b634e487b7160e01b600052601160045260246000fd5b60008219821115614e9757614e97614e6e565b500190565b634e487b7160e01b600052603260045260246000fd5b600060018201614ec457614ec4614e6e565b5060010190565b600060208284031215614edd57600080fd5b5051919050565b600082821015614ef657614ef6614e6e565b500390565b6000816000190483118215151615614f1557614f15614e6e565b500290565b600082614f3757634e487b7160e01b600052601260045260246000fd5b500490565b6020808252600b908201526a6e6f74206120676175676560a81b604082015260600190565b828152604060208201526000614adb60408301846149bb565b6001600160a01b0383168152604060208201819052600090614adb908301846149bb565b6020808252602b908201527f496e697469616c697a61626c653a20636f6e7472616374206973206e6f74206960408201526a6e697469616c697a696e6760a81b606082015260800190565b60005b83811015615004578181015183820152602001614fec565b83811115611f1b5750506000910152565b60008251615027818460208701614fe9565b9190910192915050565b60208082526051908201527f544f444f2076657269667920746861742074686520746172676574206973206160408201527f6e20496f6e6963206d61726b657420696e2063617365207468652063616c6c65606082015270391034b9903737ba1030b71030b236b4b760791b608082015260a00190565b6000602082840312156150ba57600080fd5b81516001600160401b03808211156150d157600080fd5b818401915084601f8301126150e557600080fd5b8151818111156150f7576150f761487b565b61510a601f8201601f1916602001614891565b915080825285602082850101111561512157600080fd5b615132816020840160208601614fe9565b50949350505050565b72024b7b734b19036b0b935b2ba103332b2b99d1606d1b815260008251615169816013850160208701614fe9565b9190910160130192915050565b600060018060a01b0380861683528085166020840152506060604083015282518060608401526151ad816080850160208701614fe9565b601f01601f191691909101608001949350505050565b6d024b7b734b190213934b132b99d160951b8152600082516151ec81600e850160208701614fe9565b91909101600e019291505056fea164736f6c634300080d000a",
    "linkReferences": {}
  },
  "methodIdentifiers": {
    "MAX_VOTE_DELAY()": "6c4f2e38",
    "_epochTimestamp()": "f8803bb6",
    "_gaugeFactories()": "9fb5dc05",
    "_ve()": "8dd598fb",
    "addFactory(address)": "29ce1ec5",
    "bribeFactory()": "eb4a78e0",
    "claimBribes(address[],address[][])": "c2b79e98",
    "claimBribes(address[],address[][],uint256)": "7715ee75",
    "claimFees(address[],address[][])": "c991866d",
    "claimFees(address[],address[][],uint256)": "666256aa",
    "claimRewards(address[])": "f9f031df",
    "claimable(address)": "402914f5",
    "createMarketGauge(address,address)": "54944b13",
    "createMarketGauges(address[],address[])": "3dfe8c06",
    "createPairGauge(address)": "3df66dd1",
    "createPairGauges(address[])": "842eb3a9",
    "distribute(address[])": "6138889b",
    "distribute(uint256,uint256)": "7625391a",
    "distributeAll()": "436596c4",
    "distributeFees(address[])": "c527ee1f",
    "external_bribes(address)": "ae21c4cb",
    "gaugeFactories(uint256)": "23e1af42",
    "gaugeFactoriesLength()": "b52a3151",
    "gaugeFactory()": "0d52333c",
    "gauges(address)": "b9a09fd5",
    "gaugesDistributionTimestamp(address)": "e6da0457",
    "increaseGaugeApprovals(address)": "556e091d",
    "initialize(address,address,address,address,address)": "1459457a",
    "internal_bribes(address)": "eae40f26",
    "isAlive(address)": "1703e5f9",
    "isGauge(address)": "aa79979b",
    "isGaugeFactory(address)": "657021fb",
    "killGauge(address)": "992a7933",
    "lastVoted(uint256)": "f3594be0",
    "length()": "1f7b6d32",
    "minter()": "07546172",
    "notifyRewardAmount(uint256)": "3c6b16ab",
    "owner()": "8da5cb5b",
    "permissionRegistry()": "b55a5c1c",
    "poke(uint256)": "32145f90",
    "removeFactory(uint256)": "577387b5",
    "renounceOwnership()": "715018a6",
    "replaceFactory(address,uint256)": "5c6c2868",
    "reset(uint256)": "310bd74b",
    "reviveGauge(address)": "9f06247b",
    "setBribeFactory(address)": "a9b5aa7e",
    "setExternalBribeFor(address,address)": "daa168bd",
    "setGaugeFactory(address)": "23130d11",
    "setInternalBribeFor(address,address)": "b7c89f9c",
    "setNewBribes(address,address,address)": "b0f50278",
    "setPermissionsRegistry(address)": "33832a6a",
    "setVoteDelay(uint256)": "8b6fc247",
    "targetForGauge(address)": "c1294495",
    "targetVote(uint256,uint256)": "a4388c97",
    "targetVoteLength(uint256)": "05118b3b",
    "targets(uint256)": "0a39ce02",
    "totalWeight()": "96c82e57",
    "totalWeightAt(uint256)": "53be568d",
    "transferOwnership(address)": "f2fde38b",
    "usedWeights(uint256)": "79e93824",
    "vote(uint256,address[],uint256[])": "7ac09bf7",
    "voteDelay()": "292fc979",
    "votes(uint256,address)": "d23254b4",
    "weights(address)": "a7cac846",
    "weightsAt(address,uint256)": "636056f2"
  }
}