{
  "address": "0x74112313046503EBAD894732980F7981FfAA9Def",
  "abi": [
    {
      "inputs": [],
      "stateMutability": "nonpayable",
      "type": "constructor"
    },
    {
      "inputs": [],
      "name": "XERC721__addBridge_alreadyAdded",
      "type": "error"
    },
    {
      "inputs": [],
      "name": "XERC721__onlyBridge_notBridge",
      "type": "error"
    },
    {
      "inputs": [],
      "name": "XERC721__removeBridge_alreadyRemoved",
      "type": "error"
    },
    {
      "anonymous": false,
      "inputs": [
        {
          "indexed": true,
          "internalType": "address",
          "name": "owner",
          "type": "address"
        },
        {
          "indexed": true,
          "internalType": "address",
          "name": "approved",
          "type": "address"
        },
        {
          "indexed": true,
          "internalType": "uint256",
          "name": "tokenId",
          "type": "uint256"
        }
      ],
      "name": "Approval",
      "type": "event"
    },
    {
      "anonymous": false,
      "inputs": [
        {
          "indexed": true,
          "internalType": "address",
          "name": "owner",
          "type": "address"
        },
        {
          "indexed": true,
          "internalType": "address",
          "name": "operator",
          "type": "address"
        },
        {
          "indexed": false,
          "internalType": "bool",
          "name": "approved",
          "type": "bool"
        }
      ],
      "name": "ApprovalForAll",
      "type": "event"
    },
    {
      "anonymous": false,
      "inputs": [
        {
          "indexed": true,
          "internalType": "address",
          "name": "bridge",
          "type": "address"
        }
      ],
      "name": "BridgeAdded",
      "type": "event"
    },
    {
      "anonymous": false,
      "inputs": [
        {
          "indexed": true,
          "internalType": "address",
          "name": "bridge",
          "type": "address"
        }
      ],
      "name": "BridgeRemoved",
      "type": "event"
    },
    {
      "anonymous": false,
      "inputs": [
        {
          "indexed": true,
          "internalType": "address",
          "name": "delegator",
          "type": "address"
        },
        {
          "indexed": true,
          "internalType": "address",
          "name": "fromDelegate",
          "type": "address"
        },
        {
          "indexed": true,
          "internalType": "address",
          "name": "toDelegate",
          "type": "address"
        }
      ],
      "name": "DelegateChanged",
      "type": "event"
    },
    {
      "anonymous": false,
      "inputs": [
        {
          "indexed": true,
          "internalType": "address",
          "name": "delegate",
          "type": "address"
        },
        {
          "indexed": false,
          "internalType": "uint256",
          "name": "previousBalance",
          "type": "uint256"
        },
        {
          "indexed": false,
          "internalType": "uint256",
          "name": "newBalance",
          "type": "uint256"
        }
      ],
      "name": "DelegateVotesChanged",
      "type": "event"
    },
    {
      "anonymous": false,
      "inputs": [
        {
          "indexed": true,
          "internalType": "address",
          "name": "provider",
          "type": "address"
        },
        {
          "indexed": false,
          "internalType": "uint256",
          "name": "tokenId",
          "type": "uint256"
        },
        {
          "indexed": false,
          "internalType": "uint256",
          "name": "value",
          "type": "uint256"
        },
        {
          "indexed": true,
          "internalType": "uint256",
          "name": "locktime",
          "type": "uint256"
        },
        {
          "indexed": false,
          "internalType": "enum VoteEscrow.DepositType",
          "name": "deposit_type",
          "type": "uint8"
        },
        {
          "indexed": false,
          "internalType": "uint256",
          "name": "ts",
          "type": "uint256"
        }
      ],
      "name": "Deposit",
      "type": "event"
    },
    {
      "anonymous": false,
      "inputs": [
        {
          "indexed": false,
          "internalType": "uint8",
          "name": "version",
          "type": "uint8"
        }
      ],
      "name": "Initialized",
      "type": "event"
    },
    {
      "anonymous": false,
      "inputs": [
        {
          "indexed": true,
          "internalType": "address",
          "name": "previousOwner",
          "type": "address"
        },
        {
          "indexed": true,
          "internalType": "address",
          "name": "newOwner",
          "type": "address"
        }
      ],
      "name": "OwnershipTransferStarted",
      "type": "event"
    },
    {
      "anonymous": false,
      "inputs": [
        {
          "indexed": true,
          "internalType": "address",
          "name": "previousOwner",
          "type": "address"
        },
        {
          "indexed": true,
          "internalType": "address",
          "name": "newOwner",
          "type": "address"
        }
      ],
      "name": "OwnershipTransferred",
      "type": "event"
    },
    {
      "anonymous": false,
      "inputs": [
        {
          "indexed": false,
          "internalType": "uint256",
          "name": "prevSupply",
          "type": "uint256"
        },
        {
          "indexed": false,
          "internalType": "uint256",
          "name": "supply",
          "type": "uint256"
        }
      ],
      "name": "Supply",
      "type": "event"
    },
    {
      "anonymous": false,
      "inputs": [
        {
          "indexed": true,
          "internalType": "address",
          "name": "from",
          "type": "address"
        },
        {
          "indexed": true,
          "internalType": "address",
          "name": "to",
          "type": "address"
        },
        {
          "indexed": true,
          "internalType": "uint256",
          "name": "tokenId",
          "type": "uint256"
        }
      ],
      "name": "Transfer",
      "type": "event"
    },
    {
      "anonymous": false,
      "inputs": [
        {
          "indexed": true,
          "internalType": "address",
          "name": "provider",
          "type": "address"
        },
        {
          "indexed": false,
          "internalType": "uint256",
          "name": "tokenId",
          "type": "uint256"
        },
        {
          "indexed": false,
          "internalType": "uint256",
          "name": "value",
          "type": "uint256"
        },
        {
          "indexed": false,
          "internalType": "uint256",
          "name": "ts",
          "type": "uint256"
        }
      ],
      "name": "Withdraw",
      "type": "event"
    },
    {
      "inputs": [],
      "name": "ARBITRUM_ONE",
      "outputs": [
        {
          "internalType": "uint128",
          "name": "",
          "type": "uint128"
        }
      ],
      "stateMutability": "view",
      "type": "function"
    },
    {
      "inputs": [],
      "name": "DELEGATION_TYPEHASH",
      "outputs": [
        {
          "internalType": "bytes32",
          "name": "",
          "type": "bytes32"
        }
      ],
      "stateMutability": "view",
      "type": "function"
    },
    {
      "inputs": [],
      "name": "DOMAIN_TYPEHASH",
      "outputs": [
        {
          "internalType": "bytes32",
          "name": "",
          "type": "bytes32"
        }
      ],
      "stateMutability": "view",
      "type": "function"
    },
    {
      "inputs": [],
      "name": "MAX_DELEGATES",
      "outputs": [
        {
          "internalType": "uint256",
          "name": "",
          "type": "uint256"
        }
      ],
      "stateMutability": "view",
      "type": "function"
    },
    {
      "inputs": [
        {
          "internalType": "uint256",
          "name": "_tokenId",
          "type": "uint256"
        }
      ],
      "name": "abstain",
      "outputs": [],
      "stateMutability": "nonpayable",
      "type": "function"
    },
    {
      "inputs": [],
      "name": "acceptOwnership",
      "outputs": [],
      "stateMutability": "nonpayable",
      "type": "function"
    },
    {
      "inputs": [
        {
          "internalType": "address",
          "name": "_bridge",
          "type": "address"
        }
      ],
      "name": "addBridge",
      "outputs": [],
      "stateMutability": "nonpayable",
      "type": "function"
    },
    {
      "inputs": [
        {
          "internalType": "address",
          "name": "_approved",
          "type": "address"
        },
        {
          "internalType": "uint256",
          "name": "_tokenId",
          "type": "uint256"
        }
      ],
      "name": "approve",
      "outputs": [],
      "stateMutability": "nonpayable",
      "type": "function"
    },
    {
      "inputs": [
        {
          "internalType": "uint256",
          "name": "_tokenId",
          "type": "uint256"
        }
      ],
      "name": "attach",
      "outputs": [],
      "stateMutability": "nonpayable",
      "type": "function"
    },
    {
      "inputs": [
        {
          "internalType": "uint256",
          "name": "",
          "type": "uint256"
        }
      ],
      "name": "attachments",
      "outputs": [
        {
          "internalType": "uint256",
          "name": "",
          "type": "uint256"
        }
      ],
      "stateMutability": "view",
      "type": "function"
    },
    {
      "inputs": [
        {
          "internalType": "address",
          "name": "_owner",
          "type": "address"
        }
      ],
      "name": "balanceOf",
      "outputs": [
        {
          "internalType": "uint256",
          "name": "",
          "type": "uint256"
        }
      ],
      "stateMutability": "view",
      "type": "function"
    },
    {
      "inputs": [
        {
          "internalType": "uint256",
          "name": "_tokenId",
          "type": "uint256"
        },
        {
          "internalType": "uint256",
          "name": "_block",
          "type": "uint256"
        }
      ],
      "name": "balanceOfAtNFT",
      "outputs": [
        {
          "internalType": "uint256",
          "name": "",
          "type": "uint256"
        }
      ],
      "stateMutability": "view",
      "type": "function"
    },
    {
      "inputs": [
        {
          "internalType": "uint256",
          "name": "_tokenId",
          "type": "uint256"
        }
      ],
      "name": "balanceOfNFT",
      "outputs": [
        {
          "internalType": "uint256",
          "name": "",
          "type": "uint256"
        }
      ],
      "stateMutability": "view",
      "type": "function"
    },
    {
      "inputs": [
        {
          "internalType": "uint256",
          "name": "_tokenId",
          "type": "uint256"
        },
        {
          "internalType": "uint256",
          "name": "_t",
          "type": "uint256"
        }
      ],
      "name": "balanceOfNFTAt",
      "outputs": [
        {
          "internalType": "uint256",
          "name": "",
          "type": "uint256"
        }
      ],
      "stateMutability": "view",
      "type": "function"
    },
    {
      "inputs": [],
      "name": "block_number",
      "outputs": [
        {
          "internalType": "uint256",
          "name": "",
          "type": "uint256"
        }
      ],
      "stateMutability": "view",
      "type": "function"
    },
    {
      "inputs": [
        {
          "internalType": "uint256",
          "name": "_tokenId",
          "type": "uint256"
        }
      ],
      "name": "burn",
      "outputs": [],
      "stateMutability": "nonpayable",
      "type": "function"
    },
    {
      "inputs": [],
      "name": "checkpoint",
      "outputs": [],
      "stateMutability": "nonpayable",
      "type": "function"
    },
    {
      "inputs": [
        {
          "internalType": "address",
          "name": "",
          "type": "address"
        },
        {
          "internalType": "uint32",
          "name": "",
          "type": "uint32"
        }
      ],
      "name": "checkpoints",
      "outputs": [
        {
          "internalType": "uint256",
          "name": "timestamp",
          "type": "uint256"
        }
      ],
      "stateMutability": "view",
      "type": "function"
    },
    {
      "inputs": [
        {
          "internalType": "uint256",
          "name": "_value",
          "type": "uint256"
        },
        {
          "internalType": "uint256",
          "name": "_lock_duration",
          "type": "uint256"
        }
      ],
      "name": "create_lock",
      "outputs": [
        {
          "internalType": "uint256",
          "name": "",
          "type": "uint256"
        }
      ],
      "stateMutability": "nonpayable",
      "type": "function"
    },
    {
      "inputs": [
        {
          "internalType": "uint256",
          "name": "_value",
          "type": "uint256"
        },
        {
          "internalType": "uint256",
          "name": "_lock_duration",
          "type": "uint256"
        },
        {
          "internalType": "address",
          "name": "_to",
          "type": "address"
        }
      ],
      "name": "create_lock_for",
      "outputs": [
        {
          "internalType": "uint256",
          "name": "",
          "type": "uint256"
        }
      ],
      "stateMutability": "nonpayable",
      "type": "function"
    },
    {
      "inputs": [
        {
          "internalType": "address",
          "name": "delegatee",
          "type": "address"
        }
      ],
      "name": "delegate",
      "outputs": [],
      "stateMutability": "nonpayable",
      "type": "function"
    },
    {
      "inputs": [
        {
          "internalType": "address",
          "name": "delegatee",
          "type": "address"
        },
        {
          "internalType": "uint256",
          "name": "nonce",
          "type": "uint256"
        },
        {
          "internalType": "uint256",
          "name": "expiry",
          "type": "uint256"
        },
        {
          "internalType": "uint8",
          "name": "v",
          "type": "uint8"
        },
        {
          "internalType": "bytes32",
          "name": "r",
          "type": "bytes32"
        },
        {
          "internalType": "bytes32",
          "name": "s",
          "type": "bytes32"
        }
      ],
      "name": "delegateBySig",
      "outputs": [],
      "stateMutability": "nonpayable",
      "type": "function"
    },
    {
      "inputs": [
        {
          "internalType": "address",
          "name": "delegator",
          "type": "address"
        }
      ],
      "name": "delegates",
      "outputs": [
        {
          "internalType": "address",
          "name": "",
          "type": "address"
        }
      ],
      "stateMutability": "view",
      "type": "function"
    },
    {
      "inputs": [
        {
          "internalType": "uint256",
          "name": "_tokenId",
          "type": "uint256"
        },
        {
          "internalType": "uint256",
          "name": "_value",
          "type": "uint256"
        }
      ],
      "name": "deposit_for",
      "outputs": [],
      "stateMutability": "nonpayable",
      "type": "function"
    },
    {
      "inputs": [
        {
          "internalType": "uint256",
          "name": "_tokenId",
          "type": "uint256"
        }
      ],
      "name": "detach",
      "outputs": [],
      "stateMutability": "nonpayable",
      "type": "function"
    },
    {
      "inputs": [],
      "name": "epoch",
      "outputs": [
        {
          "internalType": "uint256",
          "name": "",
          "type": "uint256"
        }
      ],
      "stateMutability": "view",
      "type": "function"
    },
    {
      "inputs": [
        {
          "internalType": "uint256",
          "name": "_tokenId",
          "type": "uint256"
        }
      ],
      "name": "getApproved",
      "outputs": [
        {
          "internalType": "address",
          "name": "",
          "type": "address"
        }
      ],
      "stateMutability": "view",
      "type": "function"
    },
    {
      "inputs": [
        {
          "internalType": "uint256",
          "name": "timestamp",
          "type": "uint256"
        }
      ],
      "name": "getPastTotalSupply",
      "outputs": [
        {
          "internalType": "uint256",
          "name": "",
          "type": "uint256"
        }
      ],
      "stateMutability": "view",
      "type": "function"
    },
    {
      "inputs": [
        {
          "internalType": "address",
          "name": "account",
          "type": "address"
        },
        {
          "internalType": "uint256",
          "name": "timestamp",
          "type": "uint256"
        }
      ],
      "name": "getPastVotes",
      "outputs": [
        {
          "internalType": "uint256",
          "name": "",
          "type": "uint256"
        }
      ],
      "stateMutability": "view",
      "type": "function"
    },
    {
      "inputs": [
        {
          "internalType": "address",
          "name": "account",
          "type": "address"
        },
        {
          "internalType": "uint256",
          "name": "timestamp",
          "type": "uint256"
        }
      ],
      "name": "getPastVotesIndex",
      "outputs": [
        {
          "internalType": "uint32",
          "name": "",
          "type": "uint32"
        }
      ],
      "stateMutability": "view",
      "type": "function"
    },
    {
      "inputs": [
        {
          "internalType": "address",
          "name": "account",
          "type": "address"
        }
      ],
      "name": "getVotes",
      "outputs": [
        {
          "internalType": "uint256",
          "name": "",
          "type": "uint256"
        }
      ],
      "stateMutability": "view",
      "type": "function"
    },
    {
      "inputs": [
        {
          "internalType": "uint256",
          "name": "_tokenId",
          "type": "uint256"
        }
      ],
      "name": "get_last_user_slope",
      "outputs": [
        {
          "internalType": "int128",
          "name": "",
          "type": "int128"
        }
      ],
      "stateMutability": "view",
      "type": "function"
    },
    {
      "inputs": [
        {
          "internalType": "uint256",
          "name": "_tokenId",
          "type": "uint256"
        },
        {
          "internalType": "uint256",
          "name": "_value",
          "type": "uint256"
        }
      ],
      "name": "increase_amount",
      "outputs": [],
      "stateMutability": "nonpayable",
      "type": "function"
    },
    {
      "inputs": [
        {
          "internalType": "uint256",
          "name": "_tokenId",
          "type": "uint256"
        },
        {
          "internalType": "uint256",
          "name": "_lock_duration",
          "type": "uint256"
        }
      ],
      "name": "increase_unlock_time",
      "outputs": [],
      "stateMutability": "nonpayable",
      "type": "function"
    },
    {
      "inputs": [
        {
          "internalType": "string",
          "name": "name_",
          "type": "string"
        },
        {
          "internalType": "string",
          "name": "symbol_",
          "type": "string"
        },
        {
          "internalType": "address",
          "name": "token_addr",
          "type": "address"
        }
      ],
      "name": "initialize",
      "outputs": [],
      "stateMutability": "nonpayable",
      "type": "function"
    },
    {
      "inputs": [
        {
          "internalType": "address",
          "name": "_owner",
          "type": "address"
        },
        {
          "internalType": "address",
          "name": "_operator",
          "type": "address"
        }
      ],
      "name": "isApprovedForAll",
      "outputs": [
        {
          "internalType": "bool",
          "name": "",
          "type": "bool"
        }
      ],
      "stateMutability": "view",
      "type": "function"
    },
    {
      "inputs": [
        {
          "internalType": "address",
          "name": "_spender",
          "type": "address"
        },
        {
          "internalType": "uint256",
          "name": "_tokenId",
          "type": "uint256"
        }
      ],
      "name": "isApprovedOrOwner",
      "outputs": [
        {
          "internalType": "bool",
          "name": "",
          "type": "bool"
        }
      ],
      "stateMutability": "view",
      "type": "function"
    },
    {
      "inputs": [
        {
          "internalType": "uint256",
          "name": "",
          "type": "uint256"
        }
      ],
      "name": "locked",
      "outputs": [
        {
          "internalType": "int128",
          "name": "amount",
          "type": "int128"
        },
        {
          "internalType": "uint256",
          "name": "end",
          "type": "uint256"
        }
      ],
      "stateMutability": "view",
      "type": "function"
    },
    {
      "inputs": [
        {
          "internalType": "uint256",
          "name": "_tokenId",
          "type": "uint256"
        }
      ],
      "name": "locked__end",
      "outputs": [
        {
          "internalType": "uint256",
          "name": "",
          "type": "uint256"
        }
      ],
      "stateMutability": "view",
      "type": "function"
    },
    {
      "inputs": [],
      "name": "masterChainId",
      "outputs": [
        {
          "internalType": "uint256",
          "name": "",
          "type": "uint256"
        }
      ],
      "stateMutability": "view",
      "type": "function"
    },
    {
      "inputs": [
        {
          "internalType": "uint256",
          "name": "_from",
          "type": "uint256"
        },
        {
          "internalType": "uint256",
          "name": "_to",
          "type": "uint256"
        }
      ],
      "name": "merge",
      "outputs": [],
      "stateMutability": "nonpayable",
      "type": "function"
    },
    {
      "inputs": [
        {
          "internalType": "address",
          "name": "_to",
          "type": "address"
        },
        {
          "internalType": "uint256",
          "name": "_tokenId",
          "type": "uint256"
        }
      ],
      "name": "mint",
      "outputs": [],
      "stateMutability": "nonpayable",
      "type": "function"
    },
    {
      "inputs": [],
      "name": "name",
      "outputs": [
        {
          "internalType": "string",
          "name": "",
          "type": "string"
        }
      ],
      "stateMutability": "view",
      "type": "function"
    },
    {
      "inputs": [
        {
          "internalType": "address",
          "name": "",
          "type": "address"
        }
      ],
      "name": "nonces",
      "outputs": [
        {
          "internalType": "uint256",
          "name": "",
          "type": "uint256"
        }
      ],
      "stateMutability": "view",
      "type": "function"
    },
    {
      "inputs": [
        {
          "internalType": "address",
          "name": "",
          "type": "address"
        }
      ],
      "name": "numCheckpoints",
      "outputs": [
        {
          "internalType": "uint32",
          "name": "",
          "type": "uint32"
        }
      ],
      "stateMutability": "view",
      "type": "function"
    },
    {
      "inputs": [],
      "name": "owner",
      "outputs": [
        {
          "internalType": "address",
          "name": "",
          "type": "address"
        }
      ],
      "stateMutability": "view",
      "type": "function"
    },
    {
      "inputs": [
        {
          "internalType": "uint256",
          "name": "_tokenId",
          "type": "uint256"
        }
      ],
      "name": "ownerOf",
      "outputs": [
        {
          "internalType": "address",
          "name": "",
          "type": "address"
        }
      ],
      "stateMutability": "view",
      "type": "function"
    },
    {
      "inputs": [
        {
          "internalType": "uint256",
          "name": "",
          "type": "uint256"
        }
      ],
      "name": "ownership_change",
      "outputs": [
        {
          "internalType": "uint256",
          "name": "",
          "type": "uint256"
        }
      ],
      "stateMutability": "view",
      "type": "function"
    },
    {
      "inputs": [],
      "name": "pendingOwner",
      "outputs": [
        {
          "internalType": "address",
          "name": "",
          "type": "address"
        }
      ],
      "stateMutability": "view",
      "type": "function"
    },
    {
      "inputs": [
        {
          "internalType": "uint256",
          "name": "",
          "type": "uint256"
        }
      ],
      "name": "point_history",
      "outputs": [
        {
          "internalType": "int128",
          "name": "bias",
          "type": "int128"
        },
        {
          "internalType": "int128",
          "name": "slope",
          "type": "int128"
        },
        {
          "internalType": "uint256",
          "name": "ts",
          "type": "uint256"
        },
        {
          "internalType": "uint256",
          "name": "blk",
          "type": "uint256"
        }
      ],
      "stateMutability": "view",
      "type": "function"
    },
    {
      "inputs": [
        {
          "internalType": "address",
          "name": "_bridge",
          "type": "address"
        }
      ],
      "name": "removeBridge",
      "outputs": [],
      "stateMutability": "nonpayable",
      "type": "function"
    },
    {
      "inputs": [],
      "name": "renounceOwnership",
      "outputs": [],
      "stateMutability": "nonpayable",
      "type": "function"
    },
    {
      "inputs": [
        {
          "internalType": "address",
          "name": "_from",
          "type": "address"
        },
        {
          "internalType": "address",
          "name": "_to",
          "type": "address"
        },
        {
          "internalType": "uint256",
          "name": "_tokenId",
          "type": "uint256"
        }
      ],
      "name": "safeTransferFrom",
      "outputs": [],
      "stateMutability": "nonpayable",
      "type": "function"
    },
    {
      "inputs": [
        {
          "internalType": "address",
          "name": "_from",
          "type": "address"
        },
        {
          "internalType": "address",
          "name": "_to",
          "type": "address"
        },
        {
          "internalType": "uint256",
          "name": "_tokenId",
          "type": "uint256"
        },
        {
          "internalType": "bytes",
          "name": "_data",
          "type": "bytes"
        }
      ],
      "name": "safeTransferFrom",
      "outputs": [],
      "stateMutability": "nonpayable",
      "type": "function"
    },
    {
      "inputs": [
        {
          "internalType": "address",
          "name": "_operator",
          "type": "address"
        },
        {
          "internalType": "bool",
          "name": "_approved",
          "type": "bool"
        }
      ],
      "name": "setApprovalForAll",
      "outputs": [],
      "stateMutability": "nonpayable",
      "type": "function"
    },
    {
      "inputs": [
        {
          "internalType": "address",
          "name": "_team",
          "type": "address"
        }
      ],
      "name": "setTeam",
      "outputs": [],
      "stateMutability": "nonpayable",
      "type": "function"
    },
    {
      "inputs": [
        {
          "internalType": "address",
          "name": "_voter",
          "type": "address"
        }
      ],
      "name": "setVoter",
      "outputs": [],
      "stateMutability": "nonpayable",
      "type": "function"
    },
    {
      "inputs": [
        {
          "internalType": "uint256",
          "name": "",
          "type": "uint256"
        }
      ],
      "name": "slope_changes",
      "outputs": [
        {
          "internalType": "int128",
          "name": "",
          "type": "int128"
        }
      ],
      "stateMutability": "view",
      "type": "function"
    },
    {
      "inputs": [
        {
          "internalType": "uint256[]",
          "name": "amounts",
          "type": "uint256[]"
        },
        {
          "internalType": "uint256",
          "name": "_tokenId",
          "type": "uint256"
        }
      ],
      "name": "split",
      "outputs": [],
      "stateMutability": "nonpayable",
      "type": "function"
    },
    {
      "inputs": [],
      "name": "supply",
      "outputs": [
        {
          "internalType": "uint256",
          "name": "",
          "type": "uint256"
        }
      ],
      "stateMutability": "view",
      "type": "function"
    },
    {
      "inputs": [
        {
          "internalType": "bytes4",
          "name": "_interfaceID",
          "type": "bytes4"
        }
      ],
      "name": "supportsInterface",
      "outputs": [
        {
          "internalType": "bool",
          "name": "",
          "type": "bool"
        }
      ],
      "stateMutability": "view",
      "type": "function"
    },
    {
      "inputs": [],
      "name": "symbol",
      "outputs": [
        {
          "internalType": "string",
          "name": "",
          "type": "string"
        }
      ],
      "stateMutability": "view",
      "type": "function"
    },
    {
      "inputs": [],
      "name": "team",
      "outputs": [
        {
          "internalType": "address",
          "name": "",
          "type": "address"
        }
      ],
      "stateMutability": "view",
      "type": "function"
    },
    {
      "inputs": [],
      "name": "token",
      "outputs": [
        {
          "internalType": "address",
          "name": "",
          "type": "address"
        }
      ],
      "stateMutability": "view",
      "type": "function"
    },
    {
      "inputs": [
        {
          "internalType": "address",
          "name": "_owner",
          "type": "address"
        },
        {
          "internalType": "uint256",
          "name": "_tokenIndex",
          "type": "uint256"
        }
      ],
      "name": "tokenOfOwnerByIndex",
      "outputs": [
        {
          "internalType": "uint256",
          "name": "",
          "type": "uint256"
        }
      ],
      "stateMutability": "view",
      "type": "function"
    },
    {
      "inputs": [
        {
          "internalType": "uint256",
          "name": "_tokenId",
          "type": "uint256"
        }
      ],
      "name": "tokenURI",
      "outputs": [
        {
          "internalType": "string",
          "name": "",
          "type": "string"
        }
      ],
      "stateMutability": "view",
      "type": "function"
    },
    {
      "inputs": [],
      "name": "totalSupply",
      "outputs": [
        {
          "internalType": "uint256",
          "name": "",
          "type": "uint256"
        }
      ],
      "stateMutability": "view",
      "type": "function"
    },
    {
      "inputs": [
        {
          "internalType": "uint256",
          "name": "_block",
          "type": "uint256"
        }
      ],
      "name": "totalSupplyAt",
      "outputs": [
        {
          "internalType": "uint256",
          "name": "",
          "type": "uint256"
        }
      ],
      "stateMutability": "view",
      "type": "function"
    },
    {
      "inputs": [
        {
          "internalType": "uint256",
          "name": "t",
          "type": "uint256"
        }
      ],
      "name": "totalSupplyAtT",
      "outputs": [
        {
          "internalType": "uint256",
          "name": "",
          "type": "uint256"
        }
      ],
      "stateMutability": "view",
      "type": "function"
    },
    {
      "inputs": [
        {
          "internalType": "address",
          "name": "_from",
          "type": "address"
        },
        {
          "internalType": "address",
          "name": "_to",
          "type": "address"
        },
        {
          "internalType": "uint256",
          "name": "_tokenId",
          "type": "uint256"
        }
      ],
      "name": "transferFrom",
      "outputs": [],
      "stateMutability": "nonpayable",
      "type": "function"
    },
    {
      "inputs": [
        {
          "internalType": "address",
          "name": "newOwner",
          "type": "address"
        }
      ],
      "name": "transferOwnership",
      "outputs": [],
      "stateMutability": "nonpayable",
      "type": "function"
    },
    {
      "inputs": [
        {
          "internalType": "uint256",
          "name": "",
          "type": "uint256"
        }
      ],
      "name": "user_point_epoch",
      "outputs": [
        {
          "internalType": "uint256",
          "name": "",
          "type": "uint256"
        }
      ],
      "stateMutability": "view",
      "type": "function"
    },
    {
      "inputs": [
        {
          "internalType": "uint256",
          "name": "",
          "type": "uint256"
        },
        {
          "internalType": "uint256",
          "name": "",
          "type": "uint256"
        }
      ],
      "name": "user_point_history",
      "outputs": [
        {
          "internalType": "int128",
          "name": "bias",
          "type": "int128"
        },
        {
          "internalType": "int128",
          "name": "slope",
          "type": "int128"
        },
        {
          "internalType": "uint256",
          "name": "ts",
          "type": "uint256"
        },
        {
          "internalType": "uint256",
          "name": "blk",
          "type": "uint256"
        }
      ],
      "stateMutability": "view",
      "type": "function"
    },
    {
      "inputs": [
        {
          "internalType": "uint256",
          "name": "_tokenId",
          "type": "uint256"
        },
        {
          "internalType": "uint256",
          "name": "_idx",
          "type": "uint256"
        }
      ],
      "name": "user_point_history__ts",
      "outputs": [
        {
          "internalType": "uint256",
          "name": "",
          "type": "uint256"
        }
      ],
      "stateMutability": "view",
      "type": "function"
    },
    {
      "inputs": [],
      "name": "version",
      "outputs": [
        {
          "internalType": "string",
          "name": "",
          "type": "string"
        }
      ],
      "stateMutability": "view",
      "type": "function"
    },
    {
      "inputs": [
        {
          "internalType": "uint256",
          "name": "",
          "type": "uint256"
        }
      ],
      "name": "voted",
      "outputs": [
        {
          "internalType": "bool",
          "name": "",
          "type": "bool"
        }
      ],
      "stateMutability": "view",
      "type": "function"
    },
    {
      "inputs": [],
      "name": "voter",
      "outputs": [
        {
          "internalType": "address",
          "name": "",
          "type": "address"
        }
      ],
      "stateMutability": "view",
      "type": "function"
    },
    {
      "inputs": [
        {
          "internalType": "uint256",
          "name": "_tokenId",
          "type": "uint256"
        }
      ],
      "name": "voting",
      "outputs": [],
      "stateMutability": "nonpayable",
      "type": "function"
    },
    {
      "inputs": [
        {
          "internalType": "uint256",
          "name": "_tokenId",
          "type": "uint256"
        }
      ],
      "name": "withdraw",
      "outputs": [],
      "stateMutability": "nonpayable",
      "type": "function"
    }
  ],
  "transactionHash": "0x1c6a297842ae2c96221d35ca1d6a3c052c0da5088d302f93ea74b351ef852aeb",
  "args": [],
  "numDeployments": 1,
  "bytecode": {
    "object": "0x60806040523480156200001157600080fd5b506200001c62000022565b620000e3565b600054610100900460ff16156200008f5760405162461bcd60e51b815260206004820152602760248201527f496e697469616c697a61626c653a20636f6e747261637420697320696e697469604482015266616c697a696e6760c81b606482015260840160405180910390fd5b60005460ff90811614620000e1576000805460ff191660ff9081179091556040519081527f7f26b83ff96e1f2b6a682f133852f6798a09c465da95921460cefb38474024989060200160405180910390a15b565b61585e80620000f36000396000f3fe608060405234801561001057600080fd5b50600436106104755760003560e01c80637119748411610257578063c1f0fb9f11610146578063e7a324dc116100c3578063f2fde38b11610087578063f2fde38b14610be3578063f8a0576314610bf6578063fbd3a29d14610c1a578063fc0c546a14610c2d578063fd4a77f114610c4157600080fd5b8063e7a324dc14610b2d578063e7e242d414610b54578063e985e9c514610b67578063ee99fe2814610ba4578063f1127ed814610bb757600080fd5b8063d1febfb91161010a578063d1febfb914610a96578063d4e54c3b14610ad5578063e0514aba14610ae8578063e30c397814610afb578063e441135c14610b0c57600080fd5b8063c1f0fb9f14610a42578063c2c4c5c114610a55578063c3cda52014610a5d578063c87b56dd14610a70578063d1c2babb14610a8357600080fd5b806395d89b41116101d4578063a183af5211610198578063a183af52146109ad578063a22cb465146109c0578063a4d855df146109d3578063b45a3c0e146109e6578063b88d4fde14610a2f57600080fd5b806395d89b41146109595780639712fdf814610961578063981b24d014610974578063986b7d8a146109875780639ab24eb01461099a57600080fd5b80638c2c9baf1161021b5780638c2c9baf146108f45780638da5cb5b146109075780638e539e8c146109185780638fbb38ff1461092b578063900cf0cf1461094f57600080fd5b8063711974841461088b578063715018a6146108af57806379ba5097146108b75780637ecebe00146108bf57806385f2aef2146108e057600080fd5b80632f745c591161037357806356afe744116102f057806365fc3873116102b457806365fc38731461080a5780636f5488371461081d5780636fcfff451461083e57806370a08231146108655780637116c60c1461087857600080fd5b806356afe7441461079e578063587cde1e146107b15780635c19a95c146107c45780635f5b0c32146107d75780636352211e146107e057600080fd5b8063430c208111610337578063430c20811461071a578063461f711c1461072d57806346c96aac146107535780634bc2a6571461076757806354fd4d501461077a57600080fd5b80632f745c59146106975780633a46b1a8146106ce57806340c10f19146106e157806342842e0e146106f457806342966c681461070757600080fd5b80630d6a20331161040157806320606b70116103c557806320606b70146106235780632168ca0f1461064a57806323b872dd1461066b57806325a58b561461067e5780632e1a7d4d1461068457600080fd5b80630d6a2033146105a257806310c3cf06146105c35780631376f3da146105cd57806318160ddd146106085780631c984bc31461061057600080fd5b80630758c7d8116104485780630758c7d8146104ff578063077f224a14610527578063081812fc1461053a578063095cf5c61461057c578063095ea7b31461058f57600080fd5b806301ffc9a71461047a578063047fc9aa146104bd57806304df017d146104d557806306fdde03146104ea575b600080fd5b6104a8610488366004614d81565b6001600160e01b0319166000908152610163602052604090205460ff1690565b60405190151581526020015b60405180910390f35b6104c76101725481565b6040519081526020016104b4565b6104e86104e3366004614dba565b610c54565b005b6104f2610cea565b6040516104b49190614e22565b61051261050d366004614e35565b610d7c565b60405163ffffffff90911681526020016104b4565b6104e8610535366004614f1e565b610ef3565b610564610548366004614f92565b600090815261016860205260409020546001600160a01b031690565b6040516001600160a01b0390911681526020016104b4565b6104e861058a366004614dba565b611191565b6104e861059d366004614e35565b6111f7565b6104c76105b0366004614f92565b6101736020526000908152604090205481565b6104c76101655481565b6105e06105db366004614fab565b61137c565b60408051600f95860b81529390940b60208401529282015260608101919091526080016104b4565b6104c76113c4565b6104c761061e366004614fab565b6113d4565b6104c77f8cad95687ba82c2ce50e74f7b754645e5117c3a5bec8151c0726d5857980a86681565b61065361a4b181565b6040516001600160801b0390911681526020016104b4565b6104e8610679366004614fcd565b611407565b436104c7565b6104e8610692366004614f92565b611418565b6104c76106a5366004614e35565b6001600160a01b0391909116600090815261016b60209081526040808320938352929052205490565b6104c76106dc366004614e35565b6116b9565b6104e86106ef366004614e35565b611759565b6104e8610702366004614fcd565b611797565b6104e8610715366004614f92565b6117b2565b6104a8610728366004614e35565b6117eb565b61074061073b366004614f92565b6117fe565b604051600f9190910b81526020016104b4565b61016054610564906001600160a01b031681565b6104e8610775366004614dba565b611843565b6104f2604051806040016040528060058152602001640312e302e360dc1b81525081565b6104e86107ac366004615009565b6118a9565b6105646107bf366004614dba565b611bc7565b6104e86107d2366004614dba565b611bf8565b6104c761040081565b6105646107ee366004614f92565b600090815261016660205260409020546001600160a01b031690565b6104c7610818366004614fab565b611c13565b6104c761082b366004614f92565b61016a6020526000908152604090205481565b61051261084c366004614dba565b6101776020526000908152604090205463ffffffff1681565b6104c7610873366004614dba565b611c35565b6104c7610886366004614f92565b611c54565b610740610899366004614f92565b61017160205260009081526040902054600f0b81565b6104e8611cb6565b6104e8611cca565b6104c76108cd366004614dba565b6101786020526000908152604090205481565b61016154610564906001600160a01b031681565b6104c7610902366004614fab565b611d41565b6097546001600160a01b0316610564565b6104c7610926366004614f92565b611d4d565b6104a8610939366004614f92565b6101746020526000908152604090205460ff1681565b6104c76101705481565b6104f2611d58565b6104e861096f366004614dba565b611d67565b6104c7610982366004614f92565b611e01565b6104e8610995366004614f92565b611fa6565b6104c76109a8366004614dba565b612000565b6104e86109bb366004614fab565b6120d5565b6104e86109ce3660046150c3565b6121b8565b6104e86109e1366004614fab565b61223d565b610a156109f4366004614f92565b61016f6020526000908152604090208054600190910154600f9190910b9082565b60408051600f9390930b83526020830191909152016104b4565b6104e8610a3d3660046150fa565b6123d6565b6104e8610a50366004614f92565b612574565b6104e86125b8565b6104e8610a6b366004615176565b6125f6565b6104f2610a7e366004614f92565b612993565b6104e8610a91366004614fab565b612a2a565b6105e0610aa4366004614f92565b61016260205260009081526040902080546001820154600290920154600f82810b93600160801b909304900b919084565b6104c7610ae33660046151d6565b612c40565b6104c7610af6366004614fab565b612c62565b60c9546001600160a01b0316610564565b6104c7610b1a366004614f92565b61016d6020526000908152604090205481565b6104c77fe48329057bfd03d55e49b547132e39cffd9c1820ad7b9d4c5307691425d15adf81565b6104c7610b62366004614f92565b612c6e565b6104a8610b75366004615202565b6001600160a01b0391821660009081526101696020908152604080832093909416825291909152205460ff1690565b6104e8610bb2366004614fab565b612c97565b6104c7610bc5366004615235565b61017660209081526000928352604080842090915290825290205481565b6104e8610bf1366004614dba565b612d68565b6104c7610c04366004614f92565b600090815261016f602052604090206001015490565b6104e8610c28366004614f92565b612dd9565b61015f54610564906001600160a01b031681565b6104e8610c4f366004614f92565b612e1f565b610c5c612e66565b6001600160a01b038116600090815260fb602052604090205460ff16610c9557604051632655e85f60e01b815260040160405180910390fd5b6040516001600160a01b038216907f5d9d5034656cb3ebfb0655057cd7f9b4077a9b42ff42ce223cbac5bc586d212690600090a26001600160a01b0316600090815260fb60205260409020805460ff19169055565b606060658054610cf99061526a565b80601f0160208091040260200160405190810160405280929190818152602001828054610d259061526a565b8015610d725780601f10610d4757610100808354040283529160200191610d72565b820191906000526020600020905b815481529060010190602001808311610d5557829003601f168201915b5050505050905090565b6001600160a01b0382166000908152610177602052604081205463ffffffff16808203610dad576000915050610eed565b6001600160a01b0384166000908152610176602052604081208491610dd36001856152ba565b63ffffffff16815260208101919091526040016000205411610e0257610dfa6001826152ba565b915050610eed565b6001600160a01b038416600090815261017660209081526040808320838052909152902054831015610e38576000915050610eed565b600080610e466001846152ba565b90505b8163ffffffff168163ffffffff161115610ee85760006002610e6b84846152ba565b610e7591906152f5565b610e7f90836152ba565b6001600160a01b03881660009081526101766020908152604080832063ffffffff851684529091529020805491925090879003610ec257509350610eed92505050565b8054871115610ed357819350610ee1565b610ede6001836152ba565b92505b5050610e49565b509150505b92915050565b600054610100900460ff1615808015610f135750600054600160ff909116105b80610f2d5750303b158015610f2d575060005460ff166001145b610f955760405162461bcd60e51b815260206004820152602e60248201527f496e697469616c697a61626c653a20636f6e747261637420697320616c72656160448201526d191e481a5b9a5d1a585b1a5e995960921b60648201526084015b60405180910390fd5b6000805460ff191660011790558015610fb8576000805461ff0019166101001790555b610fc0612ec0565b610fc8612eef565b610fd0612eef565b610fda8484612f1e565b610fe2612f4f565b610feb33612f7e565b61a4b16101655561015f80546001600160a01b0384166001600160a01b03199182161790915561016080548216339081179091556101618054909216179055437fd3963e8e1761c638694d3c60d54f123240f3fe953a68debc0fa797faeeb01d1155427fd3963e8e1761c638694d3c60d54f123240f3fe953a68debc0fa797faeeb01d10556101636020527fa8bef1461af97ffd75cfbc1c7627e40a5952107159e2d161b830af3c415a5971805460ff1990811660019081179092557f9c2286954f65a97095a628a27b8932da4542255331e66eaa5eb37db1fb5a9b038054821683179055635b5e139f60e01b60009081527fc5a25afa8aabe00a5261aa4d8aa3186ef1a373a7ca51f1fc2e467b9a5b593700805490921690921790556101645460405190913091600080516020615832833981519152908290a4610164546040516000903090600080516020615832833981519152908390a4801561118b576000805461ff0019169055604051600181527f7f26b83ff96e1f2b6a682f133852f6798a09c465da95921460cefb38474024989060200160405180910390a15b50505050565b610161546001600160a01b031633146111d45760405162461bcd60e51b8152602060048201526005602482015264217465616d60d81b6044820152606401610f8c565b61016180546001600160a01b0319166001600160a01b0392909216919091179055565b600081815261016660205260409020546001600160a01b03168061124b5760405162461bcd60e51b815260206004820152600b60248201526a216f776e6572207a65726f60a81b6044820152606401610f8c565b806001600160a01b0316836001600160a01b0316036112955760405162461bcd60e51b815260206004820152600660248201526510b7bbb732b960d11b6044820152606401610f8c565b600082815261016660209081526040808320546001600160a01b038581168552610169845282852033808752945291909320549216149060ff1681806112d85750805b61131d5760405162461bcd60e51b8152602060048201526016602482015275085b9bdd081bdddb995c881bdc88185c1c1c9bdd995960521b6044820152606401610f8c565b6000848152610168602052604080822080546001600160a01b0319166001600160a01b0389811691821790925591518793918716917f8c5be1e5ebec7d5bd14f71427d1e84f3dd0314c0f7b2291e5b200ac8c7c3b92591a45050505050565b61016e60205281600052604060002081633b9aca00811061139c57600080fd5b6003020180546001820154600290920154600f82810b9550600160801b90920490910b925084565b60006113cf42611c54565b905090565b600082815261016e6020526040812082633b9aca0081106113f7576113f7615318565b6003020160010154905092915050565b61141383838333612f97565b505050565b6114206130a5565b6101655446146114425760405162461bcd60e51b8152600401610f8c9061532e565b61144c3382613100565b61145857611458615356565b6000818152610173602052604090205415801561148557506000818152610174602052604090205460ff16155b6114a15760405162461bcd60e51b8152600401610f8c9061536c565b600081815261016f602090815260409182902082518084019093528054600f0b8352600101549082018190524210156115155760405162461bcd60e51b8152602060048201526016602482015275546865206c6f636b206469646e27742065787069726560501b6044820152606401610f8c565b80516040805180820182526000808252602080830182815287835261016f909152929020905181546001600160801b0319166001600160801b03909116178155905160019091015561017254600f9190910b90611572828261538e565b6101725560408051808201909152600080825260208201526115979085908590613169565b61015f5460405163a9059cbb60e01b8152336004820152602481018490526001600160a01b039091169063a9059cbb906044016020604051808303816000875af11580156115e9573d6000803e3d6000fd5b505050506040513d601f19601f8201168201806040525081019061160d91906153a5565b61161957611619615356565b61162284613792565b60408051858152602081018490524281830152905133917f02f25270a4d87bea75db541cdfe559334a275b4a233520ed6c0a2429667cca94919081900360600190a27f5e2aa66efd74cce82b21852e317e5490d9ecc9e6bb953ae24d90851258cc2f5c81611690848261538e565b6040805192835260208301919091520160405180910390a15050506116b6600161012d55565b50565b6000806116c68484610d7c565b6001600160a01b03851660009081526101766020908152604080832063ffffffff851684529091528120919250600190910190805b825481101561174f57600083828154811061171857611718615318565b9060005260206000200154905061172f818861385c565b61173990846153c2565b9250508080611747906153da565b9150506116fb565b5095945050505050565b33600090815260fb602052604090205460ff16611789576040516378f18ee960e11b815260040160405180910390fd5b6117938282613932565b5050565b611413838383604051806020016040528060008152506123d6565b33600090815260fb602052604090205460ff166117e2576040516378f18ee960e11b815260040160405180910390fd5b6116b681613792565b60006117f78383613100565b9392505050565b600081815261016d602090815260408083205461016e909252822081633b9aca00811061182d5761182d615318565b6003020154600160801b9004600f0b9392505050565b610161546001600160a01b031633146118865760405162461bcd60e51b8152602060048201526005602482015264217465616d60d81b6044820152606401610f8c565b61016080546001600160a01b0319166001600160a01b0392909216919091179055565b60008251116118f35760405162461bcd60e51b81526020600482015260166024820152751e995c9bc81b195b88185b5bdd5b9d1cc81a5b9c1d5d60521b6044820152606401610f8c565b6000818152610173602052604090205415801561192057506000818152610174602052604090205460ff16155b61193c5760405162461bcd60e51b8152600401610f8c9061536c565b6119463382613100565b6119925760405162461bcd60e51b815260206004820152601960248201527f2173656e64657220617070726f766564206f72206f776e6572000000000000006044820152606401610f8c565b6000818152610166602090815260408083205461016f83529281902081518083019092528054600f0b8083526001909101549282018390526001600160a01b0390931692909190806119f65760405162461bcd60e51b8152600401610f8c906153f3565b8061017254611a05919061538e565b610172556000805b8751821015611a4f57878281518110611a2857611a28615318565b602002602001015181611a3b91906153c2565b905081611a47816153da565b925050611a0d565b604080518082018252600080825260208083018281528b835261016f8252848320935184546001600160801b0319166001600160801b0390911617845551600190930192909255825180840190935280835290820152611ab29088908790613169565b611abb87613792565b83428111611adb5760405162461bcd60e51b8152600401610f8c90615412565b611ae96301dfe200426153c2565b811115611b085760405162461bcd60e51b8152600401610f8c90615458565b60008093505b8951841015611bbb5761016460008154611b27906153da565b90915550610164549850611b3b888a613932565b828a8581518110611b4e57611b4e615318565b602002602001015186611b61919061548f565b611b6b91906154ae565b60008a815261016f602090815260409182902082518084019093528054600f0b83526001015490820152909150611ba9908a90839085906005613990565b83611bb3816153da565b945050611b0e565b50505050505050505050565b6001600160a01b03808216600090815261017560205260408120549091168015611bf157806117f7565b5090919050565b6001600160a01b038116611c095750335b6116b63382613bbd565b6000611c1d6130a5565b611c28838333613c53565b9050610eed600161012d55565b6001600160a01b03811660009081526101676020526040812054610eed565b6101705460008181526101626020908152604080832081516080810183528154600f81810b8352600160801b909104900b93810193909352600181015491830191909152600201546060820152909190611cae8185613d50565b949350505050565b611cbe612e66565b611cc86000612f7e565b565b60c95433906001600160a01b03168114611d385760405162461bcd60e51b815260206004820152602960248201527f4f776e61626c6532537465703a2063616c6c6572206973206e6f7420746865206044820152683732bb9037bbb732b960b91b6064820152608401610f8c565b6116b681612f7e565b60006117f78383613e52565b6000610eed82611c54565b606060668054610cf99061526a565b611d6f612e66565b6001600160a01b038116600090815260fb602052604090205460ff1615611da95760405163f74c45bf60e01b815260040160405180910390fd5b6040516001600160a01b038216907f3cda433c5679ae4c6a5dea50840e222a42cba3695e4663de4366be899348422190600090a26001600160a01b0316600090815260fb60205260409020805460ff19166001179055565b600043821115611e1357611e13615356565b610170546000611e238483614131565b60008181526101626020908152604080832081516080810183528154600f81810b8352600160801b909104900b9381019390935260018101549183019190915260020154606082015291925083831015611f3457600061016281611e888660016153c2565b8152602080820192909252604090810160002081516080810183528154600f81810b8352600160801b909104900b9381019390935260018101549183019190915260020154606080830182905285015191925014611f2e5782606001518160600151611ef4919061538e565b83604001518260400151611f08919061538e565b6060850151611f17908a61538e565b611f21919061548f565b611f2b91906154ae565b91505b50611f83565b43826060015114611f83576060820151611f4e904361538e565b6040830151611f5d904261538e565b6060840151611f6c908961538e565b611f76919061548f565b611f8091906154ae565b90505b611f9c82828460400151611f9791906153c2565b613d50565b9695505050505050565b610160546001600160a01b03163314611fd15760405162461bcd60e51b8152600401610f8c906154c2565b60008181526101736020526040902054611fed9060019061538e565b6000918252610173602052604090912055565b6001600160a01b0381166000908152610177602052604081205463ffffffff168082036120305750600092915050565b6001600160a01b038316600090815261017660205260408120816120556001856152ba565b63ffffffff1663ffffffff16815260200190815260200160002060010190506000805b82548110156120cc57600083828154811061209557612095615318565b906000526020600020015490506120ac814261385c565b6120b690846153c2565b92505080806120c4906153da565b915050612078565b50949350505050565b6120dd6130a5565b6120e73383613100565b6120f3576120f3615356565b600082815261016f602090815260409182902082518084019093528054600f0b835260010154908201528161212a5761212a615356565b60008160000151600f0b1361217a5760405162461bcd60e51b8152602060048201526016602482015275139bc8195e1a5cdd1a5b99c81b1bd8dac8199bdd5b9960521b6044820152606401610f8c565b4281602001511161219d5760405162461bcd60e51b8152600401610f8c906154e2565b6121ac83836000846002613990565b50611793600161012d55565b336001600160a01b038316036121d0576121d0615356565b336000818152610169602090815260408083206001600160a01b03871680855290835292819020805460ff191686151590811790915590519081529192917f17307eab39ab6107e8899845ad3d59bd9653f200f220920489ca2b5937696c31910160405180910390a35050565b6122456130a5565b61224f3383613100565b61225b5761225b615356565b600082815261016f6020908152604080832081518083019092528054600f0b8252600101549181019190915290621275008061229785426153c2565b6122a191906154ae565b6122ab919061548f565b9050428260200151116122ef5760405162461bcd60e51b815260206004820152600c60248201526b131bd8dac8195e1c1a5c995960a21b6044820152606401610f8c565b60008260000151600f0b1361233a5760405162461bcd60e51b8152602060048201526011602482015270139bdd1a1a5b99c81a5cc81b1bd8dad959607a1b6044820152606401610f8c565b8160200151811161238d5760405162461bcd60e51b815260206004820152601f60248201527f43616e206f6e6c7920696e637265617365206c6f636b206475726174696f6e006044820152606401610f8c565b61239b6301dfe200426153c2565b8111156123ba5760405162461bcd60e51b8152600401610f8c90615458565b6123c984600083856003613990565b5050611793600161012d55565b6123e284848433612f97565b823b1561118b57604051630a85bd0160e11b81526001600160a01b0384169063150b7a029061241b903390889087908790600401615526565b6020604051808303816000875af1925050508015612456575060408051601f3d908101601f1916820190925261245391810190615559565b60015b6124fe573d808015612484576040519150601f19603f3d011682016040523d82523d6000602084013e612489565b606091505b5080516000036124f65760405162461bcd60e51b815260206004820152603260248201527f4552433732313a207472616e7366657220746f206e6f6e20455243373231526560448201527131b2b4bb32b91034b6b83632b6b2b73a32b960711b6064820152608401610f8c565b805181602001fd5b6001600160e01b03198116630a85bd0160e11b1461256d5760405162461bcd60e51b815260206004820152602660248201527f4552433732313a2045524337323152656365697665722072656a656374656420604482015265746f6b656e7360d01b6064820152608401610f8c565b5050505050565b610160546001600160a01b0316331461259f5760405162461bcd60e51b8152600401610f8c906154c2565b600090815261017460205260409020805460ff19169055565b611cc8600060405180604001604052806000600f0b8152602001600081525060405180604001604052806000600f0b81526020016000815250613169565b336001600160a01b038716036126385760405162461bcd60e51b815260206004820152600760248201526610b9b2b73232b960c91b6044820152606401610f8c565b6001600160a01b03861661267b5760405162461bcd60e51b815260206004820152600a60248201526910bd32b9379030b2323960b11b6044820152606401610f8c565b60007f8cad95687ba82c2ce50e74f7b754645e5117c3a5bec8151c0726d5857980a8666126a6610cea565b805160209182012060408051808201825260058152640312e302e360dc1b90840152805180840194909452838101919091527f06c015bd22b4c69690933c1058878ebdfef31f9aaae40bbe86d8a09fe1b2972c60608401524660808401523060a0808501919091528151808503909101815260c0840182528051908301207fe48329057bfd03d55e49b547132e39cffd9c1820ad7b9d4c5307691425d15adf60e08501526001600160a01b038b1661010085015261012084018a90526101408085018a90528251808603909101815261016085019092528151919092012061190160f01b61018084015261018283018290526101a28301819052909250906000906101c20160408051601f198184030181528282528051602091820120600080855291840180845281905260ff8a169284019290925260608301889052608083018790529092509060019060a0016020604051602081039080840390855afa158015612816573d6000803e3d6000fd5b5050604051601f1901519150506001600160a01b0381166128905760405162461bcd60e51b815260206004820152602e60248201527f566f74696e67457363726f773a3a64656c656761746542795369673a20696e7660448201526d616c6964207369676e617475726560901b6064820152608401610f8c565b6001600160a01b0381166000908152610178602052604081208054916128b5836153da565b91905055891461291a5760405162461bcd60e51b815260206004820152602a60248201527f566f74696e67457363726f773a3a64656c656761746542795369673a20696e76604482015269616c6964206e6f6e636560b01b6064820152608401610f8c565b874211156129815760405162461bcd60e51b815260206004820152602e60248201527f566f74696e67457363726f773a3a64656c656761746542795369673a2073696760448201526d1b985d1d5c9948195e1c1a5c995960921b6064820152608401610f8c565b611bbb818b613bbd565b505050505050565b600081815261016660205260409020546060906001600160a01b03166129fb5760405162461bcd60e51b815260206004820152601b60248201527f517565727920666f72206e6f6e6578697374656e7420746f6b656e00000000006044820152606401610f8c565b600091825261016f602090815260409283902083518085019094528054600f0b84526001015492019190915290565b60008281526101736020526040902054158015612a5757506000828152610174602052604090205460ff16155b612a735760405162461bcd60e51b8152600401610f8c9061536c565b808203612aae5760405162461bcd60e51b81526020600482015260096024820152682166726f6d3d3d746f60b81b6044820152606401610f8c565b612ab83383613100565b612b045760405162461bcd60e51b815260206004820152601760248201527f2166726f6d20617070726f766564206f72206f776e65720000000000000000006044820152606401610f8c565b612b0e3382613100565b612b525760405162461bcd60e51b815260206004820152601560248201527410ba379030b8383937bb32b21037b91037bbb732b960591b6044820152606401610f8c565b600082815261016f60208181526040808420815180830183528154600f90810b825260019283015482860190815288885295855283872084518086019095528054820b855290920154938301849052805194519095929490910b921115612bbd578260200151612bc3565b83602001515b604080518082018252600080825260208083018281528b835261016f8252848320935184546001600160801b0319166001600160801b0390911617845551600190930192909255825180840190935280835290820152909150612c299087908690613169565b612c3286613792565b61298b858383866004613990565b6000612c4a6130a5565b612c55848484613c53565b90506117f7600161012d55565b60006117f7838361385c565b600081815261016a6020526040812054439003612c8d57506000919050565b610eed824261385c565b612c9f6130a5565b600082815261016f602090815260409182902082518084019093528054600f0b8352600101549082015281612ce65760405162461bcd60e51b8152600401610f8c906153f3565b60008160000151600f0b13612d365760405162461bcd60e51b8152602060048201526016602482015275139bc8195e1a5cdd1a5b99c81b1bd8dac8199bdd5b9960521b6044820152606401610f8c565b42816020015111612d595760405162461bcd60e51b8152600401610f8c906154e2565b6121ac83836000846000613990565b612d70612e66565b60c980546001600160a01b0383166001600160a01b03199091168117909155612da16097546001600160a01b031690565b6001600160a01b03167f38d16b8cac22d99fc7c124b9cd0de2d3fa1faef420bfe791d8c362d765e2270060405160405180910390a350565b610160546001600160a01b03163314612e045760405162461bcd60e51b8152600401610f8c906154c2565b60008181526101736020526040902054611fed9060016153c2565b610160546001600160a01b03163314612e4a5760405162461bcd60e51b8152600401610f8c906154c2565b600090815261017460205260409020805460ff19166001179055565b6097546001600160a01b03163314611cc85760405162461bcd60e51b815260206004820181905260248201527f4f776e61626c653a2063616c6c6572206973206e6f7420746865206f776e65726044820152606401610f8c565b600054610100900460ff16612ee75760405162461bcd60e51b8152600401610f8c90615576565b611cc86141b8565b600054610100900460ff16612f165760405162461bcd60e51b8152600401610f8c90615576565b611cc86141df565b600054610100900460ff16612f455760405162461bcd60e51b8152600401610f8c90615576565b611793828261420f565b600054610100900460ff16612f765760405162461bcd60e51b8152600401610f8c90615576565b611cc861425d565b60c980546001600160a01b03191690556116b681614284565b60008281526101736020526040902054158015612fc457506000828152610174602052604090205460ff16155b612fe05760405162461bcd60e51b8152600401610f8c9061536c565b612fea8183613100565b61302f5760405162461bcd60e51b8152602060048201526016602482015275085b9bdd081bdddb995c881bdc88185c1c1c9bdd995960521b6044820152606401610f8c565b61303984836142d6565b613043848361433e565b61305e61304f85611bc7565b61305885611bc7565b846143c2565b613068838361472e565b600082815261016a60205260408082204390555183916001600160a01b03808716929088169160008051602061583283398151915291a450505050565b600261012d54036130f85760405162461bcd60e51b815260206004820152601f60248201527f5265656e7472616e637947756172643a207265656e7472616e742063616c6c006044820152606401610f8c565b600261012d55565b600081815261016660209081526040808320546101688352818420546001600160a01b03918216808652610169855283862088841680885295529285205492938085149392909116149060ff1682806131565750815b8061315e5750805b979650505050505050565b60408051608081018252600080825260208201819052918101829052606081019190915260408051608081018252600080825260208201819052918101829052606081019190915261017054600090819087156132d7574287602001511180156131da575060008760000151600f0b135b1561321f5786516131f0906301dfe200906155c1565b600f0b60208087019190915287015161320a90429061538e565b856020015161321991906155ff565b600f0b85525b428660200151118015613239575060008660000151600f0b135b1561327e57855161324f906301dfe200906155c1565b600f0b60208086019190915286015161326990429061538e565b846020015161327891906155ff565b600f0b84525b60208088015160009081526101718252604090205490870151600f9190910b9350156132d75786602001518660200151036132bb578291506132d7565b60208087015160009081526101719091526040902054600f0b91505b60408051608081018252600080825260208201524291810191909152436060820152811561334d57506000818152610162602090815260409182902082516080810184528154600f81810b8352600160801b909104900b9281019290925260018101549282019290925260029091015460608201525b60408101518160004283101561339a57604084015161336c904261538e565b606085015161337b904361538e565b61338d90670de0b6b3a764000061548f565b61339791906154ae565b90505b6000621275006133aa81866154ae565b6133b4919061548f565b905060005b60ff811015613530576133cf62127500836153c2565b91506000428311156133e3574292506133f8565b5060008281526101716020526040902054600f0b5b613402868461538e565b876020015161341191906155ff565b87518890613420908390615694565b600f0b90525060208701805182919061343a9083906156e4565b600f90810b90915288516000910b1215905061345557600087525b60008760200151600f0b121561346d57600060208801525b60408088018490528501519295508592670de0b6b3a764000090613491908561538e565b61349b908661548f565b6134a591906154ae565b85606001516134b491906153c2565b60608801526134c46001896153c2565b97504283036134d95750436060870152613530565b600088815261016260209081526040918290208951918a01516001600160801b03908116600160801b029216919091178155908801516001820155606088015160029091015550613529816153da565b90506133b9565b50506101708590558b156135bc57886020015188602001516135529190615694565b8460200181815161356391906156e4565b600f0b905250885188516135779190615694565b845185906135869083906156e4565b600f90810b90915260208601516000910b121590506135a757600060208501525b60008460000151600f0b12156135bc57600084525b600085815261016260209081526040918290208651918701516001600160801b03908116600160801b02921691909117815590850151600182015560608501516002909101558b1561378457428b60200151111561367557602089015161362390886156e4565b96508a602001518a60200151036136465760208801516136439088615694565b96505b60208b81015160009081526101719091526040902080546001600160801b0319166001600160801b0389161790555b428a6020015111156136d1578a602001518a6020015111156136d15760208801516136a09087615694565b60208b81015160009081526101719091526040902080546001600160801b0319166001600160801b03831617905595505b60008c815261016d60205260408120546136ec9060016153c2565b90508061016d60008f81526020019081526020016000208190555042896040018181525050438960600181815250508861016e60008f815260200190815260200160002082633b9aca00811061374457613744615318565b825160208401516001600160801b03908116600160801b029116176003919091029190910190815560408201516001820155606090910151600290910155505b505050505050505050505050565b61379c3382613100565b6137e85760405162461bcd60e51b815260206004820181905260248201527f63616c6c6572206973206e6f74206f776e6572206e6f7220617070726f7665646044820152606401610f8c565b600081815261016660205260408120546001600160a01b03169061380c90836111f7565b61382061381882611bc7565b6000846143c2565b61382a818361433e565b60405182906000906001600160a01b03841690600080516020615832833981519152908390a45050565b600161012d55565b600082815261016d602052604081205480820361387d576000915050610eed565b600084815261016e6020526040812082633b9aca0081106138a0576138a0615318565b60408051608081018252600392909202929092018054600f81810b8452600160801b909104900b6020830152600181015492820183905260020154606082015291506138ec9085615733565b81602001516138fb91906155ff565b8151829061390a908390615694565b600f90810b90915282516000910b1215905061392557600081525b51600f0b9150610eed9050565b6001600160a01b03821661394857613948615356565b61395c600061395684611bc7565b836143c2565b613966828261472e565b60405181906001600160a01b03841690600090600080516020615832833981519152908290a45050565b6101655446146139b25760405162461bcd60e51b8152600401610f8c9061532e565b6101725482906139c286826153c2565b610172556040805180820190915260008082526020820152825160208085015190830152600f0b81528251879084906139fc9083906156e4565b600f0b9052508515613a1057602083018690525b600088815261016f60209081526040909120845181546001600160801b0319166001600160801b0390911617815590840151600190910155613a53888285613169565b338715801590613a7557506004856005811115613a7257613a72615772565b14155b8015613a9357506005856005811115613a9057613a90615772565b14155b15613b225761015f546040516323b872dd60e01b81526001600160a01b038381166004830152306024830152604482018b9052909116906323b872dd906064016020604051808303816000875af1158015613af2573d6000803e3d6000fd5b505050506040513d601f19601f82011682018060405250810190613b1691906153a5565b613b2257613b22615356565b8360200151816001600160a01b03167fff04ccafc360e16b67d682d17bd9503c4c6b9a131f6be6325762dc9ffc7de6248b8b8942604051613b669493929190615788565b60405180910390a37f5e2aa66efd74cce82b21852e317e5490d9ecc9e6bb953ae24d90851258cc2f5c83613b9a8a826153c2565b6040805192835260208301919091520160405180910390a1505050505050505050565b610165544614613bdf5760405162461bcd60e51b8152600401610f8c9061532e565b6000613bea83611bc7565b6001600160a01b038481166000818152610175602052604080822080546001600160a01b031916888616908117909155905194955093928516927f3134e8a2e6d97e929a7e54011ea5485d7d196dd5f0ba4d4ef95803e8e3fc257f9190a46114138382846147c9565b6000806212750080613c6586426153c2565b613c6f91906154ae565b613c79919061548f565b905060008511613c9b5760405162461bcd60e51b8152600401610f8c906153f3565b428111613cba5760405162461bcd60e51b8152600401610f8c90615412565b613cc86301dfe200426153c2565b811115613ce75760405162461bcd60e51b8152600401610f8c90615458565b61016460008154613cf7906153da565b9091555061016454613d098482613932565b600081815261016f602090815260409182902082518084019093528054600f0b835260019081015491830191909152613d4791839189918691613990565b95945050505050565b600080839050600062127500808360400151613d6c91906154ae565b613d76919061548f565b905060005b60ff811015613e2a57613d9162127500836153c2565b9150600085831115613da557859250613dba565b5060008281526101716020526040902054600f0b5b6040840151613dc9908461538e565b8460200151613dd891906155ff565b84518590613de7908390615694565b600f0b905250858303613dfa5750613e2a565b8084602001818151613e0c91906156e4565b600f0b9052505060408301829052613e23816153da565b9050613d7b565b5060008260000151600f0b1215613e4057600082525b50516001600160801b03169392505050565b600043821115613e6457613e64615356565b600083815261016d6020526040812054815b6080811015613f065781831015613f065760006002613e9584866153c2565b613ea09060016153c2565b613eaa91906154ae565b600088815261016e60205260409020909150869082633b9aca008110613ed257613ed2615318565b600302016002015411613ee757809350613ef5565b613ef260018261538e565b92505b50613eff816153da565b9050613e76565b50600085815261016e6020526040812083633b9aca008110613f2a57613f2a615318565b60408051608081018252600392909202929092018054600f81810b8452600160801b909104900b60208301526001810154928201929092526002909101546060820152610170549091506000613f808783614131565b60008181526101626020908152604080832081516080810183528154600f81810b8352600160801b909104900b93810193909352600181015491830191909152600201546060820152919250808484101561406157600061016281613fe68760016153c2565b8152602080820192909252604090810160002081516080810183528154600f81810b8352600160801b909104900b93810193909352600181015491830191909152600201546060808301829052860151919250614043919061538e565b925083604001518160400151614059919061538e565b915050614085565b6060830151614070904361538e565b9150826040015142614082919061538e565b90505b604083015182156140c2578284606001518c6140a1919061538e565b6140ab908461548f565b6140b591906154ae565b6140bf90826153c2565b90505b60408701516140d1908261538e565b87602001516140e091906155ff565b875188906140ef908390615694565b600f90810b90915288516000910b12905061411f57505093516001600160801b03169650610eed95505050505050565b60009950505050505050505050610eed565b60008082815b60808110156141ae57818310156141ae576000600261415684866153c2565b6141619060016153c2565b61416b91906154ae565b60008181526101626020526040902060020154909150871061418f5780935061419d565b61419a60018261538e565b92505b506141a7816153da565b9050614137565b5090949350505050565b600054610100900460ff166138545760405162461bcd60e51b8152600401610f8c90615576565b600054610100900460ff166142065760405162461bcd60e51b8152600401610f8c90615576565b611cc833612f7e565b600054610100900460ff166142365760405162461bcd60e51b8152600401610f8c90615576565b8151614249906065906020850190614cd2565b508051611413906066906020840190614cd2565b600054610100900460ff16611cc85760405162461bcd60e51b8152600401610f8c90615576565b609780546001600160a01b038381166001600160a01b0319831681179093556040519116919082907f8be0079c531659141344cd1fd0a4f28419497f9722a3daafe3b4186f6b6457e090600090a35050565b600081815261016660205260409020546001600160a01b0383811691161461430057614300615356565b600081815261016860205260409020546001600160a01b0316156117935760009081526101686020526040902080546001600160a01b031916905550565b600081815261016660205260409020546001600160a01b0383811691161461436857614368615356565b60008181526101666020526040902080546001600160a01b031916905561438f8282614b92565b6001600160a01b0382166000908152610167602052604081208054600192906143b990849061538e565b90915550505050565b816001600160a01b0316836001600160a01b0316141580156143e45750600081115b15611413576001600160a01b0383161561456a576001600160a01b0383166000908152610177602052604081205463ffffffff16908161444a576001600160a01b038516600090815261017660209081526040808320838052909152902060010161448d565b6001600160a01b0385166000908152610176602052604081209061446f6001856152ba565b63ffffffff1663ffffffff1681526020019081526020016000206001015b9050600061449a86614c57565b6001600160a01b03871660009081526101766020908152604080832063ffffffff8516845290915281209192506001909101905b83548110156145285760008482815481106144eb576144eb615318565b90600052602060002001549050868114614515578254600181018455600084815260209020018190555b5080614520816153da565b9150506144ce565b506145348460016157c6565b6001600160a01b038816600090815261017760205260409020805463ffffffff191663ffffffff92909216919091179055505050505b6001600160a01b03821615611413576001600160a01b0382166000908152610177602052604081205463ffffffff1690816145cb576001600160a01b038416600090815261017660209081526040808320838052909152902060010161460e565b6001600160a01b038416600090815261017660205260408120906145f06001856152ba565b63ffffffff1663ffffffff1681526020019081526020016000206001015b9050600061461b85614c57565b6001600160a01b03861660009081526101766020908152604080832063ffffffff85168452909152902083549192506001908101916104009161465e91906153c2565b111561467c5760405162461bcd60e51b8152600401610f8c906157ee565b60005b83548110156146ce57600084828154811061469c5761469c615318565b6000918252602080832090910154855460018101875586845291909220015550806146c6816153da565b91505061467f565b508054600181810183556000838152602090209091018690556146f29085906157c6565b6001600160a01b038716600090815261017760205260409020805463ffffffff9290921663ffffffff1990921691909117905550505050505050565b600081815261016660205260409020546001600160a01b03161561475457614754615356565b60008181526101666020908152604080832080546001600160a01b0319166001600160a01b038716908117909155808452610167808452828520805461016b8652848720818852865284872088905587875261016c8652938620939093559084529091528054600192906143b99084906153c2565b806001600160a01b0316826001600160a01b031614611413576001600160a01b03821615614982576001600160a01b0382166000908152610177602052604081205463ffffffff169081614843576001600160a01b0384166000908152610176602090815260408083208380529091529020600101614886565b6001600160a01b038416600090815261017660205260408120906148686001856152ba565b63ffffffff1663ffffffff1681526020019081526020016000206001015b9050600061489385614c57565b6001600160a01b03861660009081526101766020908152604080832063ffffffff8516845290915281209192506001909101905b83548110156149405760008482815481106148e4576148e4615318565b60009182526020808320909101548083526101669091526040909120549091506001600160a01b03908116908a161461492d578254600181018455600084815260209020018190555b5080614938816153da565b9150506148c7565b5061494c8460016157c6565b6001600160a01b038716600090815261017760205260409020805463ffffffff191663ffffffff92909216919091179055505050505b6001600160a01b03811615611413576001600160a01b0381166000908152610177602052604081205463ffffffff1690816149e3576001600160a01b0383166000908152610176602090815260408083208380529091529020600101614a26565b6001600160a01b03831660009081526101766020526040812090614a086001856152ba565b63ffffffff1663ffffffff1681526020019081526020016000206001015b90506000614a3384614c57565b6001600160a01b0380861660009081526101766020908152604080832063ffffffff861684528252808320938b168352610167909152902054845492935060019091019161040090614a869083906153c2565b1115614aa45760405162461bcd60e51b8152600401610f8c906157ee565b60005b8454811015614af6576000858281548110614ac457614ac4615318565b600091825260208083209091015486546001810188558784529190922001555080614aee816153da565b915050614aa7565b5060005b81811015614b49576001600160a01b038916600090815261016b602090815260408083208484528252822054855460018101875586845291909220015580614b41816153da565b915050614afa565b50614b558560016157c6565b6001600160a01b038716600090815261017760205260409020805463ffffffff9290921663ffffffff199092169190911790555050505050505050565b6001600160a01b03821660009081526101676020526040812054614bb89060019061538e565b600083815261016c6020526040902054909150808203614c0a576001600160a01b038416600090815261016b60209081526040808320858452825280832083905585835261016c90915281205561118b565b6001600160a01b0393909316600090815261016b602090815260408083209383529281528282208054868452848420819055835261016c9091528282209490945592839055908252812055565b6001600160a01b03811660009081526101776020526040812054429063ffffffff168015801590614cc257506001600160a01b0384166000908152610176602052604081208391614ca96001856152ba565b63ffffffff168152602081019190915260400160002054145b156117f757611cae6001826152ba565b828054614cde9061526a565b90600052602060002090601f016020900481019282614d005760008555614d46565b82601f10614d1957805160ff1916838001178555614d46565b82800160010185558215614d46579182015b82811115614d46578251825591602001919060010190614d2b565b50614d52929150614d56565b5090565b5b80821115614d525760008155600101614d57565b6001600160e01b0319811681146116b657600080fd5b600060208284031215614d9357600080fd5b81356117f781614d6b565b80356001600160a01b0381168114614db557600080fd5b919050565b600060208284031215614dcc57600080fd5b6117f782614d9e565b6000815180845260005b81811015614dfb57602081850181015186830182015201614ddf565b81811115614e0d576000602083870101525b50601f01601f19169290920160200192915050565b6020815260006117f76020830184614dd5565b60008060408385031215614e4857600080fd5b614e5183614d9e565b946020939093013593505050565b634e487b7160e01b600052604160045260246000fd5b604051601f8201601f1916810167ffffffffffffffff81118282101715614e9e57614e9e614e5f565b604052919050565b600067ffffffffffffffff831115614ec057614ec0614e5f565b614ed3601f8401601f1916602001614e75565b9050828152838383011115614ee757600080fd5b828260208301376000602084830101529392505050565b600082601f830112614f0f57600080fd5b6117f783833560208501614ea6565b600080600060608486031215614f3357600080fd5b833567ffffffffffffffff80821115614f4b57600080fd5b614f5787838801614efe565b94506020860135915080821115614f6d57600080fd5b50614f7a86828701614efe565b925050614f8960408501614d9e565b90509250925092565b600060208284031215614fa457600080fd5b5035919050565b60008060408385031215614fbe57600080fd5b50508035926020909101359150565b600080600060608486031215614fe257600080fd5b614feb84614d9e565b9250614ff960208501614d9e565b9150604084013590509250925092565b6000806040838503121561501c57600080fd5b823567ffffffffffffffff8082111561503457600080fd5b818501915085601f83011261504857600080fd5b813560208282111561505c5761505c614e5f565b8160051b925061506d818401614e75565b828152928401810192818101908985111561508757600080fd5b948201945b848610156150a55785358252948201949082019061508c565b9997909101359750505050505050565b80151581146116b657600080fd5b600080604083850312156150d657600080fd5b6150df83614d9e565b915060208301356150ef816150b5565b809150509250929050565b6000806000806080858703121561511057600080fd5b61511985614d9e565b935061512760208601614d9e565b925060408501359150606085013567ffffffffffffffff81111561514a57600080fd5b8501601f8101871361515b57600080fd5b61516a87823560208401614ea6565b91505092959194509250565b60008060008060008060c0878903121561518f57600080fd5b61519887614d9e565b95506020870135945060408701359350606087013560ff811681146151bc57600080fd5b9598949750929560808101359460a0909101359350915050565b6000806000606084860312156151eb57600080fd5b8335925060208401359150614f8960408501614d9e565b6000806040838503121561521557600080fd5b61521e83614d9e565b915061522c60208401614d9e565b90509250929050565b6000806040838503121561524857600080fd5b61525183614d9e565b9150602083013563ffffffff811681146150ef57600080fd5b600181811c9082168061527e57607f821691505b60208210810361529e57634e487b7160e01b600052602260045260246000fd5b50919050565b634e487b7160e01b600052601160045260246000fd5b600063ffffffff838116908316818110156152d7576152d76152a4565b039392505050565b634e487b7160e01b600052601260045260246000fd5b600063ffffffff8084168061530c5761530c6152df565b92169190910492915050565b634e487b7160e01b600052603260045260246000fd5b6020808252600e908201526d1ddc9bdb99c818da185a5b881a5960921b604082015260600190565b634e487b7160e01b600052600160045260246000fd5b602080825260089082015267185d1d1858da195960c21b604082015260600190565b6000828210156153a0576153a06152a4565b500390565b6000602082840312156153b757600080fd5b81516117f7816150b5565b600082198211156153d5576153d56152a4565b500190565b6000600182016153ec576153ec6152a4565b5060010190565b602080825260059082015264217a65726f60d81b604082015260600190565b60208082526026908201527f43616e206f6e6c79206c6f636b20756e74696c2074696d6520696e207468652060408201526566757475726560d01b606082015260800190565b6020808252601e908201527f566f74696e67206c6f636b2063616e2062652031207965617273206d61780000604082015260600190565b60008160001904831182151516156154a9576154a96152a4565b500290565b6000826154bd576154bd6152df565b500490565b60208082526006908201526510bb37ba32b960d11b604082015260600190565b60208082526024908201527f43616e6e6f742061646420746f2065787069726564206c6f636b2e20576974686040820152636472617760e01b606082015260800190565b6001600160a01b0385811682528416602082015260408101839052608060608201819052600090611f9c90830184614dd5565b60006020828403121561556b57600080fd5b81516117f781614d6b565b6020808252602b908201527f496e697469616c697a61626c653a20636f6e7472616374206973206e6f74206960408201526a6e697469616c697a696e6760a81b606082015260800190565b600081600f0b83600f0b806155d8576155d86152df565b60016001607f1b03198214600019821416156155f6576155f66152a4565b90059392505050565b600081600f0b83600f0b60016001607f1b0360008213600084138383048511828216161561562f5761562f6152a4565b60016001607f1b03196000851282811687830587121615615652576156526152a4565b6000871292508582058712848416161561566e5761566e6152a4565b85850587128184161615615684576156846152a4565b5050509290910295945050505050565b600081600f0b83600f0b600081128160016001607f1b0319018312811516156156bf576156bf6152a4565b8160016001607f1b030183138116156156da576156da6152a4565b5090039392505050565b600081600f0b83600f0b600082128260016001607f1b030382138115161561570e5761570e6152a4565b8260016001607f1b031903821281161561572a5761572a6152a4565b50019392505050565b60008083128015600160ff1b850184121615615751576157516152a4565b6001600160ff1b038401831381161561576c5761576c6152a4565b50500390565b634e487b7160e01b600052602160045260246000fd5b8481526020810184905260808101600684106157b457634e487b7160e01b600052602160045260246000fd5b60408201939093526060015292915050565b600063ffffffff8083168185168083038211156157e5576157e56152a4565b01949350505050565b60208082526023908201527f64737452657020776f756c64206861766520746f6f206d616e7920746f6b656e60408201526249647360e81b60608201526080019056feddf252ad1be2c89b69c2b068fc378daa952ba7f163c4a11628f55a4df523b3efa164736f6c634300080d000a",
    "linkReferences": {}
  },
  "methodIdentifiers": {
    "ARBITRUM_ONE()": "2168ca0f",
    "DELEGATION_TYPEHASH()": "e7a324dc",
    "DOMAIN_TYPEHASH()": "20606b70",
    "MAX_DELEGATES()": "5f5b0c32",
    "abstain(uint256)": "c1f0fb9f",
    "acceptOwnership()": "79ba5097",
    "addBridge(address)": "9712fdf8",
    "approve(address,uint256)": "095ea7b3",
    "attach(uint256)": "fbd3a29d",
    "attachments(uint256)": "0d6a2033",
    "balanceOf(address)": "70a08231",
    "balanceOfAtNFT(uint256,uint256)": "8c2c9baf",
    "balanceOfNFT(uint256)": "e7e242d4",
    "balanceOfNFTAt(uint256,uint256)": "e0514aba",
    "block_number()": "25a58b56",
    "burn(uint256)": "42966c68",
    "checkpoint()": "c2c4c5c1",
    "checkpoints(address,uint32)": "f1127ed8",
    "create_lock(uint256,uint256)": "65fc3873",
    "create_lock_for(uint256,uint256,address)": "d4e54c3b",
    "delegate(address)": "5c19a95c",
    "delegateBySig(address,uint256,uint256,uint8,bytes32,bytes32)": "c3cda520",
    "delegates(address)": "587cde1e",
    "deposit_for(uint256,uint256)": "ee99fe28",
    "detach(uint256)": "986b7d8a",
    "epoch()": "900cf0cf",
    "getApproved(uint256)": "081812fc",
    "getPastTotalSupply(uint256)": "8e539e8c",
    "getPastVotes(address,uint256)": "3a46b1a8",
    "getPastVotesIndex(address,uint256)": "0758c7d8",
    "getVotes(address)": "9ab24eb0",
    "get_last_user_slope(uint256)": "461f711c",
    "increase_amount(uint256,uint256)": "a183af52",
    "increase_unlock_time(uint256,uint256)": "a4d855df",
    "initialize(string,string,address)": "077f224a",
    "isApprovedForAll(address,address)": "e985e9c5",
    "isApprovedOrOwner(address,uint256)": "430c2081",
    "locked(uint256)": "b45a3c0e",
    "locked__end(uint256)": "f8a05763",
    "masterChainId()": "10c3cf06",
    "merge(uint256,uint256)": "d1c2babb",
    "mint(address,uint256)": "40c10f19",
    "name()": "06fdde03",
    "nonces(address)": "7ecebe00",
    "numCheckpoints(address)": "6fcfff45",
    "owner()": "8da5cb5b",
    "ownerOf(uint256)": "6352211e",
    "ownership_change(uint256)": "6f548837",
    "pendingOwner()": "e30c3978",
    "point_history(uint256)": "d1febfb9",
    "removeBridge(address)": "04df017d",
    "renounceOwnership()": "715018a6",
    "safeTransferFrom(address,address,uint256)": "42842e0e",
    "safeTransferFrom(address,address,uint256,bytes)": "b88d4fde",
    "setApprovalForAll(address,bool)": "a22cb465",
    "setTeam(address)": "095cf5c6",
    "setVoter(address)": "4bc2a657",
    "slope_changes(uint256)": "71197484",
    "split(uint256[],uint256)": "56afe744",
    "supply()": "047fc9aa",
    "supportsInterface(bytes4)": "01ffc9a7",
    "symbol()": "95d89b41",
    "team()": "85f2aef2",
    "token()": "fc0c546a",
    "tokenOfOwnerByIndex(address,uint256)": "2f745c59",
    "tokenURI(uint256)": "c87b56dd",
    "totalSupply()": "18160ddd",
    "totalSupplyAt(uint256)": "981b24d0",
    "totalSupplyAtT(uint256)": "7116c60c",
    "transferFrom(address,address,uint256)": "23b872dd",
    "transferOwnership(address)": "f2fde38b",
    "user_point_epoch(uint256)": "e441135c",
    "user_point_history(uint256,uint256)": "1376f3da",
    "user_point_history__ts(uint256,uint256)": "1c984bc3",
    "version()": "54fd4d50",
    "voted(uint256)": "8fbb38ff",
    "voter()": "46c96aac",
    "voting(uint256)": "fd4a77f1",
    "withdraw(uint256)": "2e1a7d4d"
  }
}