{
  "address": "0x5060B9498eE5a1002421A57621fC86c0127a6deb",
  "abi": [
    {
      "inputs": [],
      "stateMutability": "nonpayable",
      "type": "constructor"
    },
    {
      "inputs": [],
      "name": "XERC721__addBridge_alreadyAdded",
      "type": "error"
    },
    {
      "inputs": [],
      "name": "XERC721__onlyBridge_notBridge",
      "type": "error"
    },
    {
      "inputs": [],
      "name": "XERC721__removeBridge_alreadyRemoved",
      "type": "error"
    },
    {
      "anonymous": false,
      "inputs": [
        {
          "indexed": true,
          "internalType": "address",
          "name": "owner",
          "type": "address"
        },
        {
          "indexed": true,
          "internalType": "address",
          "name": "approved",
          "type": "address"
        },
        {
          "indexed": true,
          "internalType": "uint256",
          "name": "tokenId",
          "type": "uint256"
        }
      ],
      "name": "Approval",
      "type": "event"
    },
    {
      "anonymous": false,
      "inputs": [
        {
          "indexed": true,
          "internalType": "address",
          "name": "owner",
          "type": "address"
        },
        {
          "indexed": true,
          "internalType": "address",
          "name": "operator",
          "type": "address"
        },
        {
          "indexed": false,
          "internalType": "bool",
          "name": "approved",
          "type": "bool"
        }
      ],
      "name": "ApprovalForAll",
      "type": "event"
    },
    {
      "anonymous": false,
      "inputs": [
        {
          "indexed": true,
          "internalType": "address",
          "name": "bridge",
          "type": "address"
        }
      ],
      "name": "BridgeAdded",
      "type": "event"
    },
    {
      "anonymous": false,
      "inputs": [
        {
          "indexed": true,
          "internalType": "address",
          "name": "bridge",
          "type": "address"
        }
      ],
      "name": "BridgeRemoved",
      "type": "event"
    },
    {
      "anonymous": false,
      "inputs": [
        {
          "indexed": false,
          "internalType": "uint256",
          "name": "_tokenId",
          "type": "uint256"
        },
        {
          "indexed": false,
          "internalType": "bytes",
          "name": "_metadata",
          "type": "bytes"
        }
      ],
      "name": "BurnAsBridge",
      "type": "event"
    },
    {
      "anonymous": false,
      "inputs": [
        {
          "indexed": true,
          "internalType": "address",
          "name": "delegator",
          "type": "address"
        },
        {
          "indexed": true,
          "internalType": "address",
          "name": "fromDelegate",
          "type": "address"
        },
        {
          "indexed": true,
          "internalType": "address",
          "name": "toDelegate",
          "type": "address"
        }
      ],
      "name": "DelegateChanged",
      "type": "event"
    },
    {
      "anonymous": false,
      "inputs": [
        {
          "indexed": true,
          "internalType": "address",
          "name": "delegate",
          "type": "address"
        },
        {
          "indexed": false,
          "internalType": "uint256",
          "name": "previousBalance",
          "type": "uint256"
        },
        {
          "indexed": false,
          "internalType": "uint256",
          "name": "newBalance",
          "type": "uint256"
        }
      ],
      "name": "DelegateVotesChanged",
      "type": "event"
    },
    {
      "anonymous": false,
      "inputs": [
        {
          "indexed": true,
          "internalType": "address",
          "name": "provider",
          "type": "address"
        },
        {
          "indexed": false,
          "internalType": "uint256",
          "name": "tokenId",
          "type": "uint256"
        },
        {
          "indexed": false,
          "internalType": "uint256",
          "name": "value",
          "type": "uint256"
        },
        {
          "indexed": true,
          "internalType": "uint256",
          "name": "locktime",
          "type": "uint256"
        },
        {
          "indexed": false,
          "internalType": "enum VoteEscrow.DepositType",
          "name": "deposit_type",
          "type": "uint8"
        },
        {
          "indexed": false,
          "internalType": "uint256",
          "name": "ts",
          "type": "uint256"
        }
      ],
      "name": "Deposit",
      "type": "event"
    },
    {
      "anonymous": false,
      "inputs": [
        {
          "indexed": false,
          "internalType": "uint8",
          "name": "version",
          "type": "uint8"
        }
      ],
      "name": "Initialized",
      "type": "event"
    },
    {
      "anonymous": false,
      "inputs": [
        {
          "indexed": false,
          "internalType": "uint256",
          "name": "_tokenId",
          "type": "uint256"
        },
        {
          "indexed": false,
          "internalType": "bytes",
          "name": "_metadata",
          "type": "bytes"
        }
      ],
      "name": "MintAsBridge",
      "type": "event"
    },
    {
      "anonymous": false,
      "inputs": [
        {
          "indexed": true,
          "internalType": "address",
          "name": "previousOwner",
          "type": "address"
        },
        {
          "indexed": true,
          "internalType": "address",
          "name": "newOwner",
          "type": "address"
        }
      ],
      "name": "OwnershipTransferStarted",
      "type": "event"
    },
    {
      "anonymous": false,
      "inputs": [
        {
          "indexed": true,
          "internalType": "address",
          "name": "previousOwner",
          "type": "address"
        },
        {
          "indexed": true,
          "internalType": "address",
          "name": "newOwner",
          "type": "address"
        }
      ],
      "name": "OwnershipTransferred",
      "type": "event"
    },
    {
      "anonymous": false,
      "inputs": [
        {
          "indexed": false,
          "internalType": "uint256",
          "name": "prevSupply",
          "type": "uint256"
        },
        {
          "indexed": false,
          "internalType": "uint256",
          "name": "supply",
          "type": "uint256"
        }
      ],
      "name": "Supply",
      "type": "event"
    },
    {
      "anonymous": false,
      "inputs": [
        {
          "indexed": true,
          "internalType": "address",
          "name": "from",
          "type": "address"
        },
        {
          "indexed": true,
          "internalType": "address",
          "name": "to",
          "type": "address"
        },
        {
          "indexed": true,
          "internalType": "uint256",
          "name": "tokenId",
          "type": "uint256"
        }
      ],
      "name": "Transfer",
      "type": "event"
    },
    {
      "anonymous": false,
      "inputs": [
        {
          "indexed": true,
          "internalType": "address",
          "name": "provider",
          "type": "address"
        },
        {
          "indexed": false,
          "internalType": "uint256",
          "name": "tokenId",
          "type": "uint256"
        },
        {
          "indexed": false,
          "internalType": "uint256",
          "name": "value",
          "type": "uint256"
        },
        {
          "indexed": false,
          "internalType": "uint256",
          "name": "ts",
          "type": "uint256"
        }
      ],
      "name": "Withdraw",
      "type": "event"
    },
    {
      "inputs": [],
      "name": "ARBITRUM_ONE",
      "outputs": [
        {
          "internalType": "uint128",
          "name": "",
          "type": "uint128"
        }
      ],
      "stateMutability": "view",
      "type": "function"
    },
    {
      "inputs": [],
      "name": "DELEGATION_TYPEHASH",
      "outputs": [
        {
          "internalType": "bytes32",
          "name": "",
          "type": "bytes32"
        }
      ],
      "stateMutability": "view",
      "type": "function"
    },
    {
      "inputs": [],
      "name": "DOMAIN_TYPEHASH",
      "outputs": [
        {
          "internalType": "bytes32",
          "name": "",
          "type": "bytes32"
        }
      ],
      "stateMutability": "view",
      "type": "function"
    },
    {
      "inputs": [],
      "name": "MAX_DELEGATES",
      "outputs": [
        {
          "internalType": "uint256",
          "name": "",
          "type": "uint256"
        }
      ],
      "stateMutability": "view",
      "type": "function"
    },
    {
      "inputs": [
        {
          "internalType": "uint256",
          "name": "_tokenId",
          "type": "uint256"
        }
      ],
      "name": "abstain",
      "outputs": [],
      "stateMutability": "nonpayable",
      "type": "function"
    },
    {
      "inputs": [],
      "name": "acceptOwnership",
      "outputs": [],
      "stateMutability": "nonpayable",
      "type": "function"
    },
    {
      "inputs": [
        {
          "internalType": "address",
          "name": "_bridge",
          "type": "address"
        }
      ],
      "name": "addBridge",
      "outputs": [],
      "stateMutability": "nonpayable",
      "type": "function"
    },
    {
      "inputs": [
        {
          "internalType": "address",
          "name": "_approved",
          "type": "address"
        },
        {
          "internalType": "uint256",
          "name": "_tokenId",
          "type": "uint256"
        }
      ],
      "name": "approve",
      "outputs": [],
      "stateMutability": "nonpayable",
      "type": "function"
    },
    {
      "inputs": [
        {
          "internalType": "address",
          "name": "_owner",
          "type": "address"
        }
      ],
      "name": "balanceOf",
      "outputs": [
        {
          "internalType": "uint256",
          "name": "",
          "type": "uint256"
        }
      ],
      "stateMutability": "view",
      "type": "function"
    },
    {
      "inputs": [
        {
          "internalType": "uint256",
          "name": "_tokenId",
          "type": "uint256"
        },
        {
          "internalType": "uint256",
          "name": "_block",
          "type": "uint256"
        }
      ],
      "name": "balanceOfAtNFT",
      "outputs": [
        {
          "internalType": "uint256",
          "name": "",
          "type": "uint256"
        }
      ],
      "stateMutability": "view",
      "type": "function"
    },
    {
      "inputs": [
        {
          "internalType": "uint256",
          "name": "_tokenId",
          "type": "uint256"
        }
      ],
      "name": "balanceOfNFT",
      "outputs": [
        {
          "internalType": "uint256",
          "name": "",
          "type": "uint256"
        }
      ],
      "stateMutability": "view",
      "type": "function"
    },
    {
      "inputs": [
        {
          "internalType": "uint256",
          "name": "_tokenId",
          "type": "uint256"
        },
        {
          "internalType": "uint256",
          "name": "_t",
          "type": "uint256"
        }
      ],
      "name": "balanceOfNFTAt",
      "outputs": [
        {
          "internalType": "uint256",
          "name": "",
          "type": "uint256"
        }
      ],
      "stateMutability": "view",
      "type": "function"
    },
    {
      "inputs": [],
      "name": "block_number",
      "outputs": [
        {
          "internalType": "uint256",
          "name": "",
          "type": "uint256"
        }
      ],
      "stateMutability": "view",
      "type": "function"
    },
    {
      "inputs": [
        {
          "internalType": "uint256",
          "name": "_tokenId",
          "type": "uint256"
        }
      ],
      "name": "burn",
      "outputs": [
        {
          "internalType": "bytes",
          "name": "_metadata",
          "type": "bytes"
        }
      ],
      "stateMutability": "nonpayable",
      "type": "function"
    },
    {
      "inputs": [],
      "name": "checkpoint",
      "outputs": [],
      "stateMutability": "nonpayable",
      "type": "function"
    },
    {
      "inputs": [
        {
          "internalType": "address",
          "name": "",
          "type": "address"
        },
        {
          "internalType": "uint32",
          "name": "",
          "type": "uint32"
        }
      ],
      "name": "checkpoints",
      "outputs": [
        {
          "internalType": "uint256",
          "name": "timestamp",
          "type": "uint256"
        }
      ],
      "stateMutability": "view",
      "type": "function"
    },
    {
      "inputs": [
        {
          "internalType": "uint256",
          "name": "_value",
          "type": "uint256"
        },
        {
          "internalType": "uint256",
          "name": "_lock_duration",
          "type": "uint256"
        }
      ],
      "name": "create_lock",
      "outputs": [
        {
          "internalType": "uint256",
          "name": "",
          "type": "uint256"
        }
      ],
      "stateMutability": "nonpayable",
      "type": "function"
    },
    {
      "inputs": [
        {
          "internalType": "uint256",
          "name": "_value",
          "type": "uint256"
        },
        {
          "internalType": "uint256",
          "name": "_lock_duration",
          "type": "uint256"
        },
        {
          "internalType": "address",
          "name": "_to",
          "type": "address"
        }
      ],
      "name": "create_lock_for",
      "outputs": [
        {
          "internalType": "uint256",
          "name": "",
          "type": "uint256"
        }
      ],
      "stateMutability": "nonpayable",
      "type": "function"
    },
    {
      "inputs": [
        {
          "internalType": "address",
          "name": "delegatee",
          "type": "address"
        }
      ],
      "name": "delegate",
      "outputs": [],
      "stateMutability": "nonpayable",
      "type": "function"
    },
    {
      "inputs": [
        {
          "internalType": "address",
          "name": "delegatee",
          "type": "address"
        },
        {
          "internalType": "uint256",
          "name": "nonce",
          "type": "uint256"
        },
        {
          "internalType": "uint256",
          "name": "expiry",
          "type": "uint256"
        },
        {
          "internalType": "uint8",
          "name": "v",
          "type": "uint8"
        },
        {
          "internalType": "bytes32",
          "name": "r",
          "type": "bytes32"
        },
        {
          "internalType": "bytes32",
          "name": "s",
          "type": "bytes32"
        }
      ],
      "name": "delegateBySig",
      "outputs": [],
      "stateMutability": "nonpayable",
      "type": "function"
    },
    {
      "inputs": [
        {
          "internalType": "address",
          "name": "delegator",
          "type": "address"
        }
      ],
      "name": "delegates",
      "outputs": [
        {
          "internalType": "address",
          "name": "",
          "type": "address"
        }
      ],
      "stateMutability": "view",
      "type": "function"
    },
    {
      "inputs": [
        {
          "internalType": "uint256",
          "name": "_tokenId",
          "type": "uint256"
        },
        {
          "internalType": "uint256",
          "name": "_value",
          "type": "uint256"
        }
      ],
      "name": "deposit_for",
      "outputs": [],
      "stateMutability": "nonpayable",
      "type": "function"
    },
    {
      "inputs": [],
      "name": "epoch",
      "outputs": [
        {
          "internalType": "uint256",
          "name": "",
          "type": "uint256"
        }
      ],
      "stateMutability": "view",
      "type": "function"
    },
    {
      "inputs": [
        {
          "internalType": "uint256",
          "name": "_tokenId",
          "type": "uint256"
        }
      ],
      "name": "getApproved",
      "outputs": [
        {
          "internalType": "address",
          "name": "",
          "type": "address"
        }
      ],
      "stateMutability": "view",
      "type": "function"
    },
    {
      "inputs": [
        {
          "internalType": "uint256",
          "name": "timestamp",
          "type": "uint256"
        }
      ],
      "name": "getPastTotalSupply",
      "outputs": [
        {
          "internalType": "uint256",
          "name": "",
          "type": "uint256"
        }
      ],
      "stateMutability": "view",
      "type": "function"
    },
    {
      "inputs": [
        {
          "internalType": "address",
          "name": "account",
          "type": "address"
        },
        {
          "internalType": "uint256",
          "name": "timestamp",
          "type": "uint256"
        }
      ],
      "name": "getPastVotes",
      "outputs": [
        {
          "internalType": "uint256",
          "name": "",
          "type": "uint256"
        }
      ],
      "stateMutability": "view",
      "type": "function"
    },
    {
      "inputs": [
        {
          "internalType": "address",
          "name": "account",
          "type": "address"
        },
        {
          "internalType": "uint256",
          "name": "timestamp",
          "type": "uint256"
        }
      ],
      "name": "getPastVotesIndex",
      "outputs": [
        {
          "internalType": "uint32",
          "name": "",
          "type": "uint32"
        }
      ],
      "stateMutability": "view",
      "type": "function"
    },
    {
      "inputs": [
        {
          "internalType": "address",
          "name": "account",
          "type": "address"
        }
      ],
      "name": "getVotes",
      "outputs": [
        {
          "internalType": "uint256",
          "name": "",
          "type": "uint256"
        }
      ],
      "stateMutability": "view",
      "type": "function"
    },
    {
      "inputs": [
        {
          "internalType": "uint256",
          "name": "_tokenId",
          "type": "uint256"
        }
      ],
      "name": "get_last_user_slope",
      "outputs": [
        {
          "internalType": "int128",
          "name": "",
          "type": "int128"
        }
      ],
      "stateMutability": "view",
      "type": "function"
    },
    {
      "inputs": [
        {
          "internalType": "uint256",
          "name": "_tokenId",
          "type": "uint256"
        },
        {
          "internalType": "uint256",
          "name": "_value",
          "type": "uint256"
        }
      ],
      "name": "increase_amount",
      "outputs": [],
      "stateMutability": "nonpayable",
      "type": "function"
    },
    {
      "inputs": [
        {
          "internalType": "uint256",
          "name": "_tokenId",
          "type": "uint256"
        },
        {
          "internalType": "uint256",
          "name": "_lock_duration",
          "type": "uint256"
        }
      ],
      "name": "increase_unlock_time",
      "outputs": [],
      "stateMutability": "nonpayable",
      "type": "function"
    },
    {
      "inputs": [
        {
          "internalType": "string",
          "name": "name_",
          "type": "string"
        },
        {
          "internalType": "string",
          "name": "symbol_",
          "type": "string"
        },
        {
          "internalType": "address",
          "name": "token_addr",
          "type": "address"
        }
      ],
      "name": "initialize",
      "outputs": [],
      "stateMutability": "nonpayable",
      "type": "function"
    },
    {
      "inputs": [
        {
          "internalType": "address",
          "name": "_owner",
          "type": "address"
        },
        {
          "internalType": "address",
          "name": "_operator",
          "type": "address"
        }
      ],
      "name": "isApprovedForAll",
      "outputs": [
        {
          "internalType": "bool",
          "name": "",
          "type": "bool"
        }
      ],
      "stateMutability": "view",
      "type": "function"
    },
    {
      "inputs": [
        {
          "internalType": "address",
          "name": "_spender",
          "type": "address"
        },
        {
          "internalType": "uint256",
          "name": "_tokenId",
          "type": "uint256"
        }
      ],
      "name": "isApprovedOrOwner",
      "outputs": [
        {
          "internalType": "bool",
          "name": "",
          "type": "bool"
        }
      ],
      "stateMutability": "view",
      "type": "function"
    },
    {
      "inputs": [
        {
          "internalType": "uint256",
          "name": "",
          "type": "uint256"
        }
      ],
      "name": "locked",
      "outputs": [
        {
          "internalType": "int128",
          "name": "amount",
          "type": "int128"
        },
        {
          "internalType": "uint256",
          "name": "end",
          "type": "uint256"
        }
      ],
      "stateMutability": "view",
      "type": "function"
    },
    {
      "inputs": [
        {
          "internalType": "uint256",
          "name": "_tokenId",
          "type": "uint256"
        }
      ],
      "name": "locked__end",
      "outputs": [
        {
          "internalType": "uint256",
          "name": "",
          "type": "uint256"
        }
      ],
      "stateMutability": "view",
      "type": "function"
    },
    {
      "inputs": [],
      "name": "masterChainId",
      "outputs": [
        {
          "internalType": "uint256",
          "name": "",
          "type": "uint256"
        }
      ],
      "stateMutability": "view",
      "type": "function"
    },
    {
      "inputs": [
        {
          "internalType": "uint256",
          "name": "_from",
          "type": "uint256"
        },
        {
          "internalType": "uint256",
          "name": "_to",
          "type": "uint256"
        }
      ],
      "name": "merge",
      "outputs": [],
      "stateMutability": "nonpayable",
      "type": "function"
    },
    {
      "inputs": [
        {
          "internalType": "address",
          "name": "_to",
          "type": "address"
        },
        {
          "internalType": "uint256",
          "name": "_tokenId",
          "type": "uint256"
        },
        {
          "internalType": "bytes",
          "name": "_metadata",
          "type": "bytes"
        }
      ],
      "name": "mint",
      "outputs": [],
      "stateMutability": "nonpayable",
      "type": "function"
    },
    {
      "inputs": [],
      "name": "name",
      "outputs": [
        {
          "internalType": "string",
          "name": "",
          "type": "string"
        }
      ],
      "stateMutability": "view",
      "type": "function"
    },
    {
      "inputs": [
        {
          "internalType": "address",
          "name": "",
          "type": "address"
        }
      ],
      "name": "nonces",
      "outputs": [
        {
          "internalType": "uint256",
          "name": "",
          "type": "uint256"
        }
      ],
      "stateMutability": "view",
      "type": "function"
    },
    {
      "inputs": [
        {
          "internalType": "address",
          "name": "",
          "type": "address"
        }
      ],
      "name": "numCheckpoints",
      "outputs": [
        {
          "internalType": "uint32",
          "name": "",
          "type": "uint32"
        }
      ],
      "stateMutability": "view",
      "type": "function"
    },
    {
      "inputs": [],
      "name": "owner",
      "outputs": [
        {
          "internalType": "address",
          "name": "",
          "type": "address"
        }
      ],
      "stateMutability": "view",
      "type": "function"
    },
    {
      "inputs": [
        {
          "internalType": "uint256",
          "name": "_tokenId",
          "type": "uint256"
        }
      ],
      "name": "ownerOf",
      "outputs": [
        {
          "internalType": "address",
          "name": "",
          "type": "address"
        }
      ],
      "stateMutability": "view",
      "type": "function"
    },
    {
      "inputs": [
        {
          "internalType": "uint256",
          "name": "",
          "type": "uint256"
        }
      ],
      "name": "ownership_change",
      "outputs": [
        {
          "internalType": "uint256",
          "name": "",
          "type": "uint256"
        }
      ],
      "stateMutability": "view",
      "type": "function"
    },
    {
      "inputs": [],
      "name": "pendingOwner",
      "outputs": [
        {
          "internalType": "address",
          "name": "",
          "type": "address"
        }
      ],
      "stateMutability": "view",
      "type": "function"
    },
    {
      "inputs": [
        {
          "internalType": "uint256",
          "name": "",
          "type": "uint256"
        }
      ],
      "name": "point_history",
      "outputs": [
        {
          "internalType": "int128",
          "name": "bias",
          "type": "int128"
        },
        {
          "internalType": "int128",
          "name": "slope",
          "type": "int128"
        },
        {
          "internalType": "uint256",
          "name": "ts",
          "type": "uint256"
        },
        {
          "internalType": "uint256",
          "name": "blk",
          "type": "uint256"
        }
      ],
      "stateMutability": "view",
      "type": "function"
    },
    {
      "inputs": [
        {
          "internalType": "address",
          "name": "_bridge",
          "type": "address"
        }
      ],
      "name": "removeBridge",
      "outputs": [],
      "stateMutability": "nonpayable",
      "type": "function"
    },
    {
      "inputs": [],
      "name": "renounceOwnership",
      "outputs": [],
      "stateMutability": "nonpayable",
      "type": "function"
    },
    {
      "inputs": [
        {
          "internalType": "address",
          "name": "_from",
          "type": "address"
        },
        {
          "internalType": "address",
          "name": "_to",
          "type": "address"
        },
        {
          "internalType": "uint256",
          "name": "_tokenId",
          "type": "uint256"
        }
      ],
      "name": "safeTransferFrom",
      "outputs": [],
      "stateMutability": "nonpayable",
      "type": "function"
    },
    {
      "inputs": [
        {
          "internalType": "address",
          "name": "_from",
          "type": "address"
        },
        {
          "internalType": "address",
          "name": "_to",
          "type": "address"
        },
        {
          "internalType": "uint256",
          "name": "_tokenId",
          "type": "uint256"
        },
        {
          "internalType": "bytes",
          "name": "_data",
          "type": "bytes"
        }
      ],
      "name": "safeTransferFrom",
      "outputs": [],
      "stateMutability": "nonpayable",
      "type": "function"
    },
    {
      "inputs": [
        {
          "internalType": "address",
          "name": "_operator",
          "type": "address"
        },
        {
          "internalType": "bool",
          "name": "_approved",
          "type": "bool"
        }
      ],
      "name": "setApprovalForAll",
      "outputs": [],
      "stateMutability": "nonpayable",
      "type": "function"
    },
    {
      "inputs": [
        {
          "internalType": "address",
          "name": "_team",
          "type": "address"
        }
      ],
      "name": "setTeam",
      "outputs": [],
      "stateMutability": "nonpayable",
      "type": "function"
    },
    {
      "inputs": [
        {
          "internalType": "address",
          "name": "_voter",
          "type": "address"
        }
      ],
      "name": "setVoter",
      "outputs": [],
      "stateMutability": "nonpayable",
      "type": "function"
    },
    {
      "inputs": [
        {
          "internalType": "uint256",
          "name": "",
          "type": "uint256"
        }
      ],
      "name": "slope_changes",
      "outputs": [
        {
          "internalType": "int128",
          "name": "",
          "type": "int128"
        }
      ],
      "stateMutability": "view",
      "type": "function"
    },
    {
      "inputs": [
        {
          "internalType": "uint256[]",
          "name": "amounts",
          "type": "uint256[]"
        },
        {
          "internalType": "uint256",
          "name": "_tokenId",
          "type": "uint256"
        }
      ],
      "name": "split",
      "outputs": [],
      "stateMutability": "nonpayable",
      "type": "function"
    },
    {
      "inputs": [],
      "name": "supply",
      "outputs": [
        {
          "internalType": "uint256",
          "name": "",
          "type": "uint256"
        }
      ],
      "stateMutability": "view",
      "type": "function"
    },
    {
      "inputs": [
        {
          "internalType": "bytes4",
          "name": "_interfaceID",
          "type": "bytes4"
        }
      ],
      "name": "supportsInterface",
      "outputs": [
        {
          "internalType": "bool",
          "name": "",
          "type": "bool"
        }
      ],
      "stateMutability": "view",
      "type": "function"
    },
    {
      "inputs": [],
      "name": "symbol",
      "outputs": [
        {
          "internalType": "string",
          "name": "",
          "type": "string"
        }
      ],
      "stateMutability": "view",
      "type": "function"
    },
    {
      "inputs": [],
      "name": "team",
      "outputs": [
        {
          "internalType": "address",
          "name": "",
          "type": "address"
        }
      ],
      "stateMutability": "view",
      "type": "function"
    },
    {
      "inputs": [],
      "name": "token",
      "outputs": [
        {
          "internalType": "address",
          "name": "",
          "type": "address"
        }
      ],
      "stateMutability": "view",
      "type": "function"
    },
    {
      "inputs": [
        {
          "internalType": "address",
          "name": "_owner",
          "type": "address"
        },
        {
          "internalType": "uint256",
          "name": "_tokenIndex",
          "type": "uint256"
        }
      ],
      "name": "tokenOfOwnerByIndex",
      "outputs": [
        {
          "internalType": "uint256",
          "name": "",
          "type": "uint256"
        }
      ],
      "stateMutability": "view",
      "type": "function"
    },
    {
      "inputs": [
        {
          "internalType": "uint256",
          "name": "_tokenId",
          "type": "uint256"
        }
      ],
      "name": "tokenURI",
      "outputs": [
        {
          "internalType": "string",
          "name": "",
          "type": "string"
        }
      ],
      "stateMutability": "view",
      "type": "function"
    },
    {
      "inputs": [],
      "name": "totalSupply",
      "outputs": [
        {
          "internalType": "uint256",
          "name": "",
          "type": "uint256"
        }
      ],
      "stateMutability": "view",
      "type": "function"
    },
    {
      "inputs": [
        {
          "internalType": "uint256",
          "name": "_block",
          "type": "uint256"
        }
      ],
      "name": "totalSupplyAt",
      "outputs": [
        {
          "internalType": "uint256",
          "name": "",
          "type": "uint256"
        }
      ],
      "stateMutability": "view",
      "type": "function"
    },
    {
      "inputs": [
        {
          "internalType": "uint256",
          "name": "t",
          "type": "uint256"
        }
      ],
      "name": "totalSupplyAtT",
      "outputs": [
        {
          "internalType": "uint256",
          "name": "",
          "type": "uint256"
        }
      ],
      "stateMutability": "view",
      "type": "function"
    },
    {
      "inputs": [
        {
          "internalType": "address",
          "name": "_from",
          "type": "address"
        },
        {
          "internalType": "address",
          "name": "_to",
          "type": "address"
        },
        {
          "internalType": "uint256",
          "name": "_tokenId",
          "type": "uint256"
        }
      ],
      "name": "transferFrom",
      "outputs": [],
      "stateMutability": "nonpayable",
      "type": "function"
    },
    {
      "inputs": [
        {
          "internalType": "address",
          "name": "newOwner",
          "type": "address"
        }
      ],
      "name": "transferOwnership",
      "outputs": [],
      "stateMutability": "nonpayable",
      "type": "function"
    },
    {
      "inputs": [
        {
          "internalType": "uint256",
          "name": "",
          "type": "uint256"
        }
      ],
      "name": "user_point_epoch",
      "outputs": [
        {
          "internalType": "uint256",
          "name": "",
          "type": "uint256"
        }
      ],
      "stateMutability": "view",
      "type": "function"
    },
    {
      "inputs": [
        {
          "internalType": "uint256",
          "name": "",
          "type": "uint256"
        },
        {
          "internalType": "uint256",
          "name": "",
          "type": "uint256"
        }
      ],
      "name": "user_point_history",
      "outputs": [
        {
          "internalType": "int128",
          "name": "bias",
          "type": "int128"
        },
        {
          "internalType": "int128",
          "name": "slope",
          "type": "int128"
        },
        {
          "internalType": "uint256",
          "name": "ts",
          "type": "uint256"
        },
        {
          "internalType": "uint256",
          "name": "blk",
          "type": "uint256"
        }
      ],
      "stateMutability": "view",
      "type": "function"
    },
    {
      "inputs": [
        {
          "internalType": "uint256",
          "name": "_tokenId",
          "type": "uint256"
        },
        {
          "internalType": "uint256",
          "name": "_idx",
          "type": "uint256"
        }
      ],
      "name": "user_point_history__ts",
      "outputs": [
        {
          "internalType": "uint256",
          "name": "",
          "type": "uint256"
        }
      ],
      "stateMutability": "view",
      "type": "function"
    },
    {
      "inputs": [],
      "name": "version",
      "outputs": [
        {
          "internalType": "string",
          "name": "",
          "type": "string"
        }
      ],
      "stateMutability": "view",
      "type": "function"
    },
    {
      "inputs": [
        {
          "internalType": "uint256",
          "name": "",
          "type": "uint256"
        }
      ],
      "name": "voted",
      "outputs": [
        {
          "internalType": "bool",
          "name": "",
          "type": "bool"
        }
      ],
      "stateMutability": "view",
      "type": "function"
    },
    {
      "inputs": [],
      "name": "voter",
      "outputs": [
        {
          "internalType": "address",
          "name": "",
          "type": "address"
        }
      ],
      "stateMutability": "view",
      "type": "function"
    },
    {
      "inputs": [
        {
          "internalType": "uint256",
          "name": "_tokenId",
          "type": "uint256"
        }
      ],
      "name": "voting",
      "outputs": [],
      "stateMutability": "nonpayable",
      "type": "function"
    },
    {
      "inputs": [
        {
          "internalType": "uint256",
          "name": "_tokenId",
          "type": "uint256"
        }
      ],
      "name": "withdraw",
      "outputs": [],
      "stateMutability": "nonpayable",
      "type": "function"
    }
  ],
  "transactionHash": "0xef304b2d1fedba59cb48b5f9436e89c28f0aca388ecd0bb94eea3ae714c40157",
  "args": [],
  "numDeployments": 2,
  "bytecode": {
    "object": "0x60806040523480156200001157600080fd5b506200001c62000022565b620000e3565b600054610100900460ff16156200008f5760405162461bcd60e51b815260206004820152602760248201527f496e697469616c697a61626c653a20636f6e747261637420697320696e697469604482015266616c697a696e6760c81b606482015260840160405180910390fd5b60005460ff90811614620000e1576000805460ff191660ff9081179091556040519081527f7f26b83ff96e1f2b6a682f133852f6798a09c465da95921460cefb38474024989060200160405180910390a15b565b6158ff80620000f36000396000f3fe608060405234801561001057600080fd5b50600436106104545760003560e01c8063715018a611610241578063c1f0fb9f1161013b578063e441135c116100c3578063f1127ed811610087578063f1127ed814610b62578063f2fde38b14610b8e578063f8a0576314610ba1578063fc0c546a14610bc5578063fd4a77f114610bd957600080fd5b8063e441135c14610ab7578063e7a324dc14610ad8578063e7e242d414610aff578063e985e9c514610b12578063ee99fe2814610b4f57600080fd5b8063d1c2babb1161010a578063d1c2babb14610a2e578063d1febfb914610a41578063d4e54c3b14610a80578063e0514aba14610a93578063e30c397814610aa657600080fd5b8063c1f0fb9f146109ed578063c2c4c5c114610a00578063c3cda52014610a08578063c87b56dd14610a1b57600080fd5b806394d008ef116101c9578063a183af521161018d578063a183af5214610958578063a22cb4651461096b578063a4d855df1461097e578063b45a3c0e14610991578063b88d4fde146109da57600080fd5b806394d008ef1461090457806395d89b41146109175780639712fdf81461091f578063981b24d0146109325780639ab24eb01461094557600080fd5b80638c2c9baf116102105780638c2c9baf1461089f5780638da5cb5b146108b25780638e539e8c146108c35780638fbb38ff146108d6578063900cf0cf146108fa57600080fd5b8063715018a61461085a57806379ba5097146108625780637ecebe001461086a57806385f2aef21461088b57600080fd5b80633a46b1a811610352578063587cde1e116102da5780636f5488371161029e5780636f548837146107c85780636fcfff45146107e957806370a08231146108105780637116c60c14610823578063711974841461083657600080fd5b8063587cde1e1461075c5780635c19a95c1461076f5780635f5b0c32146107825780636352211e1461078b57806365fc3873146107b557600080fd5b8063461f711c11610321578063461f711c146106d857806346c96aac146106fe5780634bc2a6571461071257806354fd4d501461072557806356afe7441461074957600080fd5b80633a46b1a81461068c57806342842e0e1461069f57806342966c68146106b2578063430c2081146106c557600080fd5b806310c3cf06116103e05780632168ca0f116103a45780632168ca0f1461060857806323b872dd1461062957806325a58b561461063c5780632e1a7d4d146106425780632f745c591461065557600080fd5b806310c3cf06146105815780631376f3da1461058b57806318160ddd146105c65780631c984bc3146105ce57806320606b70146105e157600080fd5b80630758c7d8116104275780630758c7d8146104de578063077f224a14610506578063081812fc14610519578063095cf5c61461055b578063095ea7b31461056e57600080fd5b806301ffc9a714610459578063047fc9aa1461049c57806304df017d146104b457806306fdde03146104c9575b600080fd5b610487610467366004614dc1565b6001600160e01b0319166000908152610163602052604090205460ff1690565b60405190151581526020015b60405180910390f35b6104a66101725481565b604051908152602001610493565b6104c76104c2366004614df5565b610bec565b005b6104d1610c82565b6040516104939190614e5d565b6104f16104ec366004614e70565b610d14565b60405163ffffffff9091168152602001610493565b6104c7610514366004614f51565b610e8b565b610543610527366004614fc5565b600090815261016860205260409020546001600160a01b031690565b6040516001600160a01b039091168152602001610493565b6104c7610569366004614df5565b611129565b6104c761057c366004614e70565b61118f565b6104a66101655481565b61059e610599366004614fde565b611314565b60408051600f95860b81529390940b6020840152928201526060810191909152608001610493565b6104a661135c565b6104a66105dc366004614fde565b61136c565b6104a67f8cad95687ba82c2ce50e74f7b754645e5117c3a5bec8151c0726d5857980a86681565b61061161a4b181565b6040516001600160801b039091168152602001610493565b6104c7610637366004615000565b61139f565b436104a6565b6104c7610650366004614fc5565b6113b0565b6104a6610663366004614e70565b6001600160a01b0391909116600090815261016b60209081526040808320938352929052205490565b6104a661069a366004614e70565b6115db565b6104c76106ad366004615000565b61167b565b6104d16106c0366004614fc5565b611696565b6104876106d3366004614e70565b6116e2565b6106eb6106e6366004614fc5565b6116f5565b604051600f9190910b8152602001610493565b61016054610543906001600160a01b031681565b6104c7610720366004614df5565b61173a565b6104d1604051806040016040528060058152602001640312e302e360dc1b81525081565b6104c761075736600461503c565b6117a0565b61054361076a366004614df5565b611a4c565b6104c761077d366004614df5565b611a7d565b6104a661040081565b610543610799366004614fc5565b600090815261016660205260409020546001600160a01b031690565b6104a66107c3366004614fde565b611a98565b6104a66107d6366004614fc5565b61016a6020526000908152604090205481565b6104f16107f7366004614df5565b6101766020526000908152604090205463ffffffff1681565b6104a661081e366004614df5565b611aba565b6104a6610831366004614fc5565b611ad9565b6106eb610844366004614fc5565b61017160205260009081526040902054600f0b81565b6104c7611b3b565b6104c7611b4f565b6104a6610878366004614df5565b6101776020526000908152604090205481565b61016154610543906001600160a01b031681565b6104a66108ad366004614fde565b611bc6565b6097546001600160a01b0316610543565b6104a66108d1366004614fc5565b611bd2565b6104876108e4366004614fc5565b6101736020526000908152604090205460ff1681565b6104a66101705481565b6104c76109123660046150e8565b611bdd565b6104d1611c21565b6104c761092d366004614df5565b611c30565b6104a6610940366004614fc5565b611cca565b6104a6610953366004614df5565b611e6f565b6104c7610966366004614fde565b611f44565b6104c761097936600461514d565b61202b565b6104c761098c366004614fde565b6120b0565b6109c061099f366004614fc5565b61016f6020526000908152604090208054600190910154600f9190910b9082565b60408051600f9390930b8352602083019190915201610493565b6104c76109e8366004615184565b612249565b6104c76109fb366004614fc5565b6123e7565b6104c7612444565b6104c7610a163660046151ec565b612482565b6104d1610a29366004614fc5565b61281f565b6104c7610a3c366004614fde565b6128b6565b61059e610a4f366004614fc5565b61016260205260009081526040902080546001820154600290920154600f82810b93600160801b909304900b919084565b6104a6610a8e36600461524c565b612a59565b6104a6610aa1366004614fde565b612a7b565b60c9546001600160a01b0316610543565b6104a6610ac5366004614fc5565b61016d6020526000908152604090205481565b6104a67fe48329057bfd03d55e49b547132e39cffd9c1820ad7b9d4c5307691425d15adf81565b6104a6610b0d366004614fc5565b612a87565b610487610b20366004615278565b6001600160a01b0391821660009081526101696020908152604080832093909416825291909152205460ff1690565b6104c7610b5d366004614fde565b612ab0565b6104a6610b703660046152ab565b61017560209081526000928352604080842090915290825290205481565b6104c7610b9c366004614df5565b612b81565b6104a6610baf366004614fc5565b600090815261016f602052604090206001015490565b61015f54610543906001600160a01b031681565b6104c7610be7366004614fc5565b612bf2565b610bf4612c52565b6001600160a01b038116600090815260fb602052604090205460ff16610c2d57604051632655e85f60e01b815260040160405180910390fd5b6040516001600160a01b038216907f5d9d5034656cb3ebfb0655057cd7f9b4077a9b42ff42ce223cbac5bc586d212690600090a26001600160a01b0316600090815260fb60205260409020805460ff19169055565b606060658054610c91906152e0565b80601f0160208091040260200160405190810160405280929190818152602001828054610cbd906152e0565b8015610d0a5780601f10610cdf57610100808354040283529160200191610d0a565b820191906000526020600020905b815481529060010190602001808311610ced57829003601f168201915b5050505050905090565b6001600160a01b0382166000908152610176602052604081205463ffffffff16808203610d45576000915050610e85565b6001600160a01b0384166000908152610175602052604081208491610d6b600185615330565b63ffffffff16815260208101919091526040016000205411610d9a57610d92600182615330565b915050610e85565b6001600160a01b038416600090815261017560209081526040808320838052909152902054831015610dd0576000915050610e85565b600080610dde600184615330565b90505b8163ffffffff168163ffffffff161115610e805760006002610e038484615330565b610e0d919061536b565b610e179083615330565b6001600160a01b03881660009081526101756020908152604080832063ffffffff851684529091529020805491925090879003610e5a57509350610e8592505050565b8054871115610e6b57819350610e79565b610e76600183615330565b92505b5050610de1565b509150505b92915050565b600054610100900460ff1615808015610eab5750600054600160ff909116105b80610ec55750303b158015610ec5575060005460ff166001145b610f2d5760405162461bcd60e51b815260206004820152602e60248201527f496e697469616c697a61626c653a20636f6e747261637420697320616c72656160448201526d191e481a5b9a5d1a585b1a5e995960921b60648201526084015b60405180910390fd5b6000805460ff191660011790558015610f50576000805461ff0019166101001790555b610f58612cac565b610f60612cdb565b610f68612cdb565b610f728484612d0a565b610f7a612d3b565b610f8333612d6a565b61a4b16101655561015f80546001600160a01b0384166001600160a01b03199182161790915561016080548216339081179091556101618054909216179055437fd3963e8e1761c638694d3c60d54f123240f3fe953a68debc0fa797faeeb01d1155427fd3963e8e1761c638694d3c60d54f123240f3fe953a68debc0fa797faeeb01d10556101636020527fa8bef1461af97ffd75cfbc1c7627e40a5952107159e2d161b830af3c415a5971805460ff1990811660019081179092557f9c2286954f65a97095a628a27b8932da4542255331e66eaa5eb37db1fb5a9b038054821683179055635b5e139f60e01b60009081527fc5a25afa8aabe00a5261aa4d8aa3186ef1a373a7ca51f1fc2e467b9a5b5937008054909216909217905561016454604051909130916000805160206158d3833981519152908290a46101645460405160009030906000805160206158d3833981519152908390a48015611123576000805461ff0019169055604051600181527f7f26b83ff96e1f2b6a682f133852f6798a09c465da95921460cefb38474024989060200160405180910390a15b50505050565b610161546001600160a01b0316331461116c5760405162461bcd60e51b8152602060048201526005602482015264217465616d60d81b6044820152606401610f24565b61016180546001600160a01b0319166001600160a01b0392909216919091179055565b600081815261016660205260409020546001600160a01b0316806111e35760405162461bcd60e51b815260206004820152600b60248201526a216f776e6572207a65726f60a81b6044820152606401610f24565b806001600160a01b0316836001600160a01b03160361122d5760405162461bcd60e51b815260206004820152600660248201526510b7bbb732b960d11b6044820152606401610f24565b600082815261016660209081526040808320546001600160a01b038581168552610169845282852033808752945291909320549216149060ff1681806112705750805b6112b55760405162461bcd60e51b8152602060048201526016602482015275085b9bdd081bdddb995c881bdc88185c1c1c9bdd995960521b6044820152606401610f24565b6000848152610168602052604080822080546001600160a01b0319166001600160a01b0389811691821790925591518793918716917f8c5be1e5ebec7d5bd14f71427d1e84f3dd0314c0f7b2291e5b200ac8c7c3b92591a45050505050565b61016e60205281600052604060002081633b9aca00811061133457600080fd5b6003020180546001820154600290920154600f82810b9550600160801b90920490910b925084565b600061136742611ad9565b905090565b600082815261016e6020526040812082633b9aca00811061138f5761138f61538e565b6003020160010154905092915050565b6113ab83838333612d83565b505050565b6113b8612e78565b6101655446146113da5760405162461bcd60e51b8152600401610f24906153a4565b6113e43382612ed3565b6113f0576113f06153cc565b6000818152610173602052604090205460ff16156114205760405162461bcd60e51b8152600401610f24906153e2565b600081815261016f602090815260409182902082518084019093528054600f0b8352600101549082018190524210156114945760405162461bcd60e51b8152602060048201526016602482015275546865206c6f636b206469646e27742065787069726560501b6044820152606401610f24565b805161017254600f9190910b906114ab8282615402565b610172556114b884612f3c565b5061015f5460405163a9059cbb60e01b8152336004820152602481018490526001600160a01b039091169063a9059cbb906044016020604051808303816000875af115801561150b573d6000803e3d6000fd5b505050506040513d601f19601f8201168201806040525081019061152f9190615419565b61153b5761153b6153cc565b61154484613020565b60408051858152602081018490524281830152905133917f02f25270a4d87bea75db541cdfe559334a275b4a233520ed6c0a2429667cca94919081900360600190a27f5e2aa66efd74cce82b21852e317e5490d9ecc9e6bb953ae24d90851258cc2f5c816115b28482615402565b6040805192835260208301919091520160405180910390a15050506115d8600161012d55565b50565b6000806115e88484610d14565b6001600160a01b03851660009081526101756020908152604080832063ffffffff851684529091528120919250600190910190805b825481101561167157600083828154811061163a5761163a61538e565b9060005260206000200154905061165181886130c9565b61165b9084615436565b92505080806116699061544e565b91505061161d565b5095945050505050565b6113ab83838360405180602001604052806000815250612249565b33600090815260fb602052604090205460609060ff166116c9576040516378f18ee960e11b815260040160405180910390fd5b6116d282612f3c565b90506116dd82613020565b919050565b60006116ee8383612ed3565b9392505050565b600081815261016d602090815260408083205461016e909252822081633b9aca0081106117245761172461538e565b6003020154600160801b9004600f0b9392505050565b610161546001600160a01b0316331461177d5760405162461bcd60e51b8152602060048201526005602482015264217465616d60d81b6044820152606401610f24565b61016080546001600160a01b0319166001600160a01b0392909216919091179055565b60008251116117ea5760405162461bcd60e51b81526020600482015260166024820152751e995c9bc81b195b88185b5bdd5b9d1cc81a5b9c1d5d60521b6044820152606401610f24565b6000818152610173602052604090205460ff161561181a5760405162461bcd60e51b8152600401610f24906153e2565b6118243382612ed3565b6118705760405162461bcd60e51b815260206004820152601960248201527f2173656e64657220617070726f766564206f72206f776e6572000000000000006044820152606401610f24565b6000818152610166602090815260408083205461016f83529281902081518083019092528054600f0b8083526001909101549282018390526001600160a01b0390931692909190806118d45760405162461bcd60e51b8152600401610f2490615467565b80610172546118e39190615402565b610172556000805b875182101561192d578782815181106119065761190661538e565b6020026020010151816119199190615436565b9050816119258161544e565b9250506118eb565b61193687612f3c565b5061194087613020565b834281116119605760405162461bcd60e51b8152600401610f2490615486565b61196e6301dfe20042615436565b81111561198d5760405162461bcd60e51b8152600401610f24906154cc565b60008093505b8951841015611a4057610164600081546119ac9061544e565b909155506101645498506119c0888a61319f565b828a85815181106119d3576119d361538e565b6020026020010151866119e69190615503565b6119f09190615522565b60008a815261016f602090815260409182902082518084019093528054600f0b83526001015490820152909150611a2e908a908390859060056131fd565b83611a388161544e565b945050611993565b50505050505050505050565b6001600160a01b03808216600090815261017460205260408120549091168015611a7657806116ee565b5090919050565b6001600160a01b038116611a8e5750335b6115d83382613428565b6000611aa2612e78565b611aad8383336134be565b9050610e85600161012d55565b6001600160a01b03811660009081526101676020526040812054610e85565b6101705460008181526101626020908152604080832081516080810183528154600f81810b8352600160801b909104900b93810193909352600181015491830191909152600201546060820152909190611b3381856135bb565b949350505050565b611b43612c52565b611b4d6000612d6a565b565b60c95433906001600160a01b03168114611bbd5760405162461bcd60e51b815260206004820152602960248201527f4f776e61626c6532537465703a2063616c6c6572206973206e6f7420746865206044820152683732bb9037bbb732b960b91b6064820152608401610f24565b6115d881612d6a565b60006116ee83836136bd565b6000610e8582611ad9565b33600090815260fb602052604090205460ff16611c0d576040516378f18ee960e11b815260040160405180910390fd5b611c17838361319f565b6113ab828261399c565b606060668054610c91906152e0565b611c38612c52565b6001600160a01b038116600090815260fb602052604090205460ff1615611c725760405163f74c45bf60e01b815260040160405180910390fd5b6040516001600160a01b038216907f3cda433c5679ae4c6a5dea50840e222a42cba3695e4663de4366be899348422190600090a26001600160a01b0316600090815260fb60205260409020805460ff19166001179055565b600043821115611cdc57611cdc6153cc565b610170546000611cec8483613a60565b60008181526101626020908152604080832081516080810183528154600f81810b8352600160801b909104900b9381019390935260018101549183019190915260020154606082015291925083831015611dfd57600061016281611d51866001615436565b8152602080820192909252604090810160002081516080810183528154600f81810b8352600160801b909104900b9381019390935260018101549183019190915260020154606080830182905285015191925014611df75782606001518160600151611dbd9190615402565b83604001518260400151611dd19190615402565b6060850151611de0908a615402565b611dea9190615503565b611df49190615522565b91505b50611e4c565b43826060015114611e4c576060820151611e179043615402565b6040830151611e269042615402565b6060840151611e359089615402565b611e3f9190615503565b611e499190615522565b90505b611e6582828460400151611e609190615436565b6135bb565b9695505050505050565b6001600160a01b0381166000908152610176602052604081205463ffffffff16808203611e9f5750600092915050565b6001600160a01b03831660009081526101756020526040812081611ec4600185615330565b63ffffffff1663ffffffff16815260200190815260200160002060010190506000805b8254811015611f3b576000838281548110611f0457611f0461538e565b90600052602060002001549050611f1b81426130c9565b611f259084615436565b9250508080611f339061544e565b915050611ee7565b50949350505050565b611f4c612e78565b611f563383612ed3565b611f6257611f626153cc565b600082815261016f602090815260409182902082518084019093528054600f0b8352600101549082015281611f9957611f996153cc565b60008160000151600f0b13611fe95760405162461bcd60e51b8152602060048201526016602482015275139bc8195e1a5cdd1a5b99c81b1bd8dac8199bdd5b9960521b6044820152606401610f24565b4281602001511161200c5760405162461bcd60e51b8152600401610f2490615536565b61201b838360008460026131fd565b50612027600161012d55565b5050565b336001600160a01b03831603612043576120436153cc565b336000818152610169602090815260408083206001600160a01b03871680855290835292819020805460ff191686151590811790915590519081529192917f17307eab39ab6107e8899845ad3d59bd9653f200f220920489ca2b5937696c31910160405180910390a35050565b6120b8612e78565b6120c23383612ed3565b6120ce576120ce6153cc565b600082815261016f6020908152604080832081518083019092528054600f0b8252600101549181019190915290621275008061210a8542615436565b6121149190615522565b61211e9190615503565b9050428260200151116121625760405162461bcd60e51b815260206004820152600c60248201526b131bd8dac8195e1c1a5c995960a21b6044820152606401610f24565b60008260000151600f0b136121ad5760405162461bcd60e51b8152602060048201526011602482015270139bdd1a1a5b99c81a5cc81b1bd8dad959607a1b6044820152606401610f24565b816020015181116122005760405162461bcd60e51b815260206004820152601f60248201527f43616e206f6e6c7920696e637265617365206c6f636b206475726174696f6e006044820152606401610f24565b61220e6301dfe20042615436565b81111561222d5760405162461bcd60e51b8152600401610f24906154cc565b61223c846000838560036131fd565b5050612027600161012d55565b61225584848433612d83565b823b1561112357604051630a85bd0160e11b81526001600160a01b0384169063150b7a029061228e90339088908790879060040161557a565b6020604051808303816000875af19250505080156122c9575060408051601f3d908101601f191682019092526122c6918101906155ad565b60015b612371573d8080156122f7576040519150601f19603f3d011682016040523d82523d6000602084013e6122fc565b606091505b5080516000036123695760405162461bcd60e51b815260206004820152603260248201527f4552433732313a207472616e7366657220746f206e6f6e20455243373231526560448201527131b2b4bb32b91034b6b83632b6b2b73a32b960711b6064820152608401610f24565b805181602001fd5b6001600160e01b03198116630a85bd0160e11b146123e05760405162461bcd60e51b815260206004820152602660248201527f4552433732313a2045524337323152656365697665722072656a656374656420604482015265746f6b656e7360d01b6064820152608401610f24565b5050505050565b610160546001600160a01b0316331461242b5760405162461bcd60e51b815260206004820152600660248201526510bb37ba32b960d11b6044820152606401610f24565b600090815261017360205260409020805460ff19169055565b611b4d600060405180604001604052806000600f0b8152602001600081525060405180604001604052806000600f0b81526020016000815250613ae7565b336001600160a01b038716036124c45760405162461bcd60e51b815260206004820152600760248201526610b9b2b73232b960c91b6044820152606401610f24565b6001600160a01b0386166125075760405162461bcd60e51b815260206004820152600a60248201526910bd32b9379030b2323960b11b6044820152606401610f24565b60007f8cad95687ba82c2ce50e74f7b754645e5117c3a5bec8151c0726d5857980a866612532610c82565b805160209182012060408051808201825260058152640312e302e360dc1b90840152805180840194909452838101919091527f06c015bd22b4c69690933c1058878ebdfef31f9aaae40bbe86d8a09fe1b2972c60608401524660808401523060a0808501919091528151808503909101815260c0840182528051908301207fe48329057bfd03d55e49b547132e39cffd9c1820ad7b9d4c5307691425d15adf60e08501526001600160a01b038b1661010085015261012084018a90526101408085018a90528251808603909101815261016085019092528151919092012061190160f01b61018084015261018283018290526101a28301819052909250906000906101c20160408051601f198184030181528282528051602091820120600080855291840180845281905260ff8a169284019290925260608301889052608083018790529092509060019060a0016020604051602081039080840390855afa1580156126a2573d6000803e3d6000fd5b5050604051601f1901519150506001600160a01b03811661271c5760405162461bcd60e51b815260206004820152602e60248201527f566f74696e67457363726f773a3a64656c656761746542795369673a20696e7660448201526d616c6964207369676e617475726560901b6064820152608401610f24565b6001600160a01b0381166000908152610177602052604081208054916127418361544e565b9190505589146127a65760405162461bcd60e51b815260206004820152602a60248201527f566f74696e67457363726f773a3a64656c656761746542795369673a20696e76604482015269616c6964206e6f6e636560b01b6064820152608401610f24565b8742111561280d5760405162461bcd60e51b815260206004820152602e60248201527f566f74696e67457363726f773a3a64656c656761746542795369673a2073696760448201526d1b985d1d5c9948195e1c1a5c995960921b6064820152608401610f24565b611a40818b613428565b505050505050565b600081815261016660205260409020546060906001600160a01b03166128875760405162461bcd60e51b815260206004820152601b60248201527f517565727920666f72206e6f6e6578697374656e7420746f6b656e00000000006044820152606401610f24565b600091825261016f602090815260409283902083518085019094528054600f0b84526001015492019190915290565b6000828152610173602052604090205460ff16156128e65760405162461bcd60e51b8152600401610f24906153e2565b8082036129215760405162461bcd60e51b81526020600482015260096024820152682166726f6d3d3d746f60b81b6044820152606401610f24565b61292b3383612ed3565b6129775760405162461bcd60e51b815260206004820152601760248201527f2166726f6d20617070726f766564206f72206f776e65720000000000000000006044820152606401610f24565b6129813382612ed3565b6129c55760405162461bcd60e51b815260206004820152601560248201527410ba379030b8383937bb32b21037b91037bbb732b960591b6044820152606401610f24565b600082815261016f60208181526040808420815180830183528154600f90810b825260019283015482860190815288885295855283872084518086019095528054820b855290920154938301849052805194519095929490910b921115612a30578260200151612a36565b83602001515b9050612a4186612f3c565b50612a4b86613020565b6128178583838660046131fd565b6000612a63612e78565b612a6e8484846134be565b90506116ee600161012d55565b60006116ee83836130c9565b600081815261016a6020526040812054439003612aa657506000919050565b610e8582426130c9565b612ab8612e78565b600082815261016f602090815260409182902082518084019093528054600f0b8352600101549082015281612aff5760405162461bcd60e51b8152600401610f2490615467565b60008160000151600f0b13612b4f5760405162461bcd60e51b8152602060048201526016602482015275139bc8195e1a5cdd1a5b99c81b1bd8dac8199bdd5b9960521b6044820152606401610f24565b42816020015111612b725760405162461bcd60e51b8152600401610f2490615536565b61201b838360008460006131fd565b612b89612c52565b60c980546001600160a01b0383166001600160a01b03199091168117909155612bba6097546001600160a01b031690565b6001600160a01b03167f38d16b8cac22d99fc7c124b9cd0de2d3fa1faef420bfe791d8c362d765e2270060405160405180910390a350565b610160546001600160a01b03163314612c365760405162461bcd60e51b815260206004820152600660248201526510bb37ba32b960d11b6044820152606401610f24565b600090815261017360205260409020805460ff19166001179055565b6097546001600160a01b03163314611b4d5760405162461bcd60e51b815260206004820181905260248201527f4f776e61626c653a2063616c6c6572206973206e6f7420746865206f776e65726044820152606401610f24565b600054610100900460ff16612cd35760405162461bcd60e51b8152600401610f24906155ca565b611b4d614110565b600054610100900460ff16612d025760405162461bcd60e51b8152600401610f24906155ca565b611b4d614137565b600054610100900460ff16612d315760405162461bcd60e51b8152600401610f24906155ca565b6120278282614167565b600054610100900460ff16612d625760405162461bcd60e51b8152600401610f24906155ca565b611b4d6141b5565b60c980546001600160a01b03191690556115d8816141dc565b6000828152610173602052604090205460ff1615612db35760405162461bcd60e51b8152600401610f24906153e2565b612dbd8183612ed3565b612e025760405162461bcd60e51b8152602060048201526016602482015275085b9bdd081bdddb995c881bdc88185c1c1c9bdd995960521b6044820152606401610f24565b612e0c848361422e565b612e168483614296565b612e31612e2285611a4c565b612e2b85611a4c565b8461431a565b612e3b8383614686565b600082815261016a60205260408082204390555183916001600160a01b0380871692908816916000805160206158d383398151915291a450505050565b600261012d5403612ecb5760405162461bcd60e51b815260206004820152601f60248201527f5265656e7472616e637947756172643a207265656e7472616e742063616c6c006044820152606401610f24565b600261012d55565b600081815261016660209081526040808320546101688352818420546001600160a01b03918216808652610169855283862088841680885295529285205492938085149392909116149060ff168280612f295750815b80612f315750805b979650505050505050565b600081815261016f6020818152604080842080546001820180548451600f84900b81880181905281870183905286518083038801815260a08301885260608301918252608090920192909252855180870187528981528088018a81528b8b52988852516001600160801b03166001600160801b03199094169390931790935594519094558151808301909252848252918101939093529091612fe19084908390613ae7565b7f5747a69bb6c2c54b5c628298d364a5cc5066b4db09369ad6a2cfca362f0a023f8383604051613012929190615615565b60405180910390a150919050565b61302a3382612ed3565b6130765760405162461bcd60e51b815260206004820181905260248201527f63616c6c6572206973206e6f74206f776e6572206e6f7220617070726f7665646044820152606401610f24565b600081815261016660205260408120546001600160a01b03169061309a908361118f565b6130ae6130a682611a4c565b60008461431a565b6130b88183614296565b61202782614721565b600161012d55565b600082815261016d60205260408120548082036130ea576000915050610e85565b600084815261016e6020526040812082633b9aca00811061310d5761310d61538e565b60408051608081018252600392909202929092018054600f81810b8452600160801b909104900b602083015260018101549282018390526002015460608201529150613159908561562e565b8160200151613168919061566d565b81518290613177908390615702565b600f90810b90915282516000910b1215905061319257600081525b51600f0b9150610e859050565b6001600160a01b0382166131b5576131b56153cc565b6131c960006131c384611a4c565b8361431a565b6131d38282614686565b60405181906001600160a01b038416906000906000805160206158d3833981519152908290a45050565b61016554461461321f5760405162461bcd60e51b8152600401610f24906153a4565b61017254829061322f8682615436565b610172556040805180820190915260008082526020820152825160208085015190830152600f0b8152825187908490613269908390615752565b600f0b905250851561327d57602083018690525b6132be88846000015185602001516040516020016132aa929190600f9290920b8252602082015260400190565b60405160208183030381529060405261399c565b3387158015906132e0575060048560058111156132dd576132dd6157a1565b14155b80156132fe575060058560058111156132fb576132fb6157a1565b14155b1561338d5761015f546040516323b872dd60e01b81526001600160a01b038381166004830152306024830152604482018b9052909116906323b872dd906064016020604051808303816000875af115801561335d573d6000803e3d6000fd5b505050506040513d601f19601f820116820180604052508101906133819190615419565b61338d5761338d6153cc565b8360200151816001600160a01b03167fff04ccafc360e16b67d682d17bd9503c4c6b9a131f6be6325762dc9ffc7de6248b8b89426040516133d194939291906157b7565b60405180910390a37f5e2aa66efd74cce82b21852e317e5490d9ecc9e6bb953ae24d90851258cc2f5c836134058a82615436565b6040805192835260208301919091520160405180910390a1505050505050505050565b61016554461461344a5760405162461bcd60e51b8152600401610f24906153a4565b600061345583611a4c565b6001600160a01b038481166000818152610174602052604080822080546001600160a01b031916888616908117909155905194955093928516927f3134e8a2e6d97e929a7e54011ea5485d7d196dd5f0ba4d4ef95803e8e3fc257f9190a46113ab8382846147a4565b60008062127500806134d08642615436565b6134da9190615522565b6134e49190615503565b9050600085116135065760405162461bcd60e51b8152600401610f2490615467565b4281116135255760405162461bcd60e51b8152600401610f2490615486565b6135336301dfe20042615436565b8111156135525760405162461bcd60e51b8152600401610f24906154cc565b610164600081546135629061544e565b9091555061016454613574848261319f565b600081815261016f602090815260409182902082518084019093528054600f0b8352600190810154918301919091526135b2918391899186916131fd565b95945050505050565b6000808390506000621275008083604001516135d79190615522565b6135e19190615503565b905060005b60ff811015613695576135fc6212750083615436565b915060008583111561361057859250613625565b5060008281526101716020526040902054600f0b5b60408401516136349084615402565b8460200151613643919061566d565b84518590613652908390615702565b600f0b9052508583036136655750613695565b80846020018181516136779190615752565b600f0b905250506040830182905261368e8161544e565b90506135e6565b5060008260000151600f0b12156136ab57600082525b50516001600160801b03169392505050565b6000438211156136cf576136cf6153cc565b600083815261016d6020526040812054815b6080811015613771578183101561377157600060026137008486615436565b61370b906001615436565b6137159190615522565b600088815261016e60205260409020909150869082633b9aca00811061373d5761373d61538e565b60030201600201541161375257809350613760565b61375d600182615402565b92505b5061376a8161544e565b90506136e1565b50600085815261016e6020526040812083633b9aca0081106137955761379561538e565b60408051608081018252600392909202929092018054600f81810b8452600160801b909104900b602083015260018101549282019290925260029091015460608201526101705490915060006137eb8783613a60565b60008181526101626020908152604080832081516080810183528154600f81810b8352600160801b909104900b9381019390935260018101549183019190915260020154606082015291925080848410156138cc57600061016281613851876001615436565b8152602080820192909252604090810160002081516080810183528154600f81810b8352600160801b909104900b938101939093526001810154918301919091526002015460608083018290528601519192506138ae9190615402565b9250836040015181604001516138c49190615402565b9150506138f0565b60608301516138db9043615402565b91508260400151426138ed9190615402565b90505b6040830151821561392d578284606001518c61390c9190615402565b6139169084615503565b6139209190615522565b61392a9082615436565b90505b604087015161393c9082615402565b876020015161394b919061566d565b8751889061395a908390615702565b600f90810b90915288516000910b12905061398a57505093516001600160801b03169650610e8595505050505050565b60009950505050505050505050610e85565b600080828060200190518101906139b391906157f5565b604080518082018252600f84900b8152602080820184815260008a815261016f8352848120845181546001600160801b0319166001600160801b039091161781559151600190920191909155835180850190945280845290830152929450909250613a1f868284613ae7565b7fc8ffd8a5cadf5f377038eb6cb621455f9673dc07f502ac1580838d85f2df001a8686604051613a50929190615615565b60405180910390a1505050505050565b60008082815b6080811015613add5781831015613add5760006002613a858486615436565b613a90906001615436565b613a9a9190615522565b600081815261016260205260409020600201549091508710613abe57809350613acc565b613ac9600182615402565b92505b50613ad68161544e565b9050613a66565b5090949350505050565b6040805160808101825260008082526020820181905291810182905260608101919091526040805160808101825260008082526020820181905291810182905260608101919091526101705460009081908715613c5557428760200151118015613b58575060008760000151600f0b135b15613b9d578651613b6e906301dfe20090615829565b600f0b602080870191909152870151613b88904290615402565b8560200151613b97919061566d565b600f0b85525b428660200151118015613bb7575060008660000151600f0b135b15613bfc578551613bcd906301dfe20090615829565b600f0b602080860191909152860151613be7904290615402565b8460200151613bf6919061566d565b600f0b84525b60208088015160009081526101718252604090205490870151600f9190910b935015613c55578660200151866020015103613c3957829150613c55565b60208087015160009081526101719091526040902054600f0b91505b604080516080810182526000808252602082015242918101919091524360608201528115613ccb57506000818152610162602090815260409182902082516080810184528154600f81810b8352600160801b909104900b9281019290925260018101549282019290925260029091015460608201525b604081015181600042831015613d18576040840151613cea9042615402565b6060850151613cf99043615402565b613d0b90670de0b6b3a7640000615503565b613d159190615522565b90505b600062127500613d288186615522565b613d329190615503565b905060005b60ff811015613eae57613d4d6212750083615436565b9150600042831115613d6157429250613d76565b5060008281526101716020526040902054600f0b5b613d808684615402565b8760200151613d8f919061566d565b87518890613d9e908390615702565b600f0b905250602087018051829190613db8908390615752565b600f90810b90915288516000910b12159050613dd357600087525b60008760200151600f0b1215613deb57600060208801525b60408088018490528501519295508592670de0b6b3a764000090613e0f9085615402565b613e199086615503565b613e239190615522565b8560600151613e329190615436565b6060880152613e42600189615436565b9750428303613e575750436060870152613eae565b600088815261016260209081526040918290208951918a01516001600160801b03908116600160801b029216919091178155908801516001820155606088015160029091015550613ea78161544e565b9050613d37565b50506101708590558b15613f3a5788602001518860200151613ed09190615702565b84602001818151613ee19190615752565b600f0b90525088518851613ef59190615702565b84518590613f04908390615752565b600f90810b90915260208601516000910b12159050613f2557600060208501525b60008460000151600f0b1215613f3a57600084525b600085815261016260209081526040918290208651918701516001600160801b03908116600160801b02921691909117815590850151600182015560608501516002909101558b1561410257428b602001511115613ff3576020890151613fa19088615752565b96508a602001518a6020015103613fc4576020880151613fc19088615702565b96505b60208b81015160009081526101719091526040902080546001600160801b0319166001600160801b0389161790555b428a60200151111561404f578a602001518a60200151111561404f57602088015161401e9087615702565b60208b81015160009081526101719091526040902080546001600160801b0319166001600160801b03831617905595505b60008c815261016d602052604081205461406a906001615436565b90508061016d60008f81526020019081526020016000208190555042896040018181525050438960600181815250508861016e60008f815260200190815260200160002082633b9aca0081106140c2576140c261538e565b825160208401516001600160801b03908116600160801b029116176003919091029190910190815560408201516001820155606090910151600290910155505b505050505050505050505050565b600054610100900460ff166130c15760405162461bcd60e51b8152600401610f24906155ca565b600054610100900460ff1661415e5760405162461bcd60e51b8152600401610f24906155ca565b611b4d33612d6a565b600054610100900460ff1661418e5760405162461bcd60e51b8152600401610f24906155ca565b81516141a1906065906020850190614d12565b5080516113ab906066906020840190614d12565b600054610100900460ff16611b4d5760405162461bcd60e51b8152600401610f24906155ca565b609780546001600160a01b038381166001600160a01b0319831681179093556040519116919082907f8be0079c531659141344cd1fd0a4f28419497f9722a3daafe3b4186f6b6457e090600090a35050565b600081815261016660205260409020546001600160a01b03838116911614614258576142586153cc565b600081815261016860205260409020546001600160a01b0316156120275760009081526101686020526040902080546001600160a01b031916905550565b600081815261016660205260409020546001600160a01b038381169116146142c0576142c06153cc565b60008181526101666020526040902080546001600160a01b03191690556142e78282614b6d565b6001600160a01b038216600090815261016760205260408120805460019290614311908490615402565b90915550505050565b816001600160a01b0316836001600160a01b03161415801561433c5750600081115b156113ab576001600160a01b038316156144c2576001600160a01b0383166000908152610176602052604081205463ffffffff1690816143a2576001600160a01b03851660009081526101756020908152604080832083805290915290206001016143e5565b6001600160a01b038516600090815261017560205260408120906143c7600185615330565b63ffffffff1663ffffffff1681526020019081526020016000206001015b905060006143f286614c32565b6001600160a01b03871660009081526101756020908152604080832063ffffffff8516845290915281209192506001909101905b83548110156144805760008482815481106144435761444361538e565b9060005260206000200154905086811461446d578254600181018455600084815260209020018190555b50806144788161544e565b915050614426565b5061448c846001615867565b6001600160a01b038816600090815261017660205260409020805463ffffffff191663ffffffff92909216919091179055505050505b6001600160a01b038216156113ab576001600160a01b0382166000908152610176602052604081205463ffffffff169081614523576001600160a01b0384166000908152610175602090815260408083208380529091529020600101614566565b6001600160a01b03841660009081526101756020526040812090614548600185615330565b63ffffffff1663ffffffff1681526020019081526020016000206001015b9050600061457385614c32565b6001600160a01b03861660009081526101756020908152604080832063ffffffff8516845290915290208354919250600190810191610400916145b69190615436565b11156145d45760405162461bcd60e51b8152600401610f249061588f565b60005b83548110156146265760008482815481106145f4576145f461538e565b60009182526020808320909101548554600181018755868452919092200155508061461e8161544e565b9150506145d7565b5080546001818101835560008381526020902090910186905561464a908590615867565b6001600160a01b038716600090815261017660205260409020805463ffffffff9290921663ffffffff1990921691909117905550505050505050565b600081815261016660205260409020546001600160a01b0316156146ac576146ac6153cc565b60008181526101666020908152604080832080546001600160a01b0319166001600160a01b038716908117909155808452610167808452828520805461016b8652848720818852865284872088905587875261016c865293862093909355908452909152805460019290614311908490615436565b600061472c82614cad565b905061473782614cad565b600083815260696020908152604080832080546001600160a01b03199081169091556001600160a01b0385168085526068845282852080546000190190558785526067909352818420805490911690555192935084926000805160206158d3833981519152908390a45050565b806001600160a01b0316826001600160a01b0316146113ab576001600160a01b0382161561495d576001600160a01b0382166000908152610176602052604081205463ffffffff16908161481e576001600160a01b0384166000908152610175602090815260408083208380529091529020600101614861565b6001600160a01b03841660009081526101756020526040812090614843600185615330565b63ffffffff1663ffffffff1681526020019081526020016000206001015b9050600061486e85614c32565b6001600160a01b03861660009081526101756020908152604080832063ffffffff8516845290915281209192506001909101905b835481101561491b5760008482815481106148bf576148bf61538e565b60009182526020808320909101548083526101669091526040909120549091506001600160a01b03908116908a1614614908578254600181018455600084815260209020018190555b50806149138161544e565b9150506148a2565b50614927846001615867565b6001600160a01b038716600090815261017660205260409020805463ffffffff191663ffffffff92909216919091179055505050505b6001600160a01b038116156113ab576001600160a01b0381166000908152610176602052604081205463ffffffff1690816149be576001600160a01b0383166000908152610175602090815260408083208380529091529020600101614a01565b6001600160a01b038316600090815261017560205260408120906149e3600185615330565b63ffffffff1663ffffffff1681526020019081526020016000206001015b90506000614a0e84614c32565b6001600160a01b0380861660009081526101756020908152604080832063ffffffff861684528252808320938b168352610167909152902054845492935060019091019161040090614a61908390615436565b1115614a7f5760405162461bcd60e51b8152600401610f249061588f565b60005b8454811015614ad1576000858281548110614a9f57614a9f61538e565b600091825260208083209091015486546001810188558784529190922001555080614ac98161544e565b915050614a82565b5060005b81811015614b24576001600160a01b038916600090815261016b602090815260408083208484528252822054855460018101875586845291909220015580614b1c8161544e565b915050614ad5565b50614b30856001615867565b6001600160a01b038716600090815261017660205260409020805463ffffffff9290921663ffffffff199092169190911790555050505050505050565b6001600160a01b03821660009081526101676020526040812054614b9390600190615402565b600083815261016c6020526040902054909150808203614be5576001600160a01b038416600090815261016b60209081526040808320858452825280832083905585835261016c909152812055611123565b6001600160a01b0393909316600090815261016b602090815260408083209383529281528282208054868452848420819055835261016c9091528282209490945592839055908252812055565b6001600160a01b03811660009081526101766020526040812054429063ffffffff168015801590614c9d57506001600160a01b0384166000908152610175602052604081208391614c84600185615330565b63ffffffff168152602081019190915260400160002054145b156116ee57611b33600182615330565b6000818152606760205260408120546001600160a01b031680610e855760405162461bcd60e51b815260206004820152601860248201527f4552433732313a20696e76616c696420746f6b656e20494400000000000000006044820152606401610f24565b828054614d1e906152e0565b90600052602060002090601f016020900481019282614d405760008555614d86565b82601f10614d5957805160ff1916838001178555614d86565b82800160010185558215614d86579182015b82811115614d86578251825591602001919060010190614d6b565b50614d92929150614d96565b5090565b5b80821115614d925760008155600101614d97565b6001600160e01b0319811681146115d857600080fd5b600060208284031215614dd357600080fd5b81356116ee81614dab565b80356001600160a01b03811681146116dd57600080fd5b600060208284031215614e0757600080fd5b6116ee82614dde565b6000815180845260005b81811015614e3657602081850181015186830182015201614e1a565b81811115614e48576000602083870101525b50601f01601f19169290920160200192915050565b6020815260006116ee6020830184614e10565b60008060408385031215614e8357600080fd5b614e8c83614dde565b946020939093013593505050565b634e487b7160e01b600052604160045260246000fd5b604051601f8201601f1916810167ffffffffffffffff81118282101715614ed957614ed9614e9a565b604052919050565b600082601f830112614ef257600080fd5b813567ffffffffffffffff811115614f0c57614f0c614e9a565b614f1f601f8201601f1916602001614eb0565b818152846020838601011115614f3457600080fd5b816020850160208301376000918101602001919091529392505050565b600080600060608486031215614f6657600080fd5b833567ffffffffffffffff80821115614f7e57600080fd5b614f8a87838801614ee1565b94506020860135915080821115614fa057600080fd5b50614fad86828701614ee1565b925050614fbc60408501614dde565b90509250925092565b600060208284031215614fd757600080fd5b5035919050565b60008060408385031215614ff157600080fd5b50508035926020909101359150565b60008060006060848603121561501557600080fd5b61501e84614dde565b925061502c60208501614dde565b9150604084013590509250925092565b6000806040838503121561504f57600080fd5b823567ffffffffffffffff8082111561506757600080fd5b818501915085601f83011261507b57600080fd5b813560208282111561508f5761508f614e9a565b8160051b92506150a0818401614eb0565b82815292840181019281810190898511156150ba57600080fd5b948201945b848610156150d8578535825294820194908201906150bf565b9997909101359750505050505050565b6000806000606084860312156150fd57600080fd5b61510684614dde565b925060208401359150604084013567ffffffffffffffff81111561512957600080fd5b61513586828701614ee1565b9150509250925092565b80151581146115d857600080fd5b6000806040838503121561516057600080fd5b61516983614dde565b915060208301356151798161513f565b809150509250929050565b6000806000806080858703121561519a57600080fd5b6151a385614dde565b93506151b160208601614dde565b925060408501359150606085013567ffffffffffffffff8111156151d457600080fd5b6151e087828801614ee1565b91505092959194509250565b60008060008060008060c0878903121561520557600080fd5b61520e87614dde565b95506020870135945060408701359350606087013560ff8116811461523257600080fd5b9598949750929560808101359460a0909101359350915050565b60008060006060848603121561526157600080fd5b8335925060208401359150614fbc60408501614dde565b6000806040838503121561528b57600080fd5b61529483614dde565b91506152a260208401614dde565b90509250929050565b600080604083850312156152be57600080fd5b6152c783614dde565b9150602083013563ffffffff8116811461517957600080fd5b600181811c908216806152f457607f821691505b60208210810361531457634e487b7160e01b600052602260045260246000fd5b50919050565b634e487b7160e01b600052601160045260246000fd5b600063ffffffff8381169083168181101561534d5761534d61531a565b039392505050565b634e487b7160e01b600052601260045260246000fd5b600063ffffffff8084168061538257615382615355565b92169190910492915050565b634e487b7160e01b600052603260045260246000fd5b6020808252600e908201526d1ddc9bdb99c818da185a5b881a5960921b604082015260600190565b634e487b7160e01b600052600160045260246000fd5b602080825260069082015265085d9bdd195960d21b604082015260600190565b6000828210156154145761541461531a565b500390565b60006020828403121561542b57600080fd5b81516116ee8161513f565b600082198211156154495761544961531a565b500190565b6000600182016154605761546061531a565b5060010190565b602080825260059082015264217a65726f60d81b604082015260600190565b60208082526026908201527f43616e206f6e6c79206c6f636b20756e74696c2074696d6520696e207468652060408201526566757475726560d01b606082015260800190565b6020808252601e908201527f566f74696e67206c6f636b2063616e2062652031207965617273206d61780000604082015260600190565b600081600019048311821515161561551d5761551d61531a565b500290565b60008261553157615531615355565b500490565b60208082526024908201527f43616e6e6f742061646420746f2065787069726564206c6f636b2e20576974686040820152636472617760e01b606082015260800190565b6001600160a01b0385811682528416602082015260408101839052608060608201819052600090611e6590830184614e10565b6000602082840312156155bf57600080fd5b81516116ee81614dab565b6020808252602b908201527f496e697469616c697a61626c653a20636f6e7472616374206973206e6f74206960408201526a6e697469616c697a696e6760a81b606082015260800190565b828152604060208201526000611b336040830184614e10565b60008083128015600160ff1b85018412161561564c5761564c61531a565b6001600160ff1b03840183138116156156675761566761531a565b50500390565b600081600f0b83600f0b60016001607f1b0360008213600084138383048511828216161561569d5761569d61531a565b60016001607f1b031960008512828116878305871216156156c0576156c061531a565b600087129250858205871284841616156156dc576156dc61531a565b858505871281841616156156f2576156f261531a565b5050509290910295945050505050565b600081600f0b83600f0b600081128160016001607f1b03190183128115161561572d5761572d61531a565b8160016001607f1b030183138116156157485761574861531a565b5090039392505050565b600081600f0b83600f0b600082128260016001607f1b030382138115161561577c5761577c61531a565b8260016001607f1b03190382128116156157985761579861531a565b50019392505050565b634e487b7160e01b600052602160045260246000fd5b8481526020810184905260808101600684106157e357634e487b7160e01b600052602160045260246000fd5b60408201939093526060015292915050565b6000806040838503121561580857600080fd5b825180600f0b811461581957600080fd5b6020939093015192949293505050565b600081600f0b83600f0b8061584057615840615355565b60016001607f1b031982146000198214161561585e5761585e61531a565b90059392505050565b600063ffffffff8083168185168083038211156158865761588661531a565b01949350505050565b60208082526023908201527f64737452657020776f756c64206861766520746f6f206d616e7920746f6b656e60408201526249647360e81b60608201526080019056feddf252ad1be2c89b69c2b068fc378daa952ba7f163c4a11628f55a4df523b3efa164736f6c634300080d000a",
    "linkReferences": {}
  },
  "methodIdentifiers": {
    "ARBITRUM_ONE()": "2168ca0f",
    "DELEGATION_TYPEHASH()": "e7a324dc",
    "DOMAIN_TYPEHASH()": "20606b70",
    "MAX_DELEGATES()": "5f5b0c32",
    "abstain(uint256)": "c1f0fb9f",
    "acceptOwnership()": "79ba5097",
    "addBridge(address)": "9712fdf8",
    "approve(address,uint256)": "095ea7b3",
    "balanceOf(address)": "70a08231",
    "balanceOfAtNFT(uint256,uint256)": "8c2c9baf",
    "balanceOfNFT(uint256)": "e7e242d4",
    "balanceOfNFTAt(uint256,uint256)": "e0514aba",
    "block_number()": "25a58b56",
    "burn(uint256)": "42966c68",
    "checkpoint()": "c2c4c5c1",
    "checkpoints(address,uint32)": "f1127ed8",
    "create_lock(uint256,uint256)": "65fc3873",
    "create_lock_for(uint256,uint256,address)": "d4e54c3b",
    "delegate(address)": "5c19a95c",
    "delegateBySig(address,uint256,uint256,uint8,bytes32,bytes32)": "c3cda520",
    "delegates(address)": "587cde1e",
    "deposit_for(uint256,uint256)": "ee99fe28",
    "epoch()": "900cf0cf",
    "getApproved(uint256)": "081812fc",
    "getPastTotalSupply(uint256)": "8e539e8c",
    "getPastVotes(address,uint256)": "3a46b1a8",
    "getPastVotesIndex(address,uint256)": "0758c7d8",
    "getVotes(address)": "9ab24eb0",
    "get_last_user_slope(uint256)": "461f711c",
    "increase_amount(uint256,uint256)": "a183af52",
    "increase_unlock_time(uint256,uint256)": "a4d855df",
    "initialize(string,string,address)": "077f224a",
    "isApprovedForAll(address,address)": "e985e9c5",
    "isApprovedOrOwner(address,uint256)": "430c2081",
    "locked(uint256)": "b45a3c0e",
    "locked__end(uint256)": "f8a05763",
    "masterChainId()": "10c3cf06",
    "merge(uint256,uint256)": "d1c2babb",
    "mint(address,uint256,bytes)": "94d008ef",
    "name()": "06fdde03",
    "nonces(address)": "7ecebe00",
    "numCheckpoints(address)": "6fcfff45",
    "owner()": "8da5cb5b",
    "ownerOf(uint256)": "6352211e",
    "ownership_change(uint256)": "6f548837",
    "pendingOwner()": "e30c3978",
    "point_history(uint256)": "d1febfb9",
    "removeBridge(address)": "04df017d",
    "renounceOwnership()": "715018a6",
    "safeTransferFrom(address,address,uint256)": "42842e0e",
    "safeTransferFrom(address,address,uint256,bytes)": "b88d4fde",
    "setApprovalForAll(address,bool)": "a22cb465",
    "setTeam(address)": "095cf5c6",
    "setVoter(address)": "4bc2a657",
    "slope_changes(uint256)": "71197484",
    "split(uint256[],uint256)": "56afe744",
    "supply()": "047fc9aa",
    "supportsInterface(bytes4)": "01ffc9a7",
    "symbol()": "95d89b41",
    "team()": "85f2aef2",
    "token()": "fc0c546a",
    "tokenOfOwnerByIndex(address,uint256)": "2f745c59",
    "tokenURI(uint256)": "c87b56dd",
    "totalSupply()": "18160ddd",
    "totalSupplyAt(uint256)": "981b24d0",
    "totalSupplyAtT(uint256)": "7116c60c",
    "transferFrom(address,address,uint256)": "23b872dd",
    "transferOwnership(address)": "f2fde38b",
    "user_point_epoch(uint256)": "e441135c",
    "user_point_history(uint256,uint256)": "1376f3da",
    "user_point_history__ts(uint256,uint256)": "1c984bc3",
    "version()": "54fd4d50",
    "voted(uint256)": "8fbb38ff",
    "voter()": "46c96aac",
    "voting(uint256)": "fd4a77f1",
    "withdraw(uint256)": "2e1a7d4d"
  }
}