{
  "address": "0x5060B9498eE5a1002421A57621fC86c0127a6deb",
  "abi": [
    {
      "inputs": [],
      "name": "XERC20__addBridge_alreadyAdded",
      "type": "error"
    },
    {
      "inputs": [],
      "name": "XERC20__onlyBridge_notBridge",
      "type": "error"
    },
    {
      "inputs": [],
      "name": "XERC20__removeBridge_alreadyRemoved",
      "type": "error"
    },
    {
      "anonymous": false,
      "inputs": [
        {
          "indexed": true,
          "internalType": "address",
          "name": "owner",
          "type": "address"
        },
        {
          "indexed": true,
          "internalType": "address",
          "name": "spender",
          "type": "address"
        },
        {
          "indexed": false,
          "internalType": "uint256",
          "name": "value",
          "type": "uint256"
        }
      ],
      "name": "Approval",
      "type": "event"
    },
    {
      "anonymous": false,
      "inputs": [
        {
          "indexed": true,
          "internalType": "address",
          "name": "bridge",
          "type": "address"
        }
      ],
      "name": "BridgeAdded",
      "type": "event"
    },
    {
      "anonymous": false,
      "inputs": [
        {
          "indexed": true,
          "internalType": "address",
          "name": "bridge",
          "type": "address"
        }
      ],
      "name": "BridgeRemoved",
      "type": "event"
    },
    {
      "anonymous": false,
      "inputs": [],
      "name": "EIP712DomainChanged",
      "type": "event"
    },
    {
      "anonymous": false,
      "inputs": [
        {
          "indexed": false,
          "internalType": "uint8",
          "name": "version",
          "type": "uint8"
        }
      ],
      "name": "Initialized",
      "type": "event"
    },
    {
      "anonymous": false,
      "inputs": [
        {
          "indexed": true,
          "internalType": "address",
          "name": "proposedOwner",
          "type": "address"
        }
      ],
      "name": "OwnershipProposed",
      "type": "event"
    },
    {
      "anonymous": false,
      "inputs": [
        {
          "indexed": true,
          "internalType": "address",
          "name": "previousOwner",
          "type": "address"
        },
        {
          "indexed": true,
          "internalType": "address",
          "name": "newOwner",
          "type": "address"
        }
      ],
      "name": "OwnershipTransferred",
      "type": "event"
    },
    {
      "anonymous": false,
      "inputs": [
        {
          "indexed": true,
          "internalType": "address",
          "name": "from",
          "type": "address"
        },
        {
          "indexed": true,
          "internalType": "address",
          "name": "to",
          "type": "address"
        },
        {
          "indexed": false,
          "internalType": "uint256",
          "name": "value",
          "type": "uint256"
        }
      ],
      "name": "Transfer",
      "type": "event"
    },
    {
      "inputs": [],
      "name": "DOMAIN_SEPARATOR",
      "outputs": [
        {
          "internalType": "bytes32",
          "name": "",
          "type": "bytes32"
        }
      ],
      "stateMutability": "view",
      "type": "function"
    },
    {
      "inputs": [],
      "name": "acceptProposedOwner",
      "outputs": [],
      "stateMutability": "nonpayable",
      "type": "function"
    },
    {
      "inputs": [
        {
          "internalType": "address",
          "name": "_bridge",
          "type": "address"
        }
      ],
      "name": "addBridge",
      "outputs": [],
      "stateMutability": "nonpayable",
      "type": "function"
    },
    {
      "inputs": [
        {
          "internalType": "address",
          "name": "owner",
          "type": "address"
        },
        {
          "internalType": "address",
          "name": "spender",
          "type": "address"
        }
      ],
      "name": "allowance",
      "outputs": [
        {
          "internalType": "uint256",
          "name": "",
          "type": "uint256"
        }
      ],
      "stateMutability": "view",
      "type": "function"
    },
    {
      "inputs": [
        {
          "internalType": "address",
          "name": "spender",
          "type": "address"
        },
        {
          "internalType": "uint256",
          "name": "amount",
          "type": "uint256"
        }
      ],
      "name": "approve",
      "outputs": [
        {
          "internalType": "bool",
          "name": "",
          "type": "bool"
        }
      ],
      "stateMutability": "nonpayable",
      "type": "function"
    },
    {
      "inputs": [
        {
          "internalType": "address",
          "name": "account",
          "type": "address"
        }
      ],
      "name": "balanceOf",
      "outputs": [
        {
          "internalType": "uint256",
          "name": "",
          "type": "uint256"
        }
      ],
      "stateMutability": "view",
      "type": "function"
    },
    {
      "inputs": [
        {
          "internalType": "address",
          "name": "_from",
          "type": "address"
        },
        {
          "internalType": "uint256",
          "name": "_amount",
          "type": "uint256"
        }
      ],
      "name": "burn",
      "outputs": [],
      "stateMutability": "nonpayable",
      "type": "function"
    },
    {
      "inputs": [],
      "name": "decimals",
      "outputs": [
        {
          "internalType": "uint8",
          "name": "",
          "type": "uint8"
        }
      ],
      "stateMutability": "view",
      "type": "function"
    },
    {
      "inputs": [
        {
          "internalType": "address",
          "name": "spender",
          "type": "address"
        },
        {
          "internalType": "uint256",
          "name": "subtractedValue",
          "type": "uint256"
        }
      ],
      "name": "decreaseAllowance",
      "outputs": [
        {
          "internalType": "bool",
          "name": "",
          "type": "bool"
        }
      ],
      "stateMutability": "nonpayable",
      "type": "function"
    },
    {
      "inputs": [],
      "name": "delay",
      "outputs": [
        {
          "internalType": "uint256",
          "name": "",
          "type": "uint256"
        }
      ],
      "stateMutability": "view",
      "type": "function"
    },
    {
      "inputs": [],
      "name": "eip712Domain",
      "outputs": [
        {
          "internalType": "bytes1",
          "name": "fields",
          "type": "bytes1"
        },
        {
          "internalType": "string",
          "name": "name",
          "type": "string"
        },
        {
          "internalType": "string",
          "name": "version",
          "type": "string"
        },
        {
          "internalType": "uint256",
          "name": "chainId",
          "type": "uint256"
        },
        {
          "internalType": "address",
          "name": "verifyingContract",
          "type": "address"
        },
        {
          "internalType": "bytes32",
          "name": "salt",
          "type": "bytes32"
        },
        {
          "internalType": "uint256[]",
          "name": "extensions",
          "type": "uint256[]"
        }
      ],
      "stateMutability": "view",
      "type": "function"
    },
    {
      "inputs": [
        {
          "internalType": "address",
          "name": "spender",
          "type": "address"
        },
        {
          "internalType": "uint256",
          "name": "addedValue",
          "type": "uint256"
        }
      ],
      "name": "increaseAllowance",
      "outputs": [
        {
          "internalType": "bool",
          "name": "",
          "type": "bool"
        }
      ],
      "stateMutability": "nonpayable",
      "type": "function"
    },
    {
      "inputs": [
        {
          "internalType": "address",
          "name": "_owner",
          "type": "address"
        },
        {
          "internalType": "string",
          "name": "_name",
          "type": "string"
        },
        {
          "internalType": "string",
          "name": "_symbol",
          "type": "string"
        }
      ],
      "name": "initialize",
      "outputs": [],
      "stateMutability": "nonpayable",
      "type": "function"
    },
    {
      "inputs": [],
      "name": "initializeIon",
      "outputs": [],
      "stateMutability": "nonpayable",
      "type": "function"
    },
    {
      "inputs": [
        {
          "internalType": "address",
          "name": "_to",
          "type": "address"
        },
        {
          "internalType": "uint256",
          "name": "_amount",
          "type": "uint256"
        }
      ],
      "name": "mint",
      "outputs": [],
      "stateMutability": "nonpayable",
      "type": "function"
    },
    {
      "inputs": [],
      "name": "name",
      "outputs": [
        {
          "internalType": "string",
          "name": "",
          "type": "string"
        }
      ],
      "stateMutability": "view",
      "type": "function"
    },
    {
      "inputs": [
        {
          "internalType": "address",
          "name": "owner",
          "type": "address"
        }
      ],
      "name": "nonces",
      "outputs": [
        {
          "internalType": "uint256",
          "name": "",
          "type": "uint256"
        }
      ],
      "stateMutability": "view",
      "type": "function"
    },
    {
      "inputs": [],
      "name": "owner",
      "outputs": [
        {
          "internalType": "address",
          "name": "",
          "type": "address"
        }
      ],
      "stateMutability": "view",
      "type": "function"
    },
    {
      "inputs": [
        {
          "internalType": "address",
          "name": "owner",
          "type": "address"
        },
        {
          "internalType": "address",
          "name": "spender",
          "type": "address"
        },
        {
          "internalType": "uint256",
          "name": "value",
          "type": "uint256"
        },
        {
          "internalType": "uint256",
          "name": "deadline",
          "type": "uint256"
        },
        {
          "internalType": "uint8",
          "name": "v",
          "type": "uint8"
        },
        {
          "internalType": "bytes32",
          "name": "r",
          "type": "bytes32"
        },
        {
          "internalType": "bytes32",
          "name": "s",
          "type": "bytes32"
        }
      ],
      "name": "permit",
      "outputs": [],
      "stateMutability": "nonpayable",
      "type": "function"
    },
    {
      "inputs": [
        {
          "internalType": "address",
          "name": "newlyProposed",
          "type": "address"
        }
      ],
      "name": "proposeNewOwner",
      "outputs": [],
      "stateMutability": "nonpayable",
      "type": "function"
    },
    {
      "inputs": [],
      "name": "proposed",
      "outputs": [
        {
          "internalType": "address",
          "name": "",
          "type": "address"
        }
      ],
      "stateMutability": "view",
      "type": "function"
    },
    {
      "inputs": [],
      "name": "proposedTimestamp",
      "outputs": [
        {
          "internalType": "uint256",
          "name": "",
          "type": "uint256"
        }
      ],
      "stateMutability": "view",
      "type": "function"
    },
    {
      "inputs": [
        {
          "internalType": "address",
          "name": "_bridge",
          "type": "address"
        }
      ],
      "name": "removeBridge",
      "outputs": [],
      "stateMutability": "nonpayable",
      "type": "function"
    },
    {
      "inputs": [],
      "name": "renounceOwnership",
      "outputs": [],
      "stateMutability": "nonpayable",
      "type": "function"
    },
    {
      "inputs": [],
      "name": "renounced",
      "outputs": [
        {
          "internalType": "bool",
          "name": "",
          "type": "bool"
        }
      ],
      "stateMutability": "view",
      "type": "function"
    },
    {
      "inputs": [],
      "name": "symbol",
      "outputs": [
        {
          "internalType": "string",
          "name": "",
          "type": "string"
        }
      ],
      "stateMutability": "view",
      "type": "function"
    },
    {
      "inputs": [],
      "name": "totalSupply",
      "outputs": [
        {
          "internalType": "uint256",
          "name": "",
          "type": "uint256"
        }
      ],
      "stateMutability": "view",
      "type": "function"
    },
    {
      "inputs": [
        {
          "internalType": "address",
          "name": "to",
          "type": "address"
        },
        {
          "internalType": "uint256",
          "name": "amount",
          "type": "uint256"
        }
      ],
      "name": "transfer",
      "outputs": [
        {
          "internalType": "bool",
          "name": "",
          "type": "bool"
        }
      ],
      "stateMutability": "nonpayable",
      "type": "function"
    },
    {
      "inputs": [
        {
          "internalType": "address",
          "name": "from",
          "type": "address"
        },
        {
          "internalType": "address",
          "name": "to",
          "type": "address"
        },
        {
          "internalType": "uint256",
          "name": "amount",
          "type": "uint256"
        }
      ],
      "name": "transferFrom",
      "outputs": [
        {
          "internalType": "bool",
          "name": "",
          "type": "bool"
        }
      ],
      "stateMutability": "nonpayable",
      "type": "function"
    }
  ],
  "transactionHash": "0x4ed08c64ad47173fed4506e2232d75129b915b4a9176120d779c03afef92d7e8",
  "args": [],
  "numDeployments": 1,
  "bytecode": {
    "object": "0x608060405234801561001057600080fd5b50611f6e806100206000396000f3fe608060405234801561001057600080fd5b50600436106101cf5760003560e01c80637ecebe0011610104578063a457c2d7116100a2578063d1851c9211610071578063d1851c92146103ab578063d232c220146103bc578063d505accf146103ce578063dd62ed3e146103e157600080fd5b8063a457c2d71461036a578063a9059cbb1461037d578063b1f8100d14610390578063c5b350df146103a357600080fd5b806390657147116100de578063906571471461032957806395d89b411461033c5780639712fdf8146103445780639dc29fac1461035757600080fd5b80637ecebe00146102d657806384b0196e146102e95780638da5cb5b1461030457600080fd5b806339509351116101715780636a42b8f81161014b5780636a42b8f81461029457806370a082311461029d578063715018a6146102c65780637b4ed7a1146102ce57600080fd5b806339509351146102665780633cf52ffb1461027957806340c10f191461028157600080fd5b806318160ddd116101ad57806318160ddd1461022a57806323b872dd1461023c578063313ce5671461024f5780633644e5151461025e57600080fd5b806304df017d146101d457806306fdde03146101e9578063095ea7b314610207575b600080fd5b6101e76101e23660046119bd565b6103f4565b005b6101f16104b5565b6040516101fe9190611a25565b60405180910390f35b61021a610215366004611a38565b610547565b60405190151581526020016101fe565b6035545b6040519081526020016101fe565b61021a61024a366004611a62565b610561565b604051601281526020016101fe565b61022e610585565b61021a610274366004611a38565b610594565b60ce5461022e565b6101e761028f366004611a38565b6105b6565b62093a8061022e565b61022e6102ab3660046119bd565b6001600160a01b031660009081526033602052604090205490565b6101e76105f4565b6101e76106e5565b61022e6102e43660046119bd565b610812565b6102f1610830565b6040516101fe9796959493929190611a9e565b60cc546001600160a01b03165b6040516001600160a01b0390911681526020016101fe565b6101e7610337366004611bd7565b6108ce565b6101f16109bf565b6101e76103523660046119bd565b6109ce565b6101e7610365366004611a38565b610a8a565b61021a610378366004611a38565b610ac4565b61021a61038b366004611a38565b610b3f565b6101e761039e3660046119bd565b610b4d565b6101e7610c07565b60cd546001600160a01b0316610311565b60cc546001600160a01b03161561021a565b6101e76103dc366004611c4b565b610cc5565b61022e6103ef366004611cbe565b610e29565b60cc546001600160a01b031633146104275760405162461bcd60e51b815260040161041e90611cf1565b60405180910390fd5b6001600160a01b038116600090815260fe602052604090205460ff166104605760405163292574f360e21b815260040160405180910390fd5b6040516001600160a01b038216907f5d9d5034656cb3ebfb0655057cd7f9b4077a9b42ff42ce223cbac5bc586d212690600090a26001600160a01b0316600090815260fe60205260409020805460ff19169055565b6060603680546104c490611d11565b80601f01602080910402602001604051908101604052809291908181526020018280546104f090611d11565b801561053d5780601f106105125761010080835404028352916020019161053d565b820191906000526020600020905b81548152906001019060200180831161052057829003601f168201915b5050505050905090565b600033610555818585610e54565b60019150505b92915050565b60003361056f858285610f79565b61057a858585610fed565b506001949350505050565b600061058f611198565b905090565b6000336105558185856105a78383610e29565b6105b19190611d5b565b610e54565b33600090815260fe602052604090205460ff166105e657604051635c57712b60e01b815260040160405180910390fd5b6105f082826111a2565b5050565b60cc546001600160a01b0316331461061e5760405162461bcd60e51b815260040161041e90611cf1565b600060ce541161065b5760405162461bcd60e51b8152602060048201526008602482015267085cdd185c9d195960c21b604482015260640161041e565b62093a8060ce544261066d9190611d6e565b116106a55760405162461bcd60e51b815260206004820152600860248201526708595b185c1cd95960c21b604482015260640161041e565b60cd546001600160a01b0316156106ce5760405162461bcd60e51b815260040161041e90611d81565b60cd546106e3906001600160a01b0316611263565b565b600054610100900460ff16158080156107055750600054600160ff909116105b8061071f5750303b15801561071f575060005460ff166001145b61073b5760405162461bcd60e51b815260040161041e90611da4565b6000805460ff19166001179055801561075e576000805461ff0019166101001790555b604080518082018252600b81526a24b7b734b1902a37b5b2b760a91b6020808301919091528251808401909352600383526224a7a760e91b90830152906107a36112bc565b6107ad82826112eb565b6107b68261131c565b6107be611366565b6107c733611263565b5050801561080f576000805461ff0019169055604051600181527f7f26b83ff96e1f2b6a682f133852f6798a09c465da95921460cefb38474024989060200160405180910390a15b50565b6001600160a01b03811660009081526099602052604081205461055b565b6000606080600080600060606065546000801b1480156108505750606654155b6108945760405162461bcd60e51b81526020600482015260156024820152741152540dcc4c8e88155b9a5b9a5d1a585b1a5e9959605a1b604482015260640161041e565b61089c611395565b6108a46113a4565b60408051600080825260208201909252600f60f81b9b939a50919850469750309650945092509050565b600054610100900460ff16158080156108ee5750600054600160ff909116105b806109085750303b158015610908575060005460ff166001145b6109245760405162461bcd60e51b815260040161041e90611da4565b6000805460ff191660011790558015610947576000805461ff0019166101001790555b61094f6112bc565b61095983836112eb565b6109628361131c565b61096a611366565b61097384611263565b80156109b9576000805461ff0019169055604051600181527f7f26b83ff96e1f2b6a682f133852f6798a09c465da95921460cefb38474024989060200160405180910390a15b50505050565b6060603780546104c490611d11565b60cc546001600160a01b031633146109f85760405162461bcd60e51b815260040161041e90611cf1565b6001600160a01b038116600090815260fe602052604090205460ff1615610a325760405163371e828760e01b815260040160405180910390fd5b6040516001600160a01b038216907f3cda433c5679ae4c6a5dea50840e222a42cba3695e4663de4366be899348422190600090a26001600160a01b0316600090815260fe60205260409020805460ff19166001179055565b33600090815260fe602052604090205460ff16610aba57604051635c57712b60e01b815260040160405180910390fd5b6105f082826113b3565b60003381610ad28286610e29565b905083811015610b325760405162461bcd60e51b815260206004820152602560248201527f45524332303a2064656372656173656420616c6c6f77616e63652062656c6f77604482015264207a65726f60d81b606482015260840161041e565b61057a8286868403610e54565b600033610555818585610fed565b60cc546001600160a01b03163314610b775760405162461bcd60e51b815260040161041e90611cf1565b60cd546001600160a01b038281169116141580610b9b57506001600160a01b038116155b610bb75760405162461bcd60e51b815260040161041e90611d81565b60cc546001600160a01b03808316911603610bfe5760405162461bcd60e51b8152602060048201526007602482015266216368616e676560c81b604482015260640161041e565b61080f816114e4565b60cd546001600160a01b03163314610c315760405162461bcd60e51b815260040161041e90611d81565b60cd5460cc546001600160a01b03918216911603610c7b5760405162461bcd60e51b8152602060048201526007602482015266216368616e676560c81b604482015260640161041e565b62093a8060ce5442610c8d9190611d6e565b116106ce5760405162461bcd60e51b815260206004820152600860248201526708595b185c1cd95960c21b604482015260640161041e565b83421115610d155760405162461bcd60e51b815260206004820152601d60248201527f45524332305065726d69743a206578706972656420646561646c696e65000000604482015260640161041e565b60007f6e71edae12b1b97f4d1f60370fef10105fa2faae0126114a169c64845d6126c9888888610d448c611532565b6040805160208101969096526001600160a01b0394851690860152929091166060840152608083015260a082015260c0810186905260e0016040516020818303038152906040528051906020012090506000610d9f8261155a565b90506000610daf82878787611587565b9050896001600160a01b0316816001600160a01b031614610e125760405162461bcd60e51b815260206004820152601e60248201527f45524332305065726d69743a20696e76616c6964207369676e61747572650000604482015260640161041e565b610e1d8a8a8a610e54565b50505050505050505050565b6001600160a01b03918216600090815260346020908152604080832093909416825291909152205490565b6001600160a01b038316610eb65760405162461bcd60e51b8152602060048201526024808201527f45524332303a20617070726f76652066726f6d20746865207a65726f206164646044820152637265737360e01b606482015260840161041e565b6001600160a01b038216610f175760405162461bcd60e51b815260206004820152602260248201527f45524332303a20617070726f766520746f20746865207a65726f206164647265604482015261737360f01b606482015260840161041e565b6001600160a01b0383811660008181526034602090815260408083209487168084529482529182902085905590518481527f8c5be1e5ebec7d5bd14f71427d1e84f3dd0314c0f7b2291e5b200ac8c7c3b92591015b60405180910390a3505050565b6000610f858484610e29565b905060001981146109b95781811015610fe05760405162461bcd60e51b815260206004820152601d60248201527f45524332303a20696e73756666696369656e7420616c6c6f77616e6365000000604482015260640161041e565b6109b98484848403610e54565b6001600160a01b0383166110515760405162461bcd60e51b815260206004820152602560248201527f45524332303a207472616e736665722066726f6d20746865207a65726f206164604482015264647265737360d81b606482015260840161041e565b6001600160a01b0382166110b35760405162461bcd60e51b815260206004820152602360248201527f45524332303a207472616e7366657220746f20746865207a65726f206164647260448201526265737360e81b606482015260840161041e565b6001600160a01b0383166000908152603360205260409020548181101561112b5760405162461bcd60e51b815260206004820152602660248201527f45524332303a207472616e7366657220616d6f756e7420657863656564732062604482015265616c616e636560d01b606482015260840161041e565b6001600160a01b0380851660008181526033602052604080822086860390559286168082529083902080548601905591517fddf252ad1be2c89b69c2b068fc378daa952ba7f163c4a11628f55a4df523b3ef9061118b9086815260200190565b60405180910390a36109b9565b600061058f6115af565b6001600160a01b0382166111f85760405162461bcd60e51b815260206004820152601f60248201527f45524332303a206d696e7420746f20746865207a65726f206164647265737300604482015260640161041e565b806035600082825461120a9190611d5b565b90915550506001600160a01b0382166000818152603360209081526040808320805486019055518481527fddf252ad1be2c89b69c2b068fc378daa952ba7f163c4a11628f55a4df523b3ef910160405180910390a35050565b60cc80546001600160a01b038381166001600160a01b031983168117909355600060ce81905560405191909216929183917f8be0079c531659141344cd1fd0a4f28419497f9722a3daafe3b4186f6b6457e09190a35050565b600054610100900460ff166112e35760405162461bcd60e51b815260040161041e90611df2565b6106e3611623565b600054610100900460ff166113125760405162461bcd60e51b815260040161041e90611df2565b6105f0828261164a565b600054610100900460ff166113435760405162461bcd60e51b815260040161041e90611df2565b61080f81604051806040016040528060018152602001603160f81b81525061168a565b600054610100900460ff1661138d5760405162461bcd60e51b815260040161041e90611df2565b6106e36116d9565b6060606780546104c490611d11565b6060606880546104c490611d11565b6001600160a01b0382166114135760405162461bcd60e51b815260206004820152602160248201527f45524332303a206275726e2066726f6d20746865207a65726f206164647265736044820152607360f81b606482015260840161041e565b6001600160a01b038216600090815260336020526040902054818110156114875760405162461bcd60e51b815260206004820152602260248201527f45524332303a206275726e20616d6f756e7420657863656564732062616c616e604482015261636560f01b606482015260840161041e565b6001600160a01b03831660008181526033602090815260408083208686039055603580548790039055518581529192917fddf252ad1be2c89b69c2b068fc378daa952ba7f163c4a11628f55a4df523b3ef9101610f6c565b505050565b4260ce5560cd80546001600160a01b0319166001600160a01b0383169081179091556040517f6ab4d119f23076e8ad491bc65ce85f017fb0591dce08755ba8591059cc51737a90600090a250565b6001600160a01b03811660009081526099602052604090208054600181018255905b50919050565b600061055b611567611198565b8360405161190160f01b8152600281019290925260228201526042902090565b600080600061159887878787611709565b915091506115a5816117cd565b5095945050505050565b60007f8b73c3c69bb8fe3d512ecc4cf759cc79239f7b179b0ffacaa9a75d522b39400f6115da611917565b6115e2611970565b60408051602081019490945283019190915260608201524660808201523060a082015260c00160405160208183030381529060405280519060200120905090565b600054610100900460ff166106e35760405162461bcd60e51b815260040161041e90611df2565b600054610100900460ff166116715760405162461bcd60e51b815260040161041e90611df2565b603661167d8382611e8b565b5060376114df8282611e8b565b600054610100900460ff166116b15760405162461bcd60e51b815260040161041e90611df2565b60676116bd8382611e8b565b5060686116ca8282611e8b565b50506000606581905560665550565b600054610100900460ff166117005760405162461bcd60e51b815260040161041e90611df2565b6106e333611263565b6000807f7fffffffffffffffffffffffffffffff5d576e7357a4501ddfe92f46681b20a083111561174057506000905060036117c4565b6040805160008082526020820180845289905260ff881692820192909252606081018690526080810185905260019060a0016020604051602081039080840390855afa158015611794573d6000803e3d6000fd5b5050604051601f1901519150506001600160a01b0381166117bd576000600192509250506117c4565b9150600090505b94509492505050565b60008160048111156117e1576117e1611f4b565b036117e95750565b60018160048111156117fd576117fd611f4b565b0361184a5760405162461bcd60e51b815260206004820152601860248201527f45434453413a20696e76616c6964207369676e61747572650000000000000000604482015260640161041e565b600281600481111561185e5761185e611f4b565b036118ab5760405162461bcd60e51b815260206004820152601f60248201527f45434453413a20696e76616c6964207369676e6174757265206c656e67746800604482015260640161041e565b60038160048111156118bf576118bf611f4b565b0361080f5760405162461bcd60e51b815260206004820152602260248201527f45434453413a20696e76616c6964207369676e6174757265202773272076616c604482015261756560f01b606482015260840161041e565b600080611922611395565b805190915015611939578051602090910120919050565b60655480156119485792915050565b7fc5d2460186f7233c927e7db2dcc703c0e500b653ca82273b7bfad8045d85a4709250505090565b60008061197b6113a4565b805190915015611992578051602090910120919050565b60665480156119485792915050565b80356001600160a01b03811681146119b857600080fd5b919050565b6000602082840312156119cf57600080fd5b6119d8826119a1565b9392505050565b6000815180845260005b81811015611a05576020818501810151868301820152016119e9565b506000602082860101526020601f19601f83011685010191505092915050565b6020815260006119d860208301846119df565b60008060408385031215611a4b57600080fd5b611a54836119a1565b946020939093013593505050565b600080600060608486031215611a7757600080fd5b611a80846119a1565b9250611a8e602085016119a1565b9150604084013590509250925092565b60ff60f81b881681526000602060e081840152611abe60e084018a6119df565b8381036040850152611ad0818a6119df565b606085018990526001600160a01b038816608086015260a0850187905284810360c0860152855180825283870192509083019060005b81811015611b2257835183529284019291840191600101611b06565b50909c9b505050505050505050505050565b634e487b7160e01b600052604160045260246000fd5b600082601f830112611b5b57600080fd5b813567ffffffffffffffff80821115611b7657611b76611b34565b604051601f8301601f19908116603f01168101908282118183101715611b9e57611b9e611b34565b81604052838152866020858801011115611bb757600080fd5b836020870160208301376000602085830101528094505050505092915050565b600080600060608486031215611bec57600080fd5b611bf5846119a1565b9250602084013567ffffffffffffffff80821115611c1257600080fd5b611c1e87838801611b4a565b93506040860135915080821115611c3457600080fd5b50611c4186828701611b4a565b9150509250925092565b600080600080600080600060e0888a031215611c6657600080fd5b611c6f886119a1565b9650611c7d602089016119a1565b95506040880135945060608801359350608088013560ff81168114611ca157600080fd5b9699959850939692959460a0840135945060c09093013592915050565b60008060408385031215611cd157600080fd5b611cda836119a1565b9150611ce8602084016119a1565b90509250929050565b60208082526006908201526510b7bbb732b960d11b604082015260600190565b600181811c90821680611d2557607f821691505b60208210810361155457634e487b7160e01b600052602260045260246000fd5b634e487b7160e01b600052601160045260246000fd5b8082018082111561055b5761055b611d45565b8181038181111561055b5761055b611d45565b602080825260099082015268085c1c9bdc1bdcd95960ba1b604082015260600190565b6020808252602e908201527f496e697469616c697a61626c653a20636f6e747261637420697320616c72656160408201526d191e481a5b9a5d1a585b1a5e995960921b606082015260800190565b6020808252602b908201527f496e697469616c697a61626c653a20636f6e7472616374206973206e6f74206960408201526a6e697469616c697a696e6760a81b606082015260800190565b601f8211156114df57600081815260208120601f850160051c81016020861015611e645750805b601f850160051c820191505b81811015611e8357828155600101611e70565b505050505050565b815167ffffffffffffffff811115611ea557611ea5611b34565b611eb981611eb38454611d11565b84611e3d565b602080601f831160018114611eee5760008415611ed65750858301515b600019600386901b1c1916600185901b178555611e83565b600085815260208120601f198616915b82811015611f1d57888601518255948401946001909101908401611efe565b5085821015611f3b5787850151600019600388901b60f8161c191681555b5050505050600190811b01905550565b634e487b7160e01b600052602160045260246000fdfea164736f6c6343000813000a",
    "linkReferences": {}
  },
  "methodIdentifiers": {
    "DOMAIN_SEPARATOR()": "3644e515",
    "acceptProposedOwner()": "c5b350df",
    "addBridge(address)": "9712fdf8",
    "allowance(address,address)": "dd62ed3e",
    "approve(address,uint256)": "095ea7b3",
    "balanceOf(address)": "70a08231",
    "burn(address,uint256)": "9dc29fac",
    "decimals()": "313ce567",
    "decreaseAllowance(address,uint256)": "a457c2d7",
    "delay()": "6a42b8f8",
    "eip712Domain()": "84b0196e",
    "increaseAllowance(address,uint256)": "39509351",
    "initialize(address,string,string)": "90657147",
    "initializeIon()": "7b4ed7a1",
    "mint(address,uint256)": "40c10f19",
    "name()": "06fdde03",
    "nonces(address)": "7ecebe00",
    "owner()": "8da5cb5b",
    "permit(address,address,uint256,uint256,uint8,bytes32,bytes32)": "d505accf",
    "proposeNewOwner(address)": "b1f8100d",
    "proposed()": "d1851c92",
    "proposedTimestamp()": "3cf52ffb",
    "removeBridge(address)": "04df017d",
    "renounceOwnership()": "715018a6",
    "renounced()": "d232c220",
    "symbol()": "95d89b41",
    "totalSupply()": "18160ddd",
    "transfer(address,uint256)": "a9059cbb",
    "transferFrom(address,address,uint256)": "23b872dd"
  }
}