{
  "address": "0x5884fFda790489b221629BD904611493049976a9",
  "abi": [
    {
      "inputs": [],
      "stateMutability": "nonpayable",
      "type": "constructor"
    },
    {
      "inputs": [],
      "name": "XERC721__addBridge_alreadyAdded",
      "type": "error"
    },
    {
      "inputs": [],
      "name": "XERC721__onlyBridge_notBridge",
      "type": "error"
    },
    {
      "inputs": [],
      "name": "XERC721__removeBridge_alreadyRemoved",
      "type": "error"
    },
    {
      "anonymous": false,
      "inputs": [
        {
          "indexed": true,
          "internalType": "address",
          "name": "owner",
          "type": "address"
        },
        {
          "indexed": true,
          "internalType": "address",
          "name": "approved",
          "type": "address"
        },
        {
          "indexed": true,
          "internalType": "uint256",
          "name": "tokenId",
          "type": "uint256"
        }
      ],
      "name": "Approval",
      "type": "event"
    },
    {
      "anonymous": false,
      "inputs": [
        {
          "indexed": true,
          "internalType": "address",
          "name": "owner",
          "type": "address"
        },
        {
          "indexed": true,
          "internalType": "address",
          "name": "operator",
          "type": "address"
        },
        {
          "indexed": false,
          "internalType": "bool",
          "name": "approved",
          "type": "bool"
        }
      ],
      "name": "ApprovalForAll",
      "type": "event"
    },
    {
      "anonymous": false,
      "inputs": [
        {
          "indexed": true,
          "internalType": "address",
          "name": "bridge",
          "type": "address"
        }
      ],
      "name": "BridgeAdded",
      "type": "event"
    },
    {
      "anonymous": false,
      "inputs": [
        {
          "indexed": true,
          "internalType": "address",
          "name": "bridge",
          "type": "address"
        }
      ],
      "name": "BridgeRemoved",
      "type": "event"
    },
    {
      "anonymous": false,
      "inputs": [
        {
          "indexed": false,
          "internalType": "uint256",
          "name": "_tokenId",
          "type": "uint256"
        },
        {
          "indexed": false,
          "internalType": "bytes",
          "name": "_metadata",
          "type": "bytes"
        }
      ],
      "name": "BurnAsBridge",
      "type": "event"
    },
    {
      "anonymous": false,
      "inputs": [
        {
          "indexed": true,
          "internalType": "address",
          "name": "delegator",
          "type": "address"
        },
        {
          "indexed": true,
          "internalType": "address",
          "name": "fromDelegate",
          "type": "address"
        },
        {
          "indexed": true,
          "internalType": "address",
          "name": "toDelegate",
          "type": "address"
        }
      ],
      "name": "DelegateChanged",
      "type": "event"
    },
    {
      "anonymous": false,
      "inputs": [
        {
          "indexed": true,
          "internalType": "address",
          "name": "delegate",
          "type": "address"
        },
        {
          "indexed": false,
          "internalType": "uint256",
          "name": "previousBalance",
          "type": "uint256"
        },
        {
          "indexed": false,
          "internalType": "uint256",
          "name": "newBalance",
          "type": "uint256"
        }
      ],
      "name": "DelegateVotesChanged",
      "type": "event"
    },
    {
      "anonymous": false,
      "inputs": [
        {
          "indexed": true,
          "internalType": "address",
          "name": "provider",
          "type": "address"
        },
        {
          "indexed": false,
          "internalType": "uint256",
          "name": "tokenId",
          "type": "uint256"
        },
        {
          "indexed": false,
          "internalType": "uint256",
          "name": "value",
          "type": "uint256"
        },
        {
          "indexed": true,
          "internalType": "uint256",
          "name": "locktime",
          "type": "uint256"
        },
        {
          "indexed": false,
          "internalType": "enum VoteEscrow.DepositType",
          "name": "deposit_type",
          "type": "uint8"
        },
        {
          "indexed": false,
          "internalType": "uint256",
          "name": "ts",
          "type": "uint256"
        }
      ],
      "name": "Deposit",
      "type": "event"
    },
    {
      "anonymous": false,
      "inputs": [
        {
          "indexed": false,
          "internalType": "uint8",
          "name": "version",
          "type": "uint8"
        }
      ],
      "name": "Initialized",
      "type": "event"
    },
    {
      "anonymous": false,
      "inputs": [
        {
          "indexed": false,
          "internalType": "uint256",
          "name": "_tokenId",
          "type": "uint256"
        },
        {
          "indexed": false,
          "internalType": "bytes",
          "name": "_metadata",
          "type": "bytes"
        }
      ],
      "name": "MintAsBridge",
      "type": "event"
    },
    {
      "anonymous": false,
      "inputs": [
        {
          "indexed": true,
          "internalType": "address",
          "name": "previousOwner",
          "type": "address"
        },
        {
          "indexed": true,
          "internalType": "address",
          "name": "newOwner",
          "type": "address"
        }
      ],
      "name": "OwnershipTransferStarted",
      "type": "event"
    },
    {
      "anonymous": false,
      "inputs": [
        {
          "indexed": true,
          "internalType": "address",
          "name": "previousOwner",
          "type": "address"
        },
        {
          "indexed": true,
          "internalType": "address",
          "name": "newOwner",
          "type": "address"
        }
      ],
      "name": "OwnershipTransferred",
      "type": "event"
    },
    {
      "anonymous": false,
      "inputs": [
        {
          "indexed": false,
          "internalType": "uint256",
          "name": "prevSupply",
          "type": "uint256"
        },
        {
          "indexed": false,
          "internalType": "uint256",
          "name": "supply",
          "type": "uint256"
        }
      ],
      "name": "Supply",
      "type": "event"
    },
    {
      "anonymous": false,
      "inputs": [
        {
          "indexed": true,
          "internalType": "address",
          "name": "from",
          "type": "address"
        },
        {
          "indexed": true,
          "internalType": "address",
          "name": "to",
          "type": "address"
        },
        {
          "indexed": true,
          "internalType": "uint256",
          "name": "tokenId",
          "type": "uint256"
        }
      ],
      "name": "Transfer",
      "type": "event"
    },
    {
      "anonymous": false,
      "inputs": [
        {
          "indexed": true,
          "internalType": "address",
          "name": "provider",
          "type": "address"
        },
        {
          "indexed": false,
          "internalType": "uint256",
          "name": "tokenId",
          "type": "uint256"
        },
        {
          "indexed": false,
          "internalType": "uint256",
          "name": "value",
          "type": "uint256"
        },
        {
          "indexed": false,
          "internalType": "uint256",
          "name": "ts",
          "type": "uint256"
        }
      ],
      "name": "Withdraw",
      "type": "event"
    },
    {
      "inputs": [],
      "name": "ARBITRUM_ONE",
      "outputs": [
        {
          "internalType": "uint128",
          "name": "",
          "type": "uint128"
        }
      ],
      "stateMutability": "view",
      "type": "function"
    },
    {
      "inputs": [],
      "name": "DELEGATION_TYPEHASH",
      "outputs": [
        {
          "internalType": "bytes32",
          "name": "",
          "type": "bytes32"
        }
      ],
      "stateMutability": "view",
      "type": "function"
    },
    {
      "inputs": [],
      "name": "DOMAIN_TYPEHASH",
      "outputs": [
        {
          "internalType": "bytes32",
          "name": "",
          "type": "bytes32"
        }
      ],
      "stateMutability": "view",
      "type": "function"
    },
    {
      "inputs": [],
      "name": "MAX_DELEGATES",
      "outputs": [
        {
          "internalType": "uint256",
          "name": "",
          "type": "uint256"
        }
      ],
      "stateMutability": "view",
      "type": "function"
    },
    {
      "inputs": [
        {
          "internalType": "uint256",
          "name": "_tokenId",
          "type": "uint256"
        }
      ],
      "name": "abstain",
      "outputs": [],
      "stateMutability": "nonpayable",
      "type": "function"
    },
    {
      "inputs": [],
      "name": "acceptOwnership",
      "outputs": [],
      "stateMutability": "nonpayable",
      "type": "function"
    },
    {
      "inputs": [
        {
          "internalType": "address",
          "name": "_bridge",
          "type": "address"
        }
      ],
      "name": "addBridge",
      "outputs": [],
      "stateMutability": "nonpayable",
      "type": "function"
    },
    {
      "inputs": [
        {
          "internalType": "address",
          "name": "to",
          "type": "address"
        },
        {
          "internalType": "uint256",
          "name": "tokenId",
          "type": "uint256"
        }
      ],
      "name": "approve",
      "outputs": [],
      "stateMutability": "nonpayable",
      "type": "function"
    },
    {
      "inputs": [
        {
          "internalType": "address",
          "name": "owner",
          "type": "address"
        }
      ],
      "name": "balanceOf",
      "outputs": [
        {
          "internalType": "uint256",
          "name": "",
          "type": "uint256"
        }
      ],
      "stateMutability": "view",
      "type": "function"
    },
    {
      "inputs": [
        {
          "internalType": "uint256",
          "name": "_tokenId",
          "type": "uint256"
        },
        {
          "internalType": "uint256",
          "name": "_block",
          "type": "uint256"
        }
      ],
      "name": "balanceOfAtNFT",
      "outputs": [
        {
          "internalType": "uint256",
          "name": "",
          "type": "uint256"
        }
      ],
      "stateMutability": "view",
      "type": "function"
    },
    {
      "inputs": [
        {
          "internalType": "uint256",
          "name": "_tokenId",
          "type": "uint256"
        }
      ],
      "name": "balanceOfNFT",
      "outputs": [
        {
          "internalType": "uint256",
          "name": "",
          "type": "uint256"
        }
      ],
      "stateMutability": "view",
      "type": "function"
    },
    {
      "inputs": [
        {
          "internalType": "uint256",
          "name": "_tokenId",
          "type": "uint256"
        },
        {
          "internalType": "uint256",
          "name": "_t",
          "type": "uint256"
        }
      ],
      "name": "balanceOfNFTAt",
      "outputs": [
        {
          "internalType": "uint256",
          "name": "",
          "type": "uint256"
        }
      ],
      "stateMutability": "view",
      "type": "function"
    },
    {
      "inputs": [],
      "name": "block_number",
      "outputs": [
        {
          "internalType": "uint256",
          "name": "",
          "type": "uint256"
        }
      ],
      "stateMutability": "view",
      "type": "function"
    },
    {
      "inputs": [
        {
          "internalType": "uint256",
          "name": "_tokenId",
          "type": "uint256"
        }
      ],
      "name": "burn",
      "outputs": [
        {
          "internalType": "bytes",
          "name": "_metadata",
          "type": "bytes"
        }
      ],
      "stateMutability": "nonpayable",
      "type": "function"
    },
    {
      "inputs": [],
      "name": "checkpoint",
      "outputs": [],
      "stateMutability": "nonpayable",
      "type": "function"
    },
    {
      "inputs": [
        {
          "internalType": "address",
          "name": "",
          "type": "address"
        },
        {
          "internalType": "uint32",
          "name": "",
          "type": "uint32"
        }
      ],
      "name": "checkpoints",
      "outputs": [
        {
          "internalType": "uint256",
          "name": "timestamp",
          "type": "uint256"
        }
      ],
      "stateMutability": "view",
      "type": "function"
    },
    {
      "inputs": [
        {
          "internalType": "uint256",
          "name": "_value",
          "type": "uint256"
        },
        {
          "internalType": "uint256",
          "name": "_lock_duration",
          "type": "uint256"
        }
      ],
      "name": "create_lock",
      "outputs": [
        {
          "internalType": "uint256",
          "name": "",
          "type": "uint256"
        }
      ],
      "stateMutability": "nonpayable",
      "type": "function"
    },
    {
      "inputs": [
        {
          "internalType": "uint256",
          "name": "_value",
          "type": "uint256"
        },
        {
          "internalType": "uint256",
          "name": "_lock_duration",
          "type": "uint256"
        },
        {
          "internalType": "address",
          "name": "_to",
          "type": "address"
        }
      ],
      "name": "create_lock_for",
      "outputs": [
        {
          "internalType": "uint256",
          "name": "",
          "type": "uint256"
        }
      ],
      "stateMutability": "nonpayable",
      "type": "function"
    },
    {
      "inputs": [
        {
          "internalType": "address",
          "name": "delegatee",
          "type": "address"
        }
      ],
      "name": "delegate",
      "outputs": [],
      "stateMutability": "nonpayable",
      "type": "function"
    },
    {
      "inputs": [
        {
          "internalType": "address",
          "name": "delegatee",
          "type": "address"
        },
        {
          "internalType": "uint256",
          "name": "nonce",
          "type": "uint256"
        },
        {
          "internalType": "uint256",
          "name": "expiry",
          "type": "uint256"
        },
        {
          "internalType": "uint8",
          "name": "v",
          "type": "uint8"
        },
        {
          "internalType": "bytes32",
          "name": "r",
          "type": "bytes32"
        },
        {
          "internalType": "bytes32",
          "name": "s",
          "type": "bytes32"
        }
      ],
      "name": "delegateBySig",
      "outputs": [],
      "stateMutability": "nonpayable",
      "type": "function"
    },
    {
      "inputs": [
        {
          "internalType": "address",
          "name": "delegator",
          "type": "address"
        }
      ],
      "name": "delegates",
      "outputs": [
        {
          "internalType": "address",
          "name": "",
          "type": "address"
        }
      ],
      "stateMutability": "view",
      "type": "function"
    },
    {
      "inputs": [
        {
          "internalType": "uint256",
          "name": "_tokenId",
          "type": "uint256"
        },
        {
          "internalType": "uint256",
          "name": "_value",
          "type": "uint256"
        }
      ],
      "name": "deposit_for",
      "outputs": [],
      "stateMutability": "nonpayable",
      "type": "function"
    },
    {
      "inputs": [],
      "name": "epoch",
      "outputs": [
        {
          "internalType": "uint256",
          "name": "",
          "type": "uint256"
        }
      ],
      "stateMutability": "view",
      "type": "function"
    },
    {
      "inputs": [
        {
          "internalType": "uint256",
          "name": "tokenId",
          "type": "uint256"
        }
      ],
      "name": "getApproved",
      "outputs": [
        {
          "internalType": "address",
          "name": "",
          "type": "address"
        }
      ],
      "stateMutability": "view",
      "type": "function"
    },
    {
      "inputs": [
        {
          "internalType": "uint256",
          "name": "timestamp",
          "type": "uint256"
        }
      ],
      "name": "getPastTotalSupply",
      "outputs": [
        {
          "internalType": "uint256",
          "name": "",
          "type": "uint256"
        }
      ],
      "stateMutability": "view",
      "type": "function"
    },
    {
      "inputs": [
        {
          "internalType": "address",
          "name": "account",
          "type": "address"
        },
        {
          "internalType": "uint256",
          "name": "timestamp",
          "type": "uint256"
        }
      ],
      "name": "getPastVotes",
      "outputs": [
        {
          "internalType": "uint256",
          "name": "",
          "type": "uint256"
        }
      ],
      "stateMutability": "view",
      "type": "function"
    },
    {
      "inputs": [
        {
          "internalType": "address",
          "name": "account",
          "type": "address"
        },
        {
          "internalType": "uint256",
          "name": "timestamp",
          "type": "uint256"
        }
      ],
      "name": "getPastVotesIndex",
      "outputs": [
        {
          "internalType": "uint32",
          "name": "",
          "type": "uint32"
        }
      ],
      "stateMutability": "view",
      "type": "function"
    },
    {
      "inputs": [
        {
          "internalType": "address",
          "name": "account",
          "type": "address"
        }
      ],
      "name": "getVotes",
      "outputs": [
        {
          "internalType": "uint256",
          "name": "",
          "type": "uint256"
        }
      ],
      "stateMutability": "view",
      "type": "function"
    },
    {
      "inputs": [
        {
          "internalType": "uint256",
          "name": "_tokenId",
          "type": "uint256"
        }
      ],
      "name": "get_last_user_slope",
      "outputs": [
        {
          "internalType": "int128",
          "name": "",
          "type": "int128"
        }
      ],
      "stateMutability": "view",
      "type": "function"
    },
    {
      "inputs": [
        {
          "internalType": "uint256",
          "name": "_tokenId",
          "type": "uint256"
        },
        {
          "internalType": "uint256",
          "name": "_value",
          "type": "uint256"
        }
      ],
      "name": "increase_amount",
      "outputs": [],
      "stateMutability": "nonpayable",
      "type": "function"
    },
    {
      "inputs": [
        {
          "internalType": "uint256",
          "name": "_tokenId",
          "type": "uint256"
        },
        {
          "internalType": "uint256",
          "name": "_lock_duration",
          "type": "uint256"
        }
      ],
      "name": "increase_unlock_time",
      "outputs": [],
      "stateMutability": "nonpayable",
      "type": "function"
    },
    {
      "inputs": [
        {
          "internalType": "string",
          "name": "name_",
          "type": "string"
        },
        {
          "internalType": "string",
          "name": "symbol_",
          "type": "string"
        },
        {
          "internalType": "address",
          "name": "token_addr",
          "type": "address"
        }
      ],
      "name": "initialize",
      "outputs": [],
      "stateMutability": "nonpayable",
      "type": "function"
    },
    {
      "inputs": [
        {
          "internalType": "address",
          "name": "owner",
          "type": "address"
        },
        {
          "internalType": "address",
          "name": "operator",
          "type": "address"
        }
      ],
      "name": "isApprovedForAll",
      "outputs": [
        {
          "internalType": "bool",
          "name": "",
          "type": "bool"
        }
      ],
      "stateMutability": "view",
      "type": "function"
    },
    {
      "inputs": [
        {
          "internalType": "address",
          "name": "_spender",
          "type": "address"
        },
        {
          "internalType": "uint256",
          "name": "_tokenId",
          "type": "uint256"
        }
      ],
      "name": "isApprovedOrOwner",
      "outputs": [
        {
          "internalType": "bool",
          "name": "",
          "type": "bool"
        }
      ],
      "stateMutability": "view",
      "type": "function"
    },
    {
      "inputs": [
        {
          "internalType": "uint256",
          "name": "",
          "type": "uint256"
        }
      ],
      "name": "locked",
      "outputs": [
        {
          "internalType": "int128",
          "name": "amount",
          "type": "int128"
        },
        {
          "internalType": "uint256",
          "name": "end",
          "type": "uint256"
        }
      ],
      "stateMutability": "view",
      "type": "function"
    },
    {
      "inputs": [
        {
          "internalType": "uint256",
          "name": "_tokenId",
          "type": "uint256"
        }
      ],
      "name": "locked__end",
      "outputs": [
        {
          "internalType": "uint256",
          "name": "",
          "type": "uint256"
        }
      ],
      "stateMutability": "view",
      "type": "function"
    },
    {
      "inputs": [],
      "name": "masterChainId",
      "outputs": [
        {
          "internalType": "uint256",
          "name": "",
          "type": "uint256"
        }
      ],
      "stateMutability": "view",
      "type": "function"
    },
    {
      "inputs": [
        {
          "internalType": "uint256",
          "name": "_from",
          "type": "uint256"
        },
        {
          "internalType": "uint256",
          "name": "_to",
          "type": "uint256"
        }
      ],
      "name": "merge",
      "outputs": [],
      "stateMutability": "nonpayable",
      "type": "function"
    },
    {
      "inputs": [
        {
          "internalType": "address",
          "name": "_to",
          "type": "address"
        },
        {
          "internalType": "uint256",
          "name": "_tokenId",
          "type": "uint256"
        },
        {
          "internalType": "bytes",
          "name": "_metadata",
          "type": "bytes"
        }
      ],
      "name": "mint",
      "outputs": [],
      "stateMutability": "nonpayable",
      "type": "function"
    },
    {
      "inputs": [],
      "name": "name",
      "outputs": [
        {
          "internalType": "string",
          "name": "",
          "type": "string"
        }
      ],
      "stateMutability": "view",
      "type": "function"
    },
    {
      "inputs": [
        {
          "internalType": "address",
          "name": "",
          "type": "address"
        }
      ],
      "name": "nonces",
      "outputs": [
        {
          "internalType": "uint256",
          "name": "",
          "type": "uint256"
        }
      ],
      "stateMutability": "view",
      "type": "function"
    },
    {
      "inputs": [
        {
          "internalType": "address",
          "name": "",
          "type": "address"
        }
      ],
      "name": "numCheckpoints",
      "outputs": [
        {
          "internalType": "uint32",
          "name": "",
          "type": "uint32"
        }
      ],
      "stateMutability": "view",
      "type": "function"
    },
    {
      "inputs": [],
      "name": "owner",
      "outputs": [
        {
          "internalType": "address",
          "name": "",
          "type": "address"
        }
      ],
      "stateMutability": "view",
      "type": "function"
    },
    {
      "inputs": [
        {
          "internalType": "uint256",
          "name": "tokenId",
          "type": "uint256"
        }
      ],
      "name": "ownerOf",
      "outputs": [
        {
          "internalType": "address",
          "name": "",
          "type": "address"
        }
      ],
      "stateMutability": "view",
      "type": "function"
    },
    {
      "inputs": [
        {
          "internalType": "uint256",
          "name": "",
          "type": "uint256"
        }
      ],
      "name": "ownership_change",
      "outputs": [
        {
          "internalType": "uint256",
          "name": "",
          "type": "uint256"
        }
      ],
      "stateMutability": "view",
      "type": "function"
    },
    {
      "inputs": [],
      "name": "pendingOwner",
      "outputs": [
        {
          "internalType": "address",
          "name": "",
          "type": "address"
        }
      ],
      "stateMutability": "view",
      "type": "function"
    },
    {
      "inputs": [
        {
          "internalType": "uint256",
          "name": "",
          "type": "uint256"
        }
      ],
      "name": "point_history",
      "outputs": [
        {
          "internalType": "int128",
          "name": "bias",
          "type": "int128"
        },
        {
          "internalType": "int128",
          "name": "slope",
          "type": "int128"
        },
        {
          "internalType": "uint256",
          "name": "ts",
          "type": "uint256"
        },
        {
          "internalType": "uint256",
          "name": "blk",
          "type": "uint256"
        }
      ],
      "stateMutability": "view",
      "type": "function"
    },
    {
      "inputs": [
        {
          "internalType": "address",
          "name": "_bridge",
          "type": "address"
        }
      ],
      "name": "removeBridge",
      "outputs": [],
      "stateMutability": "nonpayable",
      "type": "function"
    },
    {
      "inputs": [],
      "name": "renounceOwnership",
      "outputs": [],
      "stateMutability": "nonpayable",
      "type": "function"
    },
    {
      "inputs": [
        {
          "internalType": "address",
          "name": "from",
          "type": "address"
        },
        {
          "internalType": "address",
          "name": "to",
          "type": "address"
        },
        {
          "internalType": "uint256",
          "name": "tokenId",
          "type": "uint256"
        }
      ],
      "name": "safeTransferFrom",
      "outputs": [],
      "stateMutability": "nonpayable",
      "type": "function"
    },
    {
      "inputs": [
        {
          "internalType": "address",
          "name": "from",
          "type": "address"
        },
        {
          "internalType": "address",
          "name": "to",
          "type": "address"
        },
        {
          "internalType": "uint256",
          "name": "tokenId",
          "type": "uint256"
        },
        {
          "internalType": "bytes",
          "name": "data",
          "type": "bytes"
        }
      ],
      "name": "safeTransferFrom",
      "outputs": [],
      "stateMutability": "nonpayable",
      "type": "function"
    },
    {
      "inputs": [
        {
          "internalType": "address",
          "name": "operator",
          "type": "address"
        },
        {
          "internalType": "bool",
          "name": "approved",
          "type": "bool"
        }
      ],
      "name": "setApprovalForAll",
      "outputs": [],
      "stateMutability": "nonpayable",
      "type": "function"
    },
    {
      "inputs": [
        {
          "internalType": "address",
          "name": "_team",
          "type": "address"
        }
      ],
      "name": "setTeam",
      "outputs": [],
      "stateMutability": "nonpayable",
      "type": "function"
    },
    {
      "inputs": [
        {
          "internalType": "address",
          "name": "_token",
          "type": "address"
        }
      ],
      "name": "setToken",
      "outputs": [],
      "stateMutability": "nonpayable",
      "type": "function"
    },
    {
      "inputs": [
        {
          "internalType": "address",
          "name": "_voter",
          "type": "address"
        }
      ],
      "name": "setVoter",
      "outputs": [],
      "stateMutability": "nonpayable",
      "type": "function"
    },
    {
      "inputs": [
        {
          "internalType": "uint256",
          "name": "",
          "type": "uint256"
        }
      ],
      "name": "slope_changes",
      "outputs": [
        {
          "internalType": "int128",
          "name": "",
          "type": "int128"
        }
      ],
      "stateMutability": "view",
      "type": "function"
    },
    {
      "inputs": [
        {
          "internalType": "uint256[]",
          "name": "amounts",
          "type": "uint256[]"
        },
        {
          "internalType": "uint256",
          "name": "_tokenId",
          "type": "uint256"
        }
      ],
      "name": "split",
      "outputs": [],
      "stateMutability": "nonpayable",
      "type": "function"
    },
    {
      "inputs": [],
      "name": "supply",
      "outputs": [
        {
          "internalType": "uint256",
          "name": "",
          "type": "uint256"
        }
      ],
      "stateMutability": "view",
      "type": "function"
    },
    {
      "inputs": [
        {
          "internalType": "bytes4",
          "name": "_interfaceID",
          "type": "bytes4"
        }
      ],
      "name": "supportsInterface",
      "outputs": [
        {
          "internalType": "bool",
          "name": "",
          "type": "bool"
        }
      ],
      "stateMutability": "view",
      "type": "function"
    },
    {
      "inputs": [],
      "name": "symbol",
      "outputs": [
        {
          "internalType": "string",
          "name": "",
          "type": "string"
        }
      ],
      "stateMutability": "view",
      "type": "function"
    },
    {
      "inputs": [],
      "name": "team",
      "outputs": [
        {
          "internalType": "address",
          "name": "",
          "type": "address"
        }
      ],
      "stateMutability": "view",
      "type": "function"
    },
    {
      "inputs": [],
      "name": "token",
      "outputs": [
        {
          "internalType": "address",
          "name": "",
          "type": "address"
        }
      ],
      "stateMutability": "view",
      "type": "function"
    },
    {
      "inputs": [
        {
          "internalType": "address",
          "name": "_owner",
          "type": "address"
        },
        {
          "internalType": "uint256",
          "name": "_tokenIndex",
          "type": "uint256"
        }
      ],
      "name": "tokenOfOwnerByIndex",
      "outputs": [
        {
          "internalType": "uint256",
          "name": "",
          "type": "uint256"
        }
      ],
      "stateMutability": "view",
      "type": "function"
    },
    {
      "inputs": [
        {
          "internalType": "uint256",
          "name": "_tokenId",
          "type": "uint256"
        }
      ],
      "name": "tokenURI",
      "outputs": [
        {
          "internalType": "string",
          "name": "",
          "type": "string"
        }
      ],
      "stateMutability": "view",
      "type": "function"
    },
    {
      "inputs": [],
      "name": "totalSupply",
      "outputs": [
        {
          "internalType": "uint256",
          "name": "",
          "type": "uint256"
        }
      ],
      "stateMutability": "view",
      "type": "function"
    },
    {
      "inputs": [
        {
          "internalType": "uint256",
          "name": "_block",
          "type": "uint256"
        }
      ],
      "name": "totalSupplyAt",
      "outputs": [
        {
          "internalType": "uint256",
          "name": "",
          "type": "uint256"
        }
      ],
      "stateMutability": "view",
      "type": "function"
    },
    {
      "inputs": [
        {
          "internalType": "uint256",
          "name": "t",
          "type": "uint256"
        }
      ],
      "name": "totalSupplyAtT",
      "outputs": [
        {
          "internalType": "uint256",
          "name": "",
          "type": "uint256"
        }
      ],
      "stateMutability": "view",
      "type": "function"
    },
    {
      "inputs": [
        {
          "internalType": "address",
          "name": "from",
          "type": "address"
        },
        {
          "internalType": "address",
          "name": "to",
          "type": "address"
        },
        {
          "internalType": "uint256",
          "name": "tokenId",
          "type": "uint256"
        }
      ],
      "name": "transferFrom",
      "outputs": [],
      "stateMutability": "nonpayable",
      "type": "function"
    },
    {
      "inputs": [
        {
          "internalType": "address",
          "name": "newOwner",
          "type": "address"
        }
      ],
      "name": "transferOwnership",
      "outputs": [],
      "stateMutability": "nonpayable",
      "type": "function"
    },
    {
      "inputs": [
        {
          "internalType": "uint256",
          "name": "",
          "type": "uint256"
        }
      ],
      "name": "user_point_epoch",
      "outputs": [
        {
          "internalType": "uint256",
          "name": "",
          "type": "uint256"
        }
      ],
      "stateMutability": "view",
      "type": "function"
    },
    {
      "inputs": [
        {
          "internalType": "uint256",
          "name": "",
          "type": "uint256"
        },
        {
          "internalType": "uint256",
          "name": "",
          "type": "uint256"
        }
      ],
      "name": "user_point_history",
      "outputs": [
        {
          "internalType": "int128",
          "name": "bias",
          "type": "int128"
        },
        {
          "internalType": "int128",
          "name": "slope",
          "type": "int128"
        },
        {
          "internalType": "uint256",
          "name": "ts",
          "type": "uint256"
        },
        {
          "internalType": "uint256",
          "name": "blk",
          "type": "uint256"
        }
      ],
      "stateMutability": "view",
      "type": "function"
    },
    {
      "inputs": [
        {
          "internalType": "uint256",
          "name": "_tokenId",
          "type": "uint256"
        },
        {
          "internalType": "uint256",
          "name": "_idx",
          "type": "uint256"
        }
      ],
      "name": "user_point_history__ts",
      "outputs": [
        {
          "internalType": "uint256",
          "name": "",
          "type": "uint256"
        }
      ],
      "stateMutability": "view",
      "type": "function"
    },
    {
      "inputs": [],
      "name": "version",
      "outputs": [
        {
          "internalType": "string",
          "name": "",
          "type": "string"
        }
      ],
      "stateMutability": "view",
      "type": "function"
    },
    {
      "inputs": [
        {
          "internalType": "uint256",
          "name": "",
          "type": "uint256"
        }
      ],
      "name": "voted",
      "outputs": [
        {
          "internalType": "bool",
          "name": "",
          "type": "bool"
        }
      ],
      "stateMutability": "view",
      "type": "function"
    },
    {
      "inputs": [],
      "name": "voter",
      "outputs": [
        {
          "internalType": "address",
          "name": "",
          "type": "address"
        }
      ],
      "stateMutability": "view",
      "type": "function"
    },
    {
      "inputs": [
        {
          "internalType": "uint256",
          "name": "_tokenId",
          "type": "uint256"
        }
      ],
      "name": "voting",
      "outputs": [],
      "stateMutability": "nonpayable",
      "type": "function"
    },
    {
      "inputs": [
        {
          "internalType": "uint256",
          "name": "_tokenId",
          "type": "uint256"
        }
      ],
      "name": "withdraw",
      "outputs": [],
      "stateMutability": "nonpayable",
      "type": "function"
    }
  ],
  "transactionHash": "0xda9932c82b41c295cda3d8d8005037095706a923e8816fc511894530733438c8",
  "args": [],
  "numDeployments": 2,
  "bytecode": {
    "object": "0x60806040523480156200001157600080fd5b506200001c62000022565b620000e3565b600054610100900460ff16156200008f5760405162461bcd60e51b815260206004820152602760248201527f496e697469616c697a61626c653a20636f6e747261637420697320696e697469604482015266616c697a696e6760c81b606482015260840160405180910390fd5b60005460ff90811614620000e1576000805460ff191660ff9081179091556040519081527f7f26b83ff96e1f2b6a682f133852f6798a09c465da95921460cefb38474024989060200160405180910390a15b565b615b9d80620000f36000396000f3fe608060405234801561001057600080fd5b506004361061045f5760003560e01c8063711974841161024c578063b88d4fde11610146578063e441135c116100c3578063f1127ed811610087578063f1127ed814610b51578063f2fde38b14610b7d578063f8a0576314610b90578063fc0c546a14610bb4578063fd4a77f114610bc857600080fd5b8063e441135c14610aa7578063e7a324dc14610ac8578063e7e242d414610aef578063e985e9c514610b02578063ee99fe2814610b3e57600080fd5b8063d1c2babb1161010a578063d1c2babb14610a1e578063d1febfb914610a31578063d4e54c3b14610a70578063e0514aba14610a83578063e30c397814610a9657600080fd5b8063b88d4fde146109ca578063c1f0fb9f146109dd578063c2c4c5c1146109f0578063c3cda520146109f8578063c87b56dd14610a0b57600080fd5b8063900cf0cf116101d45780639ab24eb0116101985780639ab24eb014610935578063a183af5214610948578063a22cb4651461095b578063a4d855df1461096e578063b45a3c0e1461098157600080fd5b8063900cf0cf146108ea57806394d008ef146108f457806395d89b41146109075780639712fdf81461090f578063981b24d01461092257600080fd5b806385f2aef21161021b57806385f2aef21461087b5780638c2c9baf1461088f5780638da5cb5b146108a25780638e539e8c146108b35780638fbb38ff146108c657600080fd5b80637119748414610826578063715018a61461084a57806379ba5097146108525780637ecebe001461085a57600080fd5b80632f745c591161035d57806356afe744116102e557806365fc3873116102a957806365fc3873146107a55780636f548837146107b85780636fcfff45146107d957806370a08231146108005780637116c60c1461081357600080fd5b806356afe74414610750578063587cde1e146107635780635c19a95c146107765780635f5b0c32146107895780636352211e1461079257600080fd5b8063430c20811161032c578063430c2081146106cc578063461f711c146106df57806346c96aac146107055780634bc2a6571461071957806354fd4d501461072c57600080fd5b80632f745c591461065c5780633a46b1a81461069357806342842e0e146106a657806342966c68146106b957600080fd5b806310c3cf06116103eb57806320606b70116103af57806320606b70146105e85780632168ca0f1461060f57806323b872dd1461063057806325a58b56146106435780632e1a7d4d1461064957600080fd5b806310c3cf06146105755780631376f3da1461057f578063144fa6d7146105ba57806318160ddd146105cd5780631c984bc3146105d557600080fd5b80630758c7d8116104325780630758c7d8146104e9578063077f224a14610511578063081812fc14610524578063095cf5c61461054f578063095ea7b31461056257600080fd5b806301ffc9a714610464578063047fc9aa146104a757806304df017d146104bf57806306fdde03146104d4575b600080fd5b610492610472366004614f7a565b6001600160e01b0319166000908152610163602052604090205460ff1690565b60405190151581526020015b60405180910390f35b6104b161016e5481565b60405190815260200161049e565b6104d26104cd366004614fb3565b610bdb565b005b6104dc610c71565b60405161049e9190615014565b6104fc6104f7366004615027565b610d03565b60405163ffffffff909116815260200161049e565b6104d261051f366004615108565b610e7a565b61053761053236600461517c565b611148565b6040516001600160a01b03909116815260200161049e565b6104d261055d366004614fb3565b61116f565b6104d2610570366004615027565b6111d5565b6104b16101655481565b61059261058d366004615195565b6112ea565b60408051600f95860b81529390940b602084015292820152606081019190915260800161049e565b6104d26105c8366004614fb3565b611332565b6104b161135d565b6104b16105e3366004615195565b61136d565b6104b17f8cad95687ba82c2ce50e74f7b754645e5117c3a5bec8151c0726d5857980a86681565b61061861a4b181565b6040516001600160801b03909116815260200161049e565b6104d261063e3660046151b7565b6113a0565b436104b1565b6104d261065736600461517c565b6113d1565b6104b161066a366004615027565b6001600160a01b0391909116600090815261016760209081526040808320938352929052205490565b6104b16106a1366004615027565b6115fc565b6104d26106b43660046151b7565b61169c565b6104dc6106c736600461517c565b6116b7565b6104926106da366004615027565b61173c565b6106f26106ed36600461517c565b61174f565b604051600f9190910b815260200161049e565b61016054610537906001600160a01b031681565b6104d2610727366004614fb3565b611794565b6104dc604051806040016040528060058152602001640312e302e360dc1b81525081565b6104d261075e3660046151f3565b6117fa565b610537610771366004614fb3565b611aa5565b6104d2610784366004614fb3565b611ad6565b6104b161040081565b6105376107a036600461517c565b611af1565b6104b16107b3366004615195565b611b51565b6104b16107c636600461517c565b6101666020526000908152604090205481565b6104fc6107e7366004614fb3565b6101726020526000908152604090205463ffffffff1681565b6104b161080e366004614fb3565b611b73565b6104b161082136600461517c565b611bf9565b6106f261083436600461517c565b61016d60205260009081526040902054600f0b81565b6104d2611c5b565b6104d2611c6f565b6104b1610868366004614fb3565b6101736020526000908152604090205481565b61016154610537906001600160a01b031681565b6104b161089d366004615195565b611ce6565b6097546001600160a01b0316610537565b6104b16108c136600461517c565b611cf2565b6104926108d436600461517c565b61016f6020526000908152604090205460ff1681565b6104b161016c5481565b6104d261090236600461529f565b611cfd565b6104dc611d7f565b6104d261091d366004614fb3565b611d8e565b6104b161093036600461517c565b611e28565b6104b1610943366004614fb3565b611fcd565b6104d2610956366004615195565b6120a2565b6104d2610969366004615304565b612189565b6104d261097c366004615195565b612194565b6109b061098f36600461517c565b61016b6020526000908152604090208054600190910154600f9190910b9082565b60408051600f9390930b835260208301919091520161049e565b6104d26109d836600461533b565b61232d565b6104d26109eb36600461517c565b61235f565b6104d26123bc565b6104d2610a063660046153a3565b6123fa565b6104dc610a1936600461517c565b612797565b6104d2610a2c366004615195565b61282d565b610592610a3f36600461517c565b61016260205260009081526040902080546001820154600290920154600f82810b93600160801b909304900b919084565b6104b1610a7e366004615403565b6129d0565b6104b1610a91366004615195565b6129f2565b60c9546001600160a01b0316610537565b6104b1610ab536600461517c565b6101696020526000908152604090205481565b6104b17fe48329057bfd03d55e49b547132e39cffd9c1820ad7b9d4c5307691425d15adf81565b6104b1610afd36600461517c565b6129fe565b610492610b1036600461542f565b6001600160a01b039182166000908152606a6020908152604080832093909416825291909152205460ff1690565b6104d2610b4c366004615195565b612a27565b6104b1610b5f366004615462565b61017160209081526000928352604080842090915290825290205481565b6104d2610b8b366004614fb3565b612af8565b6104b1610b9e36600461517c565b600090815261016b602052604090206001015490565b61015f54610537906001600160a01b031681565b6104d2610bd636600461517c565b612b69565b610be3612bc9565b6001600160a01b038116600090815260fb602052604090205460ff16610c1c57604051632655e85f60e01b815260040160405180910390fd5b6040516001600160a01b038216907f5d9d5034656cb3ebfb0655057cd7f9b4077a9b42ff42ce223cbac5bc586d212690600090a26001600160a01b0316600090815260fb60205260409020805460ff19169055565b606060658054610c8090615497565b80601f0160208091040260200160405190810160405280929190818152602001828054610cac90615497565b8015610cf95780601f10610cce57610100808354040283529160200191610cf9565b820191906000526020600020905b815481529060010190602001808311610cdc57829003601f168201915b5050505050905090565b6001600160a01b0382166000908152610172602052604081205463ffffffff16808203610d34576000915050610e74565b6001600160a01b0384166000908152610171602052604081208491610d5a6001856154e1565b63ffffffff16815260208101919091526040016000205411610d8957610d816001826154e1565b915050610e74565b6001600160a01b038416600090815261017160209081526040808320838052909152902054831015610dbf576000915050610e74565b600080610dcd6001846154e1565b90505b8163ffffffff168163ffffffff161115610e6f5760006002610df284846154e1565b610dfc9190615514565b610e0690836154e1565b6001600160a01b03881660009081526101716020908152604080832063ffffffff851684529091529020805491925090879003610e4957509350610e7492505050565b8054871115610e5a57819350610e68565b610e656001836154e1565b92505b5050610dd0565b509150505b92915050565b600054610100900460ff1615808015610e9a5750600054600160ff909116105b80610eb45750303b158015610eb4575060005460ff166001145b610f1c5760405162461bcd60e51b815260206004820152602e60248201527f496e697469616c697a61626c653a20636f6e747261637420697320616c72656160448201526d191e481a5b9a5d1a585b1a5e995960921b60648201526084015b60405180910390fd5b6000805460ff191660011790558015610f3f576000805461ff0019166101001790555b610f47612c23565b610f4f612c52565b610f57612c52565b610f618484612c81565b610f69612cb2565b610f7233612ce1565b61a4b1610165556001600160a01b038216610fa95760405162461bcd60e51b81526020600482015260006024820152604401610f13565b61015f80546001600160a01b0384166001600160a01b03199182161790915561016080548216339081179091556101618054909216179055437fd3963e8e1761c638694d3c60d54f123240f3fe953a68debc0fa797faeeb01d1155427fd3963e8e1761c638694d3c60d54f123240f3fe953a68debc0fa797faeeb01d10556101636020527fa8bef1461af97ffd75cfbc1c7627e40a5952107159e2d161b830af3c415a5971805460ff1990811660019081179092557f9c2286954f65a97095a628a27b8932da4542255331e66eaa5eb37db1fb5a9b038054821683179055635b5e139f60e01b60009081527fc5a25afa8aabe00a5261aa4d8aa3186ef1a373a7ca51f1fc2e467b9a5b593700805490921690921790556101645460405190913091600080516020615b71833981519152908290a4610164546040516000903090600080516020615b71833981519152908390a48015611142576000805461ff0019169055604051600181527f7f26b83ff96e1f2b6a682f133852f6798a09c465da95921460cefb38474024989060200160405180910390a15b50505050565b600061115382612cfa565b506000908152606960205260409020546001600160a01b031690565b610161546001600160a01b031633146111b25760405162461bcd60e51b8152602060048201526005602482015264217465616d60d81b6044820152606401610f13565b61016180546001600160a01b0319166001600160a01b0392909216919091179055565b60006111e082611af1565b9050806001600160a01b0316836001600160a01b03160361124d5760405162461bcd60e51b815260206004820152602160248201527f4552433732313a20617070726f76616c20746f2063757272656e74206f776e656044820152603960f91b6064820152608401610f13565b336001600160a01b038216148061126957506112698133610b10565b6112db5760405162461bcd60e51b815260206004820152603d60248201527f4552433732313a20617070726f76652063616c6c6572206973206e6f7420746f60448201527f6b656e206f776e6572206f7220617070726f76656420666f7220616c6c0000006064820152608401610f13565b6112e58383612d59565b505050565b61016a60205281600052604060002081633b9aca00811061130a57600080fd5b6003020180546001820154600290920154600f82810b9550600160801b90920490910b925084565b61133a612bc9565b61015f80546001600160a01b0319166001600160a01b0392909216919091179055565b600061136842611bf9565b905090565b600082815261016a6020526040812082633b9aca00811061139057611390615537565b6003020160010154905092915050565b6113aa3382612dc7565b6113c65760405162461bcd60e51b8152600401610f139061554d565b6112e5838383612e45565b6113d9612ec5565b6101655446146113fb5760405162461bcd60e51b8152600401610f139061559a565b6114053382612dc7565b611411576114116155c2565b600081815261016f602052604090205460ff16156114415760405162461bcd60e51b8152600401610f13906155d8565b600081815261016b602090815260409182902082518084019093528054600f0b8352600101549082018190524210156114b55760405162461bcd60e51b8152602060048201526016602482015275546865206c6f636b206469646e27742065787069726560501b6044820152606401610f13565b805161016e54600f9190910b906114cc82826155f8565b61016e556114d984612f20565b506114e384612fcb565b61015f5460405163a9059cbb60e01b8152336004820152602481018490526001600160a01b039091169063a9059cbb906044016020604051808303816000875af1158015611535573d6000803e3d6000fd5b505050506040513d601f19601f82011682018060405250810190611559919061560b565b611565576115656155c2565b60408051858152602081018490524281830152905133917f02f25270a4d87bea75db541cdfe559334a275b4a233520ed6c0a2429667cca94919081900360600190a27f5e2aa66efd74cce82b21852e317e5490d9ecc9e6bb953ae24d90851258cc2f5c816115d384826155f8565b6040805192835260208301919091520160405180910390a15050506115f9600161012d55565b50565b6000806116098484610d03565b6001600160a01b03851660009081526101716020908152604080832063ffffffff851684529091528120919250600190910190805b825481101561169257600083828154811061165b5761165b615537565b906000526020600020015490506116728188613061565b61167c9084615628565b925050808061168a9061563b565b91505061163e565b5095945050505050565b6112e58383836040518060200160405280600081525061232d565b33600090815260fb602052604090205460609060ff166116ea576040516378f18ee960e11b815260040160405180910390fd5b6116f382612f20565b90506116fe82612fcb565b7f5747a69bb6c2c54b5c628298d364a5cc5066b4db09369ad6a2cfca362f0a023f828260405161172f929190615654565b60405180910390a1919050565b60006117488383612dc7565b9392505050565b6000818152610169602090815260408083205461016a909252822081633b9aca00811061177e5761177e615537565b6003020154600160801b9004600f0b9392505050565b610161546001600160a01b031633146117d75760405162461bcd60e51b8152602060048201526005602482015264217465616d60d81b6044820152606401610f13565b61016080546001600160a01b0319166001600160a01b0392909216919091179055565b60008251116118445760405162461bcd60e51b81526020600482015260166024820152751e995c9bc81b195b88185b5bdd5b9d1cc81a5b9c1d5d60521b6044820152606401610f13565b600081815261016f602052604090205460ff16156118745760405162461bcd60e51b8152600401610f13906155d8565b61187e3382612dc7565b6118ca5760405162461bcd60e51b815260206004820152601960248201527f2173656e64657220617070726f766564206f72206f776e6572000000000000006044820152606401610f13565b60008181526067602090815260408083205461016b83529281902081518083019092528054600f0b8083526001909101549282018390526001600160a01b03909316929091908061192d5760405162461bcd60e51b8152600401610f139061566d565b8061016e5461193c91906155f8565b61016e556000805b87518210156119865787828151811061195f5761195f615537565b6020026020010151816119729190615628565b90508161197e8161563b565b925050611944565b61198f87612f20565b5061199987612fcb565b834281116119b95760405162461bcd60e51b8152600401610f139061568c565b6119c76301dfe20042615628565b8111156119e65760405162461bcd60e51b8152600401610f13906156d2565b60008093505b8951841015611a995761016460008154611a059061563b565b90915550610164549850611a19888a61313e565b828a8581518110611a2c57611a2c615537565b602002602001015186611a3f9190615709565b611a499190615720565b60008a815261016b602090815260409182902082518084019093528054600f0b83526001015490820152909150611a87908a90839085906005613176565b83611a918161563b565b9450506119ec565b50505050505050505050565b6001600160a01b03808216600090815261017060205260408120549091168015611acf5780611748565b5090919050565b6001600160a01b038116611ae75750335b6115f933826133a3565b6000818152606760205260408120546001600160a01b031680610e745760405162461bcd60e51b8152602060048201526018602482015277115490cdcc8c4e881a5b9d985b1a59081d1bdad95b88125160421b6044820152606401610f13565b6000611b5b612ec5565b611b66838333613439565b9050610e74600161012d55565b60006001600160a01b038216611bdd5760405162461bcd60e51b815260206004820152602960248201527f4552433732313a2061646472657373207a65726f206973206e6f7420612076616044820152683634b21037bbb732b960b91b6064820152608401610f13565b506001600160a01b031660009081526068602052604090205490565b61016c5460008181526101626020908152604080832081516080810183528154600f81810b8352600160801b909104900b93810193909352600181015491830191909152600201546060820152909190611c538185613536565b949350505050565b611c63612bc9565b611c6d6000612ce1565b565b60c95433906001600160a01b03168114611cdd5760405162461bcd60e51b815260206004820152602960248201527f4f776e61626c6532537465703a2063616c6c6572206973206e6f7420746865206044820152683732bb9037bbb732b960b91b6064820152608401610f13565b6115f981612ce1565b60006117488383613638565b6000610e7482611bf9565b33600090815260fb602052604090205460ff16611d2d576040516378f18ee960e11b815260040160405180910390fd5b611d37838361313e565b611d418282613917565b7fc8ffd8a5cadf5f377038eb6cb621455f9673dc07f502ac1580838d85f2df001a8282604051611d72929190615654565b60405180910390a1505050565b606060668054610c8090615497565b611d96612bc9565b6001600160a01b038116600090815260fb602052604090205460ff1615611dd05760405163f74c45bf60e01b815260040160405180910390fd5b6040516001600160a01b038216907f3cda433c5679ae4c6a5dea50840e222a42cba3695e4663de4366be899348422190600090a26001600160a01b0316600090815260fb60205260409020805460ff19166001179055565b600043821115611e3a57611e3a6155c2565b61016c546000611e4a848361399a565b60008181526101626020908152604080832081516080810183528154600f81810b8352600160801b909104900b9381019390935260018101549183019190915260020154606082015291925083831015611f5b57600061016281611eaf866001615628565b8152602080820192909252604090810160002081516080810183528154600f81810b8352600160801b909104900b9381019390935260018101549183019190915260020154606080830182905285015191925014611f555782606001518160600151611f1b91906155f8565b83604001518260400151611f2f91906155f8565b6060850151611f3e908a6155f8565b611f489190615709565b611f529190615720565b91505b50611faa565b43826060015114611faa576060820151611f7590436155f8565b6040830151611f8490426155f8565b6060840151611f9390896155f8565b611f9d9190615709565b611fa79190615720565b90505b611fc382828460400151611fbe9190615628565b613536565b9695505050505050565b6001600160a01b0381166000908152610172602052604081205463ffffffff16808203611ffd5750600092915050565b6001600160a01b038316600090815261017160205260408120816120226001856154e1565b63ffffffff1663ffffffff16815260200190815260200160002060010190506000805b825481101561209957600083828154811061206257612062615537565b906000526020600020015490506120798142613061565b6120839084615628565b92505080806120919061563b565b915050612045565b50949350505050565b6120aa612ec5565b6120b43383612dc7565b6120c0576120c06155c2565b600082815261016b602090815260409182902082518084019093528054600f0b83526001015490820152816120f7576120f76155c2565b60008160000151600f0b136121475760405162461bcd60e51b8152602060048201526016602482015275139bc8195e1a5cdd1a5b99c81b1bd8dac8199bdd5b9960521b6044820152606401610f13565b4281602001511161216a5760405162461bcd60e51b8152600401610f1390615734565b61217983836000846002613176565b50612185600161012d55565b5050565b612185338383613a21565b61219c612ec5565b6121a63383612dc7565b6121b2576121b26155c2565b600082815261016b6020908152604080832081518083019092528054600f0b825260010154918101919091529062127500806121ee8542615628565b6121f89190615720565b6122029190615709565b9050428260200151116122465760405162461bcd60e51b815260206004820152600c60248201526b131bd8dac8195e1c1a5c995960a21b6044820152606401610f13565b60008260000151600f0b136122915760405162461bcd60e51b8152602060048201526011602482015270139bdd1a1a5b99c81a5cc81b1bd8dad959607a1b6044820152606401610f13565b816020015181116122e45760405162461bcd60e51b815260206004820152601f60248201527f43616e206f6e6c7920696e637265617365206c6f636b206475726174696f6e006044820152606401610f13565b6122f26301dfe20042615628565b8111156123115760405162461bcd60e51b8152600401610f13906156d2565b61232084600083856003613176565b5050612185600161012d55565b6123373383612dc7565b6123535760405162461bcd60e51b8152600401610f139061554d565b61114284848484613aef565b610160546001600160a01b031633146123a35760405162461bcd60e51b815260206004820152600660248201526510bb37ba32b960d11b6044820152606401610f13565b600090815261016f60205260409020805460ff19169055565b611c6d600060405180604001604052806000600f0b8152602001600081525060405180604001604052806000600f0b81526020016000815250613b22565b336001600160a01b0387160361243c5760405162461bcd60e51b815260206004820152600760248201526610b9b2b73232b960c91b6044820152606401610f13565b6001600160a01b03861661247f5760405162461bcd60e51b815260206004820152600a60248201526910bd32b9379030b2323960b11b6044820152606401610f13565b60007f8cad95687ba82c2ce50e74f7b754645e5117c3a5bec8151c0726d5857980a8666124aa610c71565b805160209182012060408051808201825260058152640312e302e360dc1b90840152805180840194909452838101919091527f06c015bd22b4c69690933c1058878ebdfef31f9aaae40bbe86d8a09fe1b2972c60608401524660808401523060a0808501919091528151808503909101815260c0840182528051908301207fe48329057bfd03d55e49b547132e39cffd9c1820ad7b9d4c5307691425d15adf60e08501526001600160a01b038b1661010085015261012084018a90526101408085018a90528251808603909101815261016085019092528151919092012061190160f01b61018084015261018283018290526101a28301819052909250906000906101c20160408051601f198184030181528282528051602091820120600080855291840180845281905260ff8a169284019290925260608301889052608083018790529092509060019060a0016020604051602081039080840390855afa15801561261a573d6000803e3d6000fd5b5050604051601f1901519150506001600160a01b0381166126945760405162461bcd60e51b815260206004820152602e60248201527f566f74696e67457363726f773a3a64656c656761746542795369673a20696e7660448201526d616c6964207369676e617475726560901b6064820152608401610f13565b6001600160a01b0381166000908152610173602052604081208054916126b98361563b565b91905055891461271e5760405162461bcd60e51b815260206004820152602a60248201527f566f74696e67457363726f773a3a64656c656761746542795369673a20696e76604482015269616c6964206e6f6e636560b01b6064820152608401610f13565b874211156127855760405162461bcd60e51b815260206004820152602e60248201527f566f74696e67457363726f773a3a64656c656761746542795369673a2073696760448201526d1b985d1d5c9948195e1c1a5c995960921b6064820152608401610f13565b611a99818b6133a3565b505050505050565b6000818152606760205260409020546060906001600160a01b03166127fe5760405162461bcd60e51b815260206004820152601b60248201527f517565727920666f72206e6f6e6578697374656e7420746f6b656e00000000006044820152606401610f13565b600091825261016b602090815260409283902083518085019094528054600f0b84526001015492019190915290565b600082815261016f602052604090205460ff161561285d5760405162461bcd60e51b8152600401610f13906155d8565b8082036128985760405162461bcd60e51b81526020600482015260096024820152682166726f6d3d3d746f60b81b6044820152606401610f13565b6128a23383612dc7565b6128ee5760405162461bcd60e51b815260206004820152601760248201527f2166726f6d20617070726f766564206f72206f776e65720000000000000000006044820152606401610f13565b6128f83382612dc7565b61293c5760405162461bcd60e51b815260206004820152601560248201527410ba379030b8383937bb32b21037b91037bbb732b960591b6044820152606401610f13565b600082815261016b60208181526040808420815180830183528154600f90810b825260019283015482860190815288885295855283872084518086019095528054820b855290920154938301849052805194519095929490910b9211156129a75782602001516129ad565b83602001515b90506129b886612f20565b506129c286612fcb565b61278f858383866004613176565b60006129da612ec5565b6129e5848484613439565b9050611748600161012d55565b60006117488383613061565b60008181526101666020526040812054439003612a1d57506000919050565b610e748242613061565b612a2f612ec5565b600082815261016b602090815260409182902082518084019093528054600f0b8352600101549082015281612a765760405162461bcd60e51b8152600401610f139061566d565b60008160000151600f0b13612ac65760405162461bcd60e51b8152602060048201526016602482015275139bc8195e1a5cdd1a5b99c81b1bd8dac8199bdd5b9960521b6044820152606401610f13565b42816020015111612ae95760405162461bcd60e51b8152600401610f1390615734565b61217983836000846000613176565b612b00612bc9565b60c980546001600160a01b0383166001600160a01b03199091168117909155612b316097546001600160a01b031690565b6001600160a01b03167f38d16b8cac22d99fc7c124b9cd0de2d3fa1faef420bfe791d8c362d765e2270060405160405180910390a350565b610160546001600160a01b03163314612bad5760405162461bcd60e51b815260206004820152600660248201526510bb37ba32b960d11b6044820152606401610f13565b600090815261016f60205260409020805460ff19166001179055565b6097546001600160a01b03163314611c6d5760405162461bcd60e51b815260206004820181905260248201527f4f776e61626c653a2063616c6c6572206973206e6f7420746865206f776e65726044820152606401610f13565b600054610100900460ff16612c4a5760405162461bcd60e51b8152600401610f1390615778565b611c6d61414b565b600054610100900460ff16612c795760405162461bcd60e51b8152600401610f1390615778565b611c6d614172565b600054610100900460ff16612ca85760405162461bcd60e51b8152600401610f1390615778565b61218582826141a2565b600054610100900460ff16612cd95760405162461bcd60e51b8152600401610f1390615778565b611c6d6141e2565b60c980546001600160a01b03191690556115f981614209565b6000818152606760205260409020546001600160a01b03166115f95760405162461bcd60e51b8152602060048201526018602482015277115490cdcc8c4e881a5b9d985b1a59081d1bdad95b88125160421b6044820152606401610f13565b600081815260696020526040902080546001600160a01b0319166001600160a01b0384169081179091558190612d8e82611af1565b6001600160a01b03167f8c5be1e5ebec7d5bd14f71427d1e84f3dd0314c0f7b2291e5b200ac8c7c3b92560405160405180910390a45050565b600080612dd383611af1565b9050806001600160a01b0316846001600160a01b03161480612e1a57506001600160a01b038082166000908152606a602090815260408083209388168352929052205460ff165b80611c535750836001600160a01b0316612e3384611148565b6001600160a01b031614949350505050565b600081815261016f602052604090205460ff1615612e755760405162461bcd60e51b8152600401610f13906155d8565b612e7f838261425b565b612e9a612e8b84611aa5565b612e9484611aa5565b83614311565b612ea4828261467d565b612eaf8383836146c3565b6000908152610166602052604090204390555050565b600261012d5403612f185760405162461bcd60e51b815260206004820152601f60248201527f5265656e7472616e637947756172643a207265656e7472616e742063616c6c006044820152606401610f13565b600261012d55565b600081815261016b6020818152604080842080546001820180548451600f84900b81880181905281870183905286518083038801815260a08301885260608301918252608090920192909252855180870187528981528088018a81528b8b52988852516001600160801b03166001600160801b03199094169390931790935594519094558151808301909252848252918101939093529091612fc59084908390613b22565b50919050565b612fd53382612dc7565b61301a5760405162461bcd60e51b81526020600482015260166024820152751b9bdd081bdddb995c881b9bdc88185c1c1c9bdd995960521b6044820152606401610f13565b600061302582611af1565b90506130326000836111d5565b61304661303e82611aa5565b600084614311565b613050818361425b565b61218582614815565b600161012d55565b60008281526101696020526040812054808203613082576000915050610e74565b600084815261016a6020526040812082633b9aca0081106130a5576130a5615537565b60408051608081018252600392909202929092018054600f81810b8452600160801b909104900b6020830152600181015492820183905260020154606082015291506130f190856157c3565b816020015161310091906157e3565b8151829061310f908390615803565b600f90810b90915282516000910b1215905061312a57600081525b51600f0b9150610e749050565b5092915050565b6001600160a01b038216613154576131546155c2565b6131626000612e9484611aa5565b61316c828261467d565b6121858282614898565b6101655446146131985760405162461bcd60e51b8152600401610f139061559a565b61016e5482906131a88682615628565b61016e556040805180820190915260008082526020820152825160208085015190830152600f0b81528251879084906131e2908390615830565b600f0b90525085156131f657602083018690525b600088815261016b60209081526040909120845181546001600160801b0319166001600160801b0390911617815590840151600190910155613239888285613b22565b33871580159061325b575060048560058111156132585761325861585d565b14155b8015613279575060058560058111156132765761327661585d565b14155b156133085761015f546040516323b872dd60e01b81526001600160a01b038381166004830152306024830152604482018b9052909116906323b872dd906064016020604051808303816000875af11580156132d8573d6000803e3d6000fd5b505050506040513d601f19601f820116820180604052508101906132fc919061560b565b613308576133086155c2565b8360200151816001600160a01b03167fff04ccafc360e16b67d682d17bd9503c4c6b9a131f6be6325762dc9ffc7de6248b8b894260405161334c9493929190615873565b60405180910390a37f5e2aa66efd74cce82b21852e317e5490d9ecc9e6bb953ae24d90851258cc2f5c836133808a82615628565b6040805192835260208301919091520160405180910390a1505050505050505050565b6101655446146133c55760405162461bcd60e51b8152600401610f139061559a565b60006133d083611aa5565b6001600160a01b038481166000818152610170602052604080822080546001600160a01b031916888616908117909155905194955093928516927f3134e8a2e6d97e929a7e54011ea5485d7d196dd5f0ba4d4ef95803e8e3fc257f9190a46112e5838284614a11565b600080621275008061344b8642615628565b6134559190615720565b61345f9190615709565b9050600085116134815760405162461bcd60e51b8152600401610f139061566d565b4281116134a05760405162461bcd60e51b8152600401610f139061568c565b6134ae6301dfe20042615628565b8111156134cd5760405162461bcd60e51b8152600401610f13906156d2565b610164600081546134dd9061563b565b90915550610164546134ef848261313e565b600081815261016b602090815260409182902082518084019093528054600f0b83526001908101549183019190915261352d91839189918691613176565b95945050505050565b6000808390506000621275008083604001516135529190615720565b61355c9190615709565b905060005b60ff811015613610576135776212750083615628565b915060008583111561358b578592506135a0565b50600082815261016d6020526040902054600f0b5b60408401516135af90846155f8565b84602001516135be91906157e3565b845185906135cd908390615803565b600f0b9052508583036135e05750613610565b80846020018181516135f29190615830565b600f0b90525050604083018290526136098161563b565b9050613561565b5060008260000151600f0b121561362657600082525b50516001600160801b03169392505050565b60004382111561364a5761364a6155c2565b60008381526101696020526040812054815b60808110156136ec57818310156136ec576000600261367b8486615628565b613686906001615628565b6136909190615720565b600088815261016a60205260409020909150869082633b9aca0081106136b8576136b8615537565b6003020160020154116136cd578093506136db565b6136d86001826155f8565b92505b506136e58161563b565b905061365c565b50600085815261016a6020526040812083633b9aca00811061371057613710615537565b60408051608081018252600392909202929092018054600f81810b8452600160801b909104900b6020830152600181015492820192909252600290910154606082015261016c549091506000613766878361399a565b60008181526101626020908152604080832081516080810183528154600f81810b8352600160801b909104900b938101939093526001810154918301919091526002015460608201529192508084841015613847576000610162816137cc876001615628565b8152602080820192909252604090810160002081516080810183528154600f81810b8352600160801b909104900b9381019390935260018101549183019190915260020154606080830182905286015191925061382991906155f8565b92508360400151816040015161383f91906155f8565b91505061386b565b606083015161385690436155f8565b915082604001514261386891906155f8565b90505b604083015182156138a8578284606001518c61388791906155f8565b6138919084615709565b61389b9190615720565b6138a59082615628565b90505b60408701516138b790826155f8565b87602001516138c691906157e3565b875188906138d5908390615803565b600f90810b90915288516000910b12905061390557505093516001600160801b03169650610e7495505050505050565b60009950505050505050505050610e74565b6000808280602001905181019061392e91906158b1565b604080518082018252600f84900b8152602080820184815260008a815261016b8352848120845181546001600160801b0319166001600160801b03909116178155915160019092019190915583518085019094528084529083015292945090925061278f868284613b22565b60008082815b6080811015613a175781831015613a1757600060026139bf8486615628565b6139ca906001615628565b6139d49190615720565b6000818152610162602052604090206002015490915087106139f857809350613a06565b613a036001826155f8565b92505b50613a108161563b565b90506139a0565b5090949350505050565b816001600160a01b0316836001600160a01b031603613a825760405162461bcd60e51b815260206004820152601960248201527f4552433732313a20617070726f766520746f2063616c6c6572000000000000006044820152606401610f13565b6001600160a01b038381166000818152606a6020908152604080832094871680845294825291829020805460ff191686151590811790915591519182527f17307eab39ab6107e8899845ad3d59bd9653f200f220920489ca2b5937696c31910160405180910390a3505050565b613afa848484612e45565b613b0684848484614de8565b6111425760405162461bcd60e51b8152600401610f13906158e5565b60408051608081018252600080825260208201819052918101829052606081019190915260408051608081018252600080825260208201819052918101829052606081019190915261016c5460009081908715613c9057428760200151118015613b93575060008760000151600f0b135b15613bd8578651613ba9906301dfe20090615937565b600f0b602080870191909152870151613bc39042906155f8565b8560200151613bd291906157e3565b600f0b85525b428660200151118015613bf2575060008660000151600f0b135b15613c37578551613c08906301dfe20090615937565b600f0b602080860191909152860151613c229042906155f8565b8460200151613c3191906157e3565b600f0b84525b602080880151600090815261016d8252604090205490870151600f9190910b935015613c90578660200151866020015103613c7457829150613c90565b602080870151600090815261016d9091526040902054600f0b91505b604080516080810182526000808252602082015242918101919091524360608201528115613d0657506000818152610162602090815260409182902082516080810184528154600f81810b8352600160801b909104900b9281019290925260018101549282019290925260029091015460608201525b604081015181600042831015613d53576040840151613d2590426155f8565b6060850151613d3490436155f8565b613d4690670de0b6b3a7640000615709565b613d509190615720565b90505b600062127500613d638186615720565b613d6d9190615709565b905060005b60ff811015613ee957613d886212750083615628565b9150600042831115613d9c57429250613db1565b50600082815261016d6020526040902054600f0b5b613dbb86846155f8565b8760200151613dca91906157e3565b87518890613dd9908390615803565b600f0b905250602087018051829190613df3908390615830565b600f90810b90915288516000910b12159050613e0e57600087525b60008760200151600f0b1215613e2657600060208801525b60408088018490528501519295508592670de0b6b3a764000090613e4a90856155f8565b613e549086615709565b613e5e9190615720565b8560600151613e6d9190615628565b6060880152613e7d600189615628565b9750428303613e925750436060870152613ee9565b600088815261016260209081526040918290208951918a01516001600160801b03908116600160801b029216919091178155908801516001820155606088015160029091015550613ee28161563b565b9050613d72565b505061016c8590558b15613f755788602001518860200151613f0b9190615803565b84602001818151613f1c9190615830565b600f0b90525088518851613f309190615803565b84518590613f3f908390615830565b600f90810b90915260208601516000910b12159050613f6057600060208501525b60008460000151600f0b1215613f7557600084525b600085815261016260209081526040918290208651918701516001600160801b03908116600160801b02921691909117815590850151600182015560608501516002909101558b1561413d57428b60200151111561402e576020890151613fdc9088615830565b96508a602001518a6020015103613fff576020880151613ffc9088615803565b96505b60208b810151600090815261016d9091526040902080546001600160801b0319166001600160801b0389161790555b428a60200151111561408a578a602001518a60200151111561408a5760208801516140599087615803565b60208b810151600090815261016d9091526040902080546001600160801b0319166001600160801b03831617905595505b60008c815261016960205260408120546140a5906001615628565b90508061016960008f81526020019081526020016000208190555042896040018181525050438960600181815250508861016a60008f815260200190815260200160002082633b9aca0081106140fd576140fd615537565b825160208401516001600160801b03908116600160801b029116176003919091029190910190815560408201516001820155606090910151600290910155505b505050505050505050505050565b600054610100900460ff166130595760405162461bcd60e51b8152600401610f1390615778565b600054610100900460ff166141995760405162461bcd60e51b8152600401610f1390615778565b611c6d33612ce1565b600054610100900460ff166141c95760405162461bcd60e51b8152600401610f1390615778565b60656141d583826159bb565b5060666112e582826159bb565b600054610100900460ff16611c6d5760405162461bcd60e51b8152600401610f1390615778565b609780546001600160a01b038381166001600160a01b0319831681179093556040519116919082907f8be0079c531659141344cd1fd0a4f28419497f9722a3daafe3b4186f6b6457e090600090a35050565b6000600161426884611b73565b61427291906155f8565b600083815261016860205260409020549091508082036142c4576001600160a01b0384166000908152610167602090815260408083208584528252808320839055858352610168909152812055611142565b6001600160a01b0393909316600090815261016760209081526040808320938352928152828220805486845284842081905583526101689091528282209490945592839055908252812055565b816001600160a01b0316836001600160a01b0316141580156143335750600081115b156112e5576001600160a01b038316156144b9576001600160a01b0383166000908152610172602052604081205463ffffffff169081614399576001600160a01b03851660009081526101716020908152604080832083805290915290206001016143dc565b6001600160a01b038516600090815261017160205260408120906143be6001856154e1565b63ffffffff1663ffffffff1681526020019081526020016000206001015b905060006143e986614ee9565b6001600160a01b03871660009081526101716020908152604080832063ffffffff8516845290915281209192506001909101905b835481101561447757600084828154811061443a5761443a615537565b90600052602060002001549050868114614464578254600181018455600084815260209020018190555b508061446f8161563b565b91505061441d565b50614483846001615a7b565b6001600160a01b038816600090815261017260205260409020805463ffffffff191663ffffffff92909216919091179055505050505b6001600160a01b038216156112e5576001600160a01b0382166000908152610172602052604081205463ffffffff16908161451a576001600160a01b038416600090815261017160209081526040808320838052909152902060010161455d565b6001600160a01b0384166000908152610171602052604081209061453f6001856154e1565b63ffffffff1663ffffffff1681526020019081526020016000206001015b9050600061456a85614ee9565b6001600160a01b03861660009081526101716020908152604080832063ffffffff8516845290915290208354919250600190810191610400916145ad9190615628565b11156145cb5760405162461bcd60e51b8152600401610f1390615a98565b60005b835481101561461d5760008482815481106145eb576145eb615537565b6000918252602080832090910154855460018101875586845291909220015550806146158161563b565b9150506145ce565b50805460018181018355600083815260209020909101869055614641908590615a7b565b6001600160a01b038716600090815261017260205260409020805463ffffffff9290921663ffffffff1990921691909117905550505050505050565b600061468883611b73565b6001600160a01b0390931660009081526101676020908152604080832086845282528083208590559382526101689052919091209190915550565b826001600160a01b03166146d682611af1565b6001600160a01b0316146146fc5760405162461bcd60e51b8152600401610f1390615adb565b6001600160a01b03821661475e5760405162461bcd60e51b8152602060048201526024808201527f4552433732313a207472616e7366657220746f20746865207a65726f206164646044820152637265737360e01b6064820152608401610f13565b826001600160a01b031661477182611af1565b6001600160a01b0316146147975760405162461bcd60e51b8152600401610f1390615adb565b600081815260696020908152604080832080546001600160a01b03199081169091556001600160a01b038781168086526068855283862080546000190190559087168086528386208054600101905586865260679094528285208054909216841790915590518493600080516020615b7183398151915291a4505050565b600061482082611af1565b905061482b82611af1565b600083815260696020908152604080832080546001600160a01b03199081169091556001600160a01b038516808552606884528285208054600019019055878552606790935281842080549091169055519293508492600080516020615b71833981519152908390a45050565b6001600160a01b0382166148ee5760405162461bcd60e51b815260206004820181905260248201527f4552433732313a206d696e7420746f20746865207a65726f20616464726573736044820152606401610f13565b6000818152606760205260409020546001600160a01b0316156149535760405162461bcd60e51b815260206004820152601c60248201527f4552433732313a20746f6b656e20616c7265616479206d696e746564000000006044820152606401610f13565b6000818152606760205260409020546001600160a01b0316156149b85760405162461bcd60e51b815260206004820152601c60248201527f4552433732313a20746f6b656e20616c7265616479206d696e746564000000006044820152606401610f13565b6001600160a01b038216600081815260686020908152604080832080546001019055848352606790915280822080546001600160a01b031916841790555183929190600080516020615b71833981519152908290a45050565b806001600160a01b0316826001600160a01b0316146112e5576001600160a01b03821615614bdb576001600160a01b0382166000908152610172602052604081205463ffffffff169081614a8b576001600160a01b0384166000908152610171602090815260408083208380529091529020600101614ace565b6001600160a01b03841660009081526101716020526040812090614ab06001856154e1565b63ffffffff1663ffffffff1681526020019081526020016000206001015b90506000614adb85614ee9565b6001600160a01b03861660009081526101716020908152604080832063ffffffff8516845290915281209192506001909101905b8354811015614b99576000848281548110614b2c57614b2c615537565b90600052602060002001549050886001600160a01b0316614b62826000908152606760205260409020546001600160a01b031690565b6001600160a01b031614614b86578254600181018455600084815260209020018190555b5080614b918161563b565b915050614b0f565b50614ba5846001615a7b565b6001600160a01b038716600090815261017260205260409020805463ffffffff191663ffffffff92909216919091179055505050505b6001600160a01b038116156112e5576001600160a01b0381166000908152610172602052604081205463ffffffff169081614c3c576001600160a01b0383166000908152610171602090815260408083208380529091529020600101614c7f565b6001600160a01b03831660009081526101716020526040812090614c616001856154e1565b63ffffffff1663ffffffff1681526020019081526020016000206001015b90506000614c8c84614ee9565b6001600160a01b03851660009081526101716020908152604080832063ffffffff851684529091528120919250600190910190614cc888611b73565b845490915061040090614cdc908390615628565b1115614cfa5760405162461bcd60e51b8152600401610f1390615a98565b60005b8454811015614d4c576000858281548110614d1a57614d1a615537565b600091825260208083209091015486546001810188558784529190922001555080614d448161563b565b915050614cfd565b5060005b81811015614d9f576001600160a01b0389166000908152610167602090815260408083208484528252822054855460018101875586845291909220015580614d978161563b565b915050614d50565b50614dab856001615a7b565b6001600160a01b038716600090815261017260205260409020805463ffffffff9290921663ffffffff199092169190911790555050505050505050565b60006001600160a01b0384163b15614ede57604051630a85bd0160e11b81526001600160a01b0385169063150b7a0290614e2c903390899088908890600401615b20565b6020604051808303816000875af1925050508015614e67575060408051601f3d908101601f19168201909252614e6491810190615b53565b60015b614ec4573d808015614e95576040519150601f19603f3d011682016040523d82523d6000602084013e614e9a565b606091505b508051600003614ebc5760405162461bcd60e51b8152600401610f13906158e5565b805181602001fd5b6001600160e01b031916630a85bd0160e11b149050611c53565b506001949350505050565b6001600160a01b03811660009081526101726020526040812054429063ffffffff168015801590614f5457506001600160a01b0384166000908152610171602052604081208391614f3b6001856154e1565b63ffffffff168152602081019190915260400160002054145b1561174857611c536001826154e1565b6001600160e01b0319811681146115f957600080fd5b600060208284031215614f8c57600080fd5b813561174881614f64565b80356001600160a01b0381168114614fae57600080fd5b919050565b600060208284031215614fc557600080fd5b61174882614f97565b6000815180845260005b81811015614ff457602081850181015186830182015201614fd8565b506000602082860101526020601f19601f83011685010191505092915050565b6020815260006117486020830184614fce565b6000806040838503121561503a57600080fd5b61504383614f97565b946020939093013593505050565b634e487b7160e01b600052604160045260246000fd5b604051601f8201601f1916810167ffffffffffffffff8111828210171561509057615090615051565b604052919050565b600082601f8301126150a957600080fd5b813567ffffffffffffffff8111156150c3576150c3615051565b6150d6601f8201601f1916602001615067565b8181528460208386010111156150eb57600080fd5b816020850160208301376000918101602001919091529392505050565b60008060006060848603121561511d57600080fd5b833567ffffffffffffffff8082111561513557600080fd5b61514187838801615098565b9450602086013591508082111561515757600080fd5b5061516486828701615098565b92505061517360408501614f97565b90509250925092565b60006020828403121561518e57600080fd5b5035919050565b600080604083850312156151a857600080fd5b50508035926020909101359150565b6000806000606084860312156151cc57600080fd5b6151d584614f97565b92506151e360208501614f97565b9150604084013590509250925092565b6000806040838503121561520657600080fd5b823567ffffffffffffffff8082111561521e57600080fd5b818501915085601f83011261523257600080fd5b813560208282111561524657615246615051565b8160051b9250615257818401615067565b828152928401810192818101908985111561527157600080fd5b948201945b8486101561528f57853582529482019490820190615276565b9997909101359750505050505050565b6000806000606084860312156152b457600080fd5b6152bd84614f97565b925060208401359150604084013567ffffffffffffffff8111156152e057600080fd5b6152ec86828701615098565b9150509250925092565b80151581146115f957600080fd5b6000806040838503121561531757600080fd5b61532083614f97565b91506020830135615330816152f6565b809150509250929050565b6000806000806080858703121561535157600080fd5b61535a85614f97565b935061536860208601614f97565b925060408501359150606085013567ffffffffffffffff81111561538b57600080fd5b61539787828801615098565b91505092959194509250565b60008060008060008060c087890312156153bc57600080fd5b6153c587614f97565b95506020870135945060408701359350606087013560ff811681146153e957600080fd5b9598949750929560808101359460a0909101359350915050565b60008060006060848603121561541857600080fd5b833592506020840135915061517360408501614f97565b6000806040838503121561544257600080fd5b61544b83614f97565b915061545960208401614f97565b90509250929050565b6000806040838503121561547557600080fd5b61547e83614f97565b9150602083013563ffffffff8116811461533057600080fd5b600181811c908216806154ab57607f821691505b602082108103612fc557634e487b7160e01b600052602260045260246000fd5b634e487b7160e01b600052601160045260246000fd5b63ffffffff828116828216039080821115613137576131376154cb565b634e487b7160e01b600052601260045260246000fd5b600063ffffffff8084168061552b5761552b6154fe565b92169190910492915050565b634e487b7160e01b600052603260045260246000fd5b6020808252602d908201527f4552433732313a2063616c6c6572206973206e6f7420746f6b656e206f776e6560408201526c1c881bdc88185c1c1c9bdd9959609a1b606082015260800190565b6020808252600e908201526d1ddc9bdb99c818da185a5b881a5960921b604082015260600190565b634e487b7160e01b600052600160045260246000fd5b602080825260069082015265085d9bdd195960d21b604082015260600190565b81810381811115610e7457610e746154cb565b60006020828403121561561d57600080fd5b8151611748816152f6565b80820180821115610e7457610e746154cb565b60006001820161564d5761564d6154cb565b5060010190565b828152604060208201526000611c536040830184614fce565b602080825260059082015264217a65726f60d81b604082015260600190565b60208082526026908201527f43616e206f6e6c79206c6f636b20756e74696c2074696d6520696e207468652060408201526566757475726560d01b606082015260800190565b6020808252601e908201527f566f74696e67206c6f636b2063616e2062652031207965617273206d61780000604082015260600190565b8082028115828204841417610e7457610e746154cb565b60008261572f5761572f6154fe565b500490565b60208082526024908201527f43616e6e6f742061646420746f2065787069726564206c6f636b2e20576974686040820152636472617760e01b606082015260800190565b6020808252602b908201527f496e697469616c697a61626c653a20636f6e7472616374206973206e6f74206960408201526a6e697469616c697a696e6760a81b606082015260800190565b8181036000831280158383131683831282161715613137576131376154cb565b600082600f0b82600f0b0280600f0b9150808214613137576131376154cb565b600f82810b9082900b0360016001607f1b0319811260016001607f1b0382131715610e7457610e746154cb565b600f81810b9083900b0160016001607f1b03811360016001607f1b031982121715610e7457610e746154cb565b634e487b7160e01b600052602160045260246000fd5b84815260208101849052608081016006841061589f57634e487b7160e01b600052602160045260246000fd5b60408201939093526060015292915050565b600080604083850312156158c457600080fd5b825180600f0b81146158d557600080fd5b6020939093015192949293505050565b60208082526032908201527f4552433732313a207472616e7366657220746f206e6f6e20455243373231526560408201527131b2b4bb32b91034b6b83632b6b2b73a32b960711b606082015260800190565b600081600f0b83600f0b8061594e5761594e6154fe565b60016001607f1b031982146000198214161561596c5761596c6154cb565b90059392505050565b601f8211156112e557600081815260208120601f850160051c8101602086101561599c5750805b601f850160051c820191505b8181101561278f578281556001016159a8565b815167ffffffffffffffff8111156159d5576159d5615051565b6159e9816159e38454615497565b84615975565b602080601f831160018114615a1e5760008415615a065750858301515b600019600386901b1c1916600185901b17855561278f565b600085815260208120601f198616915b82811015615a4d57888601518255948401946001909101908401615a2e565b5085821015615a6b5787850151600019600388901b60f8161c191681555b5050505050600190811b01905550565b63ffffffff818116838216019080821115613137576131376154cb565b60208082526023908201527f64737452657020776f756c64206861766520746f6f206d616e7920746f6b656e60408201526249647360e81b606082015260800190565b60208082526025908201527f4552433732313a207472616e736665722066726f6d20696e636f72726563742060408201526437bbb732b960d91b606082015260800190565b6001600160a01b0385811682528416602082015260408101839052608060608201819052600090611fc390830184614fce565b600060208284031215615b6557600080fd5b815161174881614f6456feddf252ad1be2c89b69c2b068fc378daa952ba7f163c4a11628f55a4df523b3efa164736f6c6343000813000a",
    "linkReferences": {}
  },
  "methodIdentifiers": {
    "ARBITRUM_ONE()": "2168ca0f",
    "DELEGATION_TYPEHASH()": "e7a324dc",
    "DOMAIN_TYPEHASH()": "20606b70",
    "MAX_DELEGATES()": "5f5b0c32",
    "abstain(uint256)": "c1f0fb9f",
    "acceptOwnership()": "79ba5097",
    "addBridge(address)": "9712fdf8",
    "approve(address,uint256)": "095ea7b3",
    "balanceOf(address)": "70a08231",
    "balanceOfAtNFT(uint256,uint256)": "8c2c9baf",
    "balanceOfNFT(uint256)": "e7e242d4",
    "balanceOfNFTAt(uint256,uint256)": "e0514aba",
    "block_number()": "25a58b56",
    "burn(uint256)": "42966c68",
    "checkpoint()": "c2c4c5c1",
    "checkpoints(address,uint32)": "f1127ed8",
    "create_lock(uint256,uint256)": "65fc3873",
    "create_lock_for(uint256,uint256,address)": "d4e54c3b",
    "delegate(address)": "5c19a95c",
    "delegateBySig(address,uint256,uint256,uint8,bytes32,bytes32)": "c3cda520",
    "delegates(address)": "587cde1e",
    "deposit_for(uint256,uint256)": "ee99fe28",
    "epoch()": "900cf0cf",
    "getApproved(uint256)": "081812fc",
    "getPastTotalSupply(uint256)": "8e539e8c",
    "getPastVotes(address,uint256)": "3a46b1a8",
    "getPastVotesIndex(address,uint256)": "0758c7d8",
    "getVotes(address)": "9ab24eb0",
    "get_last_user_slope(uint256)": "461f711c",
    "increase_amount(uint256,uint256)": "a183af52",
    "increase_unlock_time(uint256,uint256)": "a4d855df",
    "initialize(string,string,address)": "077f224a",
    "isApprovedForAll(address,address)": "e985e9c5",
    "isApprovedOrOwner(address,uint256)": "430c2081",
    "locked(uint256)": "b45a3c0e",
    "locked__end(uint256)": "f8a05763",
    "masterChainId()": "10c3cf06",
    "merge(uint256,uint256)": "d1c2babb",
    "mint(address,uint256,bytes)": "94d008ef",
    "name()": "06fdde03",
    "nonces(address)": "7ecebe00",
    "numCheckpoints(address)": "6fcfff45",
    "owner()": "8da5cb5b",
    "ownerOf(uint256)": "6352211e",
    "ownership_change(uint256)": "6f548837",
    "pendingOwner()": "e30c3978",
    "point_history(uint256)": "d1febfb9",
    "removeBridge(address)": "04df017d",
    "renounceOwnership()": "715018a6",
    "safeTransferFrom(address,address,uint256)": "42842e0e",
    "safeTransferFrom(address,address,uint256,bytes)": "b88d4fde",
    "setApprovalForAll(address,bool)": "a22cb465",
    "setTeam(address)": "095cf5c6",
    "setToken(address)": "144fa6d7",
    "setVoter(address)": "4bc2a657",
    "slope_changes(uint256)": "71197484",
    "split(uint256[],uint256)": "56afe744",
    "supply()": "047fc9aa",
    "supportsInterface(bytes4)": "01ffc9a7",
    "symbol()": "95d89b41",
    "team()": "85f2aef2",
    "token()": "fc0c546a",
    "tokenOfOwnerByIndex(address,uint256)": "2f745c59",
    "tokenURI(uint256)": "c87b56dd",
    "totalSupply()": "18160ddd",
    "totalSupplyAt(uint256)": "981b24d0",
    "totalSupplyAtT(uint256)": "7116c60c",
    "transferFrom(address,address,uint256)": "23b872dd",
    "transferOwnership(address)": "f2fde38b",
    "user_point_epoch(uint256)": "e441135c",
    "user_point_history(uint256,uint256)": "1376f3da",
    "user_point_history__ts(uint256,uint256)": "1c984bc3",
    "version()": "54fd4d50",
    "voted(uint256)": "8fbb38ff",
    "voter()": "46c96aac",
    "voting(uint256)": "fd4a77f1",
    "withdraw(uint256)": "2e1a7d4d"
  }
}