{
  "address": "0xe6f08927E283D623B74374304b16C710bB0b6220",
  "abi": [
    {
      "inputs": [],
      "stateMutability": "nonpayable",
      "type": "constructor"
    },
    {
      "inputs": [],
      "name": "XERC721__addBridge_alreadyAdded",
      "type": "error"
    },
    {
      "inputs": [],
      "name": "XERC721__onlyBridge_notBridge",
      "type": "error"
    },
    {
      "inputs": [],
      "name": "XERC721__removeBridge_alreadyRemoved",
      "type": "error"
    },
    {
      "anonymous": false,
      "inputs": [
        {
          "indexed": true,
          "internalType": "address",
          "name": "owner",
          "type": "address"
        },
        {
          "indexed": true,
          "internalType": "address",
          "name": "approved",
          "type": "address"
        },
        {
          "indexed": true,
          "internalType": "uint256",
          "name": "tokenId",
          "type": "uint256"
        }
      ],
      "name": "Approval",
      "type": "event"
    },
    {
      "anonymous": false,
      "inputs": [
        {
          "indexed": true,
          "internalType": "address",
          "name": "owner",
          "type": "address"
        },
        {
          "indexed": true,
          "internalType": "address",
          "name": "operator",
          "type": "address"
        },
        {
          "indexed": false,
          "internalType": "bool",
          "name": "approved",
          "type": "bool"
        }
      ],
      "name": "ApprovalForAll",
      "type": "event"
    },
    {
      "anonymous": false,
      "inputs": [
        {
          "indexed": true,
          "internalType": "address",
          "name": "bridge",
          "type": "address"
        }
      ],
      "name": "BridgeAdded",
      "type": "event"
    },
    {
      "anonymous": false,
      "inputs": [
        {
          "indexed": true,
          "internalType": "address",
          "name": "bridge",
          "type": "address"
        }
      ],
      "name": "BridgeRemoved",
      "type": "event"
    },
    {
      "anonymous": false,
      "inputs": [
        {
          "indexed": false,
          "internalType": "uint256",
          "name": "_tokenId",
          "type": "uint256"
        },
        {
          "indexed": false,
          "internalType": "bytes",
          "name": "_metadata",
          "type": "bytes"
        }
      ],
      "name": "BurnAsBridge",
      "type": "event"
    },
    {
      "anonymous": false,
      "inputs": [
        {
          "indexed": true,
          "internalType": "address",
          "name": "delegator",
          "type": "address"
        },
        {
          "indexed": true,
          "internalType": "address",
          "name": "fromDelegate",
          "type": "address"
        },
        {
          "indexed": true,
          "internalType": "address",
          "name": "toDelegate",
          "type": "address"
        }
      ],
      "name": "DelegateChanged",
      "type": "event"
    },
    {
      "anonymous": false,
      "inputs": [
        {
          "indexed": true,
          "internalType": "address",
          "name": "delegate",
          "type": "address"
        },
        {
          "indexed": false,
          "internalType": "uint256",
          "name": "previousBalance",
          "type": "uint256"
        },
        {
          "indexed": false,
          "internalType": "uint256",
          "name": "newBalance",
          "type": "uint256"
        }
      ],
      "name": "DelegateVotesChanged",
      "type": "event"
    },
    {
      "anonymous": false,
      "inputs": [
        {
          "indexed": true,
          "internalType": "address",
          "name": "provider",
          "type": "address"
        },
        {
          "indexed": false,
          "internalType": "uint256",
          "name": "tokenId",
          "type": "uint256"
        },
        {
          "indexed": false,
          "internalType": "uint256",
          "name": "value",
          "type": "uint256"
        },
        {
          "indexed": true,
          "internalType": "uint256",
          "name": "locktime",
          "type": "uint256"
        },
        {
          "indexed": false,
          "internalType": "enum VoteEscrow.DepositType",
          "name": "deposit_type",
          "type": "uint8"
        },
        {
          "indexed": false,
          "internalType": "uint256",
          "name": "ts",
          "type": "uint256"
        }
      ],
      "name": "Deposit",
      "type": "event"
    },
    {
      "anonymous": false,
      "inputs": [
        {
          "indexed": false,
          "internalType": "uint8",
          "name": "version",
          "type": "uint8"
        }
      ],
      "name": "Initialized",
      "type": "event"
    },
    {
      "anonymous": false,
      "inputs": [
        {
          "indexed": false,
          "internalType": "uint256",
          "name": "_tokenId",
          "type": "uint256"
        },
        {
          "indexed": false,
          "internalType": "bytes",
          "name": "_metadata",
          "type": "bytes"
        }
      ],
      "name": "MintAsBridge",
      "type": "event"
    },
    {
      "anonymous": false,
      "inputs": [
        {
          "indexed": true,
          "internalType": "address",
          "name": "previousOwner",
          "type": "address"
        },
        {
          "indexed": true,
          "internalType": "address",
          "name": "newOwner",
          "type": "address"
        }
      ],
      "name": "OwnershipTransferStarted",
      "type": "event"
    },
    {
      "anonymous": false,
      "inputs": [
        {
          "indexed": true,
          "internalType": "address",
          "name": "previousOwner",
          "type": "address"
        },
        {
          "indexed": true,
          "internalType": "address",
          "name": "newOwner",
          "type": "address"
        }
      ],
      "name": "OwnershipTransferred",
      "type": "event"
    },
    {
      "anonymous": false,
      "inputs": [
        {
          "indexed": false,
          "internalType": "uint256",
          "name": "prevSupply",
          "type": "uint256"
        },
        {
          "indexed": false,
          "internalType": "uint256",
          "name": "supply",
          "type": "uint256"
        }
      ],
      "name": "Supply",
      "type": "event"
    },
    {
      "anonymous": false,
      "inputs": [
        {
          "indexed": true,
          "internalType": "address",
          "name": "from",
          "type": "address"
        },
        {
          "indexed": true,
          "internalType": "address",
          "name": "to",
          "type": "address"
        },
        {
          "indexed": true,
          "internalType": "uint256",
          "name": "tokenId",
          "type": "uint256"
        }
      ],
      "name": "Transfer",
      "type": "event"
    },
    {
      "anonymous": false,
      "inputs": [
        {
          "indexed": true,
          "internalType": "address",
          "name": "provider",
          "type": "address"
        },
        {
          "indexed": false,
          "internalType": "uint256",
          "name": "tokenId",
          "type": "uint256"
        },
        {
          "indexed": false,
          "internalType": "uint256",
          "name": "value",
          "type": "uint256"
        },
        {
          "indexed": false,
          "internalType": "uint256",
          "name": "ts",
          "type": "uint256"
        }
      ],
      "name": "Withdraw",
      "type": "event"
    },
    {
      "inputs": [],
      "name": "ARBITRUM_ONE",
      "outputs": [
        {
          "internalType": "uint128",
          "name": "",
          "type": "uint128"
        }
      ],
      "stateMutability": "view",
      "type": "function"
    },
    {
      "inputs": [],
      "name": "DELEGATION_TYPEHASH",
      "outputs": [
        {
          "internalType": "bytes32",
          "name": "",
          "type": "bytes32"
        }
      ],
      "stateMutability": "view",
      "type": "function"
    },
    {
      "inputs": [],
      "name": "DOMAIN_TYPEHASH",
      "outputs": [
        {
          "internalType": "bytes32",
          "name": "",
          "type": "bytes32"
        }
      ],
      "stateMutability": "view",
      "type": "function"
    },
    {
      "inputs": [],
      "name": "MAX_DELEGATES",
      "outputs": [
        {
          "internalType": "uint256",
          "name": "",
          "type": "uint256"
        }
      ],
      "stateMutability": "view",
      "type": "function"
    },
    {
      "inputs": [
        {
          "internalType": "uint256",
          "name": "_tokenId",
          "type": "uint256"
        }
      ],
      "name": "abstain",
      "outputs": [],
      "stateMutability": "nonpayable",
      "type": "function"
    },
    {
      "inputs": [],
      "name": "acceptOwnership",
      "outputs": [],
      "stateMutability": "nonpayable",
      "type": "function"
    },
    {
      "inputs": [
        {
          "internalType": "address",
          "name": "_bridge",
          "type": "address"
        }
      ],
      "name": "addBridge",
      "outputs": [],
      "stateMutability": "nonpayable",
      "type": "function"
    },
    {
      "inputs": [
        {
          "internalType": "address",
          "name": "to",
          "type": "address"
        },
        {
          "internalType": "uint256",
          "name": "tokenId",
          "type": "uint256"
        }
      ],
      "name": "approve",
      "outputs": [],
      "stateMutability": "nonpayable",
      "type": "function"
    },
    {
      "inputs": [
        {
          "internalType": "address",
          "name": "owner",
          "type": "address"
        }
      ],
      "name": "balanceOf",
      "outputs": [
        {
          "internalType": "uint256",
          "name": "",
          "type": "uint256"
        }
      ],
      "stateMutability": "view",
      "type": "function"
    },
    {
      "inputs": [
        {
          "internalType": "uint256",
          "name": "_tokenId",
          "type": "uint256"
        },
        {
          "internalType": "uint256",
          "name": "_block",
          "type": "uint256"
        }
      ],
      "name": "balanceOfAtNFT",
      "outputs": [
        {
          "internalType": "uint256",
          "name": "",
          "type": "uint256"
        }
      ],
      "stateMutability": "view",
      "type": "function"
    },
    {
      "inputs": [
        {
          "internalType": "uint256",
          "name": "_tokenId",
          "type": "uint256"
        }
      ],
      "name": "balanceOfNFT",
      "outputs": [
        {
          "internalType": "uint256",
          "name": "",
          "type": "uint256"
        }
      ],
      "stateMutability": "view",
      "type": "function"
    },
    {
      "inputs": [
        {
          "internalType": "uint256",
          "name": "_tokenId",
          "type": "uint256"
        },
        {
          "internalType": "uint256",
          "name": "_t",
          "type": "uint256"
        }
      ],
      "name": "balanceOfNFTAt",
      "outputs": [
        {
          "internalType": "uint256",
          "name": "",
          "type": "uint256"
        }
      ],
      "stateMutability": "view",
      "type": "function"
    },
    {
      "inputs": [],
      "name": "block_number",
      "outputs": [
        {
          "internalType": "uint256",
          "name": "",
          "type": "uint256"
        }
      ],
      "stateMutability": "view",
      "type": "function"
    },
    {
      "inputs": [
        {
          "internalType": "uint256",
          "name": "_tokenId",
          "type": "uint256"
        }
      ],
      "name": "burn",
      "outputs": [
        {
          "internalType": "bytes",
          "name": "_metadata",
          "type": "bytes"
        }
      ],
      "stateMutability": "nonpayable",
      "type": "function"
    },
    {
      "inputs": [],
      "name": "checkpoint",
      "outputs": [],
      "stateMutability": "nonpayable",
      "type": "function"
    },
    {
      "inputs": [
        {
          "internalType": "address",
          "name": "",
          "type": "address"
        },
        {
          "internalType": "uint32",
          "name": "",
          "type": "uint32"
        }
      ],
      "name": "checkpoints",
      "outputs": [
        {
          "internalType": "uint256",
          "name": "timestamp",
          "type": "uint256"
        }
      ],
      "stateMutability": "view",
      "type": "function"
    },
    {
      "inputs": [
        {
          "internalType": "uint256",
          "name": "_value",
          "type": "uint256"
        },
        {
          "internalType": "uint256",
          "name": "_lock_duration",
          "type": "uint256"
        }
      ],
      "name": "create_lock",
      "outputs": [
        {
          "internalType": "uint256",
          "name": "",
          "type": "uint256"
        }
      ],
      "stateMutability": "nonpayable",
      "type": "function"
    },
    {
      "inputs": [
        {
          "internalType": "uint256",
          "name": "_value",
          "type": "uint256"
        },
        {
          "internalType": "uint256",
          "name": "_lock_duration",
          "type": "uint256"
        },
        {
          "internalType": "address",
          "name": "_to",
          "type": "address"
        }
      ],
      "name": "create_lock_for",
      "outputs": [
        {
          "internalType": "uint256",
          "name": "",
          "type": "uint256"
        }
      ],
      "stateMutability": "nonpayable",
      "type": "function"
    },
    {
      "inputs": [
        {
          "internalType": "address",
          "name": "delegatee",
          "type": "address"
        }
      ],
      "name": "delegate",
      "outputs": [],
      "stateMutability": "nonpayable",
      "type": "function"
    },
    {
      "inputs": [
        {
          "internalType": "address",
          "name": "delegatee",
          "type": "address"
        },
        {
          "internalType": "uint256",
          "name": "nonce",
          "type": "uint256"
        },
        {
          "internalType": "uint256",
          "name": "expiry",
          "type": "uint256"
        },
        {
          "internalType": "uint8",
          "name": "v",
          "type": "uint8"
        },
        {
          "internalType": "bytes32",
          "name": "r",
          "type": "bytes32"
        },
        {
          "internalType": "bytes32",
          "name": "s",
          "type": "bytes32"
        }
      ],
      "name": "delegateBySig",
      "outputs": [],
      "stateMutability": "nonpayable",
      "type": "function"
    },
    {
      "inputs": [
        {
          "internalType": "address",
          "name": "delegator",
          "type": "address"
        }
      ],
      "name": "delegates",
      "outputs": [
        {
          "internalType": "address",
          "name": "",
          "type": "address"
        }
      ],
      "stateMutability": "view",
      "type": "function"
    },
    {
      "inputs": [
        {
          "internalType": "uint256",
          "name": "_tokenId",
          "type": "uint256"
        },
        {
          "internalType": "uint256",
          "name": "_value",
          "type": "uint256"
        }
      ],
      "name": "deposit_for",
      "outputs": [],
      "stateMutability": "nonpayable",
      "type": "function"
    },
    {
      "inputs": [],
      "name": "epoch",
      "outputs": [
        {
          "internalType": "uint256",
          "name": "",
          "type": "uint256"
        }
      ],
      "stateMutability": "view",
      "type": "function"
    },
    {
      "inputs": [
        {
          "internalType": "uint256",
          "name": "tokenId",
          "type": "uint256"
        }
      ],
      "name": "getApproved",
      "outputs": [
        {
          "internalType": "address",
          "name": "",
          "type": "address"
        }
      ],
      "stateMutability": "view",
      "type": "function"
    },
    {
      "inputs": [
        {
          "internalType": "uint256",
          "name": "timestamp",
          "type": "uint256"
        }
      ],
      "name": "getPastTotalSupply",
      "outputs": [
        {
          "internalType": "uint256",
          "name": "",
          "type": "uint256"
        }
      ],
      "stateMutability": "view",
      "type": "function"
    },
    {
      "inputs": [
        {
          "internalType": "address",
          "name": "account",
          "type": "address"
        },
        {
          "internalType": "uint256",
          "name": "timestamp",
          "type": "uint256"
        }
      ],
      "name": "getPastVotes",
      "outputs": [
        {
          "internalType": "uint256",
          "name": "",
          "type": "uint256"
        }
      ],
      "stateMutability": "view",
      "type": "function"
    },
    {
      "inputs": [
        {
          "internalType": "address",
          "name": "account",
          "type": "address"
        },
        {
          "internalType": "uint256",
          "name": "timestamp",
          "type": "uint256"
        }
      ],
      "name": "getPastVotesIndex",
      "outputs": [
        {
          "internalType": "uint32",
          "name": "",
          "type": "uint32"
        }
      ],
      "stateMutability": "view",
      "type": "function"
    },
    {
      "inputs": [
        {
          "internalType": "address",
          "name": "account",
          "type": "address"
        }
      ],
      "name": "getVotes",
      "outputs": [
        {
          "internalType": "uint256",
          "name": "",
          "type": "uint256"
        }
      ],
      "stateMutability": "view",
      "type": "function"
    },
    {
      "inputs": [
        {
          "internalType": "uint256",
          "name": "_tokenId",
          "type": "uint256"
        }
      ],
      "name": "get_last_user_slope",
      "outputs": [
        {
          "internalType": "int128",
          "name": "",
          "type": "int128"
        }
      ],
      "stateMutability": "view",
      "type": "function"
    },
    {
      "inputs": [
        {
          "internalType": "uint256",
          "name": "_tokenId",
          "type": "uint256"
        },
        {
          "internalType": "uint256",
          "name": "_value",
          "type": "uint256"
        }
      ],
      "name": "increase_amount",
      "outputs": [],
      "stateMutability": "nonpayable",
      "type": "function"
    },
    {
      "inputs": [
        {
          "internalType": "uint256",
          "name": "_tokenId",
          "type": "uint256"
        },
        {
          "internalType": "uint256",
          "name": "_lock_duration",
          "type": "uint256"
        }
      ],
      "name": "increase_unlock_time",
      "outputs": [],
      "stateMutability": "nonpayable",
      "type": "function"
    },
    {
      "inputs": [
        {
          "internalType": "string",
          "name": "name_",
          "type": "string"
        },
        {
          "internalType": "string",
          "name": "symbol_",
          "type": "string"
        },
        {
          "internalType": "address",
          "name": "token_addr",
          "type": "address"
        }
      ],
      "name": "initialize",
      "outputs": [],
      "stateMutability": "nonpayable",
      "type": "function"
    },
    {
      "inputs": [
        {
          "internalType": "address",
          "name": "owner",
          "type": "address"
        },
        {
          "internalType": "address",
          "name": "operator",
          "type": "address"
        }
      ],
      "name": "isApprovedForAll",
      "outputs": [
        {
          "internalType": "bool",
          "name": "",
          "type": "bool"
        }
      ],
      "stateMutability": "view",
      "type": "function"
    },
    {
      "inputs": [
        {
          "internalType": "address",
          "name": "_spender",
          "type": "address"
        },
        {
          "internalType": "uint256",
          "name": "_tokenId",
          "type": "uint256"
        }
      ],
      "name": "isApprovedOrOwner",
      "outputs": [
        {
          "internalType": "bool",
          "name": "",
          "type": "bool"
        }
      ],
      "stateMutability": "view",
      "type": "function"
    },
    {
      "inputs": [
        {
          "internalType": "uint256",
          "name": "",
          "type": "uint256"
        }
      ],
      "name": "locked",
      "outputs": [
        {
          "internalType": "int128",
          "name": "amount",
          "type": "int128"
        },
        {
          "internalType": "uint256",
          "name": "end",
          "type": "uint256"
        }
      ],
      "stateMutability": "view",
      "type": "function"
    },
    {
      "inputs": [
        {
          "internalType": "uint256",
          "name": "_tokenId",
          "type": "uint256"
        }
      ],
      "name": "locked__end",
      "outputs": [
        {
          "internalType": "uint256",
          "name": "",
          "type": "uint256"
        }
      ],
      "stateMutability": "view",
      "type": "function"
    },
    {
      "inputs": [],
      "name": "masterChainId",
      "outputs": [
        {
          "internalType": "uint256",
          "name": "",
          "type": "uint256"
        }
      ],
      "stateMutability": "view",
      "type": "function"
    },
    {
      "inputs": [
        {
          "internalType": "uint256",
          "name": "_from",
          "type": "uint256"
        },
        {
          "internalType": "uint256",
          "name": "_to",
          "type": "uint256"
        }
      ],
      "name": "merge",
      "outputs": [],
      "stateMutability": "nonpayable",
      "type": "function"
    },
    {
      "inputs": [
        {
          "internalType": "address",
          "name": "_to",
          "type": "address"
        },
        {
          "internalType": "uint256",
          "name": "_tokenId",
          "type": "uint256"
        },
        {
          "internalType": "bytes",
          "name": "_metadata",
          "type": "bytes"
        }
      ],
      "name": "mint",
      "outputs": [],
      "stateMutability": "nonpayable",
      "type": "function"
    },
    {
      "inputs": [],
      "name": "name",
      "outputs": [
        {
          "internalType": "string",
          "name": "",
          "type": "string"
        }
      ],
      "stateMutability": "view",
      "type": "function"
    },
    {
      "inputs": [
        {
          "internalType": "address",
          "name": "",
          "type": "address"
        }
      ],
      "name": "nonces",
      "outputs": [
        {
          "internalType": "uint256",
          "name": "",
          "type": "uint256"
        }
      ],
      "stateMutability": "view",
      "type": "function"
    },
    {
      "inputs": [
        {
          "internalType": "address",
          "name": "",
          "type": "address"
        }
      ],
      "name": "numCheckpoints",
      "outputs": [
        {
          "internalType": "uint32",
          "name": "",
          "type": "uint32"
        }
      ],
      "stateMutability": "view",
      "type": "function"
    },
    {
      "inputs": [],
      "name": "owner",
      "outputs": [
        {
          "internalType": "address",
          "name": "",
          "type": "address"
        }
      ],
      "stateMutability": "view",
      "type": "function"
    },
    {
      "inputs": [
        {
          "internalType": "uint256",
          "name": "tokenId",
          "type": "uint256"
        }
      ],
      "name": "ownerOf",
      "outputs": [
        {
          "internalType": "address",
          "name": "",
          "type": "address"
        }
      ],
      "stateMutability": "view",
      "type": "function"
    },
    {
      "inputs": [
        {
          "internalType": "uint256",
          "name": "",
          "type": "uint256"
        }
      ],
      "name": "ownership_change",
      "outputs": [
        {
          "internalType": "uint256",
          "name": "",
          "type": "uint256"
        }
      ],
      "stateMutability": "view",
      "type": "function"
    },
    {
      "inputs": [],
      "name": "pendingOwner",
      "outputs": [
        {
          "internalType": "address",
          "name": "",
          "type": "address"
        }
      ],
      "stateMutability": "view",
      "type": "function"
    },
    {
      "inputs": [
        {
          "internalType": "uint256",
          "name": "",
          "type": "uint256"
        }
      ],
      "name": "point_history",
      "outputs": [
        {
          "internalType": "int128",
          "name": "bias",
          "type": "int128"
        },
        {
          "internalType": "int128",
          "name": "slope",
          "type": "int128"
        },
        {
          "internalType": "uint256",
          "name": "ts",
          "type": "uint256"
        },
        {
          "internalType": "uint256",
          "name": "blk",
          "type": "uint256"
        }
      ],
      "stateMutability": "view",
      "type": "function"
    },
    {
      "inputs": [
        {
          "internalType": "address",
          "name": "_bridge",
          "type": "address"
        }
      ],
      "name": "removeBridge",
      "outputs": [],
      "stateMutability": "nonpayable",
      "type": "function"
    },
    {
      "inputs": [],
      "name": "renounceOwnership",
      "outputs": [],
      "stateMutability": "nonpayable",
      "type": "function"
    },
    {
      "inputs": [
        {
          "internalType": "address",
          "name": "from",
          "type": "address"
        },
        {
          "internalType": "address",
          "name": "to",
          "type": "address"
        },
        {
          "internalType": "uint256",
          "name": "tokenId",
          "type": "uint256"
        }
      ],
      "name": "safeTransferFrom",
      "outputs": [],
      "stateMutability": "nonpayable",
      "type": "function"
    },
    {
      "inputs": [
        {
          "internalType": "address",
          "name": "from",
          "type": "address"
        },
        {
          "internalType": "address",
          "name": "to",
          "type": "address"
        },
        {
          "internalType": "uint256",
          "name": "tokenId",
          "type": "uint256"
        },
        {
          "internalType": "bytes",
          "name": "data",
          "type": "bytes"
        }
      ],
      "name": "safeTransferFrom",
      "outputs": [],
      "stateMutability": "nonpayable",
      "type": "function"
    },
    {
      "inputs": [
        {
          "internalType": "address",
          "name": "operator",
          "type": "address"
        },
        {
          "internalType": "bool",
          "name": "approved",
          "type": "bool"
        }
      ],
      "name": "setApprovalForAll",
      "outputs": [],
      "stateMutability": "nonpayable",
      "type": "function"
    },
    {
      "inputs": [
        {
          "internalType": "address",
          "name": "_team",
          "type": "address"
        }
      ],
      "name": "setTeam",
      "outputs": [],
      "stateMutability": "nonpayable",
      "type": "function"
    },
    {
      "inputs": [
        {
          "internalType": "address",
          "name": "_token",
          "type": "address"
        }
      ],
      "name": "setToken",
      "outputs": [],
      "stateMutability": "nonpayable",
      "type": "function"
    },
    {
      "inputs": [
        {
          "internalType": "address",
          "name": "_voter",
          "type": "address"
        }
      ],
      "name": "setVoter",
      "outputs": [],
      "stateMutability": "nonpayable",
      "type": "function"
    },
    {
      "inputs": [
        {
          "internalType": "uint256",
          "name": "",
          "type": "uint256"
        }
      ],
      "name": "slope_changes",
      "outputs": [
        {
          "internalType": "int128",
          "name": "",
          "type": "int128"
        }
      ],
      "stateMutability": "view",
      "type": "function"
    },
    {
      "inputs": [
        {
          "internalType": "uint256[]",
          "name": "amounts",
          "type": "uint256[]"
        },
        {
          "internalType": "uint256",
          "name": "_tokenId",
          "type": "uint256"
        }
      ],
      "name": "split",
      "outputs": [],
      "stateMutability": "nonpayable",
      "type": "function"
    },
    {
      "inputs": [],
      "name": "supply",
      "outputs": [
        {
          "internalType": "uint256",
          "name": "",
          "type": "uint256"
        }
      ],
      "stateMutability": "view",
      "type": "function"
    },
    {
      "inputs": [
        {
          "internalType": "bytes4",
          "name": "_interfaceID",
          "type": "bytes4"
        }
      ],
      "name": "supportsInterface",
      "outputs": [
        {
          "internalType": "bool",
          "name": "",
          "type": "bool"
        }
      ],
      "stateMutability": "view",
      "type": "function"
    },
    {
      "inputs": [],
      "name": "symbol",
      "outputs": [
        {
          "internalType": "string",
          "name": "",
          "type": "string"
        }
      ],
      "stateMutability": "view",
      "type": "function"
    },
    {
      "inputs": [],
      "name": "team",
      "outputs": [
        {
          "internalType": "address",
          "name": "",
          "type": "address"
        }
      ],
      "stateMutability": "view",
      "type": "function"
    },
    {
      "inputs": [],
      "name": "token",
      "outputs": [
        {
          "internalType": "address",
          "name": "",
          "type": "address"
        }
      ],
      "stateMutability": "view",
      "type": "function"
    },
    {
      "inputs": [
        {
          "internalType": "address",
          "name": "_owner",
          "type": "address"
        },
        {
          "internalType": "uint256",
          "name": "_tokenIndex",
          "type": "uint256"
        }
      ],
      "name": "tokenOfOwnerByIndex",
      "outputs": [
        {
          "internalType": "uint256",
          "name": "",
          "type": "uint256"
        }
      ],
      "stateMutability": "view",
      "type": "function"
    },
    {
      "inputs": [
        {
          "internalType": "uint256",
          "name": "_tokenId",
          "type": "uint256"
        }
      ],
      "name": "tokenURI",
      "outputs": [
        {
          "internalType": "string",
          "name": "",
          "type": "string"
        }
      ],
      "stateMutability": "view",
      "type": "function"
    },
    {
      "inputs": [],
      "name": "totalSupply",
      "outputs": [
        {
          "internalType": "uint256",
          "name": "",
          "type": "uint256"
        }
      ],
      "stateMutability": "view",
      "type": "function"
    },
    {
      "inputs": [
        {
          "internalType": "uint256",
          "name": "_block",
          "type": "uint256"
        }
      ],
      "name": "totalSupplyAt",
      "outputs": [
        {
          "internalType": "uint256",
          "name": "",
          "type": "uint256"
        }
      ],
      "stateMutability": "view",
      "type": "function"
    },
    {
      "inputs": [
        {
          "internalType": "uint256",
          "name": "t",
          "type": "uint256"
        }
      ],
      "name": "totalSupplyAtT",
      "outputs": [
        {
          "internalType": "uint256",
          "name": "",
          "type": "uint256"
        }
      ],
      "stateMutability": "view",
      "type": "function"
    },
    {
      "inputs": [
        {
          "internalType": "address",
          "name": "from",
          "type": "address"
        },
        {
          "internalType": "address",
          "name": "to",
          "type": "address"
        },
        {
          "internalType": "uint256",
          "name": "tokenId",
          "type": "uint256"
        }
      ],
      "name": "transferFrom",
      "outputs": [],
      "stateMutability": "nonpayable",
      "type": "function"
    },
    {
      "inputs": [
        {
          "internalType": "address",
          "name": "newOwner",
          "type": "address"
        }
      ],
      "name": "transferOwnership",
      "outputs": [],
      "stateMutability": "nonpayable",
      "type": "function"
    },
    {
      "inputs": [
        {
          "internalType": "uint256",
          "name": "",
          "type": "uint256"
        }
      ],
      "name": "user_point_epoch",
      "outputs": [
        {
          "internalType": "uint256",
          "name": "",
          "type": "uint256"
        }
      ],
      "stateMutability": "view",
      "type": "function"
    },
    {
      "inputs": [
        {
          "internalType": "uint256",
          "name": "",
          "type": "uint256"
        },
        {
          "internalType": "uint256",
          "name": "",
          "type": "uint256"
        }
      ],
      "name": "user_point_history",
      "outputs": [
        {
          "internalType": "int128",
          "name": "bias",
          "type": "int128"
        },
        {
          "internalType": "int128",
          "name": "slope",
          "type": "int128"
        },
        {
          "internalType": "uint256",
          "name": "ts",
          "type": "uint256"
        },
        {
          "internalType": "uint256",
          "name": "blk",
          "type": "uint256"
        }
      ],
      "stateMutability": "view",
      "type": "function"
    },
    {
      "inputs": [
        {
          "internalType": "uint256",
          "name": "_tokenId",
          "type": "uint256"
        },
        {
          "internalType": "uint256",
          "name": "_idx",
          "type": "uint256"
        }
      ],
      "name": "user_point_history__ts",
      "outputs": [
        {
          "internalType": "uint256",
          "name": "",
          "type": "uint256"
        }
      ],
      "stateMutability": "view",
      "type": "function"
    },
    {
      "inputs": [],
      "name": "version",
      "outputs": [
        {
          "internalType": "string",
          "name": "",
          "type": "string"
        }
      ],
      "stateMutability": "view",
      "type": "function"
    },
    {
      "inputs": [
        {
          "internalType": "uint256",
          "name": "",
          "type": "uint256"
        }
      ],
      "name": "voted",
      "outputs": [
        {
          "internalType": "bool",
          "name": "",
          "type": "bool"
        }
      ],
      "stateMutability": "view",
      "type": "function"
    },
    {
      "inputs": [],
      "name": "voter",
      "outputs": [
        {
          "internalType": "address",
          "name": "",
          "type": "address"
        }
      ],
      "stateMutability": "view",
      "type": "function"
    },
    {
      "inputs": [
        {
          "internalType": "uint256",
          "name": "_tokenId",
          "type": "uint256"
        }
      ],
      "name": "voting",
      "outputs": [],
      "stateMutability": "nonpayable",
      "type": "function"
    },
    {
      "inputs": [
        {
          "internalType": "uint256",
          "name": "_tokenId",
          "type": "uint256"
        }
      ],
      "name": "withdraw",
      "outputs": [],
      "stateMutability": "nonpayable",
      "type": "function"
    }
  ],
  "transactionHash": "0xbe086c5d367845f2a87f90d03ddda53e42186c77db2dc9c7eeab7d08ad77d8d7",
  "args": [],
  "numDeployments": 5,
  "bytecode": {
    "object": "0x60806040523480156200001157600080fd5b506200001c62000022565b620000e3565b600054610100900460ff16156200008f5760405162461bcd60e51b815260206004820152602760248201527f496e697469616c697a61626c653a20636f6e747261637420697320696e697469604482015266616c697a696e6760c81b606482015260840160405180910390fd5b60005460ff90811614620000e1576000805460ff191660ff9081179091556040519081527f7f26b83ff96e1f2b6a682f133852f6798a09c465da95921460cefb38474024989060200160405180910390a15b565b615b9e80620000f36000396000f3fe608060405234801561001057600080fd5b506004361061045f5760003560e01c8063711974841161024c578063b88d4fde11610146578063e441135c116100c3578063f1127ed811610087578063f1127ed814610b51578063f2fde38b14610b7d578063f8a0576314610b90578063fc0c546a14610bb4578063fd4a77f114610bc857600080fd5b8063e441135c14610aa7578063e7a324dc14610ac8578063e7e242d414610aef578063e985e9c514610b02578063ee99fe2814610b3e57600080fd5b8063d1c2babb1161010a578063d1c2babb14610a1e578063d1febfb914610a31578063d4e54c3b14610a70578063e0514aba14610a83578063e30c397814610a9657600080fd5b8063b88d4fde146109ca578063c1f0fb9f146109dd578063c2c4c5c1146109f0578063c3cda520146109f8578063c87b56dd14610a0b57600080fd5b8063900cf0cf116101d45780639ab24eb0116101985780639ab24eb014610935578063a183af5214610948578063a22cb4651461095b578063a4d855df1461096e578063b45a3c0e1461098157600080fd5b8063900cf0cf146108ea57806394d008ef146108f457806395d89b41146109075780639712fdf81461090f578063981b24d01461092257600080fd5b806385f2aef21161021b57806385f2aef21461087b5780638c2c9baf1461088f5780638da5cb5b146108a25780638e539e8c146108b35780638fbb38ff146108c657600080fd5b80637119748414610826578063715018a61461084a57806379ba5097146108525780637ecebe001461085a57600080fd5b80632f745c591161035d57806356afe744116102e557806365fc3873116102a957806365fc3873146107a55780636f548837146107b85780636fcfff45146107d957806370a08231146108005780637116c60c1461081357600080fd5b806356afe74414610750578063587cde1e146107635780635c19a95c146107765780635f5b0c32146107895780636352211e1461079257600080fd5b8063430c20811161032c578063430c2081146106cc578063461f711c146106df57806346c96aac146107055780634bc2a6571461071957806354fd4d501461072c57600080fd5b80632f745c591461065c5780633a46b1a81461069357806342842e0e146106a657806342966c68146106b957600080fd5b806310c3cf06116103eb57806320606b70116103af57806320606b70146105e85780632168ca0f1461060f57806323b872dd1461063057806325a58b56146106435780632e1a7d4d1461064957600080fd5b806310c3cf06146105755780631376f3da1461057f578063144fa6d7146105ba57806318160ddd146105cd5780631c984bc3146105d557600080fd5b80630758c7d8116104325780630758c7d8146104e9578063077f224a14610511578063081812fc14610524578063095cf5c61461054f578063095ea7b31461056257600080fd5b806301ffc9a714610464578063047fc9aa146104a757806304df017d146104bf57806306fdde03146104d4575b600080fd5b610492610472366004614f7b565b6001600160e01b0319166000908152610163602052604090205460ff1690565b60405190151581526020015b60405180910390f35b6104b161016e5481565b60405190815260200161049e565b6104d26104cd366004614fb4565b610bdb565b005b6104dc610c71565b60405161049e9190615015565b6104fc6104f7366004615028565b610d03565b60405163ffffffff909116815260200161049e565b6104d261051f366004615109565b610e7a565b61053761053236600461517d565b611148565b6040516001600160a01b03909116815260200161049e565b6104d261055d366004614fb4565b61116f565b6104d2610570366004615028565b6111d6565b6104b16101655481565b61059261058d366004615196565b6112eb565b60408051600f95860b81529390940b602084015292820152606081019190915260800161049e565b6104d26105c8366004614fb4565b611333565b6104b161135e565b6104b16105e3366004615196565b61136e565b6104b17f8cad95687ba82c2ce50e74f7b754645e5117c3a5bec8151c0726d5857980a86681565b61061861a4b181565b6040516001600160801b03909116815260200161049e565b6104d261063e3660046151b8565b6113a1565b436104b1565b6104d261065736600461517d565b6113d2565b6104b161066a366004615028565b6001600160a01b0391909116600090815261016760209081526040808320938352929052205490565b6104b16106a1366004615028565b6115fd565b6104d26106b43660046151b8565b61169d565b6104dc6106c736600461517d565b6116b8565b6104926106da366004615028565b61173d565b6106f26106ed36600461517d565b611750565b604051600f9190910b815260200161049e565b61016054610537906001600160a01b031681565b6104d2610727366004614fb4565b611795565b6104dc604051806040016040528060058152602001640312e302e360dc1b81525081565b6104d261075e3660046151f4565b6117fb565b610537610771366004614fb4565b611aa6565b6104d2610784366004614fb4565b611ad7565b6104b161040081565b6105376107a036600461517d565b611af2565b6104b16107b3366004615196565b611b52565b6104b16107c636600461517d565b6101666020526000908152604090205481565b6104fc6107e7366004614fb4565b6101726020526000908152604090205463ffffffff1681565b6104b161080e366004614fb4565b611b74565b6104b161082136600461517d565b611bfa565b6106f261083436600461517d565b61016d60205260009081526040902054600f0b81565b6104d2611c5c565b6104d2611c70565b6104b1610868366004614fb4565b6101736020526000908152604090205481565b61016154610537906001600160a01b031681565b6104b161089d366004615196565b611ce7565b6097546001600160a01b0316610537565b6104b16108c136600461517d565b611cf3565b6104926108d436600461517d565b61016f6020526000908152604090205460ff1681565b6104b161016c5481565b6104d26109023660046152a0565b611cfe565b6104dc611d80565b6104d261091d366004614fb4565b611d8f565b6104b161093036600461517d565b611e29565b6104b1610943366004614fb4565b611fce565b6104d2610956366004615196565b6120a3565b6104d2610969366004615305565b61218a565b6104d261097c366004615196565b612195565b6109b061098f36600461517d565b61016b6020526000908152604090208054600190910154600f9190910b9082565b60408051600f9390930b835260208301919091520161049e565b6104d26109d836600461533c565b61232e565b6104d26109eb36600461517d565b612360565b6104d26123bd565b6104d2610a063660046153a4565b6123fb565b6104dc610a1936600461517d565b612798565b6104d2610a2c366004615196565b61282e565b610592610a3f36600461517d565b61016260205260009081526040902080546001820154600290920154600f82810b93600160801b909304900b919084565b6104b1610a7e366004615404565b6129d1565b6104b1610a91366004615196565b6129f3565b60c9546001600160a01b0316610537565b6104b1610ab536600461517d565b6101696020526000908152604090205481565b6104b17fe48329057bfd03d55e49b547132e39cffd9c1820ad7b9d4c5307691425d15adf81565b6104b1610afd36600461517d565b6129ff565b610492610b10366004615430565b6001600160a01b039182166000908152606a6020908152604080832093909416825291909152205460ff1690565b6104d2610b4c366004615196565b612a28565b6104b1610b5f366004615463565b61017160209081526000928352604080842090915290825290205481565b6104d2610b8b366004614fb4565b612af9565b6104b1610b9e36600461517d565b600090815261016b602052604090206001015490565b61015f54610537906001600160a01b031681565b6104d2610bd636600461517d565b612b6a565b610be3612bca565b6001600160a01b038116600090815260fb602052604090205460ff16610c1c57604051632655e85f60e01b815260040160405180910390fd5b6040516001600160a01b038216907f5d9d5034656cb3ebfb0655057cd7f9b4077a9b42ff42ce223cbac5bc586d212690600090a26001600160a01b0316600090815260fb60205260409020805460ff19169055565b606060658054610c8090615498565b80601f0160208091040260200160405190810160405280929190818152602001828054610cac90615498565b8015610cf95780601f10610cce57610100808354040283529160200191610cf9565b820191906000526020600020905b815481529060010190602001808311610cdc57829003601f168201915b5050505050905090565b6001600160a01b0382166000908152610172602052604081205463ffffffff16808203610d34576000915050610e74565b6001600160a01b0384166000908152610171602052604081208491610d5a6001856154e2565b63ffffffff16815260208101919091526040016000205411610d8957610d816001826154e2565b915050610e74565b6001600160a01b038416600090815261017160209081526040808320838052909152902054831015610dbf576000915050610e74565b600080610dcd6001846154e2565b90505b8163ffffffff168163ffffffff161115610e6f5760006002610df284846154e2565b610dfc9190615515565b610e0690836154e2565b6001600160a01b03881660009081526101716020908152604080832063ffffffff851684529091529020805491925090879003610e4957509350610e7492505050565b8054871115610e5a57819350610e68565b610e656001836154e2565b92505b5050610dd0565b509150505b92915050565b600054610100900460ff1615808015610e9a5750600054600160ff909116105b80610eb45750303b158015610eb4575060005460ff166001145b610f1c5760405162461bcd60e51b815260206004820152602e60248201527f496e697469616c697a61626c653a20636f6e747261637420697320616c72656160448201526d191e481a5b9a5d1a585b1a5e995960921b60648201526084015b60405180910390fd5b6000805460ff191660011790558015610f3f576000805461ff0019166101001790555b610f47612c24565b610f4f612c53565b610f57612c53565b610f618484612c82565b610f69612cb3565b610f7233612ce2565b61a4b1610165556001600160a01b038216610fa95760405162461bcd60e51b81526020600482015260006024820152604401610f13565b61015f80546001600160a01b0384166001600160a01b03199182161790915561016080548216339081179091556101618054909216179055437fd3963e8e1761c638694d3c60d54f123240f3fe953a68debc0fa797faeeb01d1155427fd3963e8e1761c638694d3c60d54f123240f3fe953a68debc0fa797faeeb01d10556101636020527fa8bef1461af97ffd75cfbc1c7627e40a5952107159e2d161b830af3c415a5971805460ff1990811660019081179092557f9c2286954f65a97095a628a27b8932da4542255331e66eaa5eb37db1fb5a9b038054821683179055635b5e139f60e01b60009081527fc5a25afa8aabe00a5261aa4d8aa3186ef1a373a7ca51f1fc2e467b9a5b593700805490921690921790556101645460405190913091600080516020615b72833981519152908290a4610164546040516000903090600080516020615b72833981519152908390a48015611142576000805461ff0019169055604051600181527f7f26b83ff96e1f2b6a682f133852f6798a09c465da95921460cefb38474024989060200160405180910390a15b50505050565b600061115382612cfb565b506000908152606960205260409020546001600160a01b031690565b610161546001600160a01b031633146111b35760405162461bcd60e51b8152602060048201526006602482015265010ba32b0b6960d51b6044820152606401610f13565b61016180546001600160a01b0319166001600160a01b0392909216919091179055565b60006111e182611af2565b9050806001600160a01b0316836001600160a01b03160361124e5760405162461bcd60e51b815260206004820152602160248201527f4552433732313a20617070726f76616c20746f2063757272656e74206f776e656044820152603960f91b6064820152608401610f13565b336001600160a01b038216148061126a575061126a8133610b10565b6112dc5760405162461bcd60e51b815260206004820152603d60248201527f4552433732313a20617070726f76652063616c6c6572206973206e6f7420746f60448201527f6b656e206f776e6572206f7220617070726f76656420666f7220616c6c0000006064820152608401610f13565b6112e68383612d5a565b505050565b61016a60205281600052604060002081633b9aca00811061130b57600080fd5b6003020180546001820154600290920154600f82810b9550600160801b90920490910b925084565b61133b612bca565b61015f80546001600160a01b0319166001600160a01b0392909216919091179055565b600061136942611bfa565b905090565b600082815261016a6020526040812082633b9aca00811061139157611391615538565b6003020160010154905092915050565b6113ab3382612dc8565b6113c75760405162461bcd60e51b8152600401610f139061554e565b6112e6838383612e46565b6113da612ec6565b6101655446146113fc5760405162461bcd60e51b8152600401610f139061559b565b6114063382612dc8565b611412576114126155c3565b600081815261016f602052604090205460ff16156114425760405162461bcd60e51b8152600401610f13906155d9565b600081815261016b602090815260409182902082518084019093528054600f0b8352600101549082018190524210156114b65760405162461bcd60e51b8152602060048201526016602482015275546865206c6f636b206469646e27742065787069726560501b6044820152606401610f13565b805161016e54600f9190910b906114cd82826155f9565b61016e556114da84612f21565b506114e484612fcc565b61015f5460405163a9059cbb60e01b8152336004820152602481018490526001600160a01b039091169063a9059cbb906044016020604051808303816000875af1158015611536573d6000803e3d6000fd5b505050506040513d601f19601f8201168201806040525081019061155a919061560c565b611566576115666155c3565b60408051858152602081018490524281830152905133917f02f25270a4d87bea75db541cdfe559334a275b4a233520ed6c0a2429667cca94919081900360600190a27f5e2aa66efd74cce82b21852e317e5490d9ecc9e6bb953ae24d90851258cc2f5c816115d484826155f9565b6040805192835260208301919091520160405180910390a15050506115fa600161012d55565b50565b60008061160a8484610d03565b6001600160a01b03851660009081526101716020908152604080832063ffffffff851684529091528120919250600190910190805b825481101561169357600083828154811061165c5761165c615538565b906000526020600020015490506116738188613062565b61167d9084615629565b925050808061168b9061563c565b91505061163f565b5095945050505050565b6112e68383836040518060200160405280600081525061232e565b33600090815260fb602052604090205460609060ff166116eb576040516378f18ee960e11b815260040160405180910390fd5b6116f482612f21565b90506116ff82612fcc565b7f5747a69bb6c2c54b5c628298d364a5cc5066b4db09369ad6a2cfca362f0a023f8282604051611730929190615655565b60405180910390a1919050565b60006117498383612dc8565b9392505050565b6000818152610169602090815260408083205461016a909252822081633b9aca00811061177f5761177f615538565b6003020154600160801b9004600f0b9392505050565b610161546001600160a01b031633146117d85760405162461bcd60e51b8152602060048201526005602482015264217465616d60d81b6044820152606401610f13565b61016080546001600160a01b0319166001600160a01b0392909216919091179055565b60008251116118455760405162461bcd60e51b81526020600482015260166024820152751e995c9bc81b195b88185b5bdd5b9d1cc81a5b9c1d5d60521b6044820152606401610f13565b600081815261016f602052604090205460ff16156118755760405162461bcd60e51b8152600401610f13906155d9565b61187f3382612dc8565b6118cb5760405162461bcd60e51b815260206004820152601960248201527f2173656e64657220617070726f766564206f72206f776e6572000000000000006044820152606401610f13565b60008181526067602090815260408083205461016b83529281902081518083019092528054600f0b8083526001909101549282018390526001600160a01b03909316929091908061192e5760405162461bcd60e51b8152600401610f139061566e565b8061016e5461193d91906155f9565b61016e556000805b87518210156119875787828151811061196057611960615538565b6020026020010151816119739190615629565b90508161197f8161563c565b925050611945565b61199087612f21565b5061199a87612fcc565b834281116119ba5760405162461bcd60e51b8152600401610f139061568d565b6119c86301dfe20042615629565b8111156119e75760405162461bcd60e51b8152600401610f13906156d3565b60008093505b8951841015611a9a5761016460008154611a069061563c565b90915550610164549850611a1a888a61313f565b828a8581518110611a2d57611a2d615538565b602002602001015186611a40919061570a565b611a4a9190615721565b60008a815261016b602090815260409182902082518084019093528054600f0b83526001015490820152909150611a88908a90839085906005613177565b83611a928161563c565b9450506119ed565b50505050505050505050565b6001600160a01b03808216600090815261017060205260408120549091168015611ad05780611749565b5090919050565b6001600160a01b038116611ae85750335b6115fa33826133a4565b6000818152606760205260408120546001600160a01b031680610e745760405162461bcd60e51b8152602060048201526018602482015277115490cdcc8c4e881a5b9d985b1a59081d1bdad95b88125160421b6044820152606401610f13565b6000611b5c612ec6565b611b6783833361343a565b9050610e74600161012d55565b60006001600160a01b038216611bde5760405162461bcd60e51b815260206004820152602960248201527f4552433732313a2061646472657373207a65726f206973206e6f7420612076616044820152683634b21037bbb732b960b91b6064820152608401610f13565b506001600160a01b031660009081526068602052604090205490565b61016c5460008181526101626020908152604080832081516080810183528154600f81810b8352600160801b909104900b93810193909352600181015491830191909152600201546060820152909190611c548185613537565b949350505050565b611c64612bca565b611c6e6000612ce2565b565b60c95433906001600160a01b03168114611cde5760405162461bcd60e51b815260206004820152602960248201527f4f776e61626c6532537465703a2063616c6c6572206973206e6f7420746865206044820152683732bb9037bbb732b960b91b6064820152608401610f13565b6115fa81612ce2565b60006117498383613639565b6000610e7482611bfa565b33600090815260fb602052604090205460ff16611d2e576040516378f18ee960e11b815260040160405180910390fd5b611d38838361313f565b611d428282613918565b7fc8ffd8a5cadf5f377038eb6cb621455f9673dc07f502ac1580838d85f2df001a8282604051611d73929190615655565b60405180910390a1505050565b606060668054610c8090615498565b611d97612bca565b6001600160a01b038116600090815260fb602052604090205460ff1615611dd15760405163f74c45bf60e01b815260040160405180910390fd5b6040516001600160a01b038216907f3cda433c5679ae4c6a5dea50840e222a42cba3695e4663de4366be899348422190600090a26001600160a01b0316600090815260fb60205260409020805460ff19166001179055565b600043821115611e3b57611e3b6155c3565b61016c546000611e4b848361399b565b60008181526101626020908152604080832081516080810183528154600f81810b8352600160801b909104900b9381019390935260018101549183019190915260020154606082015291925083831015611f5c57600061016281611eb0866001615629565b8152602080820192909252604090810160002081516080810183528154600f81810b8352600160801b909104900b9381019390935260018101549183019190915260020154606080830182905285015191925014611f565782606001518160600151611f1c91906155f9565b83604001518260400151611f3091906155f9565b6060850151611f3f908a6155f9565b611f49919061570a565b611f539190615721565b91505b50611fab565b43826060015114611fab576060820151611f7690436155f9565b6040830151611f8590426155f9565b6060840151611f9490896155f9565b611f9e919061570a565b611fa89190615721565b90505b611fc482828460400151611fbf9190615629565b613537565b9695505050505050565b6001600160a01b0381166000908152610172602052604081205463ffffffff16808203611ffe5750600092915050565b6001600160a01b038316600090815261017160205260408120816120236001856154e2565b63ffffffff1663ffffffff16815260200190815260200160002060010190506000805b825481101561209a57600083828154811061206357612063615538565b9060005260206000200154905061207a8142613062565b6120849084615629565b92505080806120929061563c565b915050612046565b50949350505050565b6120ab612ec6565b6120b53383612dc8565b6120c1576120c16155c3565b600082815261016b602090815260409182902082518084019093528054600f0b83526001015490820152816120f8576120f86155c3565b60008160000151600f0b136121485760405162461bcd60e51b8152602060048201526016602482015275139bc8195e1a5cdd1a5b99c81b1bd8dac8199bdd5b9960521b6044820152606401610f13565b4281602001511161216b5760405162461bcd60e51b8152600401610f1390615735565b61217a83836000846002613177565b50612186600161012d55565b5050565b612186338383613a22565b61219d612ec6565b6121a73383612dc8565b6121b3576121b36155c3565b600082815261016b6020908152604080832081518083019092528054600f0b825260010154918101919091529062127500806121ef8542615629565b6121f99190615721565b612203919061570a565b9050428260200151116122475760405162461bcd60e51b815260206004820152600c60248201526b131bd8dac8195e1c1a5c995960a21b6044820152606401610f13565b60008260000151600f0b136122925760405162461bcd60e51b8152602060048201526011602482015270139bdd1a1a5b99c81a5cc81b1bd8dad959607a1b6044820152606401610f13565b816020015181116122e55760405162461bcd60e51b815260206004820152601f60248201527f43616e206f6e6c7920696e637265617365206c6f636b206475726174696f6e006044820152606401610f13565b6122f36301dfe20042615629565b8111156123125760405162461bcd60e51b8152600401610f13906156d3565b61232184600083856003613177565b5050612186600161012d55565b6123383383612dc8565b6123545760405162461bcd60e51b8152600401610f139061554e565b61114284848484613af0565b610160546001600160a01b031633146123a45760405162461bcd60e51b815260206004820152600660248201526510bb37ba32b960d11b6044820152606401610f13565b600090815261016f60205260409020805460ff19169055565b611c6e600060405180604001604052806000600f0b8152602001600081525060405180604001604052806000600f0b81526020016000815250613b23565b336001600160a01b0387160361243d5760405162461bcd60e51b815260206004820152600760248201526610b9b2b73232b960c91b6044820152606401610f13565b6001600160a01b0386166124805760405162461bcd60e51b815260206004820152600a60248201526910bd32b9379030b2323960b11b6044820152606401610f13565b60007f8cad95687ba82c2ce50e74f7b754645e5117c3a5bec8151c0726d5857980a8666124ab610c71565b805160209182012060408051808201825260058152640312e302e360dc1b90840152805180840194909452838101919091527f06c015bd22b4c69690933c1058878ebdfef31f9aaae40bbe86d8a09fe1b2972c60608401524660808401523060a0808501919091528151808503909101815260c0840182528051908301207fe48329057bfd03d55e49b547132e39cffd9c1820ad7b9d4c5307691425d15adf60e08501526001600160a01b038b1661010085015261012084018a90526101408085018a90528251808603909101815261016085019092528151919092012061190160f01b61018084015261018283018290526101a28301819052909250906000906101c20160408051601f198184030181528282528051602091820120600080855291840180845281905260ff8a169284019290925260608301889052608083018790529092509060019060a0016020604051602081039080840390855afa15801561261b573d6000803e3d6000fd5b5050604051601f1901519150506001600160a01b0381166126955760405162461bcd60e51b815260206004820152602e60248201527f566f74696e67457363726f773a3a64656c656761746542795369673a20696e7660448201526d616c6964207369676e617475726560901b6064820152608401610f13565b6001600160a01b0381166000908152610173602052604081208054916126ba8361563c565b91905055891461271f5760405162461bcd60e51b815260206004820152602a60248201527f566f74696e67457363726f773a3a64656c656761746542795369673a20696e76604482015269616c6964206e6f6e636560b01b6064820152608401610f13565b874211156127865760405162461bcd60e51b815260206004820152602e60248201527f566f74696e67457363726f773a3a64656c656761746542795369673a2073696760448201526d1b985d1d5c9948195e1c1a5c995960921b6064820152608401610f13565b611a9a818b6133a4565b505050505050565b6000818152606760205260409020546060906001600160a01b03166127ff5760405162461bcd60e51b815260206004820152601b60248201527f517565727920666f72206e6f6e6578697374656e7420746f6b656e00000000006044820152606401610f13565b600091825261016b602090815260409283902083518085019094528054600f0b84526001015492019190915290565b600082815261016f602052604090205460ff161561285e5760405162461bcd60e51b8152600401610f13906155d9565b8082036128995760405162461bcd60e51b81526020600482015260096024820152682166726f6d3d3d746f60b81b6044820152606401610f13565b6128a33383612dc8565b6128ef5760405162461bcd60e51b815260206004820152601760248201527f2166726f6d20617070726f766564206f72206f776e65720000000000000000006044820152606401610f13565b6128f93382612dc8565b61293d5760405162461bcd60e51b815260206004820152601560248201527410ba379030b8383937bb32b21037b91037bbb732b960591b6044820152606401610f13565b600082815261016b60208181526040808420815180830183528154600f90810b825260019283015482860190815288885295855283872084518086019095528054820b855290920154938301849052805194519095929490910b9211156129a85782602001516129ae565b83602001515b90506129b986612f21565b506129c386612fcc565b612790858383866004613177565b60006129db612ec6565b6129e684848461343a565b9050611749600161012d55565b60006117498383613062565b60008181526101666020526040812054439003612a1e57506000919050565b610e748242613062565b612a30612ec6565b600082815261016b602090815260409182902082518084019093528054600f0b8352600101549082015281612a775760405162461bcd60e51b8152600401610f139061566e565b60008160000151600f0b13612ac75760405162461bcd60e51b8152602060048201526016602482015275139bc8195e1a5cdd1a5b99c81b1bd8dac8199bdd5b9960521b6044820152606401610f13565b42816020015111612aea5760405162461bcd60e51b8152600401610f1390615735565b61217a83836000846000613177565b612b01612bca565b60c980546001600160a01b0383166001600160a01b03199091168117909155612b326097546001600160a01b031690565b6001600160a01b03167f38d16b8cac22d99fc7c124b9cd0de2d3fa1faef420bfe791d8c362d765e2270060405160405180910390a350565b610160546001600160a01b03163314612bae5760405162461bcd60e51b815260206004820152600660248201526510bb37ba32b960d11b6044820152606401610f13565b600090815261016f60205260409020805460ff19166001179055565b6097546001600160a01b03163314611c6e5760405162461bcd60e51b815260206004820181905260248201527f4f776e61626c653a2063616c6c6572206973206e6f7420746865206f776e65726044820152606401610f13565b600054610100900460ff16612c4b5760405162461bcd60e51b8152600401610f1390615779565b611c6e61414c565b600054610100900460ff16612c7a5760405162461bcd60e51b8152600401610f1390615779565b611c6e614173565b600054610100900460ff16612ca95760405162461bcd60e51b8152600401610f1390615779565b61218682826141a3565b600054610100900460ff16612cda5760405162461bcd60e51b8152600401610f1390615779565b611c6e6141e3565b60c980546001600160a01b03191690556115fa8161420a565b6000818152606760205260409020546001600160a01b03166115fa5760405162461bcd60e51b8152602060048201526018602482015277115490cdcc8c4e881a5b9d985b1a59081d1bdad95b88125160421b6044820152606401610f13565b600081815260696020526040902080546001600160a01b0319166001600160a01b0384169081179091558190612d8f82611af2565b6001600160a01b03167f8c5be1e5ebec7d5bd14f71427d1e84f3dd0314c0f7b2291e5b200ac8c7c3b92560405160405180910390a45050565b600080612dd483611af2565b9050806001600160a01b0316846001600160a01b03161480612e1b57506001600160a01b038082166000908152606a602090815260408083209388168352929052205460ff165b80611c545750836001600160a01b0316612e3484611148565b6001600160a01b031614949350505050565b600081815261016f602052604090205460ff1615612e765760405162461bcd60e51b8152600401610f13906155d9565b612e80838261425c565b612e9b612e8c84611aa6565b612e9584611aa6565b83614312565b612ea5828261467e565b612eb08383836146c4565b6000908152610166602052604090204390555050565b600261012d5403612f195760405162461bcd60e51b815260206004820152601f60248201527f5265656e7472616e637947756172643a207265656e7472616e742063616c6c006044820152606401610f13565b600261012d55565b600081815261016b6020818152604080842080546001820180548451600f84900b81880181905281870183905286518083038801815260a08301885260608301918252608090920192909252855180870187528981528088018a81528b8b52988852516001600160801b03166001600160801b03199094169390931790935594519094558151808301909252848252918101939093529091612fc69084908390613b23565b50919050565b612fd63382612dc8565b61301b5760405162461bcd60e51b81526020600482015260166024820152751b9bdd081bdddb995c881b9bdc88185c1c1c9bdd995960521b6044820152606401610f13565b600061302682611af2565b90506130336000836111d6565b61304761303f82611aa6565b600084614312565b613051818361425c565b61218682614816565b600161012d55565b60008281526101696020526040812054808203613083576000915050610e74565b600084815261016a6020526040812082633b9aca0081106130a6576130a6615538565b60408051608081018252600392909202929092018054600f81810b8452600160801b909104900b6020830152600181015492820183905260020154606082015291506130f290856157c4565b816020015161310191906157e4565b81518290613110908390615804565b600f90810b90915282516000910b1215905061312b57600081525b51600f0b9150610e749050565b5092915050565b6001600160a01b038216613155576131556155c3565b6131636000612e9584611aa6565b61316d828261467e565b6121868282614899565b6101655446146131995760405162461bcd60e51b8152600401610f139061559b565b61016e5482906131a98682615629565b61016e556040805180820190915260008082526020820152825160208085015190830152600f0b81528251879084906131e3908390615831565b600f0b90525085156131f757602083018690525b600088815261016b60209081526040909120845181546001600160801b0319166001600160801b039091161781559084015160019091015561323a888285613b23565b33871580159061325c575060048560058111156132595761325961585e565b14155b801561327a575060058560058111156132775761327761585e565b14155b156133095761015f546040516323b872dd60e01b81526001600160a01b038381166004830152306024830152604482018b9052909116906323b872dd906064016020604051808303816000875af11580156132d9573d6000803e3d6000fd5b505050506040513d601f19601f820116820180604052508101906132fd919061560c565b613309576133096155c3565b8360200151816001600160a01b03167fff04ccafc360e16b67d682d17bd9503c4c6b9a131f6be6325762dc9ffc7de6248b8b894260405161334d9493929190615874565b60405180910390a37f5e2aa66efd74cce82b21852e317e5490d9ecc9e6bb953ae24d90851258cc2f5c836133818a82615629565b6040805192835260208301919091520160405180910390a1505050505050505050565b6101655446146133c65760405162461bcd60e51b8152600401610f139061559b565b60006133d183611aa6565b6001600160a01b038481166000818152610170602052604080822080546001600160a01b031916888616908117909155905194955093928516927f3134e8a2e6d97e929a7e54011ea5485d7d196dd5f0ba4d4ef95803e8e3fc257f9190a46112e6838284614a12565b600080621275008061344c8642615629565b6134569190615721565b613460919061570a565b9050600085116134825760405162461bcd60e51b8152600401610f139061566e565b4281116134a15760405162461bcd60e51b8152600401610f139061568d565b6134af6301dfe20042615629565b8111156134ce5760405162461bcd60e51b8152600401610f13906156d3565b610164600081546134de9061563c565b90915550610164546134f0848261313f565b600081815261016b602090815260409182902082518084019093528054600f0b83526001908101549183019190915261352e91839189918691613177565b95945050505050565b6000808390506000621275008083604001516135539190615721565b61355d919061570a565b905060005b60ff811015613611576135786212750083615629565b915060008583111561358c578592506135a1565b50600082815261016d6020526040902054600f0b5b60408401516135b090846155f9565b84602001516135bf91906157e4565b845185906135ce908390615804565b600f0b9052508583036135e15750613611565b80846020018181516135f39190615831565b600f0b905250506040830182905261360a8161563c565b9050613562565b5060008260000151600f0b121561362757600082525b50516001600160801b03169392505050565b60004382111561364b5761364b6155c3565b60008381526101696020526040812054815b60808110156136ed57818310156136ed576000600261367c8486615629565b613687906001615629565b6136919190615721565b600088815261016a60205260409020909150869082633b9aca0081106136b9576136b9615538565b6003020160020154116136ce578093506136dc565b6136d96001826155f9565b92505b506136e68161563c565b905061365d565b50600085815261016a6020526040812083633b9aca00811061371157613711615538565b60408051608081018252600392909202929092018054600f81810b8452600160801b909104900b6020830152600181015492820192909252600290910154606082015261016c549091506000613767878361399b565b60008181526101626020908152604080832081516080810183528154600f81810b8352600160801b909104900b938101939093526001810154918301919091526002015460608201529192508084841015613848576000610162816137cd876001615629565b8152602080820192909252604090810160002081516080810183528154600f81810b8352600160801b909104900b9381019390935260018101549183019190915260020154606080830182905286015191925061382a91906155f9565b92508360400151816040015161384091906155f9565b91505061386c565b606083015161385790436155f9565b915082604001514261386991906155f9565b90505b604083015182156138a9578284606001518c61388891906155f9565b613892908461570a565b61389c9190615721565b6138a69082615629565b90505b60408701516138b890826155f9565b87602001516138c791906157e4565b875188906138d6908390615804565b600f90810b90915288516000910b12905061390657505093516001600160801b03169650610e7495505050505050565b60009950505050505050505050610e74565b6000808280602001905181019061392f91906158b2565b604080518082018252600f84900b8152602080820184815260008a815261016b8352848120845181546001600160801b0319166001600160801b039091161781559151600190920191909155835180850190945280845290830152929450909250612790868284613b23565b60008082815b6080811015613a185781831015613a1857600060026139c08486615629565b6139cb906001615629565b6139d59190615721565b6000818152610162602052604090206002015490915087106139f957809350613a07565b613a046001826155f9565b92505b50613a118161563c565b90506139a1565b5090949350505050565b816001600160a01b0316836001600160a01b031603613a835760405162461bcd60e51b815260206004820152601960248201527f4552433732313a20617070726f766520746f2063616c6c6572000000000000006044820152606401610f13565b6001600160a01b038381166000818152606a6020908152604080832094871680845294825291829020805460ff191686151590811790915591519182527f17307eab39ab6107e8899845ad3d59bd9653f200f220920489ca2b5937696c31910160405180910390a3505050565b613afb848484612e46565b613b0784848484614de9565b6111425760405162461bcd60e51b8152600401610f13906158e6565b60408051608081018252600080825260208201819052918101829052606081019190915260408051608081018252600080825260208201819052918101829052606081019190915261016c5460009081908715613c9157428760200151118015613b94575060008760000151600f0b135b15613bd9578651613baa906301dfe20090615938565b600f0b602080870191909152870151613bc49042906155f9565b8560200151613bd391906157e4565b600f0b85525b428660200151118015613bf3575060008660000151600f0b135b15613c38578551613c09906301dfe20090615938565b600f0b602080860191909152860151613c239042906155f9565b8460200151613c3291906157e4565b600f0b84525b602080880151600090815261016d8252604090205490870151600f9190910b935015613c91578660200151866020015103613c7557829150613c91565b602080870151600090815261016d9091526040902054600f0b91505b604080516080810182526000808252602082015242918101919091524360608201528115613d0757506000818152610162602090815260409182902082516080810184528154600f81810b8352600160801b909104900b9281019290925260018101549282019290925260029091015460608201525b604081015181600042831015613d54576040840151613d2690426155f9565b6060850151613d3590436155f9565b613d4790670de0b6b3a764000061570a565b613d519190615721565b90505b600062127500613d648186615721565b613d6e919061570a565b905060005b60ff811015613eea57613d896212750083615629565b9150600042831115613d9d57429250613db2565b50600082815261016d6020526040902054600f0b5b613dbc86846155f9565b8760200151613dcb91906157e4565b87518890613dda908390615804565b600f0b905250602087018051829190613df4908390615831565b600f90810b90915288516000910b12159050613e0f57600087525b60008760200151600f0b1215613e2757600060208801525b60408088018490528501519295508592670de0b6b3a764000090613e4b90856155f9565b613e55908661570a565b613e5f9190615721565b8560600151613e6e9190615629565b6060880152613e7e600189615629565b9750428303613e935750436060870152613eea565b600088815261016260209081526040918290208951918a01516001600160801b03908116600160801b029216919091178155908801516001820155606088015160029091015550613ee38161563c565b9050613d73565b505061016c8590558b15613f765788602001518860200151613f0c9190615804565b84602001818151613f1d9190615831565b600f0b90525088518851613f319190615804565b84518590613f40908390615831565b600f90810b90915260208601516000910b12159050613f6157600060208501525b60008460000151600f0b1215613f7657600084525b600085815261016260209081526040918290208651918701516001600160801b03908116600160801b02921691909117815590850151600182015560608501516002909101558b1561413e57428b60200151111561402f576020890151613fdd9088615831565b96508a602001518a6020015103614000576020880151613ffd9088615804565b96505b60208b810151600090815261016d9091526040902080546001600160801b0319166001600160801b0389161790555b428a60200151111561408b578a602001518a60200151111561408b57602088015161405a9087615804565b60208b810151600090815261016d9091526040902080546001600160801b0319166001600160801b03831617905595505b60008c815261016960205260408120546140a6906001615629565b90508061016960008f81526020019081526020016000208190555042896040018181525050438960600181815250508861016a60008f815260200190815260200160002082633b9aca0081106140fe576140fe615538565b825160208401516001600160801b03908116600160801b029116176003919091029190910190815560408201516001820155606090910151600290910155505b505050505050505050505050565b600054610100900460ff1661305a5760405162461bcd60e51b8152600401610f1390615779565b600054610100900460ff1661419a5760405162461bcd60e51b8152600401610f1390615779565b611c6e33612ce2565b600054610100900460ff166141ca5760405162461bcd60e51b8152600401610f1390615779565b60656141d683826159bc565b5060666112e682826159bc565b600054610100900460ff16611c6e5760405162461bcd60e51b8152600401610f1390615779565b609780546001600160a01b038381166001600160a01b0319831681179093556040519116919082907f8be0079c531659141344cd1fd0a4f28419497f9722a3daafe3b4186f6b6457e090600090a35050565b6000600161426984611b74565b61427391906155f9565b600083815261016860205260409020549091508082036142c5576001600160a01b0384166000908152610167602090815260408083208584528252808320839055858352610168909152812055611142565b6001600160a01b0393909316600090815261016760209081526040808320938352928152828220805486845284842081905583526101689091528282209490945592839055908252812055565b816001600160a01b0316836001600160a01b0316141580156143345750600081115b156112e6576001600160a01b038316156144ba576001600160a01b0383166000908152610172602052604081205463ffffffff16908161439a576001600160a01b03851660009081526101716020908152604080832083805290915290206001016143dd565b6001600160a01b038516600090815261017160205260408120906143bf6001856154e2565b63ffffffff1663ffffffff1681526020019081526020016000206001015b905060006143ea86614eea565b6001600160a01b03871660009081526101716020908152604080832063ffffffff8516845290915281209192506001909101905b835481101561447857600084828154811061443b5761443b615538565b90600052602060002001549050868114614465578254600181018455600084815260209020018190555b50806144708161563c565b91505061441e565b50614484846001615a7c565b6001600160a01b038816600090815261017260205260409020805463ffffffff191663ffffffff92909216919091179055505050505b6001600160a01b038216156112e6576001600160a01b0382166000908152610172602052604081205463ffffffff16908161451b576001600160a01b038416600090815261017160209081526040808320838052909152902060010161455e565b6001600160a01b038416600090815261017160205260408120906145406001856154e2565b63ffffffff1663ffffffff1681526020019081526020016000206001015b9050600061456b85614eea565b6001600160a01b03861660009081526101716020908152604080832063ffffffff8516845290915290208354919250600190810191610400916145ae9190615629565b11156145cc5760405162461bcd60e51b8152600401610f1390615a99565b60005b835481101561461e5760008482815481106145ec576145ec615538565b6000918252602080832090910154855460018101875586845291909220015550806146168161563c565b9150506145cf565b50805460018181018355600083815260209020909101869055614642908590615a7c565b6001600160a01b038716600090815261017260205260409020805463ffffffff9290921663ffffffff1990921691909117905550505050505050565b600061468983611b74565b6001600160a01b0390931660009081526101676020908152604080832086845282528083208590559382526101689052919091209190915550565b826001600160a01b03166146d782611af2565b6001600160a01b0316146146fd5760405162461bcd60e51b8152600401610f1390615adc565b6001600160a01b03821661475f5760405162461bcd60e51b8152602060048201526024808201527f4552433732313a207472616e7366657220746f20746865207a65726f206164646044820152637265737360e01b6064820152608401610f13565b826001600160a01b031661477282611af2565b6001600160a01b0316146147985760405162461bcd60e51b8152600401610f1390615adc565b600081815260696020908152604080832080546001600160a01b03199081169091556001600160a01b038781168086526068855283862080546000190190559087168086528386208054600101905586865260679094528285208054909216841790915590518493600080516020615b7283398151915291a4505050565b600061482182611af2565b905061482c82611af2565b600083815260696020908152604080832080546001600160a01b03199081169091556001600160a01b038516808552606884528285208054600019019055878552606790935281842080549091169055519293508492600080516020615b72833981519152908390a45050565b6001600160a01b0382166148ef5760405162461bcd60e51b815260206004820181905260248201527f4552433732313a206d696e7420746f20746865207a65726f20616464726573736044820152606401610f13565b6000818152606760205260409020546001600160a01b0316156149545760405162461bcd60e51b815260206004820152601c60248201527f4552433732313a20746f6b656e20616c7265616479206d696e746564000000006044820152606401610f13565b6000818152606760205260409020546001600160a01b0316156149b95760405162461bcd60e51b815260206004820152601c60248201527f4552433732313a20746f6b656e20616c7265616479206d696e746564000000006044820152606401610f13565b6001600160a01b038216600081815260686020908152604080832080546001019055848352606790915280822080546001600160a01b031916841790555183929190600080516020615b72833981519152908290a45050565b806001600160a01b0316826001600160a01b0316146112e6576001600160a01b03821615614bdc576001600160a01b0382166000908152610172602052604081205463ffffffff169081614a8c576001600160a01b0384166000908152610171602090815260408083208380529091529020600101614acf565b6001600160a01b03841660009081526101716020526040812090614ab16001856154e2565b63ffffffff1663ffffffff1681526020019081526020016000206001015b90506000614adc85614eea565b6001600160a01b03861660009081526101716020908152604080832063ffffffff8516845290915281209192506001909101905b8354811015614b9a576000848281548110614b2d57614b2d615538565b90600052602060002001549050886001600160a01b0316614b63826000908152606760205260409020546001600160a01b031690565b6001600160a01b031614614b87578254600181018455600084815260209020018190555b5080614b928161563c565b915050614b10565b50614ba6846001615a7c565b6001600160a01b038716600090815261017260205260409020805463ffffffff191663ffffffff92909216919091179055505050505b6001600160a01b038116156112e6576001600160a01b0381166000908152610172602052604081205463ffffffff169081614c3d576001600160a01b0383166000908152610171602090815260408083208380529091529020600101614c80565b6001600160a01b03831660009081526101716020526040812090614c626001856154e2565b63ffffffff1663ffffffff1681526020019081526020016000206001015b90506000614c8d84614eea565b6001600160a01b03851660009081526101716020908152604080832063ffffffff851684529091528120919250600190910190614cc988611b74565b845490915061040090614cdd908390615629565b1115614cfb5760405162461bcd60e51b8152600401610f1390615a99565b60005b8454811015614d4d576000858281548110614d1b57614d1b615538565b600091825260208083209091015486546001810188558784529190922001555080614d458161563c565b915050614cfe565b5060005b81811015614da0576001600160a01b0389166000908152610167602090815260408083208484528252822054855460018101875586845291909220015580614d988161563c565b915050614d51565b50614dac856001615a7c565b6001600160a01b038716600090815261017260205260409020805463ffffffff9290921663ffffffff199092169190911790555050505050505050565b60006001600160a01b0384163b15614edf57604051630a85bd0160e11b81526001600160a01b0385169063150b7a0290614e2d903390899088908890600401615b21565b6020604051808303816000875af1925050508015614e68575060408051601f3d908101601f19168201909252614e6591810190615b54565b60015b614ec5573d808015614e96576040519150601f19603f3d011682016040523d82523d6000602084013e614e9b565b606091505b508051600003614ebd5760405162461bcd60e51b8152600401610f13906158e6565b805181602001fd5b6001600160e01b031916630a85bd0160e11b149050611c54565b506001949350505050565b6001600160a01b03811660009081526101726020526040812054429063ffffffff168015801590614f5557506001600160a01b0384166000908152610171602052604081208391614f3c6001856154e2565b63ffffffff168152602081019190915260400160002054145b1561174957611c546001826154e2565b6001600160e01b0319811681146115fa57600080fd5b600060208284031215614f8d57600080fd5b813561174981614f65565b80356001600160a01b0381168114614faf57600080fd5b919050565b600060208284031215614fc657600080fd5b61174982614f98565b6000815180845260005b81811015614ff557602081850181015186830182015201614fd9565b506000602082860101526020601f19601f83011685010191505092915050565b6020815260006117496020830184614fcf565b6000806040838503121561503b57600080fd5b61504483614f98565b946020939093013593505050565b634e487b7160e01b600052604160045260246000fd5b604051601f8201601f1916810167ffffffffffffffff8111828210171561509157615091615052565b604052919050565b600082601f8301126150aa57600080fd5b813567ffffffffffffffff8111156150c4576150c4615052565b6150d7601f8201601f1916602001615068565b8181528460208386010111156150ec57600080fd5b816020850160208301376000918101602001919091529392505050565b60008060006060848603121561511e57600080fd5b833567ffffffffffffffff8082111561513657600080fd5b61514287838801615099565b9450602086013591508082111561515857600080fd5b5061516586828701615099565b92505061517460408501614f98565b90509250925092565b60006020828403121561518f57600080fd5b5035919050565b600080604083850312156151a957600080fd5b50508035926020909101359150565b6000806000606084860312156151cd57600080fd5b6151d684614f98565b92506151e460208501614f98565b9150604084013590509250925092565b6000806040838503121561520757600080fd5b823567ffffffffffffffff8082111561521f57600080fd5b818501915085601f83011261523357600080fd5b813560208282111561524757615247615052565b8160051b9250615258818401615068565b828152928401810192818101908985111561527257600080fd5b948201945b8486101561529057853582529482019490820190615277565b9997909101359750505050505050565b6000806000606084860312156152b557600080fd5b6152be84614f98565b925060208401359150604084013567ffffffffffffffff8111156152e157600080fd5b6152ed86828701615099565b9150509250925092565b80151581146115fa57600080fd5b6000806040838503121561531857600080fd5b61532183614f98565b91506020830135615331816152f7565b809150509250929050565b6000806000806080858703121561535257600080fd5b61535b85614f98565b935061536960208601614f98565b925060408501359150606085013567ffffffffffffffff81111561538c57600080fd5b61539887828801615099565b91505092959194509250565b60008060008060008060c087890312156153bd57600080fd5b6153c687614f98565b95506020870135945060408701359350606087013560ff811681146153ea57600080fd5b9598949750929560808101359460a0909101359350915050565b60008060006060848603121561541957600080fd5b833592506020840135915061517460408501614f98565b6000806040838503121561544357600080fd5b61544c83614f98565b915061545a60208401614f98565b90509250929050565b6000806040838503121561547657600080fd5b61547f83614f98565b9150602083013563ffffffff8116811461533157600080fd5b600181811c908216806154ac57607f821691505b602082108103612fc657634e487b7160e01b600052602260045260246000fd5b634e487b7160e01b600052601160045260246000fd5b63ffffffff828116828216039080821115613138576131386154cc565b634e487b7160e01b600052601260045260246000fd5b600063ffffffff8084168061552c5761552c6154ff565b92169190910492915050565b634e487b7160e01b600052603260045260246000fd5b6020808252602d908201527f4552433732313a2063616c6c6572206973206e6f7420746f6b656e206f776e6560408201526c1c881bdc88185c1c1c9bdd9959609a1b606082015260800190565b6020808252600e908201526d1ddc9bdb99c818da185a5b881a5960921b604082015260600190565b634e487b7160e01b600052600160045260246000fd5b602080825260069082015265085d9bdd195960d21b604082015260600190565b81810381811115610e7457610e746154cc565b60006020828403121561561e57600080fd5b8151611749816152f7565b80820180821115610e7457610e746154cc565b60006001820161564e5761564e6154cc565b5060010190565b828152604060208201526000611c546040830184614fcf565b602080825260059082015264217a65726f60d81b604082015260600190565b60208082526026908201527f43616e206f6e6c79206c6f636b20756e74696c2074696d6520696e207468652060408201526566757475726560d01b606082015260800190565b6020808252601e908201527f566f74696e67206c6f636b2063616e2062652031207965617273206d61780000604082015260600190565b8082028115828204841417610e7457610e746154cc565b600082615730576157306154ff565b500490565b60208082526024908201527f43616e6e6f742061646420746f2065787069726564206c6f636b2e20576974686040820152636472617760e01b606082015260800190565b6020808252602b908201527f496e697469616c697a61626c653a20636f6e7472616374206973206e6f74206960408201526a6e697469616c697a696e6760a81b606082015260800190565b8181036000831280158383131683831282161715613138576131386154cc565b600082600f0b82600f0b0280600f0b9150808214613138576131386154cc565b600f82810b9082900b0360016001607f1b0319811260016001607f1b0382131715610e7457610e746154cc565b600f81810b9083900b0160016001607f1b03811360016001607f1b031982121715610e7457610e746154cc565b634e487b7160e01b600052602160045260246000fd5b8481526020810184905260808101600684106158a057634e487b7160e01b600052602160045260246000fd5b60408201939093526060015292915050565b600080604083850312156158c557600080fd5b825180600f0b81146158d657600080fd5b6020939093015192949293505050565b60208082526032908201527f4552433732313a207472616e7366657220746f206e6f6e20455243373231526560408201527131b2b4bb32b91034b6b83632b6b2b73a32b960711b606082015260800190565b600081600f0b83600f0b8061594f5761594f6154ff565b60016001607f1b031982146000198214161561596d5761596d6154cc565b90059392505050565b601f8211156112e657600081815260208120601f850160051c8101602086101561599d5750805b601f850160051c820191505b81811015612790578281556001016159a9565b815167ffffffffffffffff8111156159d6576159d6615052565b6159ea816159e48454615498565b84615976565b602080601f831160018114615a1f5760008415615a075750858301515b600019600386901b1c1916600185901b178555612790565b600085815260208120601f198616915b82811015615a4e57888601518255948401946001909101908401615a2f565b5085821015615a6c5787850151600019600388901b60f8161c191681555b5050505050600190811b01905550565b63ffffffff818116838216019080821115613138576131386154cc565b60208082526023908201527f64737452657020776f756c64206861766520746f6f206d616e7920746f6b656e60408201526249647360e81b606082015260800190565b60208082526025908201527f4552433732313a207472616e736665722066726f6d20696e636f72726563742060408201526437bbb732b960d91b606082015260800190565b6001600160a01b0385811682528416602082015260408101839052608060608201819052600090611fc490830184614fcf565b600060208284031215615b6657600080fd5b815161174981614f6556feddf252ad1be2c89b69c2b068fc378daa952ba7f163c4a11628f55a4df523b3efa164736f6c6343000813000a",
    "linkReferences": {}
  },
  "methodIdentifiers": {
    "ARBITRUM_ONE()": "2168ca0f",
    "DELEGATION_TYPEHASH()": "e7a324dc",
    "DOMAIN_TYPEHASH()": "20606b70",
    "MAX_DELEGATES()": "5f5b0c32",
    "abstain(uint256)": "c1f0fb9f",
    "acceptOwnership()": "79ba5097",
    "addBridge(address)": "9712fdf8",
    "approve(address,uint256)": "095ea7b3",
    "balanceOf(address)": "70a08231",
    "balanceOfAtNFT(uint256,uint256)": "8c2c9baf",
    "balanceOfNFT(uint256)": "e7e242d4",
    "balanceOfNFTAt(uint256,uint256)": "e0514aba",
    "block_number()": "25a58b56",
    "burn(uint256)": "42966c68",
    "checkpoint()": "c2c4c5c1",
    "checkpoints(address,uint32)": "f1127ed8",
    "create_lock(uint256,uint256)": "65fc3873",
    "create_lock_for(uint256,uint256,address)": "d4e54c3b",
    "delegate(address)": "5c19a95c",
    "delegateBySig(address,uint256,uint256,uint8,bytes32,bytes32)": "c3cda520",
    "delegates(address)": "587cde1e",
    "deposit_for(uint256,uint256)": "ee99fe28",
    "epoch()": "900cf0cf",
    "getApproved(uint256)": "081812fc",
    "getPastTotalSupply(uint256)": "8e539e8c",
    "getPastVotes(address,uint256)": "3a46b1a8",
    "getPastVotesIndex(address,uint256)": "0758c7d8",
    "getVotes(address)": "9ab24eb0",
    "get_last_user_slope(uint256)": "461f711c",
    "increase_amount(uint256,uint256)": "a183af52",
    "increase_unlock_time(uint256,uint256)": "a4d855df",
    "initialize(string,string,address)": "077f224a",
    "isApprovedForAll(address,address)": "e985e9c5",
    "isApprovedOrOwner(address,uint256)": "430c2081",
    "locked(uint256)": "b45a3c0e",
    "locked__end(uint256)": "f8a05763",
    "masterChainId()": "10c3cf06",
    "merge(uint256,uint256)": "d1c2babb",
    "mint(address,uint256,bytes)": "94d008ef",
    "name()": "06fdde03",
    "nonces(address)": "7ecebe00",
    "numCheckpoints(address)": "6fcfff45",
    "owner()": "8da5cb5b",
    "ownerOf(uint256)": "6352211e",
    "ownership_change(uint256)": "6f548837",
    "pendingOwner()": "e30c3978",
    "point_history(uint256)": "d1febfb9",
    "removeBridge(address)": "04df017d",
    "renounceOwnership()": "715018a6",
    "safeTransferFrom(address,address,uint256)": "42842e0e",
    "safeTransferFrom(address,address,uint256,bytes)": "b88d4fde",
    "setApprovalForAll(address,bool)": "a22cb465",
    "setTeam(address)": "095cf5c6",
    "setToken(address)": "144fa6d7",
    "setVoter(address)": "4bc2a657",
    "slope_changes(uint256)": "71197484",
    "split(uint256[],uint256)": "56afe744",
    "supply()": "047fc9aa",
    "supportsInterface(bytes4)": "01ffc9a7",
    "symbol()": "95d89b41",
    "team()": "85f2aef2",
    "token()": "fc0c546a",
    "tokenOfOwnerByIndex(address,uint256)": "2f745c59",
    "tokenURI(uint256)": "c87b56dd",
    "totalSupply()": "18160ddd",
    "totalSupplyAt(uint256)": "981b24d0",
    "totalSupplyAtT(uint256)": "7116c60c",
    "transferFrom(address,address,uint256)": "23b872dd",
    "transferOwnership(address)": "f2fde38b",
    "user_point_epoch(uint256)": "e441135c",
    "user_point_history(uint256,uint256)": "1376f3da",
    "user_point_history__ts(uint256,uint256)": "1c984bc3",
    "version()": "54fd4d50",
    "voted(uint256)": "8fbb38ff",
    "voter()": "46c96aac",
    "voting(uint256)": "fd4a77f1",
    "withdraw(uint256)": "2e1a7d4d"
  }
}